{
  "contractName": "OmniverseProtocol",
  "abi": [
    {
      "inputs": [],
      "name": "cdTime",
      "outputs": [
        {
          "internalType": "uint256",
          "name": "",
          "type": "uint256"
        }
      ],
      "stateMutability": "view",
      "type": "function",
      "constant": true
    },
    {
      "inputs": [],
      "name": "chainId",
      "outputs": [
        {
          "internalType": "string",
          "name": "",
          "type": "string"
        }
      ],
      "stateMutability": "view",
      "type": "function",
      "constant": true
    },
    {
      "inputs": [
        {
          "components": [
            {
              "internalType": "uint256",
              "name": "nonce",
              "type": "uint256"
            },
            {
              "internalType": "string",
              "name": "chainId",
              "type": "string"
            },
            {
              "internalType": "bytes",
              "name": "from",
              "type": "bytes"
            },
            {
              "internalType": "string",
              "name": "to",
              "type": "string"
            },
            {
              "internalType": "bytes",
              "name": "data",
              "type": "bytes"
            },
            {
              "internalType": "bytes",
              "name": "signature",
              "type": "bytes"
            }
          ],
          "internalType": "struct OmniverseTokenProtocol",
          "name": "_data",
          "type": "tuple"
        }
      ],
      "name": "verifyTransaction",
      "outputs": [
        {
          "internalType": "enum VerifyResult",
          "name": "",
          "type": "uint8"
        }
      ],
      "stateMutability": "nonpayable",
      "type": "function"
    },
    {
      "inputs": [
        {
          "internalType": "bytes",
          "name": "_pk",
          "type": "bytes"
        }
      ],
      "name": "getTransactionCount",
      "outputs": [
        {
          "internalType": "uint256",
          "name": "",
          "type": "uint256"
        }
      ],
      "stateMutability": "view",
      "type": "function",
      "constant": true
    },
    {
      "inputs": [
        {
          "internalType": "bytes",
          "name": "_user",
          "type": "bytes"
        },
        {
          "internalType": "uint256",
          "name": "_nonce",
          "type": "uint256"
        }
      ],
      "name": "getTransactionData",
      "outputs": [
        {
          "components": [
            {
              "internalType": "uint256",
              "name": "nonce",
              "type": "uint256"
            },
            {
              "internalType": "string",
              "name": "chainId",
              "type": "string"
            },
            {
              "internalType": "bytes",
              "name": "from",
              "type": "bytes"
            },
            {
              "internalType": "string",
              "name": "to",
              "type": "string"
            },
            {
              "internalType": "bytes",
              "name": "data",
              "type": "bytes"
            },
            {
              "internalType": "bytes",
              "name": "signature",
              "type": "bytes"
            }
          ],
          "internalType": "struct OmniverseTokenProtocol",
          "name": "txData",
          "type": "tuple"
        },
        {
          "internalType": "uint256",
          "name": "timestamp",
          "type": "uint256"
        }
      ],
      "stateMutability": "view",
      "type": "function",
      "constant": true
    },
    {
      "inputs": [],
      "name": "getCoolingDownTime",
      "outputs": [
        {
          "internalType": "uint256",
          "name": "",
          "type": "uint256"
        }
      ],
      "stateMutability": "view",
      "type": "function",
      "constant": true
    },
    {
      "inputs": [
        {
          "internalType": "uint256",
          "name": "_time",
          "type": "uint256"
        }
      ],
      "name": "setCooingDownTime",
      "outputs": [],
      "stateMutability": "nonpayable",
      "type": "function"
    },
    {
      "inputs": [
        {
          "internalType": "bytes",
          "name": "_pk",
          "type": "bytes"
        }
      ],
      "name": "isMalicious",
      "outputs": [
        {
          "internalType": "bool",
          "name": "",
          "type": "bool"
        }
      ],
      "stateMutability": "view",
      "type": "function",
      "constant": true
    }
  ],
  "bytecode": "0x608060405234801561001057600080fd5b5061224d806100206000396000f3fe608060405234801561001057600080fd5b50600436106100885760003560e01c80636f06f7b81161005b5780636f06f7b81461013a5780639a8a059214610158578063b551169e14610176578063df097cac146101a657610088565b806319ea3bed1461008d5780632b506660146100a95780633713bb53146100d957806339aaa28114610109575b600080fd5b6100a760048036038101906100a29190610ec6565b6101c4565b005b6100c360048036038101906100be9190611039565b6101ce565b6040516100d09190611091565b60405180910390f35b6100f360048036038101906100ee9190611039565b6101fc565b60405161010091906110c7565b60405180910390f35b610123600480360381019061011e9190611142565b610232565b604051610131929190611333565b60405180910390f35b61014261058d565b60405161014f9190611091565b60405180910390f35b610160610597565b60405161016d91906113ad565b60405180910390f35b610190600480360381019061018b91906113f3565b610625565b60405161019d91906114b3565b60405180910390f35b6101ae610c7c565b6040516101bb9190611091565b60405180910390f35b8060018190555050565b60006002826040516101e0919061150a565b9081526020016040518091039020600001805490509050919050565b60008060028360405161020f919061150a565b908152602001604051809103902090506000816001018054905011915050919050565b61023a610e46565b6000806002868660405161024f929190611546565b9081526020016040518091039020905060008160000185815481106102775761027661155f565b5b90600052602060002090600702019050806000016040518060c0016040529081600082015481526020016001820180546102b0906115bd565b80601f01602080910402602001604051908101604052809291908181526020018280546102dc906115bd565b80156103295780601f106102fe57610100808354040283529160200191610329565b820191906000526020600020905b81548152906001019060200180831161030c57829003601f168201915b50505050508152602001600282018054610342906115bd565b80601f016020809104026020016040519081016040528092919081815260200182805461036e906115bd565b80156103bb5780601f10610390576101008083540402835291602001916103bb565b820191906000526020600020905b81548152906001019060200180831161039e57829003601f168201915b505050505081526020016003820180546103d4906115bd565b80601f0160208091040260200160405190810160405280929190818152602001828054610400906115bd565b801561044d5780601f106104225761010080835404028352916020019161044d565b820191906000526020600020905b81548152906001019060200180831161043057829003601f168201915b50505050508152602001600482018054610466906115bd565b80601f0160208091040260200160405190810160405280929190818152602001828054610492906115bd565b80156104df5780601f106104b4576101008083540402835291602001916104df565b820191906000526020600020905b8154815290600101906020018083116104c257829003601f168201915b505050505081526020016005820180546104f8906115bd565b80601f0160208091040260200160405190810160405280929190818152602001828054610524906115bd565b80156105715780601f1061054657610100808354040283529160200191610571565b820191906000526020600020905b81548152906001019060200180831161055457829003601f168201915b5050505050815250509350806006015492505050935093915050565b6000600154905090565b600080546105a4906115bd565b80601f01602080910402602001604051908101604052809291908181526020018280546105d0906115bd565b801561061d5780601f106105f25761010080835404028352916020019161061d565b820191906000526020600020905b81548152906001019060200180831161060057829003601f168201915b505050505081565b600080600283806040019061063a91906115fe565b604051610648929190611546565b908152602001604051809103902090506000600284806040019061066c91906115fe565b60405161067a929190611546565b908152602001604051809103902060000180549050905060006106a5856106a090611838565b610c82565b9050600061070582878060a001906106bd91906115fe565b8080601f016020809104026020016040519081016040528093929190818152602001838380828437600081840152601f19601f82011690508083019250505050505050610cd3565b905061076386806040019061071a91906115fe565b8080601f016020809104026020016040519081016040528093929190818152602001838380828437600081840152601f19601f8201169050808301925050505050505082610dbe565b856000013583141561085857600080856000018054905011156107be578460000160018660000180549050610798919061187a565b815481106107a9576107a861155f565b5b90600052602060002090600702016006015490505b600154816107cc91906118ae565b42101561080e576040517f08c379a000000000000000000000000000000000000000000000000000000000815260040161080590611950565b60405180910390fd5b60008560000160018160018154018082558091505003906000526020600020906007020190504281600601819055508781600001818161084e9190611f02565b9050505050610c6e565b8560000135831115610c33576000846000018760000135815481106108805761087f61155f565b5b906000526020600020906007020190506000610b8d826000016040518060c0016040529081600082015481526020016001820180546108be906115bd565b80601f01602080910402602001604051908101604052809291908181526020018280546108ea906115bd565b80156109375780601f1061090c57610100808354040283529160200191610937565b820191906000526020600020905b81548152906001019060200180831161091a57829003601f168201915b50505050508152602001600282018054610950906115bd565b80601f016020809104026020016040519081016040528092919081815260200182805461097c906115bd565b80156109c95780601f1061099e576101008083540402835291602001916109c9565b820191906000526020600020905b8154815290600101906020018083116109ac57829003601f168201915b505050505081526020016003820180546109e2906115bd565b80601f0160208091040260200160405190810160405280929190818152602001828054610a0e906115bd565b8015610a5b5780601f10610a3057610100808354040283529160200191610a5b565b820191906000526020600020905b815481529060010190602001808311610a3e57829003601f168201915b50505050508152602001600482018054610a74906115bd565b80601f0160208091040260200160405190810160405280929190818152602001828054610aa0906115bd565b8015610aed5780601f10610ac257610100808354040283529160200191610aed565b820191906000526020600020905b815481529060010190602001808311610ad057829003601f168201915b50505050508152602001600582018054610b06906115bd565b80601f0160208091040260200160405190810160405280929190818152602001828054610b32906115bd565b8015610b7f5780601f10610b5457610100808354040283529160200191610b7f565b820191906000526020600020905b815481529060010190602001808311610b6257829003601f168201915b505050505081525050610c82565b9050838114610bf857600086600101600181600181540180825580915050039060005260206000209060080201905085816007018190555088816000016000018181610bd99190611f02565b9050504281600001600601819055506001975050505050505050610c77565b6040517f08c379a0000000000000000000000000000000000000000000000000000000008152600401610c2a90611f5c565b60405180910390fd5b6040517f08c379a0000000000000000000000000000000000000000000000000000000008152600401610c6590611fc8565b60405180910390fd5b60009450505050505b919050565b60015481565b60008082600001518360200151846040015185606001518660800151604051602001610cb2959493929190612076565b60405160208183030381529060405290508080519060200120915050919050565b600080600080602085015191506040850151905060418501519250600060018785858560405160008152602001604052604051610d1394939291906120fa565b6020604051602081039080840390855afa158015610d35573d6000803e3d6000fd5b505050602060405103519050600073ffffffffffffffffffffffffffffffffffffffff168173ffffffffffffffffffffffffffffffffffffffff161415610db1576040517f08c379a0000000000000000000000000000000000000000000000000000000008152600401610da89061218b565b60405180910390fd5b8094505050505092915050565b60008280519060200120905060008160001c90508073ffffffffffffffffffffffffffffffffffffffff168373ffffffffffffffffffffffffffffffffffffffff1614610e40576040517f08c379a0000000000000000000000000000000000000000000000000000000008152600401610e37906121f7565b60405180910390fd5b50505050565b6040518060c001604052806000815260200160608152602001606081526020016060815260200160608152602001606081525090565b6000604051905090565b600080fd5b600080fd5b6000819050919050565b610ea381610e90565b8114610eae57600080fd5b50565b600081359050610ec081610e9a565b92915050565b600060208284031215610edc57610edb610e86565b5b6000610eea84828501610eb1565b91505092915050565b600080fd5b600080fd5b6000601f19601f8301169050919050565b7f4e487b7100000000000000000000000000000000000000000000000000000000600052604160045260246000fd5b610f4682610efd565b810181811067ffffffffffffffff82111715610f6557610f64610f0e565b5b80604052505050565b6000610f78610e7c565b9050610f848282610f3d565b919050565b600067ffffffffffffffff821115610fa457610fa3610f0e565b5b610fad82610efd565b9050602081019050919050565b82818337600083830152505050565b6000610fdc610fd784610f89565b610f6e565b905082815260208101848484011115610ff857610ff7610ef8565b5b611003848285610fba565b509392505050565b600082601f8301126110205761101f610ef3565b5b8135611030848260208601610fc9565b91505092915050565b60006020828403121561104f5761104e610e86565b5b600082013567ffffffffffffffff81111561106d5761106c610e8b565b5b6110798482850161100b565b91505092915050565b61108b81610e90565b82525050565b60006020820190506110a66000830184611082565b92915050565b60008115159050919050565b6110c1816110ac565b82525050565b60006020820190506110dc60008301846110b8565b92915050565b600080fd5b600080fd5b60008083601f84011261110257611101610ef3565b5b8235905067ffffffffffffffff81111561111f5761111e6110e2565b5b60208301915083600182028301111561113b5761113a6110e7565b5b9250929050565b60008060006040848603121561115b5761115a610e86565b5b600084013567ffffffffffffffff81111561117957611178610e8b565b5b611185868287016110ec565b9350935050602061119886828701610eb1565b9150509250925092565b6111ab81610e90565b82525050565b600081519050919050565b600082825260208201905092915050565b60005b838110156111eb5780820151818401526020810190506111d0565b838111156111fa576000848401525b50505050565b600061120b826111b1565b61121581856111bc565b93506112258185602086016111cd565b61122e81610efd565b840191505092915050565b600081519050919050565b600082825260208201905092915050565b600061126082611239565b61126a8185611244565b935061127a8185602086016111cd565b61128381610efd565b840191505092915050565b600060c0830160008301516112a660008601826111a2565b50602083015184820360208601526112be8282611200565b915050604083015184820360408601526112d88282611255565b915050606083015184820360608601526112f28282611200565b9150506080830151848203608086015261130c8282611255565b91505060a083015184820360a08601526113268282611255565b9150508091505092915050565b6000604082019050818103600083015261134d818561128e565b905061135c6020830184611082565b9392505050565b600082825260208201905092915050565b600061137f826111b1565b6113898185611363565b93506113998185602086016111cd565b6113a281610efd565b840191505092915050565b600060208201905081810360008301526113c78184611374565b905092915050565b600080fd5b600060c082840312156113ea576113e96113cf565b5b81905092915050565b60006020828403121561140957611408610e86565b5b600082013567ffffffffffffffff81111561142757611426610e8b565b5b611433848285016113d4565b91505092915050565b7f4e487b7100000000000000000000000000000000000000000000000000000000600052602160045260246000fd5b6002811061147c5761147b61143c565b5b50565b600081905061148d8261146b565b919050565b600061149d8261147f565b9050919050565b6114ad81611492565b82525050565b60006020820190506114c860008301846114a4565b92915050565b600081905092915050565b60006114e482611239565b6114ee81856114ce565b93506114fe8185602086016111cd565b80840191505092915050565b600061151682846114d9565b915081905092915050565b600061152d83856114ce565b935061153a838584610fba565b82840190509392505050565b6000611553828486611521565b91508190509392505050565b7f4e487b7100000000000000000000000000000000000000000000000000000000600052603260045260246000fd5b7f4e487b7100000000000000000000000000000000000000000000000000000000600052602260045260246000fd5b600060028204905060018216806115d557607f821691505b602082108114156115e9576115e861158e565b5b50919050565b600080fd5b600080fd5b600080fd5b6000808335600160200384360303811261161b5761161a6115ef565b5b80840192508235915067ffffffffffffffff82111561163d5761163c6115f4565b5b602083019250600182023603831315611659576116586115f9565b5b509250929050565b600080fd5b600080fd5b600067ffffffffffffffff82111561168657611685610f0e565b5b61168f82610efd565b9050602081019050919050565b60006116af6116aa8461166b565b610f6e565b9050828152602081018484840111156116cb576116ca610ef8565b5b6116d6848285610fba565b509392505050565b600082601f8301126116f3576116f2610ef3565b5b813561170384826020860161169c565b91505092915050565b600060c0828403121561172257611721611661565b5b61172c60c0610f6e565b9050600061173c84828501610eb1565b600083015250602082013567ffffffffffffffff8111156117605761175f611666565b5b61176c848285016116de565b602083015250604082013567ffffffffffffffff8111156117905761178f611666565b5b61179c8482850161100b565b604083015250606082013567ffffffffffffffff8111156117c0576117bf611666565b5b6117cc848285016116de565b606083015250608082013567ffffffffffffffff8111156117f0576117ef611666565b5b6117fc8482850161100b565b60808301525060a082013567ffffffffffffffff8111156118205761181f611666565b5b61182c8482850161100b565b60a08301525092915050565b6000611844368361170c565b9050919050565b7f4e487b7100000000000000000000000000000000000000000000000000000000600052601160045260246000fd5b600061188582610e90565b915061189083610e90565b9250828210156118a3576118a261184b565b5b828203905092915050565b60006118b982610e90565b91506118c483610e90565b9250827fffffffffffffffffffffffffffffffffffffffffffffffffffffffffffffffff038211156118f9576118f861184b565b5b828201905092915050565b7f5472616e73616374696f6e20636f6f6c696e6720646f776e0000000000000000600082015250565b600061193a601883611363565b915061194582611904565b602082019050919050565b600060208201905081810360008301526119698161192d565b9050919050565b6000813561197d81610e9a565b80915050919050565b60008160001b9050919050565b60007fffffffffffffffffffffffffffffffffffffffffffffffffffffffffffffffff6119bf84611986565b9350801983169250808416831791505092915050565b6000819050919050565b60006119fa6119f56119f084610e90565b6119d5565b610e90565b9050919050565b6000819050919050565b611a14826119df565b611a27611a2082611a01565b8354611993565b8255505050565b60008083356001602003843603038112611a4b57611a4a6115ef565b5b80840192508235915067ffffffffffffffff821115611a6d57611a6c6115f4565b5b602083019250600182023603831315611a8957611a886115f9565b5b509250929050565b600082905092915050565b60008190508160005260206000209050919050565b60006020601f8301049050919050565b600082821b905092915050565b600060088302611afe7fffffffffffffffffffffffffffffffffffffffffffffffffffffffffffffffff82611ac1565b611b088683611ac1565b95508019841693508086168417925050509392505050565b611b29836119df565b611b3d611b3582611a01565b848454611ace565b825550505050565b600090565b611b52611b45565b611b5d818484611b20565b505050565b5b81811015611b8157611b76600082611b4a565b600181019050611b63565b5050565b601f821115611bc657611b9781611a9c565b611ba084611ab1565b81016020851015611baf578190505b611bc3611bbb85611ab1565b830182611b62565b50505b505050565b600082821c905092915050565b6000611be960001984600802611bcb565b1980831691505092915050565b6000611c028383611bd8565b9150826002028217905092915050565b611c1c8383611a91565b67ffffffffffffffff811115611c3557611c34610f0e565b5b611c3f82546115bd565b611c4a828285611b85565b6000601f831160018114611c795760008415611c67578287013590505b611c718582611bf6565b865550611cd9565b601f198416611c8786611a9c565b60005b82811015611caf57848901358255600182019150602085019450602081019050611c8a565b86831015611ccc5784890135611cc8601f891682611bd8565b8355505b6001600288020188555050505b50505050505050565b611ced838383611c12565b505050565b600082905092915050565b60008190508160005260206000209050919050565b601f821115611d5357611d2481611cfd565b611d2d84611ab1565b81016020851015611d3c578190505b611d50611d4885611ab1565b830182611b62565b50505b505050565b611d628383611cf2565b67ffffffffffffffff811115611d7b57611d7a610f0e565b5b611d8582546115bd565b611d90828285611d12565b6000601f831160018114611dbf5760008415611dad578287013590505b611db78582611bf6565b865550611e1f565b601f198416611dcd86611cfd565b60005b82811015611df557848901358255600182019150602085019450602081019050611dd0565b86831015611e125784890135611e0e601f891682611bd8565b8355505b6001600288020188555050505b50505050505050565b611e33838383611d58565b505050565b600081016000830180611e4a81611970565b9050611e568184611a0b565b5050506001810160208301611e6b8185611a2e565b611e76818386611ce2565b505050506002810160408301611e8c81856115fe565b611e97818386611e28565b505050506003810160608301611ead8185611a2e565b611eb8818386611ce2565b505050506004810160808301611ece81856115fe565b611ed9818386611e28565b505050506005810160a08301611eef81856115fe565b611efa818386611e28565b505050505050565b611f0c8282611e38565b5050565b7f5472616e73616374696f6e206475706c69636174656400000000000000000000600082015250565b6000611f46601683611363565b9150611f5182611f10565b602082019050919050565b60006020820190508181036000830152611f7581611f39565b9050919050565b7f4e6f6e6365206572726f72000000000000000000000000000000000000000000600082015250565b6000611fb2600b83611363565b9150611fbd82611f7c565b602082019050919050565b60006020820190508181036000830152611fe181611fa5565b9050919050565b60006fffffffffffffffffffffffffffffffff82169050919050565b60008160801b9050919050565b600061201c82612004565b9050919050565b61203461202f82611fe8565b612011565b82525050565b600081905092915050565b6000612050826111b1565b61205a818561203a565b935061206a8185602086016111cd565b80840191505092915050565b60006120828288612023565b6010820191506120928287612045565b915061209e82866114d9565b91506120aa8285612045565b91506120b682846114d9565b91508190509695505050505050565b6000819050919050565b6120d8816120c5565b82525050565b600060ff82169050919050565b6120f4816120de565b82525050565b600060808201905061210f60008301876120cf565b61211c60208301866120eb565b61212960408301856120cf565b61213660608301846120cf565b95945050505050565b7f5369676e617475726520766572696679696e67206661696c6564000000000000600082015250565b6000612175601a83611363565b91506121808261213f565b602082019050919050565b600060208201905081810360008301526121a481612168565b9050919050565b7f53656e646572206e6f74207369676e6572000000000000000000000000000000600082015250565b60006121e1601183611363565b91506121ec826121ab565b602082019050919050565b60006020820190508181036000830152612210816121d4565b905091905056fea2646970667358221220a8eb3d5a2caa22c591481e38af2dfd82c47c552dfbe7aa5e673ebb3bceaf4bc764736f6c634300080c0033",
  "immutableReferences": {},
  "source": "// SPDX-License-Identifier: MIT\npragma solidity >=0.8.0 <0.9.0;\n\nimport \"./interfaces/IOmniverseProtocol.sol\";\n\ncontract OmniverseProtocol is IOmniverseProtocol {\n    struct OmniverseTx {\n        OmniverseTokenProtocol txData;\n        uint256 timestamp;\n    }\n\n    struct EvilTxData {\n        OmniverseTx txData;\n        uint256 hisNonce;\n    }\n\n    struct RecordedCertificate {\n        // uint256 nonce;\n        // address evmAddress;\n        OmniverseTx[] txList;\n        EvilTxData[] evilTxList;\n    }\n\n    string public chainId;\n    uint256 public cdTime;\n    mapping(bytes => RecordedCertificate) transactionRecorder;\n\n    /**\n     * @dev See IOmniverseProtocl\n     */\n    function verifyTransaction(OmniverseTokenProtocol calldata _data) external override returns (VerifyResult) {\n        RecordedCertificate storage rc = transactionRecorder[_data.from];\n        uint256 nonce = transactionRecorder[_data.from].txList.length;\n        \n        bytes32 txHash = _getTransactionHash(_data);\n        address recoveredAddress = _recoverAddress(txHash, _data.signature);\n        // Signature verified failed\n        _checkPkMatched(_data.from, recoveredAddress);\n\n        // Check nonce\n        if (nonce == _data.nonce) {\n            uint256 lastestTxTime = 0;\n            if (rc.txList.length > 0) {\n                lastestTxTime = rc.txList[rc.txList.length - 1].timestamp;\n            }\n            require(block.timestamp >= lastestTxTime + cdTime, \"Transaction cooling down\");\n            // Add to transaction recorder\n            OmniverseTx storage omniTx = rc.txList.push();\n            omniTx.timestamp = block.timestamp;\n            omniTx.txData = _data;\n        }\n        else if (nonce > _data.nonce) {\n            // The message has been received, check conflicts\n            OmniverseTx storage hisTx = rc.txList[_data.nonce];\n            bytes32 hisTxHash = _getTransactionHash(hisTx.txData);\n            if (hisTxHash != txHash) {\n                // to be continued, add to evil list, but can not be duplicated\n                EvilTxData storage evilTx = rc.evilTxList.push();\n                evilTx.hisNonce = nonce;\n                evilTx.txData.txData = _data;\n                evilTx.txData.timestamp = block.timestamp;\n                return VerifyResult.Malicious;\n            }\n            else {\n                revert(\"Transaction duplicated\");\n            }\n        }\n        else {\n            revert(\"Nonce error\");\n        }\n        return VerifyResult.Success;\n    }\n\n    /**\n     * @dev See IOmniverseProtocl\n     */\n    function getTransactionCount(bytes memory _pk) external view returns (uint256) {\n        return transactionRecorder[_pk].txList.length;\n    }\n\n    /**\n     * @dev Returns the transaction data of the user with a specified nonce\n     */\n    function getTransactionData(bytes calldata _user, uint256 _nonce) external view override returns (OmniverseTokenProtocol memory txData, uint256 timestamp) {\n        RecordedCertificate storage rc = transactionRecorder[_user];\n        OmniverseTx storage omniTx = rc.txList[_nonce];\n        txData = omniTx.txData;\n        timestamp = omniTx.timestamp;\n    }\n\n    /**\n     *\n     */\n    function getCoolingDownTime() external view returns (uint256) {\n        return cdTime;\n    }\n\n    function setCooingDownTime(uint256 _time) external {\n        cdTime = _time;\n    }\n\n    /**\n     * @dev Get the hash of a tx\n     */\n    function _getTransactionHash(OmniverseTokenProtocol memory _data) internal pure returns (bytes32) {\n        bytes memory rawData = abi.encodePacked(uint128(_data.nonce), _data.chainId, _data.from, _data.to, _data.data);\n        return keccak256(rawData);\n    }\n\n    /**\n     * @dev Recover the address\n     */\n    function _recoverAddress(bytes32 _hash, bytes memory _signature) internal pure returns (address) {\n        uint8 v;\n        bytes32 r;\n        bytes32 s;\n        assembly {\n            r := mload(add(_signature, 32))\n            s := mload(add(_signature, 64))\n            v := mload(add(_signature, 65))\n        }\n        address recovered = ecrecover(_hash, v, r, s);\n        require(recovered != address(0), \"Signature verifying failed\");\n        return recovered;\n    }\n\n    /**\n     * @dev Check if the public key matches the recovered address\n     */\n    function _checkPkMatched(bytes memory _pk, address _address) internal pure {\n        bytes32 hash = keccak256(_pk);\n        address pkAddress = address(uint160(uint256(hash)));\n        require(_address == pkAddress, \"Sender not signer\");\n    }\n\n    /**\n     * @dev See IOmniverseProtocl\n     */\n    function isMalicious(bytes memory _pk) external view returns (bool) {\n        RecordedCertificate storage rc = transactionRecorder[_pk];\n        return (rc.evilTxList.length > 0);\n    }\n}",
  "sourcePath": "/home/george/program/dante/omniverse-evm/contracts/contracts/OmniverseProtocol.sol",
  "compiler": {
    "name": "solc",
    "version": "0.8.12+commit.f00d7308.Emscripten.clang"
  },
  "schemaVersion": "3.4.6",
  "updatedAt": "2022-10-13T07:02:33.082Z",
  "networkType": "ethereum",
  "devdoc": {
    "kind": "dev",
    "methods": {
      "getCoolingDownTime()": {
        "details": "Returns the cooling down time"
      },
      "getTransactionCount(bytes)": {
        "details": "See IOmniverseProtocl"
      },
      "getTransactionData(bytes,uint256)": {
        "details": "Returns the transaction data of the user with a specified nonce"
      },
      "isMalicious(bytes)": {
        "details": "See IOmniverseProtocl"
      },
      "verifyTransaction((uint256,string,bytes,string,bytes,bytes))": {
        "details": "See IOmniverseProtocl"
      }
    },
    "version": 1
  },
  "userdoc": {
    "kind": "user",
    "methods": {},
    "version": 1
  }
}