{
  "contractName": "SkywalkerFungible",
  "abi": [
    {
      "inputs": [
        {
          "internalType": "uint32",
          "name": "_chainId",
          "type": "uint32"
        },
        {
          "internalType": "string",
          "name": "_name",
          "type": "string"
        },
        {
          "internalType": "string",
          "name": "_symbol",
          "type": "string"
        }
      ],
      "stateMutability": "nonpayable",
      "type": "constructor"
    },
    {
      "anonymous": false,
      "inputs": [
        {
          "indexed": true,
          "internalType": "address",
          "name": "owner",
          "type": "address"
        },
        {
          "indexed": true,
          "internalType": "address",
          "name": "spender",
          "type": "address"
        },
        {
          "indexed": false,
          "internalType": "uint256",
          "name": "value",
          "type": "uint256"
        }
      ],
      "name": "Approval",
      "type": "event"
    },
    {
      "anonymous": false,
      "inputs": [
        {
          "indexed": false,
          "internalType": "bytes",
          "name": "from",
          "type": "bytes"
        },
        {
          "indexed": false,
          "internalType": "bytes",
          "name": "to",
          "type": "bytes"
        },
        {
          "indexed": false,
          "internalType": "uint256",
          "name": "value",
          "type": "uint256"
        }
      ],
      "name": "OmniverseTokenTransfer",
      "type": "event"
    },
    {
      "anonymous": false,
      "inputs": [
        {
          "indexed": true,
          "internalType": "address",
          "name": "previousOwner",
          "type": "address"
        },
        {
          "indexed": true,
          "internalType": "address",
          "name": "newOwner",
          "type": "address"
        }
      ],
      "name": "OwnershipTransferred",
      "type": "event"
    },
    {
      "anonymous": false,
      "inputs": [
        {
          "indexed": false,
          "internalType": "bytes",
          "name": "pk",
          "type": "bytes"
        },
        {
          "indexed": false,
          "internalType": "uint256",
          "name": "nonce",
          "type": "uint256"
        }
      ],
      "name": "TransactionExecuted",
      "type": "event"
    },
    {
      "anonymous": false,
      "inputs": [
        {
          "indexed": false,
          "internalType": "bytes",
          "name": "pk",
          "type": "bytes"
        },
        {
          "indexed": false,
          "internalType": "uint256",
          "name": "nonce",
          "type": "uint256"
        }
      ],
      "name": "TransactionSent",
      "type": "event"
    },
    {
      "anonymous": false,
      "inputs": [
        {
          "indexed": true,
          "internalType": "address",
          "name": "from",
          "type": "address"
        },
        {
          "indexed": true,
          "internalType": "address",
          "name": "to",
          "type": "address"
        },
        {
          "indexed": false,
          "internalType": "uint256",
          "name": "value",
          "type": "uint256"
        }
      ],
      "name": "Transfer",
      "type": "event"
    },
    {
      "inputs": [
        {
          "internalType": "address",
          "name": "owner",
          "type": "address"
        },
        {
          "internalType": "address",
          "name": "spender",
          "type": "address"
        }
      ],
      "name": "allowance",
      "outputs": [
        {
          "internalType": "uint256",
          "name": "",
          "type": "uint256"
        }
      ],
      "stateMutability": "view",
      "type": "function",
      "constant": true
    },
    {
      "inputs": [
        {
          "internalType": "address",
          "name": "spender",
          "type": "address"
        },
        {
          "internalType": "uint256",
          "name": "amount",
          "type": "uint256"
        }
      ],
      "name": "approve",
      "outputs": [
        {
          "internalType": "bool",
          "name": "",
          "type": "bool"
        }
      ],
      "stateMutability": "nonpayable",
      "type": "function"
    },
    {
      "inputs": [],
      "name": "cdTime",
      "outputs": [
        {
          "internalType": "uint256",
          "name": "",
          "type": "uint256"
        }
      ],
      "stateMutability": "view",
      "type": "function",
      "constant": true
    },
    {
      "inputs": [
        {
          "internalType": "address",
          "name": "spender",
          "type": "address"
        },
        {
          "internalType": "uint256",
          "name": "subtractedValue",
          "type": "uint256"
        }
      ],
      "name": "decreaseAllowance",
      "outputs": [
        {
          "internalType": "bool",
          "name": "",
          "type": "bool"
        }
      ],
      "stateMutability": "nonpayable",
      "type": "function"
    },
    {
      "inputs": [
        {
          "internalType": "address",
          "name": "spender",
          "type": "address"
        },
        {
          "internalType": "uint256",
          "name": "addedValue",
          "type": "uint256"
        }
      ],
      "name": "increaseAllowance",
      "outputs": [
        {
          "internalType": "bool",
          "name": "",
          "type": "bool"
        }
      ],
      "stateMutability": "nonpayable",
      "type": "function"
    },
    {
      "inputs": [],
      "name": "name",
      "outputs": [
        {
          "internalType": "string",
          "name": "",
          "type": "string"
        }
      ],
      "stateMutability": "view",
      "type": "function",
      "constant": true
    },
    {
      "inputs": [],
      "name": "owner",
      "outputs": [
        {
          "internalType": "address",
          "name": "",
          "type": "address"
        }
      ],
      "stateMutability": "view",
      "type": "function",
      "constant": true
    },
    {
      "inputs": [],
      "name": "renounceOwnership",
      "outputs": [],
      "stateMutability": "nonpayable",
      "type": "function"
    },
    {
      "inputs": [],
      "name": "symbol",
      "outputs": [
        {
          "internalType": "string",
          "name": "",
          "type": "string"
        }
      ],
      "stateMutability": "view",
      "type": "function",
      "constant": true
    },
    {
      "inputs": [],
      "name": "totalSupply",
      "outputs": [
        {
          "internalType": "uint256",
          "name": "",
          "type": "uint256"
        }
      ],
      "stateMutability": "view",
      "type": "function",
      "constant": true
    },
    {
      "inputs": [
        {
          "internalType": "bytes",
          "name": "",
          "type": "bytes"
        }
      ],
      "name": "transactionCache",
      "outputs": [
        {
          "components": [
            {
              "internalType": "uint128",
              "name": "nonce",
              "type": "uint128"
            },
            {
              "internalType": "uint32",
              "name": "chainId",
              "type": "uint32"
            },
            {
              "internalType": "bytes",
              "name": "initiateSC",
              "type": "bytes"
            },
            {
              "internalType": "bytes",
              "name": "from",
              "type": "bytes"
            },
            {
              "internalType": "bytes",
              "name": "payload",
              "type": "bytes"
            },
            {
              "internalType": "bytes",
              "name": "signature",
              "type": "bytes"
            }
          ],
          "internalType": "struct ERC6358TransactionData",
          "name": "txData",
          "type": "tuple"
        },
        {
          "internalType": "uint256",
          "name": "timestamp",
          "type": "uint256"
        }
      ],
      "stateMutability": "view",
      "type": "function",
      "constant": true
    },
    {
      "inputs": [
        {
          "internalType": "address",
          "name": "to",
          "type": "address"
        },
        {
          "internalType": "uint256",
          "name": "amount",
          "type": "uint256"
        }
      ],
      "name": "transfer",
      "outputs": [
        {
          "internalType": "bool",
          "name": "",
          "type": "bool"
        }
      ],
      "stateMutability": "nonpayable",
      "type": "function"
    },
    {
      "inputs": [
        {
          "internalType": "address",
          "name": "from",
          "type": "address"
        },
        {
          "internalType": "address",
          "name": "to",
          "type": "address"
        },
        {
          "internalType": "uint256",
          "name": "amount",
          "type": "uint256"
        }
      ],
      "name": "transferFrom",
      "outputs": [
        {
          "internalType": "bool",
          "name": "",
          "type": "bool"
        }
      ],
      "stateMutability": "nonpayable",
      "type": "function"
    },
    {
      "inputs": [
        {
          "internalType": "address",
          "name": "newOwner",
          "type": "address"
        }
      ],
      "name": "transferOwnership",
      "outputs": [],
      "stateMutability": "nonpayable",
      "type": "function"
    },
    {
      "inputs": [
        {
          "components": [
            {
              "internalType": "uint128",
              "name": "nonce",
              "type": "uint128"
            },
            {
              "internalType": "uint32",
              "name": "chainId",
              "type": "uint32"
            },
            {
              "internalType": "bytes",
              "name": "initiateSC",
              "type": "bytes"
            },
            {
              "internalType": "bytes",
              "name": "from",
              "type": "bytes"
            },
            {
              "internalType": "bytes",
              "name": "payload",
              "type": "bytes"
            },
            {
              "internalType": "bytes",
              "name": "signature",
              "type": "bytes"
            }
          ],
          "internalType": "struct ERC6358TransactionData",
          "name": "_data",
          "type": "tuple"
        }
      ],
      "name": "sendOmniverseTransaction",
      "outputs": [],
      "stateMutability": "nonpayable",
      "type": "function"
    },
    {
      "inputs": [],
      "name": "triggerExecution",
      "outputs": [],
      "stateMutability": "nonpayable",
      "type": "function"
    },
    {
      "inputs": [],
      "name": "getExecutableDelayedTx",
      "outputs": [
        {
          "components": [
            {
              "internalType": "bytes",
              "name": "sender",
              "type": "bytes"
            },
            {
              "internalType": "uint256",
              "name": "nonce",
              "type": "uint256"
            }
          ],
          "internalType": "struct SkywalkerFungible.DelayedTx",
          "name": "ret",
          "type": "tuple"
        }
      ],
      "stateMutability": "view",
      "type": "function",
      "constant": true
    },
    {
      "inputs": [],
      "name": "getDelayedTxCount",
      "outputs": [
        {
          "internalType": "uint256",
          "name": "",
          "type": "uint256"
        }
      ],
      "stateMutability": "view",
      "type": "function",
      "constant": true
    },
    {
      "inputs": [
        {
          "internalType": "bytes",
          "name": "_pk",
          "type": "bytes"
        }
      ],
      "name": "omniverseBalanceOf",
      "outputs": [
        {
          "internalType": "uint256",
          "name": "",
          "type": "uint256"
        }
      ],
      "stateMutability": "view",
      "type": "function",
      "constant": true
    },
    {
      "inputs": [
        {
          "internalType": "address",
          "name": "account",
          "type": "address"
        }
      ],
      "name": "balanceOf",
      "outputs": [
        {
          "internalType": "uint256",
          "name": "",
          "type": "uint256"
        }
      ],
      "stateMutability": "view",
      "type": "function",
      "constant": true
    },
    {
      "inputs": [
        {
          "components": [
            {
              "internalType": "uint32",
              "name": "chainId",
              "type": "uint32"
            },
            {
              "internalType": "bytes",
              "name": "contractAddr",
              "type": "bytes"
            }
          ],
          "internalType": "struct SkywalkerFungible.Member[]",
          "name": "_members",
          "type": "tuple[]"
        }
      ],
      "name": "setMembers",
      "outputs": [],
      "stateMutability": "nonpayable",
      "type": "function"
    },
    {
      "inputs": [],
      "name": "getMembers",
      "outputs": [
        {
          "components": [
            {
              "internalType": "uint32",
              "name": "chainId",
              "type": "uint32"
            },
            {
              "internalType": "bytes",
              "name": "contractAddr",
              "type": "bytes"
            }
          ],
          "internalType": "struct SkywalkerFungible.Member[]",
          "name": "",
          "type": "tuple[]"
        }
      ],
      "stateMutability": "view",
      "type": "function",
      "constant": true
    },
    {
      "inputs": [],
      "name": "decimals",
      "outputs": [
        {
          "internalType": "uint8",
          "name": "",
          "type": "uint8"
        }
      ],
      "stateMutability": "view",
      "type": "function",
      "constant": true
    },
    {
      "inputs": [
        {
          "internalType": "bytes",
          "name": "_pk",
          "type": "bytes"
        }
      ],
      "name": "getTransactionCount",
      "outputs": [
        {
          "internalType": "uint256",
          "name": "",
          "type": "uint256"
        }
      ],
      "stateMutability": "view",
      "type": "function",
      "constant": true
    },
    {
      "inputs": [
        {
          "internalType": "bytes",
          "name": "_user",
          "type": "bytes"
        },
        {
          "internalType": "uint256",
          "name": "_nonce",
          "type": "uint256"
        }
      ],
      "name": "getTransactionData",
      "outputs": [
        {
          "components": [
            {
              "internalType": "uint128",
              "name": "nonce",
              "type": "uint128"
            },
            {
              "internalType": "uint32",
              "name": "chainId",
              "type": "uint32"
            },
            {
              "internalType": "bytes",
              "name": "initiateSC",
              "type": "bytes"
            },
            {
              "internalType": "bytes",
              "name": "from",
              "type": "bytes"
            },
            {
              "internalType": "bytes",
              "name": "payload",
              "type": "bytes"
            },
            {
              "internalType": "bytes",
              "name": "signature",
              "type": "bytes"
            }
          ],
          "internalType": "struct ERC6358TransactionData",
          "name": "txData",
          "type": "tuple"
        },
        {
          "internalType": "uint256",
          "name": "timestamp",
          "type": "uint256"
        }
      ],
      "stateMutability": "view",
      "type": "function",
      "constant": true
    },
    {
      "inputs": [
        {
          "internalType": "uint256",
          "name": "_time",
          "type": "uint256"
        }
      ],
      "name": "setCooingDownTime",
      "outputs": [],
      "stateMutability": "nonpayable",
      "type": "function"
    },
    {
      "inputs": [
        {
          "internalType": "bytes",
          "name": "_pk",
          "type": "bytes"
        }
      ],
      "name": "isMalicious",
      "outputs": [
        {
          "internalType": "bool",
          "name": "",
          "type": "bool"
        }
      ],
      "stateMutability": "view",
      "type": "function",
      "constant": true
    },
    {
      "inputs": [],
      "name": "getChainId",
      "outputs": [
        {
          "internalType": "uint32",
          "name": "",
          "type": "uint32"
        }
      ],
      "stateMutability": "view",
      "type": "function",
      "constant": true
    },
    {
      "inputs": [
        {
          "internalType": "bytes",
          "name": "_payload",
          "type": "bytes"
        }
      ],
      "name": "getPayloadRawData",
      "outputs": [
        {
          "internalType": "bytes",
          "name": "",
          "type": "bytes"
        }
      ],
      "stateMutability": "pure",
      "type": "function",
      "constant": true
    }
  ],
  "bytecode": "0x60806040523480156200001157600080fd5b506040516200564938038062005649833981810160405281019062000037919062000413565b818181600390805190602001906200005192919062000185565b5080600490805190602001906200006a92919062000185565b5050506200008d62000081620000b760201b60201c565b620000bf60201b60201c565b82600560146101000a81548163ffffffff021916908363ffffffff16021790555050505062000512565b600033905090565b6000600560009054906101000a900473ffffffffffffffffffffffffffffffffffffffff16905081600560006101000a81548173ffffffffffffffffffffffffffffffffffffffff021916908373ffffffffffffffffffffffffffffffffffffffff1602179055508173ffffffffffffffffffffffffffffffffffffffff168173ffffffffffffffffffffffffffffffffffffffff167f8be0079c531659141344cd1fd0a4f28419497f9722a3daafe3b4186f6b6457e060405160405180910390a35050565b8280546200019390620004dc565b90600052602060002090601f016020900481019282620001b7576000855562000203565b82601f10620001d257805160ff191683800117855562000203565b8280016001018555821562000203579182015b8281111562000202578251825591602001919060010190620001e5565b5b50905062000212919062000216565b5090565b5b808211156200023157600081600090555060010162000217565b5090565b6000604051905090565b600080fd5b600080fd5b600063ffffffff82169050919050565b620002648162000249565b81146200027057600080fd5b50565b600081519050620002848162000259565b92915050565b600080fd5b600080fd5b6000601f19601f8301169050919050565b7f4e487b7100000000000000000000000000000000000000000000000000000000600052604160045260246000fd5b620002df8262000294565b810181811067ffffffffffffffff82111715620003015762000300620002a5565b5b80604052505050565b60006200031662000235565b9050620003248282620002d4565b919050565b600067ffffffffffffffff821115620003475762000346620002a5565b5b620003528262000294565b9050602081019050919050565b60005b838110156200037f57808201518184015260208101905062000362565b838111156200038f576000848401525b50505050565b6000620003ac620003a68462000329565b6200030a565b905082815260208101848484011115620003cb57620003ca6200028f565b5b620003d88482856200035f565b509392505050565b600082601f830112620003f857620003f76200028a565b5b81516200040a84826020860162000395565b91505092915050565b6000806000606084860312156200042f576200042e6200023f565b5b60006200043f8682870162000273565b935050602084015167ffffffffffffffff81111562000463576200046262000244565b5b6200047186828701620003e0565b925050604084015167ffffffffffffffff81111562000495576200049462000244565b5b620004a386828701620003e0565b9150509250925092565b7f4e487b7100000000000000000000000000000000000000000000000000000000600052602260045260246000fd5b60006002820490506001821680620004f557607f821691505b602082108114156200050c576200050b620004ad565b5b50919050565b61512780620005226000396000f3fe608060405234801561001057600080fd5b50600436106101cf5760003560e01c806339aaa28111610104578063a457c2d7116100a2578063dd62ed3e11610071578063dd62ed3e14610570578063df097cac146105a0578063f2fde38b146105be578063f428051d146105da576101cf565b8063a457c2d7146104c4578063a9059cbb146104f4578063ad9faf3b14610524578063d292423614610554576101cf565b8063715018a6116100de578063715018a6146104605780638da5cb5b1461046a57806395d89b41146104885780639eab5253146104a6576101cf565b806339aaa281146103cf57806352ce58311461040057806370a0823114610430576101cf565b806323b872dd11610171578063313ce5671161014b578063313ce567146103335780633408e470146103515780633713bb531461036f578063395093511461039f576101cf565b806323b872dd146102c95780632ac1c568146102f95780632b50666014610303576101cf565b80630d94bb52116101ad5780630d94bb521461024057806313f108941461025e57806318160ddd1461028f57806319ea3bed146102ad576101cf565b806306fdde03146101d4578063095ea7b3146101f25780630d5f6f9314610222575b600080fd5b6101dc6105f6565b6040516101e99190612f44565b60405180910390f35b61020c6004803603810190610207919061300e565b610688565b6040516102199190613069565b60405180910390f35b61022a6106ab565b6040516102379190613125565b60405180910390f35b6102486107f2565b6040516102559190613156565b60405180910390f35b610278600480360381019061027391906132a6565b6107ff565b6040516102869291906133d7565b60405180910390f35b610297610afb565b6040516102a49190613156565b60405180910390f35b6102c760048036038101906102c29190613407565b610b05565b005b6102e360048036038101906102de9190613434565b610b0f565b6040516102f09190613069565b60405180910390f35b610301610b3e565b005b61031d600480360381019061031891906132a6565b61129e565b60405161032a9190613156565b60405180910390f35b61033b6112cc565b60405161034891906134a3565b60405180910390f35b6103596112d5565b60405161036691906134cd565b60405180910390f35b610389600480360381019061038491906132a6565b6112ef565b6040516103969190613069565b60405180910390f35b6103b960048036038101906103b4919061300e565b611325565b6040516103c69190613069565b60405180910390f35b6103e960048036038101906103e49190613548565b61135c565b6040516103f79291906133d7565b60405180910390f35b61041a600480360381019061041591906135a8565b61168b565b6040516104279190613156565b60405180910390f35b61044a600480360381019061044591906135f5565b6116b6565b6040516104579190613156565b60405180910390f35b610468611742565b005b610472611756565b60405161047f9190613631565b60405180910390f35b610490611780565b60405161049d9190612f44565b60405180910390f35b6104ae611812565b6040516104bb919061374b565b60405180910390f35b6104de60048036038101906104d9919061300e565b611929565b6040516104eb9190613069565b60405180910390f35b61050e6004803603810190610509919061300e565b6119a0565b60405161051b9190613069565b60405180910390f35b61053e600480360381019061053991906132a6565b6119c3565b60405161054b91906137b7565b60405180910390f35b61056e6004803603810190610569919061382f565b611a0a565b005b61058a6004803603810190610585919061387c565b611b75565b6040516105979190613156565b60405180910390f35b6105a8611bfc565b6040516105b59190613156565b60405180910390f35b6105d860048036038101906105d391906135f5565b611c02565b005b6105f460048036038101906105ef91906138e0565b611c86565b005b60606003805461060590613958565b80601f016020809104026020016040519081016040528092919081815260200182805461063190613958565b801561067e5780601f106106535761010080835404028352916020019161067e565b820191906000526020600020905b81548152906001019060200180831161066157829003601f168201915b5050505050905090565b600080610693611c9b565b90506106a0818585611ca3565b600191505092915050565b6106b3612caf565b6000600b8054905011156107ef5760006008600b6000815481106106da576106d961398a565b5b90600052602060002090600202016000016040516106f89190613a58565b90815260200160405180910390209050600654816005015461071a9190613a9e565b42106107ed57600b6000815481106107355761073461398a565b5b906000526020600020906002020160405180604001604052908160008201805461075e90613958565b80601f016020809104026020016040519081016040528092919081815260200182805461078a90613958565b80156107d75780601f106107ac576101008083540402835291602001916107d7565b820191906000526020600020905b8154815290600101906020018083116107ba57829003601f168201915b5050505050815260200160018201548152505091505b505b90565b6000600b80549050905090565b600881805160208101820180518482526020830160208501208183528095505050505050600091509050806000016040518060c00160405290816000820160009054906101000a90046fffffffffffffffffffffffffffffffff166fffffffffffffffffffffffffffffffff166fffffffffffffffffffffffffffffffff1681526020016000820160109054906101000a900463ffffffff1663ffffffff1663ffffffff1681526020016001820180546108b890613958565b80601f01602080910402602001604051908101604052809291908181526020018280546108e490613958565b80156109315780601f1061090657610100808354040283529160200191610931565b820191906000526020600020905b81548152906001019060200180831161091457829003601f168201915b5050505050815260200160028201805461094a90613958565b80601f016020809104026020016040519081016040528092919081815260200182805461097690613958565b80156109c35780601f10610998576101008083540402835291602001916109c3565b820191906000526020600020905b8154815290600101906020018083116109a657829003601f168201915b505050505081526020016003820180546109dc90613958565b80601f0160208091040260200160405190810160405280929190818152602001828054610a0890613958565b8015610a555780601f10610a2a57610100808354040283529160200191610a55565b820191906000526020600020905b815481529060010190602001808311610a3857829003601f168201915b50505050508152602001600482018054610a6e90613958565b80601f0160208091040260200160405190810160405280929190818152602001828054610a9a90613958565b8015610ae75780601f10610abc57610100808354040283529160200191610ae7565b820191906000526020600020905b815481529060010190602001808311610aca57829003601f168201915b505050505081525050908060050154905082565b6000600254905090565b8060068190555050565b600080610b1a611c9b565b9050610b27858285611e6e565b610b32858585611efa565b60019150509392505050565b6000600b8054905011610b86576040517f08c379a0000000000000000000000000000000000000000000000000000000008152600401610b7d90613b40565b60405180910390fd5b60006008600b600081548110610b9f57610b9e61398a565b5b9060005260206000209060020201600001604051610bbd9190613a58565b90815260200160405180910390209050600081600501541415610c15576040517f08c379a0000000000000000000000000000000000000000000000000000000008152600401610c0c90613bac565b60405180910390fd5b600b600081548110610c2a57610c2961398a565b5b9060005260206000209060020201600101548160000160000160009054906101000a90046fffffffffffffffffffffffffffffffff166fffffffffffffffffffffffffffffffff1614610cb2576040517f08c379a0000000000000000000000000000000000000000000000000000000008152600401610ca990613c18565b60405180910390fd5b6000808260000183600501549150915060065481610cd09190613a9e565b421015610d12576040517f08c379a0000000000000000000000000000000000000000000000000000000008152600401610d0990613c84565b60405180910390fd5b600b6001600b80549050610d269190613ca4565b81548110610d3757610d3661398a565b5b9060005260206000209060020201600b600081548110610d5a57610d5961398a565b5b90600052602060002090600202016000820181600001908054610d7c90613958565b610d87929190612cc9565b5060018201548160010155905050600b805480610da757610da6613cd8565b5b600190038181906000526020600020906002020160008082016000610dcc9190612d56565b600182016000905550509055600083600501819055506000600783600201604051610df79190613a58565b908152602001604051809103902090508060000184908060018154018082558091505060019003906000526020600020906006020160009091909190915060008201816000016000820160009054906101000a90046fffffffffffffffffffffffffffffffff168160000160006101000a8154816fffffffffffffffffffffffffffffffff02191690836fffffffffffffffffffffffffffffffff1602179055506000820160109054906101000a900463ffffffff168160000160106101000a81548163ffffffff021916908363ffffffff1602179055506001820181600101908054610ee390613958565b610eee929190612cc9565b506002820181600201908054610f0390613958565b610f0e929190612cc9565b506003820181600301908054610f2390613958565b610f2e929190612cc9565b506004820181600401908054610f4390613958565b610f4e929190612cc9565b5050506005820154816005015550506000610ff4846003018054610f7190613958565b80601f0160208091040260200160405190810160405280929190818152602001828054610f9d90613958565b8015610fea5780601f10610fbf57610100808354040283529160200191610fea565b820191906000526020600020905b815481529060010190602001808311610fcd57829003601f168201915b505050505061217b565b9050600060ff16816000015160ff1614156110ad576110a884600201805461101b90613958565b80601f016020809104026020016040519081016040528092919081815260200182805461104790613958565b80156110945780601f1061106957610100808354040283529160200191611094565b820191906000526020600020905b81548152906001019060200180831161107757829003601f168201915b5050505050826020015183604001516121ca565b61123b565b600160ff16816000015160ff16141561116c576111558460020180546110d290613958565b80601f01602080910402602001604051908101604052809291908181526020018280546110fe90613958565b801561114b5780601f106111205761010080835404028352916020019161114b565b820191906000526020600020905b81548152906001019060200180831161112e57829003601f168201915b50505050506122f4565b6111678160200151826040015161237a565b61123a565b600260ff16816000015160ff1614156112395761121484600201805461119190613958565b80601f01602080910402602001604051908101604052809291908181526020018280546111bd90613958565b801561120a5780601f106111df5761010080835404028352916020019161120a565b820191906000526020600020905b8154815290600101906020018083116111ed57829003601f168201915b50505050506122f4565b6112268160200151826040015161244e565b611238816020015182604001516124b9565b5b5b5b7f9350b8dd01770a6760c5aa0d6eadd2fec9cb07c4165e778c532f0e261b55ce3d846002018560000160009054906101000a90046fffffffffffffffffffffffffffffffff1660405161128f929190613dc2565b60405180910390a15050505050565b60006007826040516112b09190613e23565b9081526020016040518091039020600001805490509050919050565b6000600c905090565b6000600560149054906101000a900463ffffffff16905090565b6000806007836040516113029190613e23565b908152602001604051809103902090506000816001018054905011915050919050565b600080611330611c9b565b90506113518185856113428589611b75565b61134c9190613a9e565b611ca3565b600191505092915050565b611364612d96565b60008060078686604051611379929190613e5f565b9081526020016040518091039020905060008160000185815481106113a1576113a061398a565b5b90600052602060002090600602019050806000016040518060c00160405290816000820160009054906101000a90046fffffffffffffffffffffffffffffffff166fffffffffffffffffffffffffffffffff166fffffffffffffffffffffffffffffffff1681526020016000820160109054906101000a900463ffffffff1663ffffffff1663ffffffff16815260200160018201805461144090613958565b80601f016020809104026020016040519081016040528092919081815260200182805461146c90613958565b80156114b95780601f1061148e576101008083540402835291602001916114b9565b820191906000526020600020905b81548152906001019060200180831161149c57829003601f168201915b505050505081526020016002820180546114d290613958565b80601f01602080910402602001604051908101604052809291908181526020018280546114fe90613958565b801561154b5780601f106115205761010080835404028352916020019161154b565b820191906000526020600020905b81548152906001019060200180831161152e57829003601f168201915b5050505050815260200160038201805461156490613958565b80601f016020809104026020016040519081016040528092919081815260200182805461159090613958565b80156115dd5780601f106115b2576101008083540402835291602001916115dd565b820191906000526020600020905b8154815290600101906020018083116115c057829003601f168201915b505050505081526020016004820180546115f690613958565b80601f016020809104026020016040519081016040528092919081815260200182805461162290613958565b801561166f5780601f106116445761010080835404028352916020019161166f565b820191906000526020600020905b81548152906001019060200180831161165257829003601f168201915b5050505050815250509350806005015492505050935093915050565b6000600a838360405161169f929190613e5f565b908152602001604051809103902054905092915050565b600080600c60008473ffffffffffffffffffffffffffffffffffffffff1673ffffffffffffffffffffffffffffffffffffffff1681526020019081526020016000209050600081805461170890613958565b9050141561171a57600091505061173d565b600a8160405161172a9190613f0c565b9081526020016040518091039020549150505b919050565b61174a61252b565b61175460006125a9565b565b6000600560009054906101000a900473ffffffffffffffffffffffffffffffffffffffff16905090565b60606004805461178f90613958565b80601f01602080910402602001604051908101604052809291908181526020018280546117bb90613958565b80156118085780601f106117dd57610100808354040283529160200191611808565b820191906000526020600020905b8154815290600101906020018083116117eb57829003601f168201915b5050505050905090565b60606009805480602002602001604051908101604052809291908181526020016000905b8282101561192057838290600052602060002090600202016040518060400160405290816000820160009054906101000a900463ffffffff1663ffffffff1663ffffffff16815260200160018201805461188f90613958565b80601f01602080910402602001604051908101604052809291908181526020018280546118bb90613958565b80156119085780601f106118dd57610100808354040283529160200191611908565b820191906000526020600020905b8154815290600101906020018083116118eb57829003601f168201915b50505050508152505081526020019060010190611836565b50505050905090565b600080611934611c9b565b905060006119428286611b75565b905083811015611987576040517f08c379a000000000000000000000000000000000000000000000000000000000815260040161197e90613f95565b60405180910390fd5b6119948286868403611ca3565b60019250505092915050565b6000806119ab611c9b565b90506119b8818585611efa565b600191505092915050565b606060006119d08361217b565b90508060000151816020015182604001516040516020016119f393929190614021565b604051602081830303815290604052915050919050565b611a1261252b565b60005b82829050811015611afa57600980549050811015611a8857828282818110611a4057611a3f61398a565b5b9050602002810190611a529190614069565b60098281548110611a6657611a6561398a565b5b90600052602060002090600202018181611a809190614461565b905050611ae7565b6009838383818110611a9d57611a9c61398a565b5b9050602002810190611aaf9190614069565b90806001815401808255809150506001900390600052602060002090600202016000909190919091508181611ae49190614461565b50505b8080611af29061446f565b915050611a15565b5060008282905090505b600980549050811015611b705760098181548110611b2557611b2461398a565b5b9060005260206000209060020201600080820160006101000a81549063ffffffff0219169055600182016000611b5b9190612d56565b50508080611b689061446f565b915050611b04565b505050565b6000600160008473ffffffffffffffffffffffffffffffffffffffff1673ffffffffffffffffffffffffffffffffffffffff16815260200190815260200160002060008373ffffffffffffffffffffffffffffffffffffffff1673ffffffffffffffffffffffffffffffffffffffff16815260200190815260200160002054905092915050565b60065481565b611c0a61252b565b600073ffffffffffffffffffffffffffffffffffffffff168173ffffffffffffffffffffffffffffffffffffffff161415611c7a576040517f08c379a0000000000000000000000000000000000000000000000000000000008152600401611c719061452a565b60405180910390fd5b611c83816125a9565b50565b611c9881611c93906146a5565b61266f565b50565b600033905090565b600073ffffffffffffffffffffffffffffffffffffffff168373ffffffffffffffffffffffffffffffffffffffff161415611d13576040517f08c379a0000000000000000000000000000000000000000000000000000000008152600401611d0a9061472a565b60405180910390fd5b600073ffffffffffffffffffffffffffffffffffffffff168273ffffffffffffffffffffffffffffffffffffffff161415611d83576040517f08c379a0000000000000000000000000000000000000000000000000000000008152600401611d7a906147bc565b60405180910390fd5b80600160008573ffffffffffffffffffffffffffffffffffffffff1673ffffffffffffffffffffffffffffffffffffffff16815260200190815260200160002060008473ffffffffffffffffffffffffffffffffffffffff1673ffffffffffffffffffffffffffffffffffffffff168152602001908152602001600020819055508173ffffffffffffffffffffffffffffffffffffffff168373ffffffffffffffffffffffffffffffffffffffff167f8c5be1e5ebec7d5bd14f71427d1e84f3dd0314c0f7b2291e5b200ac8c7c3b92583604051611e619190613156565b60405180910390a3505050565b6000611e7a8484611b75565b90507fffffffffffffffffffffffffffffffffffffffffffffffffffffffffffffffff8114611ef45781811015611ee6576040517f08c379a0000000000000000000000000000000000000000000000000000000008152600401611edd90614828565b60405180910390fd5b611ef38484848403611ca3565b5b50505050565b600073ffffffffffffffffffffffffffffffffffffffff168373ffffffffffffffffffffffffffffffffffffffff161415611f6a576040517f08c379a0000000000000000000000000000000000000000000000000000000008152600401611f61906148ba565b60405180910390fd5b600073ffffffffffffffffffffffffffffffffffffffff168273ffffffffffffffffffffffffffffffffffffffff161415611fda576040517f08c379a0000000000000000000000000000000000000000000000000000000008152600401611fd19061494c565b60405180910390fd5b611fe5838383612b49565b60008060008573ffffffffffffffffffffffffffffffffffffffff1673ffffffffffffffffffffffffffffffffffffffff1681526020019081526020016000205490508181101561206b576040517f08c379a0000000000000000000000000000000000000000000000000000000008152600401612062906149de565b60405180910390fd5b8181036000808673ffffffffffffffffffffffffffffffffffffffff1673ffffffffffffffffffffffffffffffffffffffff16815260200190815260200160002081905550816000808573ffffffffffffffffffffffffffffffffffffffff1673ffffffffffffffffffffffffffffffffffffffff16815260200190815260200160002060008282546120fe9190613a9e565b925050819055508273ffffffffffffffffffffffffffffffffffffffff168473ffffffffffffffffffffffffffffffffffffffff167fddf252ad1be2c89b69c2b068fc378daa952ba7f163c4a11628f55a4df523b3ef846040516121629190613156565b60405180910390a3612175848484612b4e565b50505050565b612183612de4565b60008060008480602001905181019061219c9190614aaf565b92509250925060405180606001604052808460ff168152602001838152602001828152509350505050919050565b6121d48382612b53565b6000600a846040516121e69190613e23565b9081526020016040518091039020549050818103600a8560405161220a9190613e23565b90815260200160405180910390208190555081600a8460405161222d9190613e23565b9081526020016040518091039020600082825461224a9190613a9e565b925050819055507f1d8380031597508b7d5d3df4999b8136789b62ed932115f9eb5897e19903792e84848460405161228493929190614b1e565b60405180910390a1600061229784612bbe565b905083600c60008373ffffffffffffffffffffffffffffffffffffffff1673ffffffffffffffffffffffffffffffffffffffff16815260200190815260200160002090805190602001906122ec929190612e08565b505050505050565b60006122ff82612bbe565b9050612309611756565b73ffffffffffffffffffffffffffffffffffffffff168173ffffffffffffffffffffffffffffffffffffffff1614612376576040517f08c379a000000000000000000000000000000000000000000000000000000000815260040161236d90614baf565b60405180910390fd5b5050565b80600a8360405161238b9190613e23565b908152602001604051809103902060008282546123a89190613a9e565b925050819055507f1d8380031597508b7d5d3df4999b8136789b62ed932115f9eb5897e19903792e82826040516123e0929190614bf5565b60405180910390a160006123f383612bbe565b905082600c60008373ffffffffffffffffffffffffffffffffffffffff1673ffffffffffffffffffffffffffffffffffffffff1681526020019081526020016000209080519060200190612448929190612e08565b50505050565b6000600a836040516124609190613e23565b9081526020016040518091039020549050818110156124b4576040517f08c379a00000000000000000000000000000000000000000000000000000000081526004016124ab90614c84565b60405180910390fd5b505050565b80600a836040516124ca9190613e23565b908152602001604051809103902060008282546124e79190613ca4565b925050819055507f1d8380031597508b7d5d3df4999b8136789b62ed932115f9eb5897e19903792e828260405161251f929190614ca4565b60405180910390a15050565b612533611c9b565b73ffffffffffffffffffffffffffffffffffffffff16612551611756565b73ffffffffffffffffffffffffffffffffffffffff16146125a7576040517f08c379a000000000000000000000000000000000000000000000000000000000815260040161259e90614d33565b60405180910390fd5b565b6000600560009054906101000a900473ffffffffffffffffffffffffffffffffffffffff16905081600560006101000a81548173ffffffffffffffffffffffffffffffffffffffff021916908373ffffffffffffffffffffffffffffffffffffffff1602179055508173ffffffffffffffffffffffffffffffffffffffff168173ffffffffffffffffffffffffffffffffffffffff167f8be0079c531659141344cd1fd0a4f28419497f9722a3daafe3b4186f6b6457e060405160405180910390a35050565b6000805b60098054905081101561276b57826020015163ffffffff166009828154811061269f5761269e61398a565b5b906000526020600020906002020160000160009054906101000a900463ffffffff1663ffffffff16141561275857826040015180519060200120600982815481106126ed576126ec61398a565b5b906000526020600020906002020160010160405161270b9190613a58565b604051809103902014612753576040517f08c379a000000000000000000000000000000000000000000000000000000000815260040161274a90614d9f565b60405180910390fd5b600191505b80806127639061446f565b915050612673565b50806127ac576040517f08c379a00000000000000000000000000000000000000000000000000000000081526004016127a390614d9f565b60405180910390fd5b6127b982606001516112ef565b156127f9576040517f08c379a00000000000000000000000000000000000000000000000000000000081526004016127f090614e0b565b60405180910390fd5b600073__OmniverseProtocolHelper_______________634e1e4d29600785606001516040516128299190613e23565b9081526020016040518091039020856040518363ffffffff1660e01b8152600401612855929190614f38565b602060405180830381865af4158015612872573d6000803e3d6000fd5b505050506040513d601f19601f820116820180604052508101906128969190614f8d565b9050600060018111156128ac576128ab614fba565b5b8160018111156128bf576128be614fba565b5b1415612b1b576000600884606001516040516128db9190613e23565b908152602001604051809103902090506000816005015414612932576040517f08c379a000000000000000000000000000000000000000000000000000000000815260040161292990615035565b60405180910390fd5b61293b84612bd7565b838160000160008201518160000160006101000a8154816fffffffffffffffffffffffffffffffff02191690836fffffffffffffffffffffffffffffffff16021790555060208201518160000160106101000a81548163ffffffff021916908363ffffffff16021790555060408201518160010190805190602001906129c2929190612e08565b5060608201518160020190805190602001906129df929190612e08565b5060808201518160030190805190602001906129fc929190612e08565b5060a0820151816004019080519060200190612a19929190612e08565b50905050428160050181905550600b60405180604001604052808660600151815260200186600001516fffffffffffffffffffffffffffffffff1681525090806001815401808255809150506001900390600052602060002090600202016000909190919091506000820151816000019080519060200190612a9c929190612e08565b50602082015181600101555050600560149054906101000a900463ffffffff1663ffffffff16846020015163ffffffff161415612b15577f101abacb8de0d05456bbaf85756276fd0c5225e9ede84f539855df28aba51a7e84606001518560000151604051612b0c929190615055565b60405180910390a15b50612b44565b600180811115612b2e57612b2d614fba565b5b816001811115612b4157612b40614fba565b5b50505b505050565b505050565b505050565b6000600a83604051612b659190613e23565b908152602001604051809103902054905081811015612bb9576040517f08c379a0000000000000000000000000000000000000000000000000000000008152600401612bb090614c84565b60405180910390fd5b505050565b600080828051906020012090508060001c915050919050565b6000612be6826080015161217b565b9050600060ff16816000015160ff161415612c1257612c0d82606001518260400151612b53565b612cab565b600160ff16816000015160ff161415612c3757612c3282606001516122f4565b612caa565b600260ff16816000015160ff161415612c6e57612c5782606001516122f4565b612c698160200151826040015161244e565b612ca9565b6040517f08c379a0000000000000000000000000000000000000000000000000000000008152600401612ca0906150d1565b60405180910390fd5b5b5b5050565b604051806040016040528060608152602001600081525090565b828054612cd590613958565b90600052602060002090601f016020900481019282612cf75760008555612d45565b82601f10612d085780548555612d45565b82800160010185558215612d4557600052602060002091601f016020900482015b82811115612d44578254825591600101919060010190612d29565b5b509050612d529190612e8e565b5090565b508054612d6290613958565b6000825580601f10612d745750612d93565b601f016020900490600052602060002090810190612d929190612e8e565b5b50565b6040518060c0016040528060006fffffffffffffffffffffffffffffffff168152602001600063ffffffff168152602001606081526020016060815260200160608152602001606081525090565b6040518060600160405280600060ff16815260200160608152602001600081525090565b828054612e1490613958565b90600052602060002090601f016020900481019282612e365760008555612e7d565b82601f10612e4f57805160ff1916838001178555612e7d565b82800160010185558215612e7d579182015b82811115612e7c578251825591602001919060010190612e61565b5b509050612e8a9190612e8e565b5090565b5b80821115612ea7576000816000905550600101612e8f565b5090565b600081519050919050565b600082825260208201905092915050565b60005b83811015612ee5578082015181840152602081019050612eca565b83811115612ef4576000848401525b50505050565b6000601f19601f8301169050919050565b6000612f1682612eab565b612f208185612eb6565b9350612f30818560208601612ec7565b612f3981612efa565b840191505092915050565b60006020820190508181036000830152612f5e8184612f0b565b905092915050565b6000604051905090565b600080fd5b600080fd5b600073ffffffffffffffffffffffffffffffffffffffff82169050919050565b6000612fa582612f7a565b9050919050565b612fb581612f9a565b8114612fc057600080fd5b50565b600081359050612fd281612fac565b92915050565b6000819050919050565b612feb81612fd8565b8114612ff657600080fd5b50565b60008135905061300881612fe2565b92915050565b6000806040838503121561302557613024612f70565b5b600061303385828601612fc3565b925050602061304485828601612ff9565b9150509250929050565b60008115159050919050565b6130638161304e565b82525050565b600060208201905061307e600083018461305a565b92915050565b600081519050919050565b600082825260208201905092915050565b60006130ab82613084565b6130b5818561308f565b93506130c5818560208601612ec7565b6130ce81612efa565b840191505092915050565b6130e281612fd8565b82525050565b6000604083016000830151848203600086015261310582826130a0565b915050602083015161311a60208601826130d9565b508091505092915050565b6000602082019050818103600083015261313f81846130e8565b905092915050565b61315081612fd8565b82525050565b600060208201905061316b6000830184613147565b92915050565b600080fd5b600080fd5b7f4e487b7100000000000000000000000000000000000000000000000000000000600052604160045260246000fd5b6131b382612efa565b810181811067ffffffffffffffff821117156131d2576131d161317b565b5b80604052505050565b60006131e5612f66565b90506131f182826131aa565b919050565b600067ffffffffffffffff8211156132115761321061317b565b5b61321a82612efa565b9050602081019050919050565b82818337600083830152505050565b6000613249613244846131f6565b6131db565b90508281526020810184848401111561326557613264613176565b5b613270848285613227565b509392505050565b600082601f83011261328d5761328c613171565b5b813561329d848260208601613236565b91505092915050565b6000602082840312156132bc576132bb612f70565b5b600082013567ffffffffffffffff8111156132da576132d9612f75565b5b6132e684828501613278565b91505092915050565b60006fffffffffffffffffffffffffffffffff82169050919050565b613314816132ef565b82525050565b600063ffffffff82169050919050565b6133338161331a565b82525050565b600060c083016000830151613351600086018261330b565b506020830151613364602086018261332a565b506040830151848203604086015261337c82826130a0565b9150506060830151848203606086015261339682826130a0565b915050608083015184820360808601526133b082826130a0565b91505060a083015184820360a08601526133ca82826130a0565b9150508091505092915050565b600060408201905081810360008301526133f18185613339565b90506134006020830184613147565b9392505050565b60006020828403121561341d5761341c612f70565b5b600061342b84828501612ff9565b91505092915050565b60008060006060848603121561344d5761344c612f70565b5b600061345b86828701612fc3565b935050602061346c86828701612fc3565b925050604061347d86828701612ff9565b9150509250925092565b600060ff82169050919050565b61349d81613487565b82525050565b60006020820190506134b86000830184613494565b92915050565b6134c78161331a565b82525050565b60006020820190506134e260008301846134be565b92915050565b600080fd5b600080fd5b60008083601f84011261350857613507613171565b5b8235905067ffffffffffffffff811115613525576135246134e8565b5b602083019150836001820283011115613541576135406134ed565b5b9250929050565b60008060006040848603121561356157613560612f70565b5b600084013567ffffffffffffffff81111561357f5761357e612f75565b5b61358b868287016134f2565b9350935050602061359e86828701612ff9565b9150509250925092565b600080602083850312156135bf576135be612f70565b5b600083013567ffffffffffffffff8111156135dd576135dc612f75565b5b6135e9858286016134f2565b92509250509250929050565b60006020828403121561360b5761360a612f70565b5b600061361984828501612fc3565b91505092915050565b61362b81612f9a565b82525050565b60006020820190506136466000830184613622565b92915050565b600081519050919050565b600082825260208201905092915050565b6000819050602082019050919050565b6000604083016000830151613690600086018261332a565b50602083015184820360208601526136a882826130a0565b9150508091505092915050565b60006136c18383613678565b905092915050565b6000602082019050919050565b60006136e18261364c565b6136eb8185613657565b9350836020820285016136fd85613668565b8060005b85811015613739578484038952815161371a85826136b5565b9450613725836136c9565b925060208a01995050600181019050613701565b50829750879550505050505092915050565b6000602082019050818103600083015261376581846136d6565b905092915050565b600082825260208201905092915050565b600061378982613084565b613793818561376d565b93506137a3818560208601612ec7565b6137ac81612efa565b840191505092915050565b600060208201905081810360008301526137d1818461377e565b905092915050565b60008083601f8401126137ef576137ee613171565b5b8235905067ffffffffffffffff81111561380c5761380b6134e8565b5b602083019150836020820283011115613828576138276134ed565b5b9250929050565b6000806020838503121561384657613845612f70565b5b600083013567ffffffffffffffff81111561386457613863612f75565b5b613870858286016137d9565b92509250509250929050565b6000806040838503121561389357613892612f70565b5b60006138a185828601612fc3565b92505060206138b285828601612fc3565b9150509250929050565b600080fd5b600060c082840312156138d7576138d66138bc565b5b81905092915050565b6000602082840312156138f6576138f5612f70565b5b600082013567ffffffffffffffff81111561391457613913612f75565b5b613920848285016138c1565b91505092915050565b7f4e487b7100000000000000000000000000000000000000000000000000000000600052602260045260246000fd5b6000600282049050600182168061397057607f821691505b6020821081141561398457613983613929565b5b50919050565b7f4e487b7100000000000000000000000000000000000000000000000000000000600052603260045260246000fd5b600081905092915050565b60008190508160005260206000209050919050565b600081546139e681613958565b6139f081866139b9565b94506001821660008114613a0b5760018114613a1c57613a4f565b60ff19831686528186019350613a4f565b613a25856139c4565b60005b83811015613a4757815481890152600182019150602081019050613a28565b838801955050505b50505092915050565b6000613a6482846139d9565b915081905092915050565b7f4e487b7100000000000000000000000000000000000000000000000000000000600052601160045260246000fd5b6000613aa982612fd8565b9150613ab483612fd8565b9250827fffffffffffffffffffffffffffffffffffffffffffffffffffffffffffffffff03821115613ae957613ae8613a6f565b5b828201905092915050565b7f4e6f2064656c6179656420747800000000000000000000000000000000000000600082015250565b6000613b2a600d83612eb6565b9150613b3582613af4565b602082019050919050565b60006020820190508181036000830152613b5981613b1d565b9050919050565b7f4e6f742063616368656400000000000000000000000000000000000000000000600082015250565b6000613b96600a83612eb6565b9150613ba182613b60565b602082019050919050565b60006020820190508181036000830152613bc581613b89565b9050919050565b7f4e6f6e6365206572726f72000000000000000000000000000000000000000000600082015250565b6000613c02600b83612eb6565b9150613c0d82613bcc565b602082019050919050565b60006020820190508181036000830152613c3181613bf5565b9050919050565b7f4e6f742065786563757461626c65000000000000000000000000000000000000600082015250565b6000613c6e600e83612eb6565b9150613c7982613c38565b602082019050919050565b60006020820190508181036000830152613c9d81613c61565b9050919050565b6000613caf82612fd8565b9150613cba83612fd8565b925082821015613ccd57613ccc613a6f565b5b828203905092915050565b7f4e487b7100000000000000000000000000000000000000000000000000000000600052603160045260246000fd5b60008154613d1481613958565b613d1e818661376d565b94506001821660008114613d395760018114613d4b57613d7e565b60ff1983168652602086019350613d7e565b613d54856139c4565b60005b83811015613d7657815481890152600182019150602081019050613d57565b808801955050505b50505092915050565b6000819050919050565b6000613dac613da7613da2846132ef565b613d87565b612fd8565b9050919050565b613dbc81613d91565b82525050565b60006040820190508181036000830152613ddc8185613d07565b9050613deb6020830184613db3565b9392505050565b6000613dfd82613084565b613e0781856139b9565b9350613e17818560208601612ec7565b80840191505092915050565b6000613e2f8284613df2565b915081905092915050565b6000613e4683856139b9565b9350613e53838584613227565b82840190509392505050565b6000613e6c828486613e3a565b91508190509392505050565b60008190508160005260206000209050919050565b60008154613e9a81613958565b613ea481866139b9565b94506001821660008114613ebf5760018114613ed057613f03565b60ff19831686528186019350613f03565b613ed985613e78565b60005b83811015613efb57815481890152600182019150602081019050613edc565b838801955050505b50505092915050565b6000613f188284613e8d565b915081905092915050565b7f45524332303a2064656372656173656420616c6c6f77616e63652062656c6f7760008201527f207a65726f000000000000000000000000000000000000000000000000000000602082015250565b6000613f7f602583612eb6565b9150613f8a82613f23565b604082019050919050565b60006020820190508181036000830152613fae81613f72565b9050919050565b60008160f81b9050919050565b6000613fcd82613fb5565b9050919050565b613fe5613fe082613487565b613fc2565b82525050565b60008160801b9050919050565b600061400382613feb565b9050919050565b61401b614016826132ef565b613ff8565b82525050565b600061402d8286613fd4565b60018201915061403d8285613df2565b9150614049828461400a565b601082019150819050949350505050565b600080fd5b600080fd5b600080fd5b6000823560016040038336030381126140855761408461405a565b5b80830191505092915050565b61409a8161331a565b81146140a557600080fd5b50565b600081356140b581614091565b80915050919050565b60008160001b9050919050565b600063ffffffff6140db846140be565b9350801983169250808416831791505092915050565b600061410c6141076141028461331a565b613d87565b61331a565b9050919050565b6000819050919050565b614126826140f1565b61413961413282614113565b83546140cb565b8255505050565b6000808335600160200384360303811261415d5761415c61405a565b5b80840192508235915067ffffffffffffffff82111561417f5761417e61405f565b5b60208301925060018202360383131561419b5761419a614064565b5b509250929050565b600082905092915050565b60006020601f8301049050919050565b600082821b905092915050565b6000600883026141fb7fffffffffffffffffffffffffffffffffffffffffffffffffffffffffffffffff826141be565b61420586836141be565b95508019841693508086168417925050509392505050565b600061423861423361422e84612fd8565b613d87565b612fd8565b9050919050565b6000819050919050565b6142528361421d565b61426661425e8261423f565b8484546141cb565b825550505050565b600090565b61427b61426e565b614286818484614249565b505050565b5b818110156142aa5761429f600082614273565b60018101905061428c565b5050565b601f8211156142ef576142c0816139c4565b6142c9846141ae565b810160208510156142d8578190505b6142ec6142e4856141ae565b83018261428b565b50505b505050565b600082821c905092915050565b6000614312600019846008026142f4565b1980831691505092915050565b600061432b8383614301565b9150826002028217905092915050565b61434583836141a3565b67ffffffffffffffff81111561435e5761435d61317b565b5b6143688254613958565b6143738282856142ae565b6000601f8311600181146143a25760008415614390578287013590505b61439a858261431f565b865550614402565b601f1984166143b0866139c4565b60005b828110156143d8578489013582556001820191506020850194506020810190506143b3565b868310156143f557848901356143f1601f891682614301565b8355505b6001600288020188555050505b50505050505050565b61441683838361433b565b505050565b60008101600083018061442d816140a8565b9050614439818461411d565b505050600181016020830161444e8185614140565b61445981838661440b565b505050505050565b61446b828261441b565b5050565b600061447a82612fd8565b91507fffffffffffffffffffffffffffffffffffffffffffffffffffffffffffffffff8214156144ad576144ac613a6f565b5b600182019050919050565b7f4f776e61626c653a206e6577206f776e657220697320746865207a65726f206160008201527f6464726573730000000000000000000000000000000000000000000000000000602082015250565b6000614514602683612eb6565b915061451f826144b8565b604082019050919050565b6000602082019050818103600083015261454381614507565b9050919050565b600080fd5b600080fd5b61455d816132ef565b811461456857600080fd5b50565b60008135905061457a81614554565b92915050565b60008135905061458f81614091565b92915050565b600060c082840312156145ab576145aa61454a565b5b6145b560c06131db565b905060006145c58482850161456b565b60008301525060206145d984828501614580565b602083015250604082013567ffffffffffffffff8111156145fd576145fc61454f565b5b61460984828501613278565b604083015250606082013567ffffffffffffffff81111561462d5761462c61454f565b5b61463984828501613278565b606083015250608082013567ffffffffffffffff81111561465d5761465c61454f565b5b61466984828501613278565b60808301525060a082013567ffffffffffffffff81111561468d5761468c61454f565b5b61469984828501613278565b60a08301525092915050565b60006146b13683614595565b9050919050565b7f45524332303a20617070726f76652066726f6d20746865207a65726f2061646460008201527f7265737300000000000000000000000000000000000000000000000000000000602082015250565b6000614714602483612eb6565b915061471f826146b8565b604082019050919050565b6000602082019050818103600083015261474381614707565b9050919050565b7f45524332303a20617070726f766520746f20746865207a65726f20616464726560008201527f7373000000000000000000000000000000000000000000000000000000000000602082015250565b60006147a6602283612eb6565b91506147b18261474a565b604082019050919050565b600060208201905081810360008301526147d581614799565b9050919050565b7f45524332303a20696e73756666696369656e7420616c6c6f77616e6365000000600082015250565b6000614812601d83612eb6565b915061481d826147dc565b602082019050919050565b6000602082019050818103600083015261484181614805565b9050919050565b7f45524332303a207472616e736665722066726f6d20746865207a65726f20616460008201527f6472657373000000000000000000000000000000000000000000000000000000602082015250565b60006148a4602583612eb6565b91506148af82614848565b604082019050919050565b600060208201905081810360008301526148d381614897565b9050919050565b7f45524332303a207472616e7366657220746f20746865207a65726f206164647260008201527f6573730000000000000000000000000000000000000000000000000000000000602082015250565b6000614936602383612eb6565b9150614941826148da565b604082019050919050565b6000602082019050818103600083015261496581614929565b9050919050565b7f45524332303a207472616e7366657220616d6f756e742065786365656473206260008201527f616c616e63650000000000000000000000000000000000000000000000000000602082015250565b60006149c8602683612eb6565b91506149d38261496c565b604082019050919050565b600060208201905081810360008301526149f7816149bb565b9050919050565b614a0781613487565b8114614a1257600080fd5b50565b600081519050614a24816149fe565b92915050565b6000614a3d614a38846131f6565b6131db565b905082815260208101848484011115614a5957614a58613176565b5b614a64848285612ec7565b509392505050565b600082601f830112614a8157614a80613171565b5b8151614a91848260208601614a2a565b91505092915050565b600081519050614aa981612fe2565b92915050565b600080600060608486031215614ac857614ac7612f70565b5b6000614ad686828701614a15565b935050602084015167ffffffffffffffff811115614af757614af6612f75565b5b614b0386828701614a6c565b9250506040614b1486828701614a9a565b9150509250925092565b60006060820190508181036000830152614b38818661377e565b90508181036020830152614b4c818561377e565b9050614b5b6040830184613147565b949350505050565b7f4e6f74206f776e65720000000000000000000000000000000000000000000000600082015250565b6000614b99600983612eb6565b9150614ba482614b63565b602082019050919050565b60006020820190508181036000830152614bc881614b8c565b9050919050565b50565b6000614bdf60008361376d565b9150614bea82614bcf565b600082019050919050565b60006060820190508181036000830152614c0e81614bd2565b90508181036020830152614c22818561377e565b9050614c316040830184613147565b9392505050565b7f4578636565642062616c616e6365000000000000000000000000000000000000600082015250565b6000614c6e600e83612eb6565b9150614c7982614c38565b602082019050919050565b60006020820190508181036000830152614c9d81614c61565b9050919050565b60006060820190508181036000830152614cbe818561377e565b90508181036020830152614cd181614bd2565b9050614ce06040830184613147565b9392505050565b7f4f776e61626c653a2063616c6c6572206973206e6f7420746865206f776e6572600082015250565b6000614d1d602083612eb6565b9150614d2882614ce7565b602082019050919050565b60006020820190508181036000830152614d4c81614d10565b9050919050565b7f57726f6e6720696e697469617465534300000000000000000000000000000000600082015250565b6000614d89601083612eb6565b9150614d9482614d53565b602082019050919050565b60006020820190508181036000830152614db881614d7c565b9050919050565b7f55736572206d616c6963696f7573000000000000000000000000000000000000600082015250565b6000614df5600e83612eb6565b9150614e0082614dbf565b602082019050919050565b60006020820190508181036000830152614e2481614de8565b9050919050565b8082525050565b614e3b816132ef565b82525050565b614e4a8161331a565b82525050565b600082825260208201905092915050565b6000614e6c82613084565b614e768185614e50565b9350614e86818560208601612ec7565b614e8f81612efa565b840191505092915050565b600060c083016000830151614eb26000860182614e32565b506020830151614ec56020860182614e41565b5060408301518482036040860152614edd8282614e61565b91505060608301518482036060860152614ef78282614e61565b91505060808301518482036080860152614f118282614e61565b91505060a083015184820360a0860152614f2b8282614e61565b9150508091505092915050565b6000604082019050614f4d6000830185614e2b565b8181036020830152614f5f8184614e9a565b90509392505050565b60028110614f7557600080fd5b50565b600081519050614f8781614f68565b92915050565b600060208284031215614fa357614fa2612f70565b5b6000614fb184828501614f78565b91505092915050565b7f4e487b7100000000000000000000000000000000000000000000000000000000600052602160045260246000fd5b7f5472616e73616374696f6e206361636865640000000000000000000000000000600082015250565b600061501f601283612eb6565b915061502a82614fe9565b602082019050919050565b6000602082019050818103600083015261504e81615012565b9050919050565b6000604082019050818103600083015261506f818561377e565b905061507e6020830184613db3565b9392505050565b7f4f5020636f6465206572726f7200000000000000000000000000000000000000600082015250565b60006150bb600d83612eb6565b91506150c682615085565b602082019050919050565b600060208201905081810360008301526150ea816150ae565b905091905056fea2646970667358221220016f419e3f88b86e72724c6c77bf9b6a7213dd1acd818700d3addc32cf7617b264736f6c634300080c0033",
  "immutableReferences": {},
  "source": "// SPDX-License-Identifier: MIT\npragma solidity >=0.8.0 <0.9.0;\n\nimport \"@openzeppelin/contracts/access/Ownable.sol\";\nimport \"./ERC20.sol\";\nimport \"./libraries/OmniverseProtocolHelper.sol\";\nimport \"./interfaces/IERC6358Fungible.sol\";\n\n/**\n* @notice Fungible token data structure, from which the field `payload` in `ERC6358TransactionData` will be encoded\n*\n* @member op: The operation type\n* NOTE op: 0-31 are reserved values, 32-255 are custom values\n*           op: 0 - omniverse account `from` transfers `amount` tokens to omniverse account `exData`, `from` have at least `amount` tokens\n*           op: 1 - omniverse account `from` mints `amount` tokens to omniverse account `exData`\n*           op: 2 - omniverse account `from` burns `amount` tokens from his own, `from` have at least `amount` tokens\n* @member exData: The operation data. This sector could be empty and is determined by `op`. For example: \n            when `op` is 0 and 1, `exData` stores the omniverse account that receives.\n            when `op` is 2, `exData` is empty.\n* @member amount: The amount of tokens being operated\n */\nstruct Fungible {\n    uint8 op;\n    bytes exData;\n    uint256 amount;\n}\n\n/**\n * @notice Implementation of the {IERC6358Fungible} interface\n */\ncontract SkywalkerFungible is ERC20, Ownable, IERC6358Fungible {\n    uint8 constant TRANSFER = 0;\n    uint8 constant MINT = 1;\n    uint8 constant BURN = 2;\n\n    /** @notice Used to index a delayed transaction\n     * sender: The account which sent the transaction\n     * nonce: The nonce of the delayed transaction\n     */\n    struct DelayedTx {\n        bytes sender;\n        uint256 nonce;\n    }\n\n    /**\n     * @notice The member information\n     * chainId: The chain which the member belongs to\n     * contractAddr: The contract address on the member chain\n     */\n    struct Member {\n        uint32 chainId;\n        bytes contractAddr;\n    }\n\n    // Chain id used to distinguish different chains\n    uint32 chainId;\n    // O-transaction cooling down time\n    uint256 public cdTime;\n    // Omniverse accounts record\n    mapping(bytes => RecordedCertificate) transactionRecorder;\n    // Transactions to be executed\n    mapping(bytes => OmniverseTx) public transactionCache;\n\n    // All information of chains on which the token is deployed\n    Member[] members;\n    // Omniverse balances\n    mapping(bytes => uint256) omniverseBalances;\n    // Delay-executing transactions\n    DelayedTx[] delayedTxs;\n    // Account map from evm address to public key\n    mapping(address => bytes) accountsMap;\n\n    event OmniverseTokenTransfer(bytes from, bytes to, uint256 value);\n\n    /**\n     * @notice Initiates the contract\n     * @param _chainId The chain which the contract is deployed on\n     * @param _name The name of the token\n     * @param _symbol The symbol of the token\n     */\n    constructor(uint32 _chainId, string memory _name, string memory _symbol) ERC20(_name, _symbol) {\n        chainId = _chainId;\n    }\n\n    /**\n     * @notice See {IERC6358Fungible-sendOmniverseTransaction}\n     * Send an omniverse transaction\n     */\n    function sendOmniverseTransaction(ERC6358TransactionData calldata _data) external override {\n        _omniverseTransaction(_data);\n    }\n\n    /**\n     * @notice See {IERC6358Fungible-triggerExecution}\n     */\n    function triggerExecution() external {\n        require(delayedTxs.length > 0, \"No delayed tx\");\n\n        OmniverseTx storage cache = transactionCache[delayedTxs[0].sender];\n        require(cache.timestamp != 0, \"Not cached\");\n        require(cache.txData.nonce == delayedTxs[0].nonce, \"Nonce error\");\n        (ERC6358TransactionData storage txData, uint256 timestamp) = (cache.txData, cache.timestamp);\n        require(block.timestamp >= timestamp + cdTime, \"Not executable\");\n        delayedTxs[0] = delayedTxs[delayedTxs.length - 1];\n        delayedTxs.pop();\n        cache.timestamp = 0;\n        // Add to transaction recorder\n        RecordedCertificate storage rc = transactionRecorder[txData.from];\n        rc.txList.push(cache);\n\n        Fungible memory fungible = decodeData(txData.payload);\n        if (fungible.op == TRANSFER) {\n            _omniverseTransfer(txData.from, fungible.exData, fungible.amount);\n        }\n        else if (fungible.op == MINT) {\n            _checkOwner(txData.from);\n            _omniverseMint(fungible.exData, fungible.amount);\n        }\n        else if (fungible.op == BURN) {\n            _checkOwner(txData.from);\n            _checkOmniverseBurn(fungible.exData, fungible.amount);\n            _omniverseBurn(fungible.exData, fungible.amount);\n        }\n        emit TransactionExecuted(txData.from, txData.nonce);\n    }\n    \n    /**\n     * @notice Check if the transaction can be executed successfully\n     */\n    function _checkExecution(ERC6358TransactionData memory txData) internal view {\n        Fungible memory fungible = decodeData(txData.payload);\n        if (fungible.op == TRANSFER) {\n            _checkOmniverseTransfer(txData.from, fungible.amount);\n        }\n        else if (fungible.op == MINT) {\n            _checkOwner(txData.from);\n        }\n        else if (fungible.op == BURN) {\n            _checkOwner(txData.from);\n            _checkOmniverseBurn(fungible.exData, fungible.amount);\n        }\n        else {\n            revert(\"OP code error\");\n        }\n    }\n\n    /**\n     * @notice Returns the nearest exexutable delayed transaction info\n     * or returns default if not found\n     */\n    function getExecutableDelayedTx() external view returns (DelayedTx memory ret) {\n        if (delayedTxs.length > 0) {\n            OmniverseTx storage cache = transactionCache[delayedTxs[0].sender];\n            if (block.timestamp >= cache.timestamp + cdTime) {\n                ret = delayedTxs[0];\n            }\n        }\n    }\n\n    /**\n     * @notice Returns the count of delayed transactions\n     */\n    function getDelayedTxCount() external view returns (uint256) {\n        return delayedTxs.length;\n    }\n\n    /**\n     * @notice See {IERC6358Fungible-omniverseBalanceOf}\n     * Returns the omniverse balance of a user\n     */\n    function omniverseBalanceOf(bytes calldata _pk) external view override returns (uint256) {\n        return omniverseBalances[_pk];\n    }\n\n    /**\n     * @notice See {IERC20-balanceOf}.\n     */\n    function balanceOf(address account) public view virtual override returns (uint256) {\n        bytes storage pk = accountsMap[account];\n        if (pk.length == 0) {\n            return 0;\n        }\n        else {\n            return omniverseBalances[pk];\n        }\n    }\n\n    /**\n     * @notice Receive and check an omniverse transaction\n     */\n    function _omniverseTransaction(ERC6358TransactionData memory _data) internal {\n        // Check if the tx initiateSC is correct\n        bool found = false;\n        for (uint256 i = 0; i < members.length; i++) {\n            if (members[i].chainId == _data.chainId) {\n                require(keccak256(members[i].contractAddr) == keccak256(_data.initiateSC), \"Wrong initiateSC\");\n                found = true;\n            }\n        }\n        require(found, \"Wrong initiateSC\");\n\n        // Check if the sender is honest\n        // to be continued, we can use block list instead of `isMalicious`\n        require(!isMalicious(_data.from), \"User malicious\");\n\n        // Verify the signature\n        VerifyResult verifyRet = OmniverseProtocolHelper.verifyTransaction(transactionRecorder[_data.from], _data);\n\n        if (verifyRet == VerifyResult.Success) {\n            // Check cache\n            OmniverseTx storage cache = transactionCache[_data.from];\n            require(cache.timestamp == 0, \"Transaction cached\");\n            // Logic verification\n            _checkExecution(_data);\n            // Delays in executing\n            cache.txData = _data;\n            cache.timestamp = block.timestamp;\n            delayedTxs.push(DelayedTx(_data.from, _data.nonce));\n            if (_data.chainId == chainId) {\n                emit TransactionSent(_data.from, _data.nonce);\n            }\n        }\n        else if (verifyRet == VerifyResult.Malicious) {\n            // Slash\n        }\n    }\n\n    /**\n     * @notice Check if an omniverse transfer operation can be executed successfully\n     */\n    function _checkOmniverseTransfer(bytes memory _from, uint256 _amount) internal view {\n        uint256 fromBalance = omniverseBalances[_from];\n        require(fromBalance >= _amount, \"Exceed balance\");\n    }\n\n    /**\n     * @notice Exucute an omniverse transfer operation\n     */\n    function _omniverseTransfer(bytes memory _from, bytes memory _to, uint256 _amount) internal {\n        _checkOmniverseTransfer(_from, _amount);\n        \n        uint256 fromBalance = omniverseBalances[_from];\n        \n        unchecked {\n            omniverseBalances[_from] = fromBalance - _amount;\n        }\n        omniverseBalances[_to] += _amount;\n\n        emit OmniverseTokenTransfer(_from, _to, _amount);\n\n        address toAddr = _pkToAddress(_to);\n        accountsMap[toAddr] = _to;\n    }\n    \n    /**\n     * @notice Check if the public key is the owner\n     */\n    function _checkOwner(bytes memory _pk) internal view {\n        address fromAddr = _pkToAddress(_pk);\n        require(fromAddr == owner(), \"Not owner\");\n    }\n\n    /**\n     * @notice Execute an omniverse mint operation\n     */\n    function _omniverseMint(bytes memory _to, uint256 _amount) internal {\n        omniverseBalances[_to] += _amount;\n        emit OmniverseTokenTransfer(\"\", _to, _amount);\n\n        address toAddr = _pkToAddress(_to);\n        accountsMap[toAddr] = _to;\n    }\n\n    /**\n     * @notice Check if an omniverse burn operation can be executed successfully\n     */\n    function _checkOmniverseBurn(bytes memory _from, uint256 _amount) internal view {\n        uint256 fromBalance = omniverseBalances[_from];\n        require(fromBalance >= _amount, \"Exceed balance\");\n    }\n\n    /**\n     * @notice Execute an omniverse burn operation\n     */\n    function _omniverseBurn(bytes memory _from, uint256 _amount) internal {\n        omniverseBalances[_from] -= _amount;\n        emit OmniverseTokenTransfer(_from, \"\", _amount);\n    }\n\n    /**\n     * @notice Convert the public key to evm address\n     */\n    function _pkToAddress(bytes memory _pk) internal pure returns (address) {\n        bytes32 hash = keccak256(_pk);\n        return address(uint160(uint256(hash)));\n    }\n\n    /**\n     * @notice Add new chain members to the token\n     */\n    function setMembers(Member[] calldata _members) external onlyOwner {\n        for (uint256 i = 0; i < _members.length; i++) {\n            if (i < members.length) {\n                members[i] = _members[i];\n            }\n            else {\n                members.push(_members[i]);\n            }\n        }\n\n        for (uint256 i = _members.length; i < members.length; i++) {\n            delete members[i];\n        }\n    }\n\n    /**\n     * @notice Returns chain members of the token\n     */\n    function getMembers() external view returns (Member[] memory) {\n        return members;\n    }\n    \n    /**\n     @notice See {IERC20-decimals}.\n     */\n    function decimals() public view virtual override returns (uint8) {\n        return 12;\n    }\n\n    /**\n     * @notice See IERC6358Fungible\n     */\n    function getTransactionCount(bytes memory _pk) external override view returns (uint256) {\n        return transactionRecorder[_pk].txList.length;\n    }\n\n    /**\n     * @notice See IERC6358Fungible\n     */\n    function getTransactionData(bytes calldata _user, uint256 _nonce) external override view returns (ERC6358TransactionData memory txData, uint256 timestamp) {\n        RecordedCertificate storage rc = transactionRecorder[_user];\n        OmniverseTx storage omniTx = rc.txList[_nonce];\n        txData = omniTx.txData;\n        timestamp = omniTx.timestamp;\n    }\n\n    /**\n     * @notice Set the cooling down time of an omniverse transaction\n     */\n    function setCooingDownTime(uint256 _time) external {\n        cdTime = _time;\n    }\n\n    /**\n     * @notice Index the user is malicious or not\n     */\n    function isMalicious(bytes memory _pk) public view returns (bool) {\n        RecordedCertificate storage rc = transactionRecorder[_pk];\n        return (rc.evilTxList.length > 0);\n    }\n\n    /**\n     * @notice See IERC6358Fungible\n     */\n    function getChainId() external view returns (uint32) {\n        return chainId;\n    }\n\n    /**\n     * @notice Decode `_data` from bytes to Fungible\n     */\n    function decodeData(bytes memory _data) internal pure returns (Fungible memory) {\n        (uint8 op, bytes memory exData, uint256 amount) = abi.decode(_data, (uint8, bytes, uint256));\n        return Fungible(op, exData, amount);\n    }\n\n    /**\n     * @notice See IERC6358Application\n     */\n    function getPayloadRawData(bytes memory _payload) external pure returns (bytes memory) {\n        Fungible memory fungible = decodeData(_payload);\n        return abi.encodePacked(fungible.op, fungible.exData, uint128(fungible.amount));\n    }\n}",
  "sourcePath": "/home/george/program/dante/omniverse-evm/contracts/contracts/SkywalkerFungible.sol",
  "compiler": {
    "name": "solc",
    "version": "0.8.12+commit.f00d7308.Emscripten.clang"
  },
  "schemaVersion": "3.4.6",
  "updatedAt": "2023-02-08T08:18:01.727Z",
  "networkType": "ethereum",
  "devdoc": {
    "kind": "dev",
    "methods": {
      "allowance(address,address)": {
        "details": "See {IERC20-allowance}."
      },
      "approve(address,uint256)": {
        "details": "See {IERC20-approve}. NOTE: If `amount` is the maximum `uint256`, the allowance is not updated on `transferFrom`. This is semantically equivalent to an infinite approval. Requirements: - `spender` cannot be the zero address."
      },
      "constructor": {
        "params": {
          "_chainId": "The chain which the contract is deployed on",
          "_name": "The name of the token",
          "_symbol": "The symbol of the token"
        }
      },
      "decreaseAllowance(address,uint256)": {
        "details": "Atomically decreases the allowance granted to `spender` by the caller. This is an alternative to {approve} that can be used as a mitigation for problems described in {IERC20-approve}. Emits an {Approval} event indicating the updated allowance. Requirements: - `spender` cannot be the zero address. - `spender` must have allowance for the caller of at least `subtractedValue`."
      },
      "increaseAllowance(address,uint256)": {
        "details": "Atomically increases the allowance granted to `spender` by the caller. This is an alternative to {approve} that can be used as a mitigation for problems described in {IERC20-approve}. Emits an {Approval} event indicating the updated allowance. Requirements: - `spender` cannot be the zero address."
      },
      "name()": {
        "details": "Returns the name of the token."
      },
      "owner()": {
        "details": "Returns the address of the current owner."
      },
      "renounceOwnership()": {
        "details": "Leaves the contract without owner. It will not be possible to call `onlyOwner` functions anymore. Can only be called by the current owner. NOTE: Renouncing ownership will leave the contract without an owner, thereby removing any functionality that is only available to the owner."
      },
      "symbol()": {
        "details": "Returns the symbol of the token, usually a shorter version of the name."
      },
      "totalSupply()": {
        "details": "See {IERC20-totalSupply}."
      },
      "transfer(address,uint256)": {
        "details": "See {IERC20-transfer}. Requirements: - `to` cannot be the zero address. - the caller must have a balance of at least `amount`."
      },
      "transferFrom(address,address,uint256)": {
        "details": "See {IERC20-transferFrom}. Emits an {Approval} event indicating the updated allowance. This is not required by the EIP. See the note at the beginning of {ERC20}. NOTE: Does not update the allowance if the current allowance is the maximum `uint256`. Requirements: - `from` and `to` cannot be the zero address. - `from` must have a balance of at least `amount`. - the caller must have allowance for ``from``'s tokens of at least `amount`."
      },
      "transferOwnership(address)": {
        "details": "Transfers ownership of the contract to a new account (`newOwner`). Can only be called by the current owner."
      }
    },
    "version": 1
  },
  "userdoc": {
    "events": {
      "TransactionExecuted(bytes,uint256)": {
        "notice": "Emitted when a o-transaction which has nonce `nonce` and was signed by user `pk` is executed"
      },
      "TransactionSent(bytes,uint256)": {
        "notice": "Emitted when a o-transaction which has nonce `nonce` and was signed by user `pk` is sent by calling {sendOmniverseTransaction}"
      }
    },
    "kind": "user",
    "methods": {
      "balanceOf(address)": {
        "notice": "See {IERC20-balanceOf}."
      },
      "constructor": {
        "notice": "Initiates the contract"
      },
      "decimals()": {
        "notice": "See {IERC20-decimals}."
      },
      "getChainId()": {
        "notice": "See IERC6358Fungible"
      },
      "getDelayedTxCount()": {
        "notice": "Returns the count of delayed transactions"
      },
      "getExecutableDelayedTx()": {
        "notice": "Returns the nearest exexutable delayed transaction info or returns default if not found"
      },
      "getMembers()": {
        "notice": "Returns chain members of the token"
      },
      "getPayloadRawData(bytes)": {
        "notice": "See IERC6358Application"
      },
      "getTransactionCount(bytes)": {
        "notice": "See IERC6358Fungible"
      },
      "getTransactionData(bytes,uint256)": {
        "notice": "See IERC6358Fungible"
      },
      "isMalicious(bytes)": {
        "notice": "Index the user is malicious or not"
      },
      "omniverseBalanceOf(bytes)": {
        "notice": "See {IERC6358Fungible-omniverseBalanceOf} Returns the omniverse balance of a user"
      },
      "sendOmniverseTransaction((uint128,uint32,bytes,bytes,bytes,bytes))": {
        "notice": "See {IERC6358Fungible-sendOmniverseTransaction} Send an omniverse transaction"
      },
      "setCooingDownTime(uint256)": {
        "notice": "Set the cooling down time of an omniverse transaction"
      },
      "setMembers((uint32,bytes)[])": {
        "notice": "Add new chain members to the token"
      },
      "triggerExecution()": {
        "notice": "See {IERC6358Fungible-triggerExecution}"
      }
    },
    "notice": "Implementation of the {IERC6358Fungible} interface",
    "version": 1
  }
}