{
  "contractName": "SkywalkerFungible",
  "abi": [
    {
      "inputs": [
        {
          "internalType": "uint32",
          "name": "_chainId",
          "type": "uint32"
        },
        {
          "internalType": "string",
          "name": "_name",
          "type": "string"
        },
        {
          "internalType": "string",
          "name": "_symbol",
          "type": "string"
        }
      ],
      "stateMutability": "nonpayable",
      "type": "constructor"
    },
    {
      "anonymous": false,
      "inputs": [
        {
          "indexed": true,
          "internalType": "address",
          "name": "owner",
          "type": "address"
        },
        {
          "indexed": true,
          "internalType": "address",
          "name": "spender",
          "type": "address"
        },
        {
          "indexed": false,
          "internalType": "uint256",
          "name": "value",
          "type": "uint256"
        }
      ],
      "name": "Approval",
      "type": "event"
    },
    {
      "anonymous": false,
      "inputs": [
        {
          "indexed": false,
          "internalType": "bytes",
          "name": "from",
          "type": "bytes"
        },
        {
          "indexed": false,
          "internalType": "bytes",
          "name": "to",
          "type": "bytes"
        },
        {
          "indexed": false,
          "internalType": "uint256",
          "name": "value",
          "type": "uint256"
        }
      ],
      "name": "OmniverseTokenTransfer",
      "type": "event"
    },
    {
      "anonymous": false,
      "inputs": [
        {
          "indexed": true,
          "internalType": "address",
          "name": "previousOwner",
          "type": "address"
        },
        {
          "indexed": true,
          "internalType": "address",
          "name": "newOwner",
          "type": "address"
        }
      ],
      "name": "OwnershipTransferred",
      "type": "event"
    },
    {
      "anonymous": false,
      "inputs": [
        {
          "indexed": false,
          "internalType": "bytes",
          "name": "pk",
          "type": "bytes"
        },
        {
          "indexed": false,
          "internalType": "uint256",
          "name": "nonce",
          "type": "uint256"
        }
      ],
      "name": "TransactionExecuted",
      "type": "event"
    },
    {
      "anonymous": false,
      "inputs": [
        {
          "indexed": false,
          "internalType": "bytes",
          "name": "pk",
          "type": "bytes"
        },
        {
          "indexed": false,
          "internalType": "uint256",
          "name": "nonce",
          "type": "uint256"
        }
      ],
      "name": "TransactionSent",
      "type": "event"
    },
    {
      "anonymous": false,
      "inputs": [
        {
          "indexed": true,
          "internalType": "address",
          "name": "from",
          "type": "address"
        },
        {
          "indexed": true,
          "internalType": "address",
          "name": "to",
          "type": "address"
        },
        {
          "indexed": false,
          "internalType": "uint256",
          "name": "value",
          "type": "uint256"
        }
      ],
      "name": "Transfer",
      "type": "event"
    },
    {
      "inputs": [
        {
          "internalType": "address",
          "name": "owner",
          "type": "address"
        },
        {
          "internalType": "address",
          "name": "spender",
          "type": "address"
        }
      ],
      "name": "allowance",
      "outputs": [
        {
          "internalType": "uint256",
          "name": "",
          "type": "uint256"
        }
      ],
      "stateMutability": "view",
      "type": "function"
    },
    {
      "inputs": [
        {
          "internalType": "address",
          "name": "spender",
          "type": "address"
        },
        {
          "internalType": "uint256",
          "name": "amount",
          "type": "uint256"
        }
      ],
      "name": "approve",
      "outputs": [
        {
          "internalType": "bool",
          "name": "",
          "type": "bool"
        }
      ],
      "stateMutability": "nonpayable",
      "type": "function"
    },
    {
      "inputs": [],
      "name": "cdTime",
      "outputs": [
        {
          "internalType": "uint256",
          "name": "",
          "type": "uint256"
        }
      ],
      "stateMutability": "view",
      "type": "function"
    },
    {
      "inputs": [
        {
          "internalType": "address",
          "name": "spender",
          "type": "address"
        },
        {
          "internalType": "uint256",
          "name": "subtractedValue",
          "type": "uint256"
        }
      ],
      "name": "decreaseAllowance",
      "outputs": [
        {
          "internalType": "bool",
          "name": "",
          "type": "bool"
        }
      ],
      "stateMutability": "nonpayable",
      "type": "function"
    },
    {
      "inputs": [
        {
          "internalType": "address",
          "name": "spender",
          "type": "address"
        },
        {
          "internalType": "uint256",
          "name": "addedValue",
          "type": "uint256"
        }
      ],
      "name": "increaseAllowance",
      "outputs": [
        {
          "internalType": "bool",
          "name": "",
          "type": "bool"
        }
      ],
      "stateMutability": "nonpayable",
      "type": "function"
    },
    {
      "inputs": [],
      "name": "name",
      "outputs": [
        {
          "internalType": "string",
          "name": "",
          "type": "string"
        }
      ],
      "stateMutability": "view",
      "type": "function"
    },
    {
      "inputs": [],
      "name": "owner",
      "outputs": [
        {
          "internalType": "address",
          "name": "",
          "type": "address"
        }
      ],
      "stateMutability": "view",
      "type": "function"
    },
    {
      "inputs": [],
      "name": "renounceOwnership",
      "outputs": [],
      "stateMutability": "nonpayable",
      "type": "function"
    },
    {
      "inputs": [],
      "name": "symbol",
      "outputs": [
        {
          "internalType": "string",
          "name": "",
          "type": "string"
        }
      ],
      "stateMutability": "view",
      "type": "function"
    },
    {
      "inputs": [],
      "name": "totalSupply",
      "outputs": [
        {
          "internalType": "uint256",
          "name": "",
          "type": "uint256"
        }
      ],
      "stateMutability": "view",
      "type": "function"
    },
    {
      "inputs": [
        {
          "internalType": "bytes",
          "name": "",
          "type": "bytes"
        }
      ],
      "name": "transactionCache",
      "outputs": [
        {
          "components": [
            {
              "internalType": "uint128",
              "name": "nonce",
              "type": "uint128"
            },
            {
              "internalType": "uint32",
              "name": "chainId",
              "type": "uint32"
            },
            {
              "internalType": "bytes",
              "name": "initiateSC",
              "type": "bytes"
            },
            {
              "internalType": "bytes",
              "name": "from",
              "type": "bytes"
            },
            {
              "internalType": "bytes",
              "name": "payload",
              "type": "bytes"
            },
            {
              "internalType": "bytes",
              "name": "signature",
              "type": "bytes"
            }
          ],
          "internalType": "struct ERC6358TransactionData",
          "name": "txData",
          "type": "tuple"
        },
        {
          "internalType": "uint256",
          "name": "timestamp",
          "type": "uint256"
        }
      ],
      "stateMutability": "view",
      "type": "function"
    },
    {
      "inputs": [
        {
          "internalType": "address",
          "name": "to",
          "type": "address"
        },
        {
          "internalType": "uint256",
          "name": "amount",
          "type": "uint256"
        }
      ],
      "name": "transfer",
      "outputs": [
        {
          "internalType": "bool",
          "name": "",
          "type": "bool"
        }
      ],
      "stateMutability": "nonpayable",
      "type": "function"
    },
    {
      "inputs": [
        {
          "internalType": "address",
          "name": "from",
          "type": "address"
        },
        {
          "internalType": "address",
          "name": "to",
          "type": "address"
        },
        {
          "internalType": "uint256",
          "name": "amount",
          "type": "uint256"
        }
      ],
      "name": "transferFrom",
      "outputs": [
        {
          "internalType": "bool",
          "name": "",
          "type": "bool"
        }
      ],
      "stateMutability": "nonpayable",
      "type": "function"
    },
    {
      "inputs": [
        {
          "internalType": "address",
          "name": "newOwner",
          "type": "address"
        }
      ],
      "name": "transferOwnership",
      "outputs": [],
      "stateMutability": "nonpayable",
      "type": "function"
    },
    {
      "inputs": [
        {
          "components": [
            {
              "internalType": "uint128",
              "name": "nonce",
              "type": "uint128"
            },
            {
              "internalType": "uint32",
              "name": "chainId",
              "type": "uint32"
            },
            {
              "internalType": "bytes",
              "name": "initiateSC",
              "type": "bytes"
            },
            {
              "internalType": "bytes",
              "name": "from",
              "type": "bytes"
            },
            {
              "internalType": "bytes",
              "name": "payload",
              "type": "bytes"
            },
            {
              "internalType": "bytes",
              "name": "signature",
              "type": "bytes"
            }
          ],
          "internalType": "struct ERC6358TransactionData",
          "name": "_data",
          "type": "tuple"
        }
      ],
      "name": "sendOmniverseTransaction",
      "outputs": [],
      "stateMutability": "nonpayable",
      "type": "function"
    },
    {
      "inputs": [],
      "name": "triggerExecution",
      "outputs": [],
      "stateMutability": "nonpayable",
      "type": "function"
    },
    {
      "inputs": [],
      "name": "getExecutableDelayedTx",
      "outputs": [
        {
          "components": [
            {
              "internalType": "bytes",
              "name": "sender",
              "type": "bytes"
            },
            {
              "internalType": "uint256",
              "name": "nonce",
              "type": "uint256"
            }
          ],
          "internalType": "struct SkywalkerFungible.DelayedTx",
          "name": "ret",
          "type": "tuple"
        }
      ],
      "stateMutability": "view",
      "type": "function"
    },
    {
      "inputs": [],
      "name": "getDelayedTxCount",
      "outputs": [
        {
          "internalType": "uint256",
          "name": "",
          "type": "uint256"
        }
      ],
      "stateMutability": "view",
      "type": "function"
    },
    {
      "inputs": [
        {
          "internalType": "bytes",
          "name": "_pk",
          "type": "bytes"
        }
      ],
      "name": "omniverseBalanceOf",
      "outputs": [
        {
          "internalType": "uint256",
          "name": "",
          "type": "uint256"
        }
      ],
      "stateMutability": "view",
      "type": "function"
    },
    {
      "inputs": [
        {
          "internalType": "address",
          "name": "account",
          "type": "address"
        }
      ],
      "name": "balanceOf",
      "outputs": [
        {
          "internalType": "uint256",
          "name": "",
          "type": "uint256"
        }
      ],
      "stateMutability": "view",
      "type": "function"
    },
    {
      "inputs": [
        {
          "components": [
            {
              "internalType": "uint32",
              "name": "chainId",
              "type": "uint32"
            },
            {
              "internalType": "bytes",
              "name": "contractAddr",
              "type": "bytes"
            }
          ],
          "internalType": "struct SkywalkerFungible.Member[]",
          "name": "_members",
          "type": "tuple[]"
        }
      ],
      "name": "setMembers",
      "outputs": [],
      "stateMutability": "nonpayable",
      "type": "function"
    },
    {
      "inputs": [],
      "name": "getMembers",
      "outputs": [
        {
          "components": [
            {
              "internalType": "uint32",
              "name": "chainId",
              "type": "uint32"
            },
            {
              "internalType": "bytes",
              "name": "contractAddr",
              "type": "bytes"
            }
          ],
          "internalType": "struct SkywalkerFungible.Member[]",
          "name": "",
          "type": "tuple[]"
        }
      ],
      "stateMutability": "view",
      "type": "function"
    },
    {
      "inputs": [],
      "name": "decimals",
      "outputs": [
        {
          "internalType": "uint8",
          "name": "",
          "type": "uint8"
        }
      ],
      "stateMutability": "view",
      "type": "function"
    },
    {
      "inputs": [
        {
          "internalType": "bytes",
          "name": "_pk",
          "type": "bytes"
        }
      ],
      "name": "getTransactionCount",
      "outputs": [
        {
          "internalType": "uint256",
          "name": "",
          "type": "uint256"
        }
      ],
      "stateMutability": "view",
      "type": "function"
    },
    {
      "inputs": [
        {
          "internalType": "bytes",
          "name": "_user",
          "type": "bytes"
        },
        {
          "internalType": "uint256",
          "name": "_nonce",
          "type": "uint256"
        }
      ],
      "name": "getTransactionData",
      "outputs": [
        {
          "components": [
            {
              "internalType": "uint128",
              "name": "nonce",
              "type": "uint128"
            },
            {
              "internalType": "uint32",
              "name": "chainId",
              "type": "uint32"
            },
            {
              "internalType": "bytes",
              "name": "initiateSC",
              "type": "bytes"
            },
            {
              "internalType": "bytes",
              "name": "from",
              "type": "bytes"
            },
            {
              "internalType": "bytes",
              "name": "payload",
              "type": "bytes"
            },
            {
              "internalType": "bytes",
              "name": "signature",
              "type": "bytes"
            }
          ],
          "internalType": "struct ERC6358TransactionData",
          "name": "txData",
          "type": "tuple"
        },
        {
          "internalType": "uint256",
          "name": "timestamp",
          "type": "uint256"
        }
      ],
      "stateMutability": "view",
      "type": "function"
    },
    {
      "inputs": [
        {
          "internalType": "uint256",
          "name": "_time",
          "type": "uint256"
        }
      ],
      "name": "setCoolingDownTime",
      "outputs": [],
      "stateMutability": "nonpayable",
      "type": "function"
    },
    {
      "inputs": [
        {
          "internalType": "bytes",
          "name": "_pk",
          "type": "bytes"
        }
      ],
      "name": "isMalicious",
      "outputs": [
        {
          "internalType": "bool",
          "name": "",
          "type": "bool"
        }
      ],
      "stateMutability": "view",
      "type": "function"
    },
    {
      "inputs": [],
      "name": "getChainId",
      "outputs": [
        {
          "internalType": "uint32",
          "name": "",
          "type": "uint32"
        }
      ],
      "stateMutability": "view",
      "type": "function"
    },
    {
      "inputs": [
        {
          "internalType": "bytes",
          "name": "_payload",
          "type": "bytes"
        }
      ],
      "name": "getPayloadRawData",
      "outputs": [
        {
          "internalType": "bytes",
          "name": "",
          "type": "bytes"
        }
      ],
      "stateMutability": "pure",
      "type": "function"
    }
  ],
  "bytecode": "0x60806040523480156200001157600080fd5b50604051620056bd380380620056bd833981810160405281019062000037919062000413565b818181600390805190602001906200005192919062000185565b5080600490805190602001906200006a92919062000185565b5050506200008d62000081620000b760201b60201c565b620000bf60201b60201c565b82600560146101000a81548163ffffffff021916908363ffffffff16021790555050505062000512565b600033905090565b6000600560009054906101000a900473ffffffffffffffffffffffffffffffffffffffff16905081600560006101000a81548173ffffffffffffffffffffffffffffffffffffffff021916908373ffffffffffffffffffffffffffffffffffffffff1602179055508173ffffffffffffffffffffffffffffffffffffffff168173ffffffffffffffffffffffffffffffffffffffff167f8be0079c531659141344cd1fd0a4f28419497f9722a3daafe3b4186f6b6457e060405160405180910390a35050565b8280546200019390620004dc565b90600052602060002090601f016020900481019282620001b7576000855562000203565b82601f10620001d257805160ff191683800117855562000203565b8280016001018555821562000203579182015b8281111562000202578251825591602001919060010190620001e5565b5b50905062000212919062000216565b5090565b5b808211156200023157600081600090555060010162000217565b5090565b6000604051905090565b600080fd5b600080fd5b600063ffffffff82169050919050565b620002648162000249565b81146200027057600080fd5b50565b600081519050620002848162000259565b92915050565b600080fd5b600080fd5b6000601f19601f8301169050919050565b7f4e487b7100000000000000000000000000000000000000000000000000000000600052604160045260246000fd5b620002df8262000294565b810181811067ffffffffffffffff82111715620003015762000300620002a5565b5b80604052505050565b60006200031662000235565b9050620003248282620002d4565b919050565b600067ffffffffffffffff821115620003475762000346620002a5565b5b620003528262000294565b9050602081019050919050565b60005b838110156200037f57808201518184015260208101905062000362565b838111156200038f576000848401525b50505050565b6000620003ac620003a68462000329565b6200030a565b905082815260208101848484011115620003cb57620003ca6200028f565b5b620003d88482856200035f565b509392505050565b600082601f830112620003f857620003f76200028a565b5b81516200040a84826020860162000395565b91505092915050565b6000806000606084860312156200042f576200042e6200023f565b5b60006200043f8682870162000273565b935050602084015167ffffffffffffffff81111562000463576200046262000244565b5b6200047186828701620003e0565b925050604084015167ffffffffffffffff81111562000495576200049462000244565b5b620004a386828701620003e0565b9150509250925092565b7f4e487b7100000000000000000000000000000000000000000000000000000000600052602260045260246000fd5b60006002820490506001821680620004f557607f821691505b602082108114156200050c576200050b620004ad565b5b50919050565b61519b80620005226000396000f3fe608060405234801561001057600080fd5b50600436106101cf5760003560e01c806352acf69c11610104578063a457c2d7116100a2578063dd62ed3e11610071578063dd62ed3e14610570578063df097cac146105a0578063f2fde38b146105be578063f428051d146105da576101cf565b8063a457c2d7146104c4578063a9059cbb146104f4578063ad9faf3b14610524578063d292423614610554576101cf565b8063715018a6116100de578063715018a6146104605780638da5cb5b1461046a57806395d89b41146104885780639eab5253146104a6576101cf565b806352acf69c146103e457806352ce58311461040057806370a0823114610430576101cf565b80632ac1c568116101715780633408e4701161014b5780633408e470146103355780633713bb5314610353578063395093511461038357806339aaa281146103b3576101cf565b80632ac1c568146102dd5780632b506660146102e7578063313ce56714610317576101cf565b80630d94bb52116101ad5780630d94bb521461024057806313f108941461025e57806318160ddd1461028f57806323b872dd146102ad576101cf565b806306fdde03146101d4578063095ea7b3146101f25780630d5f6f9314610222575b600080fd5b6101dc6105f6565b6040516101e99190612fb8565b60405180910390f35b61020c60048036038101906102079190613082565b610688565b60405161021991906130dd565b60405180910390f35b61022a6106ab565b6040516102379190613199565b60405180910390f35b6102486107f2565b60405161025591906131ca565b60405180910390f35b6102786004803603810190610273919061331a565b6107ff565b60405161028692919061344b565b60405180910390f35b610297610afb565b6040516102a491906131ca565b60405180910390f35b6102c760048036038101906102c2919061347b565b610b05565b6040516102d491906130dd565b60405180910390f35b6102e5610b34565b005b61030160048036038101906102fc919061331a565b611294565b60405161030e91906131ca565b60405180910390f35b61031f6112c2565b60405161032c91906134ea565b60405180910390f35b61033d6112cb565b60405161034a9190613514565b60405180910390f35b61036d6004803603810190610368919061331a565b6112e5565b60405161037a91906130dd565b60405180910390f35b61039d60048036038101906103989190613082565b61131b565b6040516103aa91906130dd565b60405180910390f35b6103cd60048036038101906103c8919061358f565b611352565b6040516103db92919061344b565b60405180910390f35b6103fe60048036038101906103f991906135ef565b611681565b005b61041a6004803603810190610415919061361c565b61168b565b60405161042791906131ca565b60405180910390f35b61044a60048036038101906104459190613669565b6116b6565b60405161045791906131ca565b60405180910390f35b610468611742565b005b610472611756565b60405161047f91906136a5565b60405180910390f35b610490611780565b60405161049d9190612fb8565b60405180910390f35b6104ae611812565b6040516104bb91906137bf565b60405180910390f35b6104de60048036038101906104d99190613082565b611929565b6040516104eb91906130dd565b60405180910390f35b61050e60048036038101906105099190613082565b6119a0565b60405161051b91906130dd565b60405180910390f35b61053e6004803603810190610539919061331a565b6119c3565b60405161054b919061382b565b60405180910390f35b61056e600480360381019061056991906138a3565b611a0a565b005b61058a600480360381019061058591906138f0565b611b75565b60405161059791906131ca565b60405180910390f35b6105a8611bfc565b6040516105b591906131ca565b60405180910390f35b6105d860048036038101906105d39190613669565b611c02565b005b6105f460048036038101906105ef9190613954565b611c86565b005b606060038054610605906139cc565b80601f0160208091040260200160405190810160405280929190818152602001828054610631906139cc565b801561067e5780601f106106535761010080835404028352916020019161067e565b820191906000526020600020905b81548152906001019060200180831161066157829003601f168201915b5050505050905090565b600080610693611c9b565b90506106a0818585611ca3565b600191505092915050565b6106b3612d23565b6000600b8054905011156107ef5760006008600b6000815481106106da576106d96139fe565b5b90600052602060002090600202016000016040516106f89190613acc565b90815260200160405180910390209050600654816005015461071a9190613b12565b42106107ed57600b600081548110610735576107346139fe565b5b906000526020600020906002020160405180604001604052908160008201805461075e906139cc565b80601f016020809104026020016040519081016040528092919081815260200182805461078a906139cc565b80156107d75780601f106107ac576101008083540402835291602001916107d7565b820191906000526020600020905b8154815290600101906020018083116107ba57829003601f168201915b5050505050815260200160018201548152505091505b505b90565b6000600b80549050905090565b600881805160208101820180518482526020830160208501208183528095505050505050600091509050806000016040518060c00160405290816000820160009054906101000a90046fffffffffffffffffffffffffffffffff166fffffffffffffffffffffffffffffffff166fffffffffffffffffffffffffffffffff1681526020016000820160109054906101000a900463ffffffff1663ffffffff1663ffffffff1681526020016001820180546108b8906139cc565b80601f01602080910402602001604051908101604052809291908181526020018280546108e4906139cc565b80156109315780601f1061090657610100808354040283529160200191610931565b820191906000526020600020905b81548152906001019060200180831161091457829003601f168201915b5050505050815260200160028201805461094a906139cc565b80601f0160208091040260200160405190810160405280929190818152602001828054610976906139cc565b80156109c35780601f10610998576101008083540402835291602001916109c3565b820191906000526020600020905b8154815290600101906020018083116109a657829003601f168201915b505050505081526020016003820180546109dc906139cc565b80601f0160208091040260200160405190810160405280929190818152602001828054610a08906139cc565b8015610a555780601f10610a2a57610100808354040283529160200191610a55565b820191906000526020600020905b815481529060010190602001808311610a3857829003601f168201915b50505050508152602001600482018054610a6e906139cc565b80601f0160208091040260200160405190810160405280929190818152602001828054610a9a906139cc565b8015610ae75780601f10610abc57610100808354040283529160200191610ae7565b820191906000526020600020905b815481529060010190602001808311610aca57829003601f168201915b505050505081525050908060050154905082565b6000600254905090565b600080610b10611c9b565b9050610b1d858285611e6e565b610b28858585611efa565b60019150509392505050565b6000600b8054905011610b7c576040517f08c379a0000000000000000000000000000000000000000000000000000000008152600401610b7390613bb4565b60405180910390fd5b60006008600b600081548110610b9557610b946139fe565b5b9060005260206000209060020201600001604051610bb39190613acc565b90815260200160405180910390209050600081600501541415610c0b576040517f08c379a0000000000000000000000000000000000000000000000000000000008152600401610c0290613c20565b60405180910390fd5b600b600081548110610c2057610c1f6139fe565b5b9060005260206000209060020201600101548160000160000160009054906101000a90046fffffffffffffffffffffffffffffffff166fffffffffffffffffffffffffffffffff1614610ca8576040517f08c379a0000000000000000000000000000000000000000000000000000000008152600401610c9f90613c8c565b60405180910390fd5b6000808260000183600501549150915060065481610cc69190613b12565b421015610d08576040517f08c379a0000000000000000000000000000000000000000000000000000000008152600401610cff90613cf8565b60405180910390fd5b600b6001600b80549050610d1c9190613d18565b81548110610d2d57610d2c6139fe565b5b9060005260206000209060020201600b600081548110610d5057610d4f6139fe565b5b90600052602060002090600202016000820181600001908054610d72906139cc565b610d7d929190612d3d565b5060018201548160010155905050600b805480610d9d57610d9c613d4c565b5b600190038181906000526020600020906002020160008082016000610dc29190612dca565b600182016000905550509055600083600501819055506000600783600201604051610ded9190613acc565b908152602001604051809103902090508060000184908060018154018082558091505060019003906000526020600020906006020160009091909190915060008201816000016000820160009054906101000a90046fffffffffffffffffffffffffffffffff168160000160006101000a8154816fffffffffffffffffffffffffffffffff02191690836fffffffffffffffffffffffffffffffff1602179055506000820160109054906101000a900463ffffffff168160000160106101000a81548163ffffffff021916908363ffffffff1602179055506001820181600101908054610ed9906139cc565b610ee4929190612d3d565b506002820181600201908054610ef9906139cc565b610f04929190612d3d565b506003820181600301908054610f19906139cc565b610f24929190612d3d565b506004820181600401908054610f39906139cc565b610f44929190612d3d565b5050506005820154816005015550506000610fea846003018054610f67906139cc565b80601f0160208091040260200160405190810160405280929190818152602001828054610f93906139cc565b8015610fe05780601f10610fb557610100808354040283529160200191610fe0565b820191906000526020600020905b815481529060010190602001808311610fc357829003601f168201915b505050505061217b565b9050600060ff16816000015160ff1614156110a35761109e846002018054611011906139cc565b80601f016020809104026020016040519081016040528092919081815260200182805461103d906139cc565b801561108a5780601f1061105f5761010080835404028352916020019161108a565b820191906000526020600020905b81548152906001019060200180831161106d57829003601f168201915b5050505050826020015183604001516121ca565b611231565b600160ff16816000015160ff1614156111625761114b8460020180546110c8906139cc565b80601f01602080910402602001604051908101604052809291908181526020018280546110f4906139cc565b80156111415780601f1061111657610100808354040283529160200191611141565b820191906000526020600020905b81548152906001019060200180831161112457829003601f168201915b50505050506122f4565b61115d8160200151826040015161237a565b611230565b600260ff16816000015160ff16141561122f5761120a846002018054611187906139cc565b80601f01602080910402602001604051908101604052809291908181526020018280546111b3906139cc565b80156112005780601f106111d557610100808354040283529160200191611200565b820191906000526020600020905b8154815290600101906020018083116111e357829003601f168201915b50505050506122f4565b61121c8160200151826040015161244e565b61122e816020015182604001516124b9565b5b5b5b7f9350b8dd01770a6760c5aa0d6eadd2fec9cb07c4165e778c532f0e261b55ce3d846002018560000160009054906101000a90046fffffffffffffffffffffffffffffffff16604051611285929190613e36565b60405180910390a15050505050565b60006007826040516112a69190613e97565b9081526020016040518091039020600001805490509050919050565b6000600c905090565b6000600560149054906101000a900463ffffffff16905090565b6000806007836040516112f89190613e97565b908152602001604051809103902090506000816001018054905011915050919050565b600080611326611c9b565b90506113478185856113388589611b75565b6113429190613b12565b611ca3565b600191505092915050565b61135a612e0a565b6000806007868660405161136f929190613ed3565b908152602001604051809103902090506000816000018581548110611397576113966139fe565b5b90600052602060002090600602019050806000016040518060c00160405290816000820160009054906101000a90046fffffffffffffffffffffffffffffffff166fffffffffffffffffffffffffffffffff166fffffffffffffffffffffffffffffffff1681526020016000820160109054906101000a900463ffffffff1663ffffffff1663ffffffff168152602001600182018054611436906139cc565b80601f0160208091040260200160405190810160405280929190818152602001828054611462906139cc565b80156114af5780601f10611484576101008083540402835291602001916114af565b820191906000526020600020905b81548152906001019060200180831161149257829003601f168201915b505050505081526020016002820180546114c8906139cc565b80601f01602080910402602001604051908101604052809291908181526020018280546114f4906139cc565b80156115415780601f1061151657610100808354040283529160200191611541565b820191906000526020600020905b81548152906001019060200180831161152457829003601f168201915b5050505050815260200160038201805461155a906139cc565b80601f0160208091040260200160405190810160405280929190818152602001828054611586906139cc565b80156115d35780601f106115a8576101008083540402835291602001916115d3565b820191906000526020600020905b8154815290600101906020018083116115b657829003601f168201915b505050505081526020016004820180546115ec906139cc565b80601f0160208091040260200160405190810160405280929190818152602001828054611618906139cc565b80156116655780601f1061163a57610100808354040283529160200191611665565b820191906000526020600020905b81548152906001019060200180831161164857829003601f168201915b5050505050815250509350806005015492505050935093915050565b8060068190555050565b6000600a838360405161169f929190613ed3565b908152602001604051809103902054905092915050565b600080600c60008473ffffffffffffffffffffffffffffffffffffffff1673ffffffffffffffffffffffffffffffffffffffff16815260200190815260200160002090506000818054611708906139cc565b9050141561171a57600091505061173d565b600a8160405161172a9190613f80565b9081526020016040518091039020549150505b919050565b61174a61252b565b61175460006125a9565b565b6000600560009054906101000a900473ffffffffffffffffffffffffffffffffffffffff16905090565b60606004805461178f906139cc565b80601f01602080910402602001604051908101604052809291908181526020018280546117bb906139cc565b80156118085780601f106117dd57610100808354040283529160200191611808565b820191906000526020600020905b8154815290600101906020018083116117eb57829003601f168201915b5050505050905090565b60606009805480602002602001604051908101604052809291908181526020016000905b8282101561192057838290600052602060002090600202016040518060400160405290816000820160009054906101000a900463ffffffff1663ffffffff1663ffffffff16815260200160018201805461188f906139cc565b80601f01602080910402602001604051908101604052809291908181526020018280546118bb906139cc565b80156119085780601f106118dd57610100808354040283529160200191611908565b820191906000526020600020905b8154815290600101906020018083116118eb57829003601f168201915b50505050508152505081526020019060010190611836565b50505050905090565b600080611934611c9b565b905060006119428286611b75565b905083811015611987576040517f08c379a000000000000000000000000000000000000000000000000000000000815260040161197e90614009565b60405180910390fd5b6119948286868403611ca3565b60019250505092915050565b6000806119ab611c9b565b90506119b8818585611efa565b600191505092915050565b606060006119d08361217b565b90508060000151816020015182604001516040516020016119f393929190614095565b604051602081830303815290604052915050919050565b611a1261252b565b60005b82829050811015611afa57600980549050811015611a8857828282818110611a4057611a3f6139fe565b5b9050602002810190611a5291906140dd565b60098281548110611a6657611a656139fe565b5b90600052602060002090600202018181611a8091906144d5565b905050611ae7565b6009838383818110611a9d57611a9c6139fe565b5b9050602002810190611aaf91906140dd565b90806001815401808255809150506001900390600052602060002090600202016000909190919091508181611ae491906144d5565b50505b8080611af2906144e3565b915050611a15565b5060008282905090505b600980549050811015611b705760098181548110611b2557611b246139fe565b5b9060005260206000209060020201600080820160006101000a81549063ffffffff0219169055600182016000611b5b9190612dca565b50508080611b68906144e3565b915050611b04565b505050565b6000600160008473ffffffffffffffffffffffffffffffffffffffff1673ffffffffffffffffffffffffffffffffffffffff16815260200190815260200160002060008373ffffffffffffffffffffffffffffffffffffffff1673ffffffffffffffffffffffffffffffffffffffff16815260200190815260200160002054905092915050565b60065481565b611c0a61252b565b600073ffffffffffffffffffffffffffffffffffffffff168173ffffffffffffffffffffffffffffffffffffffff161415611c7a576040517f08c379a0000000000000000000000000000000000000000000000000000000008152600401611c719061459e565b60405180910390fd5b611c83816125a9565b50565b611c9881611c9390614719565b61266f565b50565b600033905090565b600073ffffffffffffffffffffffffffffffffffffffff168373ffffffffffffffffffffffffffffffffffffffff161415611d13576040517f08c379a0000000000000000000000000000000000000000000000000000000008152600401611d0a9061479e565b60405180910390fd5b600073ffffffffffffffffffffffffffffffffffffffff168273ffffffffffffffffffffffffffffffffffffffff161415611d83576040517f08c379a0000000000000000000000000000000000000000000000000000000008152600401611d7a90614830565b60405180910390fd5b80600160008573ffffffffffffffffffffffffffffffffffffffff1673ffffffffffffffffffffffffffffffffffffffff16815260200190815260200160002060008473ffffffffffffffffffffffffffffffffffffffff1673ffffffffffffffffffffffffffffffffffffffff168152602001908152602001600020819055508173ffffffffffffffffffffffffffffffffffffffff168373ffffffffffffffffffffffffffffffffffffffff167f8c5be1e5ebec7d5bd14f71427d1e84f3dd0314c0f7b2291e5b200ac8c7c3b92583604051611e6191906131ca565b60405180910390a3505050565b6000611e7a8484611b75565b90507fffffffffffffffffffffffffffffffffffffffffffffffffffffffffffffffff8114611ef45781811015611ee6576040517f08c379a0000000000000000000000000000000000000000000000000000000008152600401611edd9061489c565b60405180910390fd5b611ef38484848403611ca3565b5b50505050565b600073ffffffffffffffffffffffffffffffffffffffff168373ffffffffffffffffffffffffffffffffffffffff161415611f6a576040517f08c379a0000000000000000000000000000000000000000000000000000000008152600401611f619061492e565b60405180910390fd5b600073ffffffffffffffffffffffffffffffffffffffff168273ffffffffffffffffffffffffffffffffffffffff161415611fda576040517f08c379a0000000000000000000000000000000000000000000000000000000008152600401611fd1906149c0565b60405180910390fd5b611fe5838383612bbd565b60008060008573ffffffffffffffffffffffffffffffffffffffff1673ffffffffffffffffffffffffffffffffffffffff1681526020019081526020016000205490508181101561206b576040517f08c379a000000000000000000000000000000000000000000000000000000000815260040161206290614a52565b60405180910390fd5b8181036000808673ffffffffffffffffffffffffffffffffffffffff1673ffffffffffffffffffffffffffffffffffffffff16815260200190815260200160002081905550816000808573ffffffffffffffffffffffffffffffffffffffff1673ffffffffffffffffffffffffffffffffffffffff16815260200190815260200160002060008282546120fe9190613b12565b925050819055508273ffffffffffffffffffffffffffffffffffffffff168473ffffffffffffffffffffffffffffffffffffffff167fddf252ad1be2c89b69c2b068fc378daa952ba7f163c4a11628f55a4df523b3ef8460405161216291906131ca565b60405180910390a3612175848484612bc2565b50505050565b612183612e58565b60008060008480602001905181019061219c9190614b23565b92509250925060405180606001604052808460ff168152602001838152602001828152509350505050919050565b6121d48382612bc7565b6000600a846040516121e69190613e97565b9081526020016040518091039020549050818103600a8560405161220a9190613e97565b90815260200160405180910390208190555081600a8460405161222d9190613e97565b9081526020016040518091039020600082825461224a9190613b12565b925050819055507f1d8380031597508b7d5d3df4999b8136789b62ed932115f9eb5897e19903792e84848460405161228493929190614b92565b60405180910390a1600061229784612c32565b905083600c60008373ffffffffffffffffffffffffffffffffffffffff1673ffffffffffffffffffffffffffffffffffffffff16815260200190815260200160002090805190602001906122ec929190612e7c565b505050505050565b60006122ff82612c32565b9050612309611756565b73ffffffffffffffffffffffffffffffffffffffff168173ffffffffffffffffffffffffffffffffffffffff1614612376576040517f08c379a000000000000000000000000000000000000000000000000000000000815260040161236d90614c23565b60405180910390fd5b5050565b80600a8360405161238b9190613e97565b908152602001604051809103902060008282546123a89190613b12565b925050819055507f1d8380031597508b7d5d3df4999b8136789b62ed932115f9eb5897e19903792e82826040516123e0929190614c69565b60405180910390a160006123f383612c32565b905082600c60008373ffffffffffffffffffffffffffffffffffffffff1673ffffffffffffffffffffffffffffffffffffffff1681526020019081526020016000209080519060200190612448929190612e7c565b50505050565b6000600a836040516124609190613e97565b9081526020016040518091039020549050818110156124b4576040517f08c379a00000000000000000000000000000000000000000000000000000000081526004016124ab90614cf8565b60405180910390fd5b505050565b80600a836040516124ca9190613e97565b908152602001604051809103902060008282546124e79190613d18565b925050819055507f1d8380031597508b7d5d3df4999b8136789b62ed932115f9eb5897e19903792e828260405161251f929190614d18565b60405180910390a15050565b612533611c9b565b73ffffffffffffffffffffffffffffffffffffffff16612551611756565b73ffffffffffffffffffffffffffffffffffffffff16146125a7576040517f08c379a000000000000000000000000000000000000000000000000000000000815260040161259e90614da7565b60405180910390fd5b565b6000600560009054906101000a900473ffffffffffffffffffffffffffffffffffffffff16905081600560006101000a81548173ffffffffffffffffffffffffffffffffffffffff021916908373ffffffffffffffffffffffffffffffffffffffff1602179055508173ffffffffffffffffffffffffffffffffffffffff168173ffffffffffffffffffffffffffffffffffffffff167f8be0079c531659141344cd1fd0a4f28419497f9722a3daafe3b4186f6b6457e060405160405180910390a35050565b6000805b60098054905081101561276b57826020015163ffffffff166009828154811061269f5761269e6139fe565b5b906000526020600020906002020160000160009054906101000a900463ffffffff1663ffffffff16141561275857826040015180519060200120600982815481106126ed576126ec6139fe565b5b906000526020600020906002020160010160405161270b9190613acc565b604051809103902014612753576040517f08c379a000000000000000000000000000000000000000000000000000000000815260040161274a90614e13565b60405180910390fd5b600191505b8080612763906144e3565b915050612673565b50806127ac576040517f08c379a00000000000000000000000000000000000000000000000000000000081526004016127a390614e13565b60405180910390fd5b6127b982606001516112e5565b156127f9576040517f08c379a00000000000000000000000000000000000000000000000000000000081526004016127f090614e7f565b60405180910390fd5b600073__OmniverseProtocolHelper_______________634e1e4d29600785606001516040516128299190613e97565b9081526020016040518091039020856040518363ffffffff1660e01b8152600401612855929190614fac565b602060405180830381865af4158015612872573d6000803e3d6000fd5b505050506040513d601f19601f820116820180604052508101906128969190615001565b9050600060028111156128ac576128ab61502e565b5b8160028111156128bf576128be61502e565b5b1415612b1b576000600884606001516040516128db9190613e97565b908152602001604051809103902090506000816005015414612932576040517f08c379a0000000000000000000000000000000000000000000000000000000008152600401612929906150a9565b60405180910390fd5b61293b84612c4b565b838160000160008201518160000160006101000a8154816fffffffffffffffffffffffffffffffff02191690836fffffffffffffffffffffffffffffffff16021790555060208201518160000160106101000a81548163ffffffff021916908363ffffffff16021790555060408201518160010190805190602001906129c2929190612e7c565b5060608201518160020190805190602001906129df929190612e7c565b5060808201518160030190805190602001906129fc929190612e7c565b5060a0820151816004019080519060200190612a19929190612e7c565b50905050428160050181905550600b60405180604001604052808660600151815260200186600001516fffffffffffffffffffffffffffffffff1681525090806001815401808255809150506001900390600052602060002090600202016000909190919091506000820151816000019080519060200190612a9c929190612e7c565b50602082015181600101555050600560149054906101000a900463ffffffff1663ffffffff16846020015163ffffffff161415612b15577f101abacb8de0d05456bbaf85756276fd0c5225e9ede84f539855df28aba51a7e84606001518560000151604051612b0c9291906150c9565b60405180910390a15b50612bb8565b600280811115612b2e57612b2d61502e565b5b816002811115612b4157612b4061502e565b5b1415612b8d577f9350b8dd01770a6760c5aa0d6eadd2fec9cb07c4165e778c532f0e261b55ce3d83606001518460000151604051612b809291906150c9565b60405180910390a1612bb7565b60016002811115612ba157612ba061502e565b5b816002811115612bb457612bb361502e565b5b50505b5b505050565b505050565b505050565b6000600a83604051612bd99190613e97565b908152602001604051809103902054905081811015612c2d576040517f08c379a0000000000000000000000000000000000000000000000000000000008152600401612c2490614cf8565b60405180910390fd5b505050565b600080828051906020012090508060001c915050919050565b6000612c5a826080015161217b565b9050600060ff16816000015160ff161415612c8657612c8182606001518260400151612bc7565b612d1f565b600160ff16816000015160ff161415612cab57612ca682606001516122f4565b612d1e565b600260ff16816000015160ff161415612ce257612ccb82606001516122f4565b612cdd8160200151826040015161244e565b612d1d565b6040517f08c379a0000000000000000000000000000000000000000000000000000000008152600401612d1490615145565b60405180910390fd5b5b5b5050565b604051806040016040528060608152602001600081525090565b828054612d49906139cc565b90600052602060002090601f016020900481019282612d6b5760008555612db9565b82601f10612d7c5780548555612db9565b82800160010185558215612db957600052602060002091601f016020900482015b82811115612db8578254825591600101919060010190612d9d565b5b509050612dc69190612f02565b5090565b508054612dd6906139cc565b6000825580601f10612de85750612e07565b601f016020900490600052602060002090810190612e069190612f02565b5b50565b6040518060c0016040528060006fffffffffffffffffffffffffffffffff168152602001600063ffffffff168152602001606081526020016060815260200160608152602001606081525090565b6040518060600160405280600060ff16815260200160608152602001600081525090565b828054612e88906139cc565b90600052602060002090601f016020900481019282612eaa5760008555612ef1565b82601f10612ec357805160ff1916838001178555612ef1565b82800160010185558215612ef1579182015b82811115612ef0578251825591602001919060010190612ed5565b5b509050612efe9190612f02565b5090565b5b80821115612f1b576000816000905550600101612f03565b5090565b600081519050919050565b600082825260208201905092915050565b60005b83811015612f59578082015181840152602081019050612f3e565b83811115612f68576000848401525b50505050565b6000601f19601f8301169050919050565b6000612f8a82612f1f565b612f948185612f2a565b9350612fa4818560208601612f3b565b612fad81612f6e565b840191505092915050565b60006020820190508181036000830152612fd28184612f7f565b905092915050565b6000604051905090565b600080fd5b600080fd5b600073ffffffffffffffffffffffffffffffffffffffff82169050919050565b600061301982612fee565b9050919050565b6130298161300e565b811461303457600080fd5b50565b60008135905061304681613020565b92915050565b6000819050919050565b61305f8161304c565b811461306a57600080fd5b50565b60008135905061307c81613056565b92915050565b6000806040838503121561309957613098612fe4565b5b60006130a785828601613037565b92505060206130b88582860161306d565b9150509250929050565b60008115159050919050565b6130d7816130c2565b82525050565b60006020820190506130f260008301846130ce565b92915050565b600081519050919050565b600082825260208201905092915050565b600061311f826130f8565b6131298185613103565b9350613139818560208601612f3b565b61314281612f6e565b840191505092915050565b6131568161304c565b82525050565b600060408301600083015184820360008601526131798282613114565b915050602083015161318e602086018261314d565b508091505092915050565b600060208201905081810360008301526131b3818461315c565b905092915050565b6131c48161304c565b82525050565b60006020820190506131df60008301846131bb565b92915050565b600080fd5b600080fd5b7f4e487b7100000000000000000000000000000000000000000000000000000000600052604160045260246000fd5b61322782612f6e565b810181811067ffffffffffffffff82111715613246576132456131ef565b5b80604052505050565b6000613259612fda565b9050613265828261321e565b919050565b600067ffffffffffffffff821115613285576132846131ef565b5b61328e82612f6e565b9050602081019050919050565b82818337600083830152505050565b60006132bd6132b88461326a565b61324f565b9050828152602081018484840111156132d9576132d86131ea565b5b6132e484828561329b565b509392505050565b600082601f830112613301576133006131e5565b5b81356133118482602086016132aa565b91505092915050565b6000602082840312156133305761332f612fe4565b5b600082013567ffffffffffffffff81111561334e5761334d612fe9565b5b61335a848285016132ec565b91505092915050565b60006fffffffffffffffffffffffffffffffff82169050919050565b61338881613363565b82525050565b600063ffffffff82169050919050565b6133a78161338e565b82525050565b600060c0830160008301516133c5600086018261337f565b5060208301516133d8602086018261339e565b50604083015184820360408601526133f08282613114565b9150506060830151848203606086015261340a8282613114565b915050608083015184820360808601526134248282613114565b91505060a083015184820360a086015261343e8282613114565b9150508091505092915050565b6000604082019050818103600083015261346581856133ad565b905061347460208301846131bb565b9392505050565b60008060006060848603121561349457613493612fe4565b5b60006134a286828701613037565b93505060206134b386828701613037565b92505060406134c48682870161306d565b9150509250925092565b600060ff82169050919050565b6134e4816134ce565b82525050565b60006020820190506134ff60008301846134db565b92915050565b61350e8161338e565b82525050565b60006020820190506135296000830184613505565b92915050565b600080fd5b600080fd5b60008083601f84011261354f5761354e6131e5565b5b8235905067ffffffffffffffff81111561356c5761356b61352f565b5b60208301915083600182028301111561358857613587613534565b5b9250929050565b6000806000604084860312156135a8576135a7612fe4565b5b600084013567ffffffffffffffff8111156135c6576135c5612fe9565b5b6135d286828701613539565b935093505060206135e58682870161306d565b9150509250925092565b60006020828403121561360557613604612fe4565b5b60006136138482850161306d565b91505092915050565b6000806020838503121561363357613632612fe4565b5b600083013567ffffffffffffffff81111561365157613650612fe9565b5b61365d85828601613539565b92509250509250929050565b60006020828403121561367f5761367e612fe4565b5b600061368d84828501613037565b91505092915050565b61369f8161300e565b82525050565b60006020820190506136ba6000830184613696565b92915050565b600081519050919050565b600082825260208201905092915050565b6000819050602082019050919050565b6000604083016000830151613704600086018261339e565b506020830151848203602086015261371c8282613114565b9150508091505092915050565b600061373583836136ec565b905092915050565b6000602082019050919050565b6000613755826136c0565b61375f81856136cb565b935083602082028501613771856136dc565b8060005b858110156137ad578484038952815161378e8582613729565b94506137998361373d565b925060208a01995050600181019050613775565b50829750879550505050505092915050565b600060208201905081810360008301526137d9818461374a565b905092915050565b600082825260208201905092915050565b60006137fd826130f8565b61380781856137e1565b9350613817818560208601612f3b565b61382081612f6e565b840191505092915050565b6000602082019050818103600083015261384581846137f2565b905092915050565b60008083601f840112613863576138626131e5565b5b8235905067ffffffffffffffff8111156138805761387f61352f565b5b60208301915083602082028301111561389c5761389b613534565b5b9250929050565b600080602083850312156138ba576138b9612fe4565b5b600083013567ffffffffffffffff8111156138d8576138d7612fe9565b5b6138e48582860161384d565b92509250509250929050565b6000806040838503121561390757613906612fe4565b5b600061391585828601613037565b925050602061392685828601613037565b9150509250929050565b600080fd5b600060c0828403121561394b5761394a613930565b5b81905092915050565b60006020828403121561396a57613969612fe4565b5b600082013567ffffffffffffffff81111561398857613987612fe9565b5b61399484828501613935565b91505092915050565b7f4e487b7100000000000000000000000000000000000000000000000000000000600052602260045260246000fd5b600060028204905060018216806139e457607f821691505b602082108114156139f8576139f761399d565b5b50919050565b7f4e487b7100000000000000000000000000000000000000000000000000000000600052603260045260246000fd5b600081905092915050565b60008190508160005260206000209050919050565b60008154613a5a816139cc565b613a648186613a2d565b94506001821660008114613a7f5760018114613a9057613ac3565b60ff19831686528186019350613ac3565b613a9985613a38565b60005b83811015613abb57815481890152600182019150602081019050613a9c565b838801955050505b50505092915050565b6000613ad88284613a4d565b915081905092915050565b7f4e487b7100000000000000000000000000000000000000000000000000000000600052601160045260246000fd5b6000613b1d8261304c565b9150613b288361304c565b9250827fffffffffffffffffffffffffffffffffffffffffffffffffffffffffffffffff03821115613b5d57613b5c613ae3565b5b828201905092915050565b7f4e6f2064656c6179656420747800000000000000000000000000000000000000600082015250565b6000613b9e600d83612f2a565b9150613ba982613b68565b602082019050919050565b60006020820190508181036000830152613bcd81613b91565b9050919050565b7f4e6f742063616368656400000000000000000000000000000000000000000000600082015250565b6000613c0a600a83612f2a565b9150613c1582613bd4565b602082019050919050565b60006020820190508181036000830152613c3981613bfd565b9050919050565b7f4e6f6e6365206572726f72000000000000000000000000000000000000000000600082015250565b6000613c76600b83612f2a565b9150613c8182613c40565b602082019050919050565b60006020820190508181036000830152613ca581613c69565b9050919050565b7f4e6f742065786563757461626c65000000000000000000000000000000000000600082015250565b6000613ce2600e83612f2a565b9150613ced82613cac565b602082019050919050565b60006020820190508181036000830152613d1181613cd5565b9050919050565b6000613d238261304c565b9150613d2e8361304c565b925082821015613d4157613d40613ae3565b5b828203905092915050565b7f4e487b7100000000000000000000000000000000000000000000000000000000600052603160045260246000fd5b60008154613d88816139cc565b613d9281866137e1565b94506001821660008114613dad5760018114613dbf57613df2565b60ff1983168652602086019350613df2565b613dc885613a38565b60005b83811015613dea57815481890152600182019150602081019050613dcb565b808801955050505b50505092915050565b6000819050919050565b6000613e20613e1b613e1684613363565b613dfb565b61304c565b9050919050565b613e3081613e05565b82525050565b60006040820190508181036000830152613e508185613d7b565b9050613e5f6020830184613e27565b9392505050565b6000613e71826130f8565b613e7b8185613a2d565b9350613e8b818560208601612f3b565b80840191505092915050565b6000613ea38284613e66565b915081905092915050565b6000613eba8385613a2d565b9350613ec783858461329b565b82840190509392505050565b6000613ee0828486613eae565b91508190509392505050565b60008190508160005260206000209050919050565b60008154613f0e816139cc565b613f188186613a2d565b94506001821660008114613f335760018114613f4457613f77565b60ff19831686528186019350613f77565b613f4d85613eec565b60005b83811015613f6f57815481890152600182019150602081019050613f50565b838801955050505b50505092915050565b6000613f8c8284613f01565b915081905092915050565b7f45524332303a2064656372656173656420616c6c6f77616e63652062656c6f7760008201527f207a65726f000000000000000000000000000000000000000000000000000000602082015250565b6000613ff3602583612f2a565b9150613ffe82613f97565b604082019050919050565b6000602082019050818103600083015261402281613fe6565b9050919050565b60008160f81b9050919050565b600061404182614029565b9050919050565b614059614054826134ce565b614036565b82525050565b60008160801b9050919050565b60006140778261405f565b9050919050565b61408f61408a82613363565b61406c565b82525050565b60006140a18286614048565b6001820191506140b18285613e66565b91506140bd828461407e565b601082019150819050949350505050565b600080fd5b600080fd5b600080fd5b6000823560016040038336030381126140f9576140f86140ce565b5b80830191505092915050565b61410e8161338e565b811461411957600080fd5b50565b6000813561412981614105565b80915050919050565b60008160001b9050919050565b600063ffffffff61414f84614132565b9350801983169250808416831791505092915050565b600061418061417b6141768461338e565b613dfb565b61338e565b9050919050565b6000819050919050565b61419a82614165565b6141ad6141a682614187565b835461413f565b8255505050565b600080833560016020038436030381126141d1576141d06140ce565b5b80840192508235915067ffffffffffffffff8211156141f3576141f26140d3565b5b60208301925060018202360383131561420f5761420e6140d8565b5b509250929050565b600082905092915050565b60006020601f8301049050919050565b600082821b905092915050565b60006008830261426f7fffffffffffffffffffffffffffffffffffffffffffffffffffffffffffffffff82614232565b6142798683614232565b95508019841693508086168417925050509392505050565b60006142ac6142a76142a28461304c565b613dfb565b61304c565b9050919050565b6000819050919050565b6142c683614291565b6142da6142d2826142b3565b84845461423f565b825550505050565b600090565b6142ef6142e2565b6142fa8184846142bd565b505050565b5b8181101561431e576143136000826142e7565b600181019050614300565b5050565b601f8211156143635761433481613a38565b61433d84614222565b8101602085101561434c578190505b61436061435885614222565b8301826142ff565b50505b505050565b600082821c905092915050565b600061438660001984600802614368565b1980831691505092915050565b600061439f8383614375565b9150826002028217905092915050565b6143b98383614217565b67ffffffffffffffff8111156143d2576143d16131ef565b5b6143dc82546139cc565b6143e7828285614322565b6000601f8311600181146144165760008415614404578287013590505b61440e8582614393565b865550614476565b601f19841661442486613a38565b60005b8281101561444c57848901358255600182019150602085019450602081019050614427565b868310156144695784890135614465601f891682614375565b8355505b6001600288020188555050505b50505050505050565b61448a8383836143af565b505050565b6000810160008301806144a18161411c565b90506144ad8184614191565b50505060018101602083016144c281856141b4565b6144cd81838661447f565b505050505050565b6144df828261448f565b5050565b60006144ee8261304c565b91507fffffffffffffffffffffffffffffffffffffffffffffffffffffffffffffffff82141561452157614520613ae3565b5b600182019050919050565b7f4f776e61626c653a206e6577206f776e657220697320746865207a65726f206160008201527f6464726573730000000000000000000000000000000000000000000000000000602082015250565b6000614588602683612f2a565b91506145938261452c565b604082019050919050565b600060208201905081810360008301526145b78161457b565b9050919050565b600080fd5b600080fd5b6145d181613363565b81146145dc57600080fd5b50565b6000813590506145ee816145c8565b92915050565b60008135905061460381614105565b92915050565b600060c0828403121561461f5761461e6145be565b5b61462960c061324f565b90506000614639848285016145df565b600083015250602061464d848285016145f4565b602083015250604082013567ffffffffffffffff811115614671576146706145c3565b5b61467d848285016132ec565b604083015250606082013567ffffffffffffffff8111156146a1576146a06145c3565b5b6146ad848285016132ec565b606083015250608082013567ffffffffffffffff8111156146d1576146d06145c3565b5b6146dd848285016132ec565b60808301525060a082013567ffffffffffffffff811115614701576147006145c3565b5b61470d848285016132ec565b60a08301525092915050565b60006147253683614609565b9050919050565b7f45524332303a20617070726f76652066726f6d20746865207a65726f2061646460008201527f7265737300000000000000000000000000000000000000000000000000000000602082015250565b6000614788602483612f2a565b91506147938261472c565b604082019050919050565b600060208201905081810360008301526147b78161477b565b9050919050565b7f45524332303a20617070726f766520746f20746865207a65726f20616464726560008201527f7373000000000000000000000000000000000000000000000000000000000000602082015250565b600061481a602283612f2a565b9150614825826147be565b604082019050919050565b600060208201905081810360008301526148498161480d565b9050919050565b7f45524332303a20696e73756666696369656e7420616c6c6f77616e6365000000600082015250565b6000614886601d83612f2a565b915061489182614850565b602082019050919050565b600060208201905081810360008301526148b581614879565b9050919050565b7f45524332303a207472616e736665722066726f6d20746865207a65726f20616460008201527f6472657373000000000000000000000000000000000000000000000000000000602082015250565b6000614918602583612f2a565b9150614923826148bc565b604082019050919050565b600060208201905081810360008301526149478161490b565b9050919050565b7f45524332303a207472616e7366657220746f20746865207a65726f206164647260008201527f6573730000000000000000000000000000000000000000000000000000000000602082015250565b60006149aa602383612f2a565b91506149b58261494e565b604082019050919050565b600060208201905081810360008301526149d98161499d565b9050919050565b7f45524332303a207472616e7366657220616d6f756e742065786365656473206260008201527f616c616e63650000000000000000000000000000000000000000000000000000602082015250565b6000614a3c602683612f2a565b9150614a47826149e0565b604082019050919050565b60006020820190508181036000830152614a6b81614a2f565b9050919050565b614a7b816134ce565b8114614a8657600080fd5b50565b600081519050614a9881614a72565b92915050565b6000614ab1614aac8461326a565b61324f565b905082815260208101848484011115614acd57614acc6131ea565b5b614ad8848285612f3b565b509392505050565b600082601f830112614af557614af46131e5565b5b8151614b05848260208601614a9e565b91505092915050565b600081519050614b1d81613056565b92915050565b600080600060608486031215614b3c57614b3b612fe4565b5b6000614b4a86828701614a89565b935050602084015167ffffffffffffffff811115614b6b57614b6a612fe9565b5b614b7786828701614ae0565b9250506040614b8886828701614b0e565b9150509250925092565b60006060820190508181036000830152614bac81866137f2565b90508181036020830152614bc081856137f2565b9050614bcf60408301846131bb565b949350505050565b7f4e6f74206f776e65720000000000000000000000000000000000000000000000600082015250565b6000614c0d600983612f2a565b9150614c1882614bd7565b602082019050919050565b60006020820190508181036000830152614c3c81614c00565b9050919050565b50565b6000614c536000836137e1565b9150614c5e82614c43565b600082019050919050565b60006060820190508181036000830152614c8281614c46565b90508181036020830152614c9681856137f2565b9050614ca560408301846131bb565b9392505050565b7f4578636565642062616c616e6365000000000000000000000000000000000000600082015250565b6000614ce2600e83612f2a565b9150614ced82614cac565b602082019050919050565b60006020820190508181036000830152614d1181614cd5565b9050919050565b60006060820190508181036000830152614d3281856137f2565b90508181036020830152614d4581614c46565b9050614d5460408301846131bb565b9392505050565b7f4f776e61626c653a2063616c6c6572206973206e6f7420746865206f776e6572600082015250565b6000614d91602083612f2a565b9150614d9c82614d5b565b602082019050919050565b60006020820190508181036000830152614dc081614d84565b9050919050565b7f57726f6e6720696e697469617465534300000000000000000000000000000000600082015250565b6000614dfd601083612f2a565b9150614e0882614dc7565b602082019050919050565b60006020820190508181036000830152614e2c81614df0565b9050919050565b7f55736572206d616c6963696f7573000000000000000000000000000000000000600082015250565b6000614e69600e83612f2a565b9150614e7482614e33565b602082019050919050565b60006020820190508181036000830152614e9881614e5c565b9050919050565b8082525050565b614eaf81613363565b82525050565b614ebe8161338e565b82525050565b600082825260208201905092915050565b6000614ee0826130f8565b614eea8185614ec4565b9350614efa818560208601612f3b565b614f0381612f6e565b840191505092915050565b600060c083016000830151614f266000860182614ea6565b506020830151614f396020860182614eb5565b5060408301518482036040860152614f518282614ed5565b91505060608301518482036060860152614f6b8282614ed5565b91505060808301518482036080860152614f858282614ed5565b91505060a083015184820360a0860152614f9f8282614ed5565b9150508091505092915050565b6000604082019050614fc16000830185614e9f565b8181036020830152614fd38184614f0e565b90509392505050565b60038110614fe957600080fd5b50565b600081519050614ffb81614fdc565b92915050565b60006020828403121561501757615016612fe4565b5b600061502584828501614fec565b91505092915050565b7f4e487b7100000000000000000000000000000000000000000000000000000000600052602160045260246000fd5b7f5472616e73616374696f6e206361636865640000000000000000000000000000600082015250565b6000615093601283612f2a565b915061509e8261505d565b602082019050919050565b600060208201905081810360008301526150c281615086565b9050919050565b600060408201905081810360008301526150e381856137f2565b90506150f26020830184613e27565b9392505050565b7f4f5020636f6465206572726f7200000000000000000000000000000000000000600082015250565b600061512f600d83612f2a565b915061513a826150f9565b602082019050919050565b6000602082019050818103600083015261515e81615122565b905091905056fea2646970667358221220fce0bc07e033a54a09ce3b2ac6a1467222a056b10161a62069beef6c96cef0ac64736f6c634300080c0033",
  "immutableReferences": {},
  "source": "// SPDX-License-Identifier: MIT\npragma solidity >=0.8.0 <0.9.0;\n\nimport \"@openzeppelin/contracts/access/Ownable.sol\";\nimport \"./ERC20.sol\";\nimport \"./libraries/OmniverseProtocolHelper.sol\";\nimport \"./interfaces/IERC6358Fungible.sol\";\n\n/**\n* @notice Fungible token data structure, from which the field `payload` in `ERC6358TransactionData` will be encoded\n*\n* @member op: The operation type\n* NOTE op: 0-31 are reserved values, 32-255 are custom values\n*           op: 0 - omniverse account `from` transfers `amount` tokens to omniverse account `exData`, `from` have at least `amount` tokens\n*           op: 1 - omniverse account `from` mints `amount` tokens to omniverse account `exData`\n*           op: 2 - omniverse account `from` burns `amount` tokens from his own, `from` have at least `amount` tokens\n* @member exData: The operation data. This sector could be empty and is determined by `op`. For example: \n            when `op` is 0 and 1, `exData` stores the omniverse account that receives.\n            when `op` is 2, `exData` is empty.\n* @member amount: The amount of tokens being operated\n */\nstruct Fungible {\n    uint8 op;\n    bytes exData;\n    uint256 amount;\n}\n\n/**\n * @notice Implementation of the {IERC6358Fungible} interface\n */\ncontract SkywalkerFungible is ERC20, Ownable, IERC6358Fungible {\n    uint8 constant TRANSFER = 0;\n    uint8 constant MINT = 1;\n    uint8 constant BURN = 2;\n\n    /** @notice Used to index a delayed transaction\n     * sender: The account which sent the transaction\n     * nonce: The nonce of the delayed transaction\n     */\n    struct DelayedTx {\n        bytes sender;\n        uint256 nonce;\n    }\n\n    /**\n     * @notice The member information\n     * chainId: The chain which the member belongs to\n     * contractAddr: The contract address on the member chain\n     */\n    struct Member {\n        uint32 chainId;\n        bytes contractAddr;\n    }\n\n    // Chain id used to distinguish different chains\n    uint32 chainId;\n    // O-transaction cooling down time\n    uint256 public cdTime;\n    // Omniverse accounts record\n    mapping(bytes => RecordedCertificate) transactionRecorder;\n    // Transactions to be executed\n    mapping(bytes => OmniverseTx) public transactionCache;\n\n    // All information of chains on which the token is deployed\n    Member[] members;\n    // Omniverse balances\n    mapping(bytes => uint256) omniverseBalances;\n    // Delay-executing transactions\n    DelayedTx[] delayedTxs;\n    // Account map from evm address to public key\n    mapping(address => bytes) accountsMap;\n\n    event OmniverseTokenTransfer(bytes from, bytes to, uint256 value);\n\n    /**\n     * @notice Initiates the contract\n     * @param _chainId The chain which the contract is deployed on\n     * @param _name The name of the token\n     * @param _symbol The symbol of the token\n     */\n    constructor(uint32 _chainId, string memory _name, string memory _symbol) ERC20(_name, _symbol) {\n        chainId = _chainId;\n    }\n\n    /**\n     * @notice See {IERC6358Fungible-sendOmniverseTransaction}\n     * Send an omniverse transaction\n     */\n    function sendOmniverseTransaction(ERC6358TransactionData calldata _data) external override {\n        _omniverseTransaction(_data);\n    }\n\n    /**\n     * @notice See {IERC6358Fungible-triggerExecution}\n     */\n    function triggerExecution() external {\n        require(delayedTxs.length > 0, \"No delayed tx\");\n\n        OmniverseTx storage cache = transactionCache[delayedTxs[0].sender];\n        require(cache.timestamp != 0, \"Not cached\");\n        require(cache.txData.nonce == delayedTxs[0].nonce, \"Nonce error\");\n        (ERC6358TransactionData storage txData, uint256 timestamp) = (cache.txData, cache.timestamp);\n        require(block.timestamp >= timestamp + cdTime, \"Not executable\");\n        delayedTxs[0] = delayedTxs[delayedTxs.length - 1];\n        delayedTxs.pop();\n        cache.timestamp = 0;\n        // Add to transaction recorder\n        RecordedCertificate storage rc = transactionRecorder[txData.from];\n        rc.txList.push(cache);\n\n        Fungible memory fungible = decodeData(txData.payload);\n        if (fungible.op == TRANSFER) {\n            _omniverseTransfer(txData.from, fungible.exData, fungible.amount);\n        }\n        else if (fungible.op == MINT) {\n            _checkOwner(txData.from);\n            _omniverseMint(fungible.exData, fungible.amount);\n        }\n        else if (fungible.op == BURN) {\n            _checkOwner(txData.from);\n            _checkOmniverseBurn(fungible.exData, fungible.amount);\n            _omniverseBurn(fungible.exData, fungible.amount);\n        }\n        emit TransactionExecuted(txData.from, txData.nonce);\n    }\n    \n    /**\n     * @notice Check if the transaction can be executed successfully\n     */\n    function _checkExecution(ERC6358TransactionData memory txData) internal view {\n        Fungible memory fungible = decodeData(txData.payload);\n        if (fungible.op == TRANSFER) {\n            _checkOmniverseTransfer(txData.from, fungible.amount);\n        }\n        else if (fungible.op == MINT) {\n            _checkOwner(txData.from);\n        }\n        else if (fungible.op == BURN) {\n            _checkOwner(txData.from);\n            _checkOmniverseBurn(fungible.exData, fungible.amount);\n        }\n        else {\n            revert(\"OP code error\");\n        }\n    }\n\n    /**\n     * @notice Returns the nearest exexutable delayed transaction info\n     * or returns default if not found\n     */\n    function getExecutableDelayedTx() external view returns (DelayedTx memory ret) {\n        if (delayedTxs.length > 0) {\n            OmniverseTx storage cache = transactionCache[delayedTxs[0].sender];\n            if (block.timestamp >= cache.timestamp + cdTime) {\n                ret = delayedTxs[0];\n            }\n        }\n    }\n\n    /**\n     * @notice Returns the count of delayed transactions\n     */\n    function getDelayedTxCount() external view returns (uint256) {\n        return delayedTxs.length;\n    }\n\n    /**\n     * @notice See {IERC6358Fungible-omniverseBalanceOf}\n     * Returns the omniverse balance of a user\n     */\n    function omniverseBalanceOf(bytes calldata _pk) external view override returns (uint256) {\n        return omniverseBalances[_pk];\n    }\n\n    /**\n     * @notice See {IERC20-balanceOf}.\n     */\n    function balanceOf(address account) public view virtual override returns (uint256) {\n        bytes storage pk = accountsMap[account];\n        if (pk.length == 0) {\n            return 0;\n        }\n        else {\n            return omniverseBalances[pk];\n        }\n    }\n\n    /**\n     * @notice Receive and check an omniverse transaction\n     */\n    function _omniverseTransaction(ERC6358TransactionData memory _data) internal {\n        // Check if the tx initiateSC is correct\n        bool found = false;\n        for (uint256 i = 0; i < members.length; i++) {\n            if (members[i].chainId == _data.chainId) {\n                require(keccak256(members[i].contractAddr) == keccak256(_data.initiateSC), \"Wrong initiateSC\");\n                found = true;\n            }\n        }\n        require(found, \"Wrong initiateSC\");\n\n        // Check if the sender is honest\n        // to be continued, we can use block list instead of `isMalicious`\n        require(!isMalicious(_data.from), \"User malicious\");\n\n        // Verify the signature\n        VerifyResult verifyRet = OmniverseProtocolHelper.verifyTransaction(transactionRecorder[_data.from], _data);\n\n        if (verifyRet == VerifyResult.Success) {\n            // Check cache\n            OmniverseTx storage cache = transactionCache[_data.from];\n            require(cache.timestamp == 0, \"Transaction cached\");\n            // Logic verification\n            _checkExecution(_data);\n            // Delays in executing\n            cache.txData = _data;\n            cache.timestamp = block.timestamp;\n            delayedTxs.push(DelayedTx(_data.from, _data.nonce));\n            if (_data.chainId == chainId) {\n                emit TransactionSent(_data.from, _data.nonce);\n            }\n        }\n        else if (verifyRet == VerifyResult.Duplicated) {\n            emit TransactionExecuted(_data.from, _data.nonce);\n        }\n        else if (verifyRet == VerifyResult.Malicious) {\n            // Slash\n        }\n    }\n\n    /**\n     * @notice Check if an omniverse transfer operation can be executed successfully\n     */\n    function _checkOmniverseTransfer(bytes memory _from, uint256 _amount) internal view {\n        uint256 fromBalance = omniverseBalances[_from];\n        require(fromBalance >= _amount, \"Exceed balance\");\n    }\n\n    /**\n     * @notice Exucute an omniverse transfer operation\n     */\n    function _omniverseTransfer(bytes memory _from, bytes memory _to, uint256 _amount) internal {\n        _checkOmniverseTransfer(_from, _amount);\n        \n        uint256 fromBalance = omniverseBalances[_from];\n        \n        unchecked {\n            omniverseBalances[_from] = fromBalance - _amount;\n        }\n        omniverseBalances[_to] += _amount;\n\n        emit OmniverseTokenTransfer(_from, _to, _amount);\n\n        address toAddr = _pkToAddress(_to);\n        accountsMap[toAddr] = _to;\n    }\n    \n    /**\n     * @notice Check if the public key is the owner\n     */\n    function _checkOwner(bytes memory _pk) internal view {\n        address fromAddr = _pkToAddress(_pk);\n        require(fromAddr == owner(), \"Not owner\");\n    }\n\n    /**\n     * @notice Execute an omniverse mint operation\n     */\n    function _omniverseMint(bytes memory _to, uint256 _amount) internal {\n        omniverseBalances[_to] += _amount;\n        emit OmniverseTokenTransfer(\"\", _to, _amount);\n\n        address toAddr = _pkToAddress(_to);\n        accountsMap[toAddr] = _to;\n    }\n\n    /**\n     * @notice Check if an omniverse burn operation can be executed successfully\n     */\n    function _checkOmniverseBurn(bytes memory _from, uint256 _amount) internal view {\n        uint256 fromBalance = omniverseBalances[_from];\n        require(fromBalance >= _amount, \"Exceed balance\");\n    }\n\n    /**\n     * @notice Execute an omniverse burn operation\n     */\n    function _omniverseBurn(bytes memory _from, uint256 _amount) internal {\n        omniverseBalances[_from] -= _amount;\n        emit OmniverseTokenTransfer(_from, \"\", _amount);\n    }\n\n    /**\n     * @notice Convert the public key to evm address\n     */\n    function _pkToAddress(bytes memory _pk) internal pure returns (address) {\n        bytes32 hash = keccak256(_pk);\n        return address(uint160(uint256(hash)));\n    }\n\n    /**\n     * @notice Add new chain members to the token\n     */\n    function setMembers(Member[] calldata _members) external onlyOwner {\n        for (uint256 i = 0; i < _members.length; i++) {\n            if (i < members.length) {\n                members[i] = _members[i];\n            }\n            else {\n                members.push(_members[i]);\n            }\n        }\n\n        for (uint256 i = _members.length; i < members.length; i++) {\n            delete members[i];\n        }\n    }\n\n    /**\n     * @notice Returns chain members of the token\n     */\n    function getMembers() external view returns (Member[] memory) {\n        return members;\n    }\n    \n    /**\n     @notice See {IERC20-decimals}.\n     */\n    function decimals() public view virtual override returns (uint8) {\n        return 12;\n    }\n\n    /**\n     * @notice See IERC6358Fungible\n     */\n    function getTransactionCount(bytes memory _pk) external override view returns (uint256) {\n        return transactionRecorder[_pk].txList.length;\n    }\n\n    /**\n     * @notice See IERC6358Fungible\n     */\n    function getTransactionData(bytes calldata _user, uint256 _nonce) external override view returns (ERC6358TransactionData memory txData, uint256 timestamp) {\n        RecordedCertificate storage rc = transactionRecorder[_user];\n        OmniverseTx storage omniTx = rc.txList[_nonce];\n        txData = omniTx.txData;\n        timestamp = omniTx.timestamp;\n    }\n\n    /**\n     * @notice Set the cooling down time of an omniverse transaction\n     */\n    function setCoolingDownTime(uint256 _time) external {\n        cdTime = _time;\n    }\n\n    /**\n     * @notice Index the user is malicious or not\n     */\n    function isMalicious(bytes memory _pk) public view returns (bool) {\n        RecordedCertificate storage rc = transactionRecorder[_pk];\n        return (rc.evilTxList.length > 0);\n    }\n\n    /**\n     * @notice See IERC6358Fungible\n     */\n    function getChainId() external view returns (uint32) {\n        return chainId;\n    }\n\n    /**\n     * @notice Decode `_data` from bytes to Fungible\n     */\n    function decodeData(bytes memory _data) internal pure returns (Fungible memory) {\n        (uint8 op, bytes memory exData, uint256 amount) = abi.decode(_data, (uint8, bytes, uint256));\n        return Fungible(op, exData, amount);\n    }\n\n    /**\n     * @notice See IERC6358Application\n     */\n    function getPayloadRawData(bytes memory _payload) external pure returns (bytes memory) {\n        Fungible memory fungible = decodeData(_payload);\n        return abi.encodePacked(fungible.op, fungible.exData, uint128(fungible.amount));\n    }\n}",
  "sourcePath": "/home/dante/dev/solidity/omniverse-evm/contracts/contracts/SkywalkerFungible.sol",
  "compiler": {
    "name": "solc",
    "version": "0.8.12+commit.f00d7308.Emscripten.clang"
  },
  "schemaVersion": "3.4.13",
  "updatedAt": "2023-03-27T06:50:10.375Z",
  "devdoc": {
    "kind": "dev",
    "methods": {
      "allowance(address,address)": {
        "details": "See {IERC20-allowance}."
      },
      "approve(address,uint256)": {
        "details": "See {IERC20-approve}. NOTE: If `amount` is the maximum `uint256`, the allowance is not updated on `transferFrom`. This is semantically equivalent to an infinite approval. Requirements: - `spender` cannot be the zero address."
      },
      "constructor": {
        "params": {
          "_chainId": "The chain which the contract is deployed on",
          "_name": "The name of the token",
          "_symbol": "The symbol of the token"
        }
      },
      "decreaseAllowance(address,uint256)": {
        "details": "Atomically decreases the allowance granted to `spender` by the caller. This is an alternative to {approve} that can be used as a mitigation for problems described in {IERC20-approve}. Emits an {Approval} event indicating the updated allowance. Requirements: - `spender` cannot be the zero address. - `spender` must have allowance for the caller of at least `subtractedValue`."
      },
      "increaseAllowance(address,uint256)": {
        "details": "Atomically increases the allowance granted to `spender` by the caller. This is an alternative to {approve} that can be used as a mitigation for problems described in {IERC20-approve}. Emits an {Approval} event indicating the updated allowance. Requirements: - `spender` cannot be the zero address."
      },
      "name()": {
        "details": "Returns the name of the token."
      },
      "owner()": {
        "details": "Returns the address of the current owner."
      },
      "renounceOwnership()": {
        "details": "Leaves the contract without owner. It will not be possible to call `onlyOwner` functions anymore. Can only be called by the current owner. NOTE: Renouncing ownership will leave the contract without an owner, thereby removing any functionality that is only available to the owner."
      },
      "symbol()": {
        "details": "Returns the symbol of the token, usually a shorter version of the name."
      },
      "totalSupply()": {
        "details": "See {IERC20-totalSupply}."
      },
      "transfer(address,uint256)": {
        "details": "See {IERC20-transfer}. Requirements: - `to` cannot be the zero address. - the caller must have a balance of at least `amount`."
      },
      "transferFrom(address,address,uint256)": {
        "details": "See {IERC20-transferFrom}. Emits an {Approval} event indicating the updated allowance. This is not required by the EIP. See the note at the beginning of {ERC20}. NOTE: Does not update the allowance if the current allowance is the maximum `uint256`. Requirements: - `from` and `to` cannot be the zero address. - `from` must have a balance of at least `amount`. - the caller must have allowance for ``from``'s tokens of at least `amount`."
      },
      "transferOwnership(address)": {
        "details": "Transfers ownership of the contract to a new account (`newOwner`). Can only be called by the current owner."
      }
    },
    "version": 1
  },
  "userdoc": {
    "events": {
      "TransactionExecuted(bytes,uint256)": {
        "notice": "Emitted when a o-transaction which has nonce `nonce` and was signed by user `pk` is executed"
      },
      "TransactionSent(bytes,uint256)": {
        "notice": "Emitted when a o-transaction which has nonce `nonce` and was signed by user `pk` is sent by calling {sendOmniverseTransaction}"
      }
    },
    "kind": "user",
    "methods": {
      "balanceOf(address)": {
        "notice": "See {IERC20-balanceOf}."
      },
      "constructor": {
        "notice": "Initiates the contract"
      },
      "decimals()": {
        "notice": "See {IERC20-decimals}."
      },
      "getChainId()": {
        "notice": "See IERC6358Fungible"
      },
      "getDelayedTxCount()": {
        "notice": "Returns the count of delayed transactions"
      },
      "getExecutableDelayedTx()": {
        "notice": "Returns the nearest exexutable delayed transaction info or returns default if not found"
      },
      "getMembers()": {
        "notice": "Returns chain members of the token"
      },
      "getPayloadRawData(bytes)": {
        "notice": "See IERC6358Application"
      },
      "getTransactionCount(bytes)": {
        "notice": "See IERC6358Fungible"
      },
      "getTransactionData(bytes,uint256)": {
        "notice": "See IERC6358Fungible"
      },
      "isMalicious(bytes)": {
        "notice": "Index the user is malicious or not"
      },
      "omniverseBalanceOf(bytes)": {
        "notice": "See {IERC6358Fungible-omniverseBalanceOf} Returns the omniverse balance of a user"
      },
      "sendOmniverseTransaction((uint128,uint32,bytes,bytes,bytes,bytes))": {
        "notice": "See {IERC6358Fungible-sendOmniverseTransaction} Send an omniverse transaction"
      },
      "setCoolingDownTime(uint256)": {
        "notice": "Set the cooling down time of an omniverse transaction"
      },
      "setMembers((uint32,bytes)[])": {
        "notice": "Add new chain members to the token"
      },
      "triggerExecution()": {
        "notice": "See {IERC6358Fungible-triggerExecution}"
      }
    },
    "notice": "Implementation of the {IERC6358Fungible} interface",
    "version": 1
  }
}