{
  "contractName": "SkywalkerFungible",
  "abi": [
    {
      "inputs": [
        {
          "internalType": "uint32",
          "name": "_chainId",
          "type": "uint32"
        },
        {
          "internalType": "string",
          "name": "_name",
          "type": "string"
        },
        {
          "internalType": "string",
          "name": "_symbol",
          "type": "string"
        }
      ],
      "stateMutability": "nonpayable",
      "type": "constructor"
    },
    {
      "anonymous": false,
      "inputs": [
        {
          "indexed": true,
          "internalType": "address",
          "name": "owner",
          "type": "address"
        },
        {
          "indexed": true,
          "internalType": "address",
          "name": "spender",
          "type": "address"
        },
        {
          "indexed": false,
          "internalType": "uint256",
          "name": "value",
          "type": "uint256"
        }
      ],
      "name": "Approval",
      "type": "event"
    },
    {
      "anonymous": false,
      "inputs": [
        {
          "indexed": false,
          "internalType": "bytes",
          "name": "from",
          "type": "bytes"
        },
        {
          "indexed": false,
          "internalType": "bytes",
          "name": "to",
          "type": "bytes"
        },
        {
          "indexed": false,
          "internalType": "uint256",
          "name": "value",
          "type": "uint256"
        }
      ],
      "name": "OmniverseTokenTransfer",
      "type": "event"
    },
    {
      "anonymous": false,
      "inputs": [
        {
          "indexed": true,
          "internalType": "address",
          "name": "previousOwner",
          "type": "address"
        },
        {
          "indexed": true,
          "internalType": "address",
          "name": "newOwner",
          "type": "address"
        }
      ],
      "name": "OwnershipTransferred",
      "type": "event"
    },
    {
      "anonymous": false,
      "inputs": [
        {
          "indexed": false,
          "internalType": "bytes",
          "name": "pk",
          "type": "bytes"
        },
        {
          "indexed": false,
          "internalType": "uint256",
          "name": "nonce",
          "type": "uint256"
        }
      ],
      "name": "TransactionSent",
      "type": "event"
    },
    {
      "anonymous": false,
      "inputs": [
        {
          "indexed": true,
          "internalType": "address",
          "name": "from",
          "type": "address"
        },
        {
          "indexed": true,
          "internalType": "address",
          "name": "to",
          "type": "address"
        },
        {
          "indexed": false,
          "internalType": "uint256",
          "name": "value",
          "type": "uint256"
        }
      ],
      "name": "Transfer",
      "type": "event"
    },
    {
      "inputs": [
        {
          "internalType": "address",
          "name": "owner",
          "type": "address"
        },
        {
          "internalType": "address",
          "name": "spender",
          "type": "address"
        }
      ],
      "name": "allowance",
      "outputs": [
        {
          "internalType": "uint256",
          "name": "",
          "type": "uint256"
        }
      ],
      "stateMutability": "view",
      "type": "function",
      "constant": true
    },
    {
      "inputs": [
        {
          "internalType": "address",
          "name": "spender",
          "type": "address"
        },
        {
          "internalType": "uint256",
          "name": "amount",
          "type": "uint256"
        }
      ],
      "name": "approve",
      "outputs": [
        {
          "internalType": "bool",
          "name": "",
          "type": "bool"
        }
      ],
      "stateMutability": "nonpayable",
      "type": "function"
    },
    {
      "inputs": [],
      "name": "cdTime",
      "outputs": [
        {
          "internalType": "uint256",
          "name": "",
          "type": "uint256"
        }
      ],
      "stateMutability": "view",
      "type": "function",
      "constant": true
    },
    {
      "inputs": [
        {
          "internalType": "address",
          "name": "spender",
          "type": "address"
        },
        {
          "internalType": "uint256",
          "name": "subtractedValue",
          "type": "uint256"
        }
      ],
      "name": "decreaseAllowance",
      "outputs": [
        {
          "internalType": "bool",
          "name": "",
          "type": "bool"
        }
      ],
      "stateMutability": "nonpayable",
      "type": "function"
    },
    {
      "inputs": [
        {
          "internalType": "address",
          "name": "spender",
          "type": "address"
        },
        {
          "internalType": "uint256",
          "name": "addedValue",
          "type": "uint256"
        }
      ],
      "name": "increaseAllowance",
      "outputs": [
        {
          "internalType": "bool",
          "name": "",
          "type": "bool"
        }
      ],
      "stateMutability": "nonpayable",
      "type": "function"
    },
    {
      "inputs": [],
      "name": "name",
      "outputs": [
        {
          "internalType": "string",
          "name": "",
          "type": "string"
        }
      ],
      "stateMutability": "view",
      "type": "function",
      "constant": true
    },
    {
      "inputs": [],
      "name": "owner",
      "outputs": [
        {
          "internalType": "address",
          "name": "",
          "type": "address"
        }
      ],
      "stateMutability": "view",
      "type": "function",
      "constant": true
    },
    {
      "inputs": [],
      "name": "renounceOwnership",
      "outputs": [],
      "stateMutability": "nonpayable",
      "type": "function"
    },
    {
      "inputs": [],
      "name": "symbol",
      "outputs": [
        {
          "internalType": "string",
          "name": "",
          "type": "string"
        }
      ],
      "stateMutability": "view",
      "type": "function",
      "constant": true
    },
    {
      "inputs": [],
      "name": "totalSupply",
      "outputs": [
        {
          "internalType": "uint256",
          "name": "",
          "type": "uint256"
        }
      ],
      "stateMutability": "view",
      "type": "function",
      "constant": true
    },
    {
      "inputs": [
        {
          "internalType": "bytes",
          "name": "",
          "type": "bytes"
        }
      ],
      "name": "transactionCache",
      "outputs": [
        {
          "components": [
            {
              "internalType": "uint128",
              "name": "nonce",
              "type": "uint128"
            },
            {
              "internalType": "uint32",
              "name": "chainId",
              "type": "uint32"
            },
            {
              "internalType": "bytes",
              "name": "initiateSC",
              "type": "bytes"
            },
            {
              "internalType": "bytes",
              "name": "from",
              "type": "bytes"
            },
            {
              "internalType": "bytes",
              "name": "payload",
              "type": "bytes"
            },
            {
              "internalType": "bytes",
              "name": "signature",
              "type": "bytes"
            }
          ],
          "internalType": "struct ERC6358TransactionData",
          "name": "txData",
          "type": "tuple"
        },
        {
          "internalType": "uint256",
          "name": "timestamp",
          "type": "uint256"
        }
      ],
      "stateMutability": "view",
      "type": "function",
      "constant": true
    },
    {
      "inputs": [
        {
          "internalType": "address",
          "name": "to",
          "type": "address"
        },
        {
          "internalType": "uint256",
          "name": "amount",
          "type": "uint256"
        }
      ],
      "name": "transfer",
      "outputs": [
        {
          "internalType": "bool",
          "name": "",
          "type": "bool"
        }
      ],
      "stateMutability": "nonpayable",
      "type": "function"
    },
    {
      "inputs": [
        {
          "internalType": "address",
          "name": "from",
          "type": "address"
        },
        {
          "internalType": "address",
          "name": "to",
          "type": "address"
        },
        {
          "internalType": "uint256",
          "name": "amount",
          "type": "uint256"
        }
      ],
      "name": "transferFrom",
      "outputs": [
        {
          "internalType": "bool",
          "name": "",
          "type": "bool"
        }
      ],
      "stateMutability": "nonpayable",
      "type": "function"
    },
    {
      "inputs": [
        {
          "internalType": "address",
          "name": "newOwner",
          "type": "address"
        }
      ],
      "name": "transferOwnership",
      "outputs": [],
      "stateMutability": "nonpayable",
      "type": "function"
    },
    {
      "inputs": [
        {
          "components": [
            {
              "internalType": "uint128",
              "name": "nonce",
              "type": "uint128"
            },
            {
              "internalType": "uint32",
              "name": "chainId",
              "type": "uint32"
            },
            {
              "internalType": "bytes",
              "name": "initiateSC",
              "type": "bytes"
            },
            {
              "internalType": "bytes",
              "name": "from",
              "type": "bytes"
            },
            {
              "internalType": "bytes",
              "name": "payload",
              "type": "bytes"
            },
            {
              "internalType": "bytes",
              "name": "signature",
              "type": "bytes"
            }
          ],
          "internalType": "struct ERC6358TransactionData",
          "name": "_data",
          "type": "tuple"
        }
      ],
      "name": "sendOmniverseTransaction",
      "outputs": [],
      "stateMutability": "nonpayable",
      "type": "function"
    },
    {
      "inputs": [],
      "name": "triggerExecution",
      "outputs": [],
      "stateMutability": "nonpayable",
      "type": "function"
    },
    {
      "inputs": [],
      "name": "getExecutableDelayedTx",
      "outputs": [
        {
          "components": [
            {
              "internalType": "bytes",
              "name": "sender",
              "type": "bytes"
            },
            {
              "internalType": "uint256",
              "name": "nonce",
              "type": "uint256"
            }
          ],
          "internalType": "struct SkywalkerFungible.DelayedTx",
          "name": "ret",
          "type": "tuple"
        }
      ],
      "stateMutability": "view",
      "type": "function",
      "constant": true
    },
    {
      "inputs": [],
      "name": "getDelayedTxCount",
      "outputs": [
        {
          "internalType": "uint256",
          "name": "",
          "type": "uint256"
        }
      ],
      "stateMutability": "view",
      "type": "function",
      "constant": true
    },
    {
      "inputs": [
        {
          "internalType": "bytes",
          "name": "_pk",
          "type": "bytes"
        }
      ],
      "name": "omniverseBalanceOf",
      "outputs": [
        {
          "internalType": "uint256",
          "name": "",
          "type": "uint256"
        }
      ],
      "stateMutability": "view",
      "type": "function",
      "constant": true
    },
    {
      "inputs": [
        {
          "internalType": "address",
          "name": "account",
          "type": "address"
        }
      ],
      "name": "balanceOf",
      "outputs": [
        {
          "internalType": "uint256",
          "name": "",
          "type": "uint256"
        }
      ],
      "stateMutability": "view",
      "type": "function",
      "constant": true
    },
    {
      "inputs": [
        {
          "components": [
            {
              "internalType": "uint32",
              "name": "chainId",
              "type": "uint32"
            },
            {
              "internalType": "bytes",
              "name": "contractAddr",
              "type": "bytes"
            }
          ],
          "internalType": "struct SkywalkerFungible.Member[]",
          "name": "_members",
          "type": "tuple[]"
        }
      ],
      "name": "setMembers",
      "outputs": [],
      "stateMutability": "nonpayable",
      "type": "function"
    },
    {
      "inputs": [],
      "name": "getMembers",
      "outputs": [
        {
          "components": [
            {
              "internalType": "uint32",
              "name": "chainId",
              "type": "uint32"
            },
            {
              "internalType": "bytes",
              "name": "contractAddr",
              "type": "bytes"
            }
          ],
          "internalType": "struct SkywalkerFungible.Member[]",
          "name": "",
          "type": "tuple[]"
        }
      ],
      "stateMutability": "view",
      "type": "function",
      "constant": true
    },
    {
      "inputs": [],
      "name": "decimals",
      "outputs": [
        {
          "internalType": "uint8",
          "name": "",
          "type": "uint8"
        }
      ],
      "stateMutability": "view",
      "type": "function",
      "constant": true
    },
    {
      "inputs": [
        {
          "internalType": "bytes",
          "name": "_pk",
          "type": "bytes"
        }
      ],
      "name": "getTransactionCount",
      "outputs": [
        {
          "internalType": "uint256",
          "name": "",
          "type": "uint256"
        }
      ],
      "stateMutability": "view",
      "type": "function",
      "constant": true
    },
    {
      "inputs": [
        {
          "internalType": "bytes",
          "name": "_user",
          "type": "bytes"
        },
        {
          "internalType": "uint256",
          "name": "_nonce",
          "type": "uint256"
        }
      ],
      "name": "getTransactionData",
      "outputs": [
        {
          "components": [
            {
              "internalType": "uint128",
              "name": "nonce",
              "type": "uint128"
            },
            {
              "internalType": "uint32",
              "name": "chainId",
              "type": "uint32"
            },
            {
              "internalType": "bytes",
              "name": "initiateSC",
              "type": "bytes"
            },
            {
              "internalType": "bytes",
              "name": "from",
              "type": "bytes"
            },
            {
              "internalType": "bytes",
              "name": "payload",
              "type": "bytes"
            },
            {
              "internalType": "bytes",
              "name": "signature",
              "type": "bytes"
            }
          ],
          "internalType": "struct ERC6358TransactionData",
          "name": "txData",
          "type": "tuple"
        },
        {
          "internalType": "uint256",
          "name": "timestamp",
          "type": "uint256"
        }
      ],
      "stateMutability": "view",
      "type": "function",
      "constant": true
    },
    {
      "inputs": [
        {
          "internalType": "uint256",
          "name": "_time",
          "type": "uint256"
        }
      ],
      "name": "setCooingDownTime",
      "outputs": [],
      "stateMutability": "nonpayable",
      "type": "function"
    },
    {
      "inputs": [
        {
          "internalType": "bytes",
          "name": "_pk",
          "type": "bytes"
        }
      ],
      "name": "isMalicious",
      "outputs": [
        {
          "internalType": "bool",
          "name": "",
          "type": "bool"
        }
      ],
      "stateMutability": "view",
      "type": "function",
      "constant": true
    },
    {
      "inputs": [],
      "name": "getChainId",
      "outputs": [
        {
          "internalType": "uint32",
          "name": "",
          "type": "uint32"
        }
      ],
      "stateMutability": "view",
      "type": "function",
      "constant": true
    }
  ],
  "bytecode": "0x60806040523480156200001157600080fd5b50604051620053f4380380620053f4833981810160405281019062000037919062000413565b818181600390805190602001906200005192919062000185565b5080600490805190602001906200006a92919062000185565b5050506200008d62000081620000b760201b60201c565b620000bf60201b60201c565b82600560146101000a81548163ffffffff021916908363ffffffff16021790555050505062000512565b600033905090565b6000600560009054906101000a900473ffffffffffffffffffffffffffffffffffffffff16905081600560006101000a81548173ffffffffffffffffffffffffffffffffffffffff021916908373ffffffffffffffffffffffffffffffffffffffff1602179055508173ffffffffffffffffffffffffffffffffffffffff168173ffffffffffffffffffffffffffffffffffffffff167f8be0079c531659141344cd1fd0a4f28419497f9722a3daafe3b4186f6b6457e060405160405180910390a35050565b8280546200019390620004dc565b90600052602060002090601f016020900481019282620001b7576000855562000203565b82601f10620001d257805160ff191683800117855562000203565b8280016001018555821562000203579182015b8281111562000202578251825591602001919060010190620001e5565b5b50905062000212919062000216565b5090565b5b808211156200023157600081600090555060010162000217565b5090565b6000604051905090565b600080fd5b600080fd5b600063ffffffff82169050919050565b620002648162000249565b81146200027057600080fd5b50565b600081519050620002848162000259565b92915050565b600080fd5b600080fd5b6000601f19601f8301169050919050565b7f4e487b7100000000000000000000000000000000000000000000000000000000600052604160045260246000fd5b620002df8262000294565b810181811067ffffffffffffffff82111715620003015762000300620002a5565b5b80604052505050565b60006200031662000235565b9050620003248282620002d4565b919050565b600067ffffffffffffffff821115620003475762000346620002a5565b5b620003528262000294565b9050602081019050919050565b60005b838110156200037f57808201518184015260208101905062000362565b838111156200038f576000848401525b50505050565b6000620003ac620003a68462000329565b6200030a565b905082815260208101848484011115620003cb57620003ca6200028f565b5b620003d88482856200035f565b509392505050565b600082601f830112620003f857620003f76200028a565b5b81516200040a84826020860162000395565b91505092915050565b6000806000606084860312156200042f576200042e6200023f565b5b60006200043f8682870162000273565b935050602084015167ffffffffffffffff81111562000463576200046262000244565b5b6200047186828701620003e0565b925050604084015167ffffffffffffffff81111562000495576200049462000244565b5b620004a386828701620003e0565b9150509250925092565b7f4e487b7100000000000000000000000000000000000000000000000000000000600052602260045260246000fd5b60006002820490506001821680620004f557607f821691505b602082108114156200050c576200050b620004ad565b5b50919050565b614ed280620005226000396000f3fe608060405234801561001057600080fd5b50600436106101c45760003560e01c806339aaa281116100f9578063a457c2d711610097578063dd62ed3e11610071578063dd62ed3e14610535578063df097cac14610565578063f2fde38b14610583578063f428051d1461059f576101c4565b8063a457c2d7146104b9578063a9059cbb146104e9578063d292423614610519576101c4565b8063715018a6116100d3578063715018a6146104555780638da5cb5b1461045f57806395d89b411461047d5780639eab52531461049b576101c4565b806339aaa281146103c457806352ce5831146103f557806370a0823114610425576101c4565b806323b872dd11610166578063313ce56711610140578063313ce567146103285780633408e470146103465780633713bb53146103645780633950935114610394576101c4565b806323b872dd146102be5780632ac1c568146102ee5780632b506660146102f8576101c4565b80630d94bb52116101a25780630d94bb521461023557806313f108941461025357806318160ddd1461028457806319ea3bed146102a2576101c4565b806306fdde03146101c9578063095ea7b3146101e75780630d5f6f9314610217575b600080fd5b6101d16105bb565b6040516101de9190612e66565b60405180910390f35b61020160048036038101906101fc9190612f30565b61064d565b60405161020e9190612f8b565b60405180910390f35b61021f610670565b60405161022c9190613047565b60405180910390f35b61023d6107b7565b60405161024a9190613078565b60405180910390f35b61026d600480360381019061026891906131c8565b6107c4565b60405161027b9291906132f9565b60405180910390f35b61028c610ac0565b6040516102999190613078565b60405180910390f35b6102bc60048036038101906102b79190613329565b610aca565b005b6102d860048036038101906102d39190613356565b610ad4565b6040516102e59190612f8b565b60405180910390f35b6102f6610b03565b005b610312600480360381019061030d91906131c8565b611207565b60405161031f9190613078565b60405180910390f35b610330611235565b60405161033d91906133c5565b60405180910390f35b61034e61123e565b60405161035b91906133ef565b60405180910390f35b61037e600480360381019061037991906131c8565b611258565b60405161038b9190612f8b565b60405180910390f35b6103ae60048036038101906103a99190612f30565b61128e565b6040516103bb9190612f8b565b60405180910390f35b6103de60048036038101906103d9919061346a565b6112c5565b6040516103ec9291906132f9565b60405180910390f35b61040f600480360381019061040a91906134ca565b6115f4565b60405161041c9190613078565b60405180910390f35b61043f600480360381019061043a9190613517565b61161f565b60405161044c9190613078565b60405180910390f35b61045d6116ab565b005b6104676116bf565b6040516104749190613553565b60405180910390f35b6104856116e9565b6040516104929190612e66565b60405180910390f35b6104a361177b565b6040516104b0919061366d565b60405180910390f35b6104d360048036038101906104ce9190612f30565b611892565b6040516104e09190612f8b565b60405180910390f35b61050360048036038101906104fe9190612f30565b611909565b6040516105109190612f8b565b60405180910390f35b610533600480360381019061052e91906136e5565b61192c565b005b61054f600480360381019061054a9190613732565b611a97565b60405161055c9190613078565b60405180910390f35b61056d611b1e565b60405161057a9190613078565b60405180910390f35b61059d60048036038101906105989190613517565b611b24565b005b6105b960048036038101906105b49190613796565b611ba8565b005b6060600380546105ca9061380e565b80601f01602080910402602001604051908101604052809291908181526020018280546105f69061380e565b80156106435780601f1061061857610100808354040283529160200191610643565b820191906000526020600020905b81548152906001019060200180831161062657829003601f168201915b5050505050905090565b600080610658611bbd565b9050610665818585611bc5565b600191505092915050565b610678612bd1565b6000600b8054905011156107b45760006008600b60008154811061069f5761069e613840565b5b90600052602060002090600202016000016040516106bd919061390e565b9081526020016040518091039020905060065481600501546106df9190613954565b42106107b257600b6000815481106106fa576106f9613840565b5b90600052602060002090600202016040518060400160405290816000820180546107239061380e565b80601f016020809104026020016040519081016040528092919081815260200182805461074f9061380e565b801561079c5780601f106107715761010080835404028352916020019161079c565b820191906000526020600020905b81548152906001019060200180831161077f57829003601f168201915b5050505050815260200160018201548152505091505b505b90565b6000600b80549050905090565b600881805160208101820180518482526020830160208501208183528095505050505050600091509050806000016040518060c00160405290816000820160009054906101000a90046fffffffffffffffffffffffffffffffff166fffffffffffffffffffffffffffffffff166fffffffffffffffffffffffffffffffff1681526020016000820160109054906101000a900463ffffffff1663ffffffff1663ffffffff16815260200160018201805461087d9061380e565b80601f01602080910402602001604051908101604052809291908181526020018280546108a99061380e565b80156108f65780601f106108cb576101008083540402835291602001916108f6565b820191906000526020600020905b8154815290600101906020018083116108d957829003601f168201915b5050505050815260200160028201805461090f9061380e565b80601f016020809104026020016040519081016040528092919081815260200182805461093b9061380e565b80156109885780601f1061095d57610100808354040283529160200191610988565b820191906000526020600020905b81548152906001019060200180831161096b57829003601f168201915b505050505081526020016003820180546109a19061380e565b80601f01602080910402602001604051908101604052809291908181526020018280546109cd9061380e565b8015610a1a5780601f106109ef57610100808354040283529160200191610a1a565b820191906000526020600020905b8154815290600101906020018083116109fd57829003601f168201915b50505050508152602001600482018054610a339061380e565b80601f0160208091040260200160405190810160405280929190818152602001828054610a5f9061380e565b8015610aac5780601f10610a8157610100808354040283529160200191610aac565b820191906000526020600020905b815481529060010190602001808311610a8f57829003601f168201915b505050505081525050908060050154905082565b6000600254905090565b8060068190555050565b600080610adf611bbd565b9050610aec858285611d90565b610af7858585611e1c565b60019150509392505050565b6000600b8054905011610b4b576040517f08c379a0000000000000000000000000000000000000000000000000000000008152600401610b42906139f6565b60405180910390fd5b60006008600b600081548110610b6457610b63613840565b5b9060005260206000209060020201600001604051610b82919061390e565b90815260200160405180910390209050600081600501541415610bda576040517f08c379a0000000000000000000000000000000000000000000000000000000008152600401610bd190613a62565b60405180910390fd5b600b600081548110610bef57610bee613840565b5b9060005260206000209060020201600101548160000160000160009054906101000a90046fffffffffffffffffffffffffffffffff166fffffffffffffffffffffffffffffffff1614610c77576040517f08c379a0000000000000000000000000000000000000000000000000000000008152600401610c6e90613ace565b60405180910390fd5b6000808260000183600501549150915060065481610c959190613954565b421015610cd7576040517f08c379a0000000000000000000000000000000000000000000000000000000008152600401610cce90613b3a565b60405180910390fd5b600b6001600b80549050610ceb9190613b5a565b81548110610cfc57610cfb613840565b5b9060005260206000209060020201600b600081548110610d1f57610d1e613840565b5b90600052602060002090600202016000820181600001908054610d419061380e565b610d4c929190612beb565b5060018201548160010155905050600b805480610d6c57610d6b613b8e565b5b600190038181906000526020600020906002020160008082016000610d919190612c78565b600182016000905550509055600083600501819055506000600783600201604051610dbc919061390e565b908152602001604051809103902090508060000184908060018154018082558091505060019003906000526020600020906006020160009091909190915060008201816000016000820160009054906101000a90046fffffffffffffffffffffffffffffffff168160000160006101000a8154816fffffffffffffffffffffffffffffffff02191690836fffffffffffffffffffffffffffffffff1602179055506000820160109054906101000a900463ffffffff168160000160106101000a81548163ffffffff021916908363ffffffff1602179055506001820181600101908054610ea89061380e565b610eb3929190612beb565b506002820181600201908054610ec89061380e565b610ed3929190612beb565b506003820181600301908054610ee89061380e565b610ef3929190612beb565b506004820181600401908054610f089061380e565b610f13929190612beb565b5050506005820154816005015550506000610fb9846003018054610f369061380e565b80601f0160208091040260200160405190810160405280929190818152602001828054610f629061380e565b8015610faf5780601f10610f8457610100808354040283529160200191610faf565b820191906000526020600020905b815481529060010190602001808311610f9257829003601f168201915b505050505061209d565b9050600060ff16816000015160ff1614156110725761106d846002018054610fe09061380e565b80601f016020809104026020016040519081016040528092919081815260200182805461100c9061380e565b80156110595780601f1061102e57610100808354040283529160200191611059565b820191906000526020600020905b81548152906001019060200180831161103c57829003601f168201915b5050505050826020015183604001516120ec565b611200565b600160ff16816000015160ff1614156111315761111a8460020180546110979061380e565b80601f01602080910402602001604051908101604052809291908181526020018280546110c39061380e565b80156111105780601f106110e557610100808354040283529160200191611110565b820191906000526020600020905b8154815290600101906020018083116110f357829003601f168201915b5050505050612216565b61112c8160200151826040015161229c565b6111ff565b600260ff16816000015160ff1614156111fe576111d98460020180546111569061380e565b80601f01602080910402602001604051908101604052809291908181526020018280546111829061380e565b80156111cf5780601f106111a4576101008083540402835291602001916111cf565b820191906000526020600020905b8154815290600101906020018083116111b257829003601f168201915b5050505050612216565b6111eb81602001518260400151612370565b6111fd816020015182604001516123db565b5b5b5b5050505050565b60006007826040516112199190613bee565b9081526020016040518091039020600001805490509050919050565b6000600c905090565b6000600560149054906101000a900463ffffffff16905090565b60008060078360405161126b9190613bee565b908152602001604051809103902090506000816001018054905011915050919050565b600080611299611bbd565b90506112ba8185856112ab8589611a97565b6112b59190613954565b611bc5565b600191505092915050565b6112cd612cb8565b600080600786866040516112e2929190613c2a565b90815260200160405180910390209050600081600001858154811061130a57611309613840565b5b90600052602060002090600602019050806000016040518060c00160405290816000820160009054906101000a90046fffffffffffffffffffffffffffffffff166fffffffffffffffffffffffffffffffff166fffffffffffffffffffffffffffffffff1681526020016000820160109054906101000a900463ffffffff1663ffffffff1663ffffffff1681526020016001820180546113a99061380e565b80601f01602080910402602001604051908101604052809291908181526020018280546113d59061380e565b80156114225780601f106113f757610100808354040283529160200191611422565b820191906000526020600020905b81548152906001019060200180831161140557829003601f168201915b5050505050815260200160028201805461143b9061380e565b80601f01602080910402602001604051908101604052809291908181526020018280546114679061380e565b80156114b45780601f10611489576101008083540402835291602001916114b4565b820191906000526020600020905b81548152906001019060200180831161149757829003601f168201915b505050505081526020016003820180546114cd9061380e565b80601f01602080910402602001604051908101604052809291908181526020018280546114f99061380e565b80156115465780601f1061151b57610100808354040283529160200191611546565b820191906000526020600020905b81548152906001019060200180831161152957829003601f168201915b5050505050815260200160048201805461155f9061380e565b80601f016020809104026020016040519081016040528092919081815260200182805461158b9061380e565b80156115d85780601f106115ad576101008083540402835291602001916115d8565b820191906000526020600020905b8154815290600101906020018083116115bb57829003601f168201915b5050505050815250509350806005015492505050935093915050565b6000600a8383604051611608929190613c2a565b908152602001604051809103902054905092915050565b600080600c60008473ffffffffffffffffffffffffffffffffffffffff1673ffffffffffffffffffffffffffffffffffffffff168152602001908152602001600020905060008180546116719061380e565b905014156116835760009150506116a6565b600a816040516116939190613cd7565b9081526020016040518091039020549150505b919050565b6116b361244d565b6116bd60006124cb565b565b6000600560009054906101000a900473ffffffffffffffffffffffffffffffffffffffff16905090565b6060600480546116f89061380e565b80601f01602080910402602001604051908101604052809291908181526020018280546117249061380e565b80156117715780601f1061174657610100808354040283529160200191611771565b820191906000526020600020905b81548152906001019060200180831161175457829003601f168201915b5050505050905090565b60606009805480602002602001604051908101604052809291908181526020016000905b8282101561188957838290600052602060002090600202016040518060400160405290816000820160009054906101000a900463ffffffff1663ffffffff1663ffffffff1681526020016001820180546117f89061380e565b80601f01602080910402602001604051908101604052809291908181526020018280546118249061380e565b80156118715780601f1061184657610100808354040283529160200191611871565b820191906000526020600020905b81548152906001019060200180831161185457829003601f168201915b5050505050815250508152602001906001019061179f565b50505050905090565b60008061189d611bbd565b905060006118ab8286611a97565b9050838110156118f0576040517f08c379a00000000000000000000000000000000000000000000000000000000081526004016118e790613d60565b60405180910390fd5b6118fd8286868403611bc5565b60019250505092915050565b600080611914611bbd565b9050611921818585611e1c565b600191505092915050565b61193461244d565b60005b82829050811015611a1c576009805490508110156119aa5782828281811061196257611961613840565b5b90506020028101906119749190613d8f565b6009828154811061198857611987613840565b5b906000526020600020906002020181816119a29190614191565b905050611a09565b60098383838181106119bf576119be613840565b5b90506020028101906119d19190613d8f565b90806001815401808255809150506001900390600052602060002090600202016000909190919091508181611a069190614191565b50505b8080611a149061419f565b915050611937565b5060008282905090505b600980549050811015611a925760098181548110611a4757611a46613840565b5b9060005260206000209060020201600080820160006101000a81549063ffffffff0219169055600182016000611a7d9190612c78565b50508080611a8a9061419f565b915050611a26565b505050565b6000600160008473ffffffffffffffffffffffffffffffffffffffff1673ffffffffffffffffffffffffffffffffffffffff16815260200190815260200160002060008373ffffffffffffffffffffffffffffffffffffffff1673ffffffffffffffffffffffffffffffffffffffff16815260200190815260200160002054905092915050565b60065481565b611b2c61244d565b600073ffffffffffffffffffffffffffffffffffffffff168173ffffffffffffffffffffffffffffffffffffffff161415611b9c576040517f08c379a0000000000000000000000000000000000000000000000000000000008152600401611b939061425a565b60405180910390fd5b611ba5816124cb565b50565b611bba81611bb5906143d5565b612591565b50565b600033905090565b600073ffffffffffffffffffffffffffffffffffffffff168373ffffffffffffffffffffffffffffffffffffffff161415611c35576040517f08c379a0000000000000000000000000000000000000000000000000000000008152600401611c2c9061445a565b60405180910390fd5b600073ffffffffffffffffffffffffffffffffffffffff168273ffffffffffffffffffffffffffffffffffffffff161415611ca5576040517f08c379a0000000000000000000000000000000000000000000000000000000008152600401611c9c906144ec565b60405180910390fd5b80600160008573ffffffffffffffffffffffffffffffffffffffff1673ffffffffffffffffffffffffffffffffffffffff16815260200190815260200160002060008473ffffffffffffffffffffffffffffffffffffffff1673ffffffffffffffffffffffffffffffffffffffff168152602001908152602001600020819055508173ffffffffffffffffffffffffffffffffffffffff168373ffffffffffffffffffffffffffffffffffffffff167f8c5be1e5ebec7d5bd14f71427d1e84f3dd0314c0f7b2291e5b200ac8c7c3b92583604051611d839190613078565b60405180910390a3505050565b6000611d9c8484611a97565b90507fffffffffffffffffffffffffffffffffffffffffffffffffffffffffffffffff8114611e165781811015611e08576040517f08c379a0000000000000000000000000000000000000000000000000000000008152600401611dff90614558565b60405180910390fd5b611e158484848403611bc5565b5b50505050565b600073ffffffffffffffffffffffffffffffffffffffff168373ffffffffffffffffffffffffffffffffffffffff161415611e8c576040517f08c379a0000000000000000000000000000000000000000000000000000000008152600401611e83906145ea565b60405180910390fd5b600073ffffffffffffffffffffffffffffffffffffffff168273ffffffffffffffffffffffffffffffffffffffff161415611efc576040517f08c379a0000000000000000000000000000000000000000000000000000000008152600401611ef39061467c565b60405180910390fd5b611f07838383612a6b565b60008060008573ffffffffffffffffffffffffffffffffffffffff1673ffffffffffffffffffffffffffffffffffffffff16815260200190815260200160002054905081811015611f8d576040517f08c379a0000000000000000000000000000000000000000000000000000000008152600401611f849061470e565b60405180910390fd5b8181036000808673ffffffffffffffffffffffffffffffffffffffff1673ffffffffffffffffffffffffffffffffffffffff16815260200190815260200160002081905550816000808573ffffffffffffffffffffffffffffffffffffffff1673ffffffffffffffffffffffffffffffffffffffff16815260200190815260200160002060008282546120209190613954565b925050819055508273ffffffffffffffffffffffffffffffffffffffff168473ffffffffffffffffffffffffffffffffffffffff167fddf252ad1be2c89b69c2b068fc378daa952ba7f163c4a11628f55a4df523b3ef846040516120849190613078565b60405180910390a3612097848484612a70565b50505050565b6120a5612d06565b6000806000848060200190518101906120be91906147df565b92509250925060405180606001604052808460ff168152602001838152602001828152509350505050919050565b6120f68382612a75565b6000600a846040516121089190613bee565b9081526020016040518091039020549050818103600a8560405161212c9190613bee565b90815260200160405180910390208190555081600a8460405161214f9190613bee565b9081526020016040518091039020600082825461216c9190613954565b925050819055507f1d8380031597508b7d5d3df4999b8136789b62ed932115f9eb5897e19903792e8484846040516121a693929190614898565b60405180910390a160006121b984612ae0565b905083600c60008373ffffffffffffffffffffffffffffffffffffffff1673ffffffffffffffffffffffffffffffffffffffff168152602001908152602001600020908051906020019061220e929190612d2a565b505050505050565b600061222182612ae0565b905061222b6116bf565b73ffffffffffffffffffffffffffffffffffffffff168173ffffffffffffffffffffffffffffffffffffffff1614612298576040517f08c379a000000000000000000000000000000000000000000000000000000000815260040161228f90614929565b60405180910390fd5b5050565b80600a836040516122ad9190613bee565b908152602001604051809103902060008282546122ca9190613954565b925050819055507f1d8380031597508b7d5d3df4999b8136789b62ed932115f9eb5897e19903792e828260405161230292919061496f565b60405180910390a1600061231583612ae0565b905082600c60008373ffffffffffffffffffffffffffffffffffffffff1673ffffffffffffffffffffffffffffffffffffffff168152602001908152602001600020908051906020019061236a929190612d2a565b50505050565b6000600a836040516123829190613bee565b9081526020016040518091039020549050818110156123d6576040517f08c379a00000000000000000000000000000000000000000000000000000000081526004016123cd906149fe565b60405180910390fd5b505050565b80600a836040516123ec9190613bee565b908152602001604051809103902060008282546124099190613b5a565b925050819055507f1d8380031597508b7d5d3df4999b8136789b62ed932115f9eb5897e19903792e8282604051612441929190614a1e565b60405180910390a15050565b612455611bbd565b73ffffffffffffffffffffffffffffffffffffffff166124736116bf565b73ffffffffffffffffffffffffffffffffffffffff16146124c9576040517f08c379a00000000000000000000000000000000000000000000000000000000081526004016124c090614aad565b60405180910390fd5b565b6000600560009054906101000a900473ffffffffffffffffffffffffffffffffffffffff16905081600560006101000a81548173ffffffffffffffffffffffffffffffffffffffff021916908373ffffffffffffffffffffffffffffffffffffffff1602179055508173ffffffffffffffffffffffffffffffffffffffff168173ffffffffffffffffffffffffffffffffffffffff167f8be0079c531659141344cd1fd0a4f28419497f9722a3daafe3b4186f6b6457e060405160405180910390a35050565b6000805b60098054905081101561268d57826020015163ffffffff16600982815481106125c1576125c0613840565b5b906000526020600020906002020160000160009054906101000a900463ffffffff1663ffffffff16141561267a578260400151805190602001206009828154811061260f5761260e613840565b5b906000526020600020906002020160010160405161262d919061390e565b604051809103902014612675576040517f08c379a000000000000000000000000000000000000000000000000000000000815260040161266c90614b19565b60405180910390fd5b600191505b80806126859061419f565b915050612595565b50806126ce576040517f08c379a00000000000000000000000000000000000000000000000000000000081526004016126c590614b19565b60405180910390fd5b6126db8260600151611258565b1561271b576040517f08c379a000000000000000000000000000000000000000000000000000000000815260040161271290614b85565b60405180910390fd5b600073__SkywalkerFungibleHelper_______________634e1e4d296007856060015160405161274b9190613bee565b9081526020016040518091039020856040518363ffffffff1660e01b8152600401612777929190614cb2565b602060405180830381865af4158015612794573d6000803e3d6000fd5b505050506040513d601f19601f820116820180604052508101906127b89190614d07565b9050600060018111156127ce576127cd614d34565b5b8160018111156127e1576127e0614d34565b5b1415612a3d576000600884606001516040516127fd9190613bee565b908152602001604051809103902090506000816005015414612854576040517f08c379a000000000000000000000000000000000000000000000000000000000815260040161284b90614daf565b60405180910390fd5b61285d84612af9565b838160000160008201518160000160006101000a8154816fffffffffffffffffffffffffffffffff02191690836fffffffffffffffffffffffffffffffff16021790555060208201518160000160106101000a81548163ffffffff021916908363ffffffff16021790555060408201518160010190805190602001906128e4929190612d2a565b506060820151816002019080519060200190612901929190612d2a565b50608082015181600301908051906020019061291e929190612d2a565b5060a082015181600401908051906020019061293b929190612d2a565b50905050428160050181905550600b60405180604001604052808660600151815260200186600001516fffffffffffffffffffffffffffffffff16815250908060018154018082558091505060019003906000526020600020906002020160009091909190915060008201518160000190805190602001906129be929190612d2a565b50602082015181600101555050600560149054906101000a900463ffffffff1663ffffffff16846020015163ffffffff161415612a37577f101abacb8de0d05456bbaf85756276fd0c5225e9ede84f539855df28aba51a7e84606001518560000151604051612a2e929190614e00565b60405180910390a15b50612a66565b600180811115612a5057612a4f614d34565b5b816001811115612a6357612a62614d34565b5b50505b505050565b505050565b505050565b6000600a83604051612a879190613bee565b908152602001604051809103902054905081811015612adb576040517f08c379a0000000000000000000000000000000000000000000000000000000008152600401612ad2906149fe565b60405180910390fd5b505050565b600080828051906020012090508060001c915050919050565b6000612b08826080015161209d565b9050600060ff16816000015160ff161415612b3457612b2f82606001518260400151612a75565b612bcd565b600160ff16816000015160ff161415612b5957612b548260600151612216565b612bcc565b600260ff16816000015160ff161415612b9057612b798260600151612216565b612b8b81602001518260400151612370565b612bcb565b6040517f08c379a0000000000000000000000000000000000000000000000000000000008152600401612bc290614e7c565b60405180910390fd5b5b5b5050565b604051806040016040528060608152602001600081525090565b828054612bf79061380e565b90600052602060002090601f016020900481019282612c195760008555612c67565b82601f10612c2a5780548555612c67565b82800160010185558215612c6757600052602060002091601f016020900482015b82811115612c66578254825591600101919060010190612c4b565b5b509050612c749190612db0565b5090565b508054612c849061380e565b6000825580601f10612c965750612cb5565b601f016020900490600052602060002090810190612cb49190612db0565b5b50565b6040518060c0016040528060006fffffffffffffffffffffffffffffffff168152602001600063ffffffff168152602001606081526020016060815260200160608152602001606081525090565b6040518060600160405280600060ff16815260200160608152602001600081525090565b828054612d369061380e565b90600052602060002090601f016020900481019282612d585760008555612d9f565b82601f10612d7157805160ff1916838001178555612d9f565b82800160010185558215612d9f579182015b82811115612d9e578251825591602001919060010190612d83565b5b509050612dac9190612db0565b5090565b5b80821115612dc9576000816000905550600101612db1565b5090565b600081519050919050565b600082825260208201905092915050565b60005b83811015612e07578082015181840152602081019050612dec565b83811115612e16576000848401525b50505050565b6000601f19601f8301169050919050565b6000612e3882612dcd565b612e428185612dd8565b9350612e52818560208601612de9565b612e5b81612e1c565b840191505092915050565b60006020820190508181036000830152612e808184612e2d565b905092915050565b6000604051905090565b600080fd5b600080fd5b600073ffffffffffffffffffffffffffffffffffffffff82169050919050565b6000612ec782612e9c565b9050919050565b612ed781612ebc565b8114612ee257600080fd5b50565b600081359050612ef481612ece565b92915050565b6000819050919050565b612f0d81612efa565b8114612f1857600080fd5b50565b600081359050612f2a81612f04565b92915050565b60008060408385031215612f4757612f46612e92565b5b6000612f5585828601612ee5565b9250506020612f6685828601612f1b565b9150509250929050565b60008115159050919050565b612f8581612f70565b82525050565b6000602082019050612fa06000830184612f7c565b92915050565b600081519050919050565b600082825260208201905092915050565b6000612fcd82612fa6565b612fd78185612fb1565b9350612fe7818560208601612de9565b612ff081612e1c565b840191505092915050565b61300481612efa565b82525050565b600060408301600083015184820360008601526130278282612fc2565b915050602083015161303c6020860182612ffb565b508091505092915050565b60006020820190508181036000830152613061818461300a565b905092915050565b61307281612efa565b82525050565b600060208201905061308d6000830184613069565b92915050565b600080fd5b600080fd5b7f4e487b7100000000000000000000000000000000000000000000000000000000600052604160045260246000fd5b6130d582612e1c565b810181811067ffffffffffffffff821117156130f4576130f361309d565b5b80604052505050565b6000613107612e88565b905061311382826130cc565b919050565b600067ffffffffffffffff8211156131335761313261309d565b5b61313c82612e1c565b9050602081019050919050565b82818337600083830152505050565b600061316b61316684613118565b6130fd565b90508281526020810184848401111561318757613186613098565b5b613192848285613149565b509392505050565b600082601f8301126131af576131ae613093565b5b81356131bf848260208601613158565b91505092915050565b6000602082840312156131de576131dd612e92565b5b600082013567ffffffffffffffff8111156131fc576131fb612e97565b5b6132088482850161319a565b91505092915050565b60006fffffffffffffffffffffffffffffffff82169050919050565b61323681613211565b82525050565b600063ffffffff82169050919050565b6132558161323c565b82525050565b600060c083016000830151613273600086018261322d565b506020830151613286602086018261324c565b506040830151848203604086015261329e8282612fc2565b915050606083015184820360608601526132b88282612fc2565b915050608083015184820360808601526132d28282612fc2565b91505060a083015184820360a08601526132ec8282612fc2565b9150508091505092915050565b60006040820190508181036000830152613313818561325b565b90506133226020830184613069565b9392505050565b60006020828403121561333f5761333e612e92565b5b600061334d84828501612f1b565b91505092915050565b60008060006060848603121561336f5761336e612e92565b5b600061337d86828701612ee5565b935050602061338e86828701612ee5565b925050604061339f86828701612f1b565b9150509250925092565b600060ff82169050919050565b6133bf816133a9565b82525050565b60006020820190506133da60008301846133b6565b92915050565b6133e98161323c565b82525050565b600060208201905061340460008301846133e0565b92915050565b600080fd5b600080fd5b60008083601f84011261342a57613429613093565b5b8235905067ffffffffffffffff8111156134475761344661340a565b5b6020830191508360018202830111156134635761346261340f565b5b9250929050565b60008060006040848603121561348357613482612e92565b5b600084013567ffffffffffffffff8111156134a1576134a0612e97565b5b6134ad86828701613414565b935093505060206134c086828701612f1b565b9150509250925092565b600080602083850312156134e1576134e0612e92565b5b600083013567ffffffffffffffff8111156134ff576134fe612e97565b5b61350b85828601613414565b92509250509250929050565b60006020828403121561352d5761352c612e92565b5b600061353b84828501612ee5565b91505092915050565b61354d81612ebc565b82525050565b60006020820190506135686000830184613544565b92915050565b600081519050919050565b600082825260208201905092915050565b6000819050602082019050919050565b60006040830160008301516135b2600086018261324c565b50602083015184820360208601526135ca8282612fc2565b9150508091505092915050565b60006135e3838361359a565b905092915050565b6000602082019050919050565b60006136038261356e565b61360d8185613579565b93508360208202850161361f8561358a565b8060005b8581101561365b578484038952815161363c85826135d7565b9450613647836135eb565b925060208a01995050600181019050613623565b50829750879550505050505092915050565b6000602082019050818103600083015261368781846135f8565b905092915050565b60008083601f8401126136a5576136a4613093565b5b8235905067ffffffffffffffff8111156136c2576136c161340a565b5b6020830191508360208202830111156136de576136dd61340f565b5b9250929050565b600080602083850312156136fc576136fb612e92565b5b600083013567ffffffffffffffff81111561371a57613719612e97565b5b6137268582860161368f565b92509250509250929050565b6000806040838503121561374957613748612e92565b5b600061375785828601612ee5565b925050602061376885828601612ee5565b9150509250929050565b600080fd5b600060c0828403121561378d5761378c613772565b5b81905092915050565b6000602082840312156137ac576137ab612e92565b5b600082013567ffffffffffffffff8111156137ca576137c9612e97565b5b6137d684828501613777565b91505092915050565b7f4e487b7100000000000000000000000000000000000000000000000000000000600052602260045260246000fd5b6000600282049050600182168061382657607f821691505b6020821081141561383a576138396137df565b5b50919050565b7f4e487b7100000000000000000000000000000000000000000000000000000000600052603260045260246000fd5b600081905092915050565b60008190508160005260206000209050919050565b6000815461389c8161380e565b6138a6818661386f565b945060018216600081146138c157600181146138d257613905565b60ff19831686528186019350613905565b6138db8561387a565b60005b838110156138fd578154818901526001820191506020810190506138de565b838801955050505b50505092915050565b600061391a828461388f565b915081905092915050565b7f4e487b7100000000000000000000000000000000000000000000000000000000600052601160045260246000fd5b600061395f82612efa565b915061396a83612efa565b9250827fffffffffffffffffffffffffffffffffffffffffffffffffffffffffffffffff0382111561399f5761399e613925565b5b828201905092915050565b7f4e6f2064656c6179656420747800000000000000000000000000000000000000600082015250565b60006139e0600d83612dd8565b91506139eb826139aa565b602082019050919050565b60006020820190508181036000830152613a0f816139d3565b9050919050565b7f4e6f742063616368656400000000000000000000000000000000000000000000600082015250565b6000613a4c600a83612dd8565b9150613a5782613a16565b602082019050919050565b60006020820190508181036000830152613a7b81613a3f565b9050919050565b7f4e6f6e6365206572726f72000000000000000000000000000000000000000000600082015250565b6000613ab8600b83612dd8565b9150613ac382613a82565b602082019050919050565b60006020820190508181036000830152613ae781613aab565b9050919050565b7f4e6f742065786563757461626c65000000000000000000000000000000000000600082015250565b6000613b24600e83612dd8565b9150613b2f82613aee565b602082019050919050565b60006020820190508181036000830152613b5381613b17565b9050919050565b6000613b6582612efa565b9150613b7083612efa565b925082821015613b8357613b82613925565b5b828203905092915050565b7f4e487b7100000000000000000000000000000000000000000000000000000000600052603160045260246000fd5b6000613bc882612fa6565b613bd2818561386f565b9350613be2818560208601612de9565b80840191505092915050565b6000613bfa8284613bbd565b915081905092915050565b6000613c11838561386f565b9350613c1e838584613149565b82840190509392505050565b6000613c37828486613c05565b91508190509392505050565b60008190508160005260206000209050919050565b60008154613c658161380e565b613c6f818661386f565b94506001821660008114613c8a5760018114613c9b57613cce565b60ff19831686528186019350613cce565b613ca485613c43565b60005b83811015613cc657815481890152600182019150602081019050613ca7565b838801955050505b50505092915050565b6000613ce38284613c58565b915081905092915050565b7f45524332303a2064656372656173656420616c6c6f77616e63652062656c6f7760008201527f207a65726f000000000000000000000000000000000000000000000000000000602082015250565b6000613d4a602583612dd8565b9150613d5582613cee565b604082019050919050565b60006020820190508181036000830152613d7981613d3d565b9050919050565b600080fd5b600080fd5b600080fd5b600082356001604003833603038112613dab57613daa613d80565b5b80830191505092915050565b613dc08161323c565b8114613dcb57600080fd5b50565b60008135613ddb81613db7565b80915050919050565b60008160001b9050919050565b600063ffffffff613e0184613de4565b9350801983169250808416831791505092915050565b6000819050919050565b6000613e3c613e37613e328461323c565b613e17565b61323c565b9050919050565b6000819050919050565b613e5682613e21565b613e69613e6282613e43565b8354613df1565b8255505050565b60008083356001602003843603038112613e8d57613e8c613d80565b5b80840192508235915067ffffffffffffffff821115613eaf57613eae613d85565b5b602083019250600182023603831315613ecb57613eca613d8a565b5b509250929050565b600082905092915050565b60006020601f8301049050919050565b600082821b905092915050565b600060088302613f2b7fffffffffffffffffffffffffffffffffffffffffffffffffffffffffffffffff82613eee565b613f358683613eee565b95508019841693508086168417925050509392505050565b6000613f68613f63613f5e84612efa565b613e17565b612efa565b9050919050565b6000819050919050565b613f8283613f4d565b613f96613f8e82613f6f565b848454613efb565b825550505050565b600090565b613fab613f9e565b613fb6818484613f79565b505050565b5b81811015613fda57613fcf600082613fa3565b600181019050613fbc565b5050565b601f82111561401f57613ff08161387a565b613ff984613ede565b81016020851015614008578190505b61401c61401485613ede565b830182613fbb565b50505b505050565b600082821c905092915050565b600061404260001984600802614024565b1980831691505092915050565b600061405b8383614031565b9150826002028217905092915050565b6140758383613ed3565b67ffffffffffffffff81111561408e5761408d61309d565b5b614098825461380e565b6140a3828285613fde565b6000601f8311600181146140d257600084156140c0578287013590505b6140ca858261404f565b865550614132565b601f1984166140e08661387a565b60005b82811015614108578489013582556001820191506020850194506020810190506140e3565b868310156141255784890135614121601f891682614031565b8355505b6001600288020188555050505b50505050505050565b61414683838361406b565b505050565b60008101600083018061415d81613dce565b90506141698184613e4d565b505050600181016020830161417e8185613e70565b61418981838661413b565b505050505050565b61419b828261414b565b5050565b60006141aa82612efa565b91507fffffffffffffffffffffffffffffffffffffffffffffffffffffffffffffffff8214156141dd576141dc613925565b5b600182019050919050565b7f4f776e61626c653a206e6577206f776e657220697320746865207a65726f206160008201527f6464726573730000000000000000000000000000000000000000000000000000602082015250565b6000614244602683612dd8565b915061424f826141e8565b604082019050919050565b6000602082019050818103600083015261427381614237565b9050919050565b600080fd5b600080fd5b61428d81613211565b811461429857600080fd5b50565b6000813590506142aa81614284565b92915050565b6000813590506142bf81613db7565b92915050565b600060c082840312156142db576142da61427a565b5b6142e560c06130fd565b905060006142f58482850161429b565b6000830152506020614309848285016142b0565b602083015250604082013567ffffffffffffffff81111561432d5761432c61427f565b5b6143398482850161319a565b604083015250606082013567ffffffffffffffff81111561435d5761435c61427f565b5b6143698482850161319a565b606083015250608082013567ffffffffffffffff81111561438d5761438c61427f565b5b6143998482850161319a565b60808301525060a082013567ffffffffffffffff8111156143bd576143bc61427f565b5b6143c98482850161319a565b60a08301525092915050565b60006143e136836142c5565b9050919050565b7f45524332303a20617070726f76652066726f6d20746865207a65726f2061646460008201527f7265737300000000000000000000000000000000000000000000000000000000602082015250565b6000614444602483612dd8565b915061444f826143e8565b604082019050919050565b6000602082019050818103600083015261447381614437565b9050919050565b7f45524332303a20617070726f766520746f20746865207a65726f20616464726560008201527f7373000000000000000000000000000000000000000000000000000000000000602082015250565b60006144d6602283612dd8565b91506144e18261447a565b604082019050919050565b60006020820190508181036000830152614505816144c9565b9050919050565b7f45524332303a20696e73756666696369656e7420616c6c6f77616e6365000000600082015250565b6000614542601d83612dd8565b915061454d8261450c565b602082019050919050565b6000602082019050818103600083015261457181614535565b9050919050565b7f45524332303a207472616e736665722066726f6d20746865207a65726f20616460008201527f6472657373000000000000000000000000000000000000000000000000000000602082015250565b60006145d4602583612dd8565b91506145df82614578565b604082019050919050565b60006020820190508181036000830152614603816145c7565b9050919050565b7f45524332303a207472616e7366657220746f20746865207a65726f206164647260008201527f6573730000000000000000000000000000000000000000000000000000000000602082015250565b6000614666602383612dd8565b91506146718261460a565b604082019050919050565b6000602082019050818103600083015261469581614659565b9050919050565b7f45524332303a207472616e7366657220616d6f756e742065786365656473206260008201527f616c616e63650000000000000000000000000000000000000000000000000000602082015250565b60006146f8602683612dd8565b91506147038261469c565b604082019050919050565b60006020820190508181036000830152614727816146eb565b9050919050565b614737816133a9565b811461474257600080fd5b50565b6000815190506147548161472e565b92915050565b600061476d61476884613118565b6130fd565b90508281526020810184848401111561478957614788613098565b5b614794848285612de9565b509392505050565b600082601f8301126147b1576147b0613093565b5b81516147c184826020860161475a565b91505092915050565b6000815190506147d981612f04565b92915050565b6000806000606084860312156147f8576147f7612e92565b5b600061480686828701614745565b935050602084015167ffffffffffffffff81111561482757614826612e97565b5b6148338682870161479c565b9250506040614844868287016147ca565b9150509250925092565b600082825260208201905092915050565b600061486a82612fa6565b614874818561484e565b9350614884818560208601612de9565b61488d81612e1c565b840191505092915050565b600060608201905081810360008301526148b2818661485f565b905081810360208301526148c6818561485f565b90506148d56040830184613069565b949350505050565b7f4e6f74206f776e65720000000000000000000000000000000000000000000000600082015250565b6000614913600983612dd8565b915061491e826148dd565b602082019050919050565b6000602082019050818103600083015261494281614906565b9050919050565b50565b600061495960008361484e565b915061496482614949565b600082019050919050565b600060608201905081810360008301526149888161494c565b9050818103602083015261499c818561485f565b90506149ab6040830184613069565b9392505050565b7f4578636565642062616c616e6365000000000000000000000000000000000000600082015250565b60006149e8600e83612dd8565b91506149f3826149b2565b602082019050919050565b60006020820190508181036000830152614a17816149db565b9050919050565b60006060820190508181036000830152614a38818561485f565b90508181036020830152614a4b8161494c565b9050614a5a6040830184613069565b9392505050565b7f4f776e61626c653a2063616c6c6572206973206e6f7420746865206f776e6572600082015250565b6000614a97602083612dd8565b9150614aa282614a61565b602082019050919050565b60006020820190508181036000830152614ac681614a8a565b9050919050565b7f57726f6e6720696e697469617465534300000000000000000000000000000000600082015250565b6000614b03601083612dd8565b9150614b0e82614acd565b602082019050919050565b60006020820190508181036000830152614b3281614af6565b9050919050565b7f55736572206d616c6963696f7573000000000000000000000000000000000000600082015250565b6000614b6f600e83612dd8565b9150614b7a82614b39565b602082019050919050565b60006020820190508181036000830152614b9e81614b62565b9050919050565b8082525050565b614bb581613211565b82525050565b614bc48161323c565b82525050565b600082825260208201905092915050565b6000614be682612fa6565b614bf08185614bca565b9350614c00818560208601612de9565b614c0981612e1c565b840191505092915050565b600060c083016000830151614c2c6000860182614bac565b506020830151614c3f6020860182614bbb565b5060408301518482036040860152614c578282614bdb565b91505060608301518482036060860152614c718282614bdb565b91505060808301518482036080860152614c8b8282614bdb565b91505060a083015184820360a0860152614ca58282614bdb565b9150508091505092915050565b6000604082019050614cc76000830185614ba5565b8181036020830152614cd98184614c14565b90509392505050565b60028110614cef57600080fd5b50565b600081519050614d0181614ce2565b92915050565b600060208284031215614d1d57614d1c612e92565b5b6000614d2b84828501614cf2565b91505092915050565b7f4e487b7100000000000000000000000000000000000000000000000000000000600052602160045260246000fd5b7f5472616e73616374696f6e206361636865640000000000000000000000000000600082015250565b6000614d99601283612dd8565b9150614da482614d63565b602082019050919050565b60006020820190508181036000830152614dc881614d8c565b9050919050565b6000614dea614de5614de084613211565b613e17565b612efa565b9050919050565b614dfa81614dcf565b82525050565b60006040820190508181036000830152614e1a818561485f565b9050614e296020830184614df1565b9392505050565b7f4f5020636f6465206572726f7200000000000000000000000000000000000000600082015250565b6000614e66600d83612dd8565b9150614e7182614e30565b602082019050919050565b60006020820190508181036000830152614e9581614e59565b905091905056fea2646970667358221220a5815aefe97fba1413cf0c796a607d310472107e2fde4e182a62c60bbbdb088064736f6c634300080c0033",
  "immutableReferences": {},
  "source": "// SPDX-License-Identifier: MIT\npragma solidity >=0.8.0 <0.9.0;\n\nimport \"@openzeppelin/contracts/access/Ownable.sol\";\nimport \"./ERC20.sol\";\nimport \"./libraries/SkywalkerFungibleHelper.sol\";\nimport \"./interfaces/IERC6358Fungible.sol\";\n\n/**\n * @notice Implementation of the {IERC6358Fungible} interface\n */\ncontract SkywalkerFungible is ERC20, Ownable, IERC6358Fungible {\n    uint8 constant TRANSFER = 0;\n    uint8 constant MINT = 1;\n    uint8 constant BURN = 2;\n\n    /** @notice Used to index a delayed transaction\n     * sender: The account which sent the transaction\n     * nonce: The nonce of the delayed transaction\n     */\n    struct DelayedTx {\n        bytes sender;\n        uint256 nonce;\n    }\n\n    /**\n     * @notice The member information\n     * chainId: The chain which the member belongs to\n     * contractAddr: The contract address on the member chain\n     */\n    struct Member {\n        uint32 chainId;\n        bytes contractAddr;\n    }\n\n    // Chain id used to distinguish different chains\n    uint32 chainId;\n    // O-transaction cooling down time\n    uint256 public cdTime;\n    // Omniverse accounts record\n    mapping(bytes => RecordedCertificate) transactionRecorder;\n    // Transactions to be executed\n    mapping(bytes => OmniverseTx) public transactionCache;\n\n    // All information of chains on which the token is deployed\n    Member[] members;\n    // Omniverse balances\n    mapping(bytes => uint256) omniverseBalances;\n    // Delay-executing transactions\n    DelayedTx[] delayedTxs;\n    // Account map from evm address to public key\n    mapping(address => bytes) accountsMap;\n\n    event OmniverseTokenTransfer(bytes from, bytes to, uint256 value);\n\n    /**\n     * @notice Initiates the contract\n     * @param _chainId The chain which the contract is deployed on\n     * @param _name The name of the token\n     * @param _symbol The symbol of the token\n     */\n    constructor(uint32 _chainId, string memory _name, string memory _symbol) ERC20(_name, _symbol) {\n        chainId = _chainId;\n    }\n\n    /**\n     * @notice See {IERC6358Fungible-sendOmniverseTransaction}\n     * Send an omniverse transaction\n     */\n    function sendOmniverseTransaction(ERC6358TransactionData calldata _data) external override {\n        _omniverseTransaction(_data);\n    }\n\n    /**\n     * @notice See {IERC6358Fungible-triggerExecution}\n     */\n    function triggerExecution() external {\n        require(delayedTxs.length > 0, \"No delayed tx\");\n\n        OmniverseTx storage cache = transactionCache[delayedTxs[0].sender];\n        require(cache.timestamp != 0, \"Not cached\");\n        require(cache.txData.nonce == delayedTxs[0].nonce, \"Nonce error\");\n        (ERC6358TransactionData storage txData, uint256 timestamp) = (cache.txData, cache.timestamp);\n        require(block.timestamp >= timestamp + cdTime, \"Not executable\");\n        delayedTxs[0] = delayedTxs[delayedTxs.length - 1];\n        delayedTxs.pop();\n        cache.timestamp = 0;\n        // Add to transaction recorder\n        RecordedCertificate storage rc = transactionRecorder[txData.from];\n        rc.txList.push(cache);\n\n        Fungible memory fungible = SkywalkerFungibleHelper.decodeData(txData.payload);\n        if (fungible.op == TRANSFER) {\n            _omniverseTransfer(txData.from, fungible.exData, fungible.amount);\n        }\n        else if (fungible.op == MINT) {\n            _checkOwner(txData.from);\n            _omniverseMint(fungible.exData, fungible.amount);\n        }\n        else if (fungible.op == BURN) {\n            _checkOwner(txData.from);\n            _checkOmniverseBurn(fungible.exData, fungible.amount);\n            _omniverseBurn(fungible.exData, fungible.amount);\n        }\n    }\n    \n    /**\n     * @notice Check if the transaction can be executed successfully\n     */\n    function _checkExecution(ERC6358TransactionData memory txData) internal view {\n        Fungible memory fungible = SkywalkerFungibleHelper.decodeData(txData.payload);\n        if (fungible.op == TRANSFER) {\n            _checkOmniverseTransfer(txData.from, fungible.amount);\n        }\n        else if (fungible.op == MINT) {\n            _checkOwner(txData.from);\n        }\n        else if (fungible.op == BURN) {\n            _checkOwner(txData.from);\n            _checkOmniverseBurn(fungible.exData, fungible.amount);\n        }\n        else {\n            revert(\"OP code error\");\n        }\n    }\n\n    /**\n     * @notice Returns the nearest exexutable delayed transaction info\n     * or returns default if not found\n     */\n    function getExecutableDelayedTx() external view returns (DelayedTx memory ret) {\n        if (delayedTxs.length > 0) {\n            OmniverseTx storage cache = transactionCache[delayedTxs[0].sender];\n            if (block.timestamp >= cache.timestamp + cdTime) {\n                ret = delayedTxs[0];\n            }\n        }\n    }\n\n    /**\n     * @notice Returns the count of delayed transactions\n     */\n    function getDelayedTxCount() external view returns (uint256) {\n        return delayedTxs.length;\n    }\n\n    /**\n     * @notice See {IERC6358Fungible-omniverseBalanceOf}\n     * Returns the omniverse balance of a user\n     */\n    function omniverseBalanceOf(bytes calldata _pk) external view override returns (uint256) {\n        return omniverseBalances[_pk];\n    }\n\n    /**\n     * @notice See {IERC20-balanceOf}.\n     */\n    function balanceOf(address account) public view virtual override returns (uint256) {\n        bytes storage pk = accountsMap[account];\n        if (pk.length == 0) {\n            return 0;\n        }\n        else {\n            return omniverseBalances[pk];\n        }\n    }\n\n    /**\n     * @notice Receive and check an omniverse transaction\n     */\n    function _omniverseTransaction(ERC6358TransactionData memory _data) internal {\n        // Check if the tx initiateSC is correct\n        bool found = false;\n        for (uint256 i = 0; i < members.length; i++) {\n            if (members[i].chainId == _data.chainId) {\n                require(keccak256(members[i].contractAddr) == keccak256(_data.initiateSC), \"Wrong initiateSC\");\n                found = true;\n            }\n        }\n        require(found, \"Wrong initiateSC\");\n\n        // Check if the sender is honest\n        // to be continued, we can use block list instead of `isMalicious`\n        require(!isMalicious(_data.from), \"User malicious\");\n\n        // Verify the signature\n        VerifyResult verifyRet = SkywalkerFungibleHelper.verifyTransaction(transactionRecorder[_data.from], _data);\n\n        if (verifyRet == VerifyResult.Success) {\n            // Check cache\n            OmniverseTx storage cache = transactionCache[_data.from];\n            require(cache.timestamp == 0, \"Transaction cached\");\n            // Logic verification\n            _checkExecution(_data);\n            // Delays in executing\n            cache.txData = _data;\n            cache.timestamp = block.timestamp;\n            delayedTxs.push(DelayedTx(_data.from, _data.nonce));\n            if (_data.chainId == chainId) {\n                emit TransactionSent(_data.from, _data.nonce);\n            }\n        }\n        else if (verifyRet == VerifyResult.Malicious) {\n            // Slash\n        }\n    }\n\n    /**\n     * @notice Check if an omniverse transfer operation can be executed successfully\n     */\n    function _checkOmniverseTransfer(bytes memory _from, uint256 _amount) internal view {\n        uint256 fromBalance = omniverseBalances[_from];\n        require(fromBalance >= _amount, \"Exceed balance\");\n    }\n\n    /**\n     * @notice Exucute an omniverse transfer operation\n     */\n    function _omniverseTransfer(bytes memory _from, bytes memory _to, uint256 _amount) internal {\n        _checkOmniverseTransfer(_from, _amount);\n        \n        uint256 fromBalance = omniverseBalances[_from];\n        \n        unchecked {\n            omniverseBalances[_from] = fromBalance - _amount;\n        }\n        omniverseBalances[_to] += _amount;\n\n        emit OmniverseTokenTransfer(_from, _to, _amount);\n\n        address toAddr = _pkToAddress(_to);\n        accountsMap[toAddr] = _to;\n    }\n    \n    /**\n     * @notice Check if the public key is the owner\n     */\n    function _checkOwner(bytes memory _pk) internal view {\n        address fromAddr = _pkToAddress(_pk);\n        require(fromAddr == owner(), \"Not owner\");\n    }\n\n    /**\n     * @notice Execute an omniverse mint operation\n     */\n    function _omniverseMint(bytes memory _to, uint256 _amount) internal {\n        omniverseBalances[_to] += _amount;\n        emit OmniverseTokenTransfer(\"\", _to, _amount);\n\n        address toAddr = _pkToAddress(_to);\n        accountsMap[toAddr] = _to;\n    }\n\n    /**\n     * @notice Check if an omniverse burn operation can be executed successfully\n     */\n    function _checkOmniverseBurn(bytes memory _from, uint256 _amount) internal view {\n        uint256 fromBalance = omniverseBalances[_from];\n        require(fromBalance >= _amount, \"Exceed balance\");\n    }\n\n    /**\n     * @notice Execute an omniverse burn operation\n     */\n    function _omniverseBurn(bytes memory _from, uint256 _amount) internal {\n        omniverseBalances[_from] -= _amount;\n        emit OmniverseTokenTransfer(_from, \"\", _amount);\n    }\n\n    /**\n     * @notice Convert the public key to evm address\n     */\n    function _pkToAddress(bytes memory _pk) internal pure returns (address) {\n        bytes32 hash = keccak256(_pk);\n        return address(uint160(uint256(hash)));\n    }\n\n    /**\n     * @notice Add new chain members to the token\n     */\n    function setMembers(Member[] calldata _members) external onlyOwner {\n        for (uint256 i = 0; i < _members.length; i++) {\n            if (i < members.length) {\n                members[i] = _members[i];\n            }\n            else {\n                members.push(_members[i]);\n            }\n        }\n\n        for (uint256 i = _members.length; i < members.length; i++) {\n            delete members[i];\n        }\n    }\n\n    /**\n     * @notice Returns chain members of the token\n     */\n    function getMembers() external view returns (Member[] memory) {\n        return members;\n    }\n    \n    /**\n     @notice See {IERC20-decimals}.\n     */\n    function decimals() public view virtual override returns (uint8) {\n        return 12;\n    }\n\n    /**\n     * @notice See IERC6358Fungible\n     */\n    function getTransactionCount(bytes memory _pk) external override view returns (uint256) {\n        return transactionRecorder[_pk].txList.length;\n    }\n\n    /**\n     * @notice See IERC6358Fungible\n     */\n    function getTransactionData(bytes calldata _user, uint256 _nonce) external override view returns (ERC6358TransactionData memory txData, uint256 timestamp) {\n        RecordedCertificate storage rc = transactionRecorder[_user];\n        OmniverseTx storage omniTx = rc.txList[_nonce];\n        txData = omniTx.txData;\n        timestamp = omniTx.timestamp;\n    }\n\n    /**\n     * @notice Set the cooling down time of an omniverse transaction\n     */\n    function setCooingDownTime(uint256 _time) external {\n        cdTime = _time;\n    }\n\n    /**\n     * @notice Index the user is malicious or not\n     */\n    function isMalicious(bytes memory _pk) public view returns (bool) {\n        RecordedCertificate storage rc = transactionRecorder[_pk];\n        return (rc.evilTxList.length > 0);\n    }\n\n    /**\n     * @notice See IERC6358Fungible\n     */\n    function getChainId() external view returns (uint32) {\n        return chainId;\n    }\n}",
  "sourcePath": "/home/george/program/dante/omniverse-evm/contracts/contracts/SkywalkerFungible.sol",
  "compiler": {
    "name": "solc",
    "version": "0.8.12+commit.f00d7308.Emscripten.clang"
  },
  "schemaVersion": "3.4.6",
  "updatedAt": "2023-02-01T02:45:46.971Z",
  "networkType": "ethereum",
  "devdoc": {
    "kind": "dev",
    "methods": {
      "allowance(address,address)": {
        "details": "See {IERC20-allowance}."
      },
      "approve(address,uint256)": {
        "details": "See {IERC20-approve}. NOTE: If `amount` is the maximum `uint256`, the allowance is not updated on `transferFrom`. This is semantically equivalent to an infinite approval. Requirements: - `spender` cannot be the zero address."
      },
      "constructor": {
        "params": {
          "_chainId": "The chain which the contract is deployed on",
          "_name": "The name of the token",
          "_symbol": "The symbol of the token"
        }
      },
      "decreaseAllowance(address,uint256)": {
        "details": "Atomically decreases the allowance granted to `spender` by the caller. This is an alternative to {approve} that can be used as a mitigation for problems described in {IERC20-approve}. Emits an {Approval} event indicating the updated allowance. Requirements: - `spender` cannot be the zero address. - `spender` must have allowance for the caller of at least `subtractedValue`."
      },
      "increaseAllowance(address,uint256)": {
        "details": "Atomically increases the allowance granted to `spender` by the caller. This is an alternative to {approve} that can be used as a mitigation for problems described in {IERC20-approve}. Emits an {Approval} event indicating the updated allowance. Requirements: - `spender` cannot be the zero address."
      },
      "name()": {
        "details": "Returns the name of the token."
      },
      "owner()": {
        "details": "Returns the address of the current owner."
      },
      "renounceOwnership()": {
        "details": "Leaves the contract without owner. It will not be possible to call `onlyOwner` functions anymore. Can only be called by the current owner. NOTE: Renouncing ownership will leave the contract without an owner, thereby removing any functionality that is only available to the owner."
      },
      "symbol()": {
        "details": "Returns the symbol of the token, usually a shorter version of the name."
      },
      "totalSupply()": {
        "details": "See {IERC20-totalSupply}."
      },
      "transfer(address,uint256)": {
        "details": "See {IERC20-transfer}. Requirements: - `to` cannot be the zero address. - the caller must have a balance of at least `amount`."
      },
      "transferFrom(address,address,uint256)": {
        "details": "See {IERC20-transferFrom}. Emits an {Approval} event indicating the updated allowance. This is not required by the EIP. See the note at the beginning of {ERC20}. NOTE: Does not update the allowance if the current allowance is the maximum `uint256`. Requirements: - `from` and `to` cannot be the zero address. - `from` must have a balance of at least `amount`. - the caller must have allowance for ``from``'s tokens of at least `amount`."
      },
      "transferOwnership(address)": {
        "details": "Transfers ownership of the contract to a new account (`newOwner`). Can only be called by the current owner."
      }
    },
    "version": 1
  },
  "userdoc": {
    "events": {
      "TransactionSent(bytes,uint256)": {
        "notice": "Emitted when a o-transaction which has nonce `nonce` and was signed by user `pk` is sent by calling {sendOmniverseTransaction}"
      }
    },
    "kind": "user",
    "methods": {
      "balanceOf(address)": {
        "notice": "See {IERC20-balanceOf}."
      },
      "constructor": {
        "notice": "Initiates the contract"
      },
      "decimals()": {
        "notice": "See {IERC20-decimals}."
      },
      "getChainId()": {
        "notice": "See IERC6358Fungible"
      },
      "getDelayedTxCount()": {
        "notice": "Returns the count of delayed transactions"
      },
      "getExecutableDelayedTx()": {
        "notice": "Returns the nearest exexutable delayed transaction info or returns default if not found"
      },
      "getMembers()": {
        "notice": "Returns chain members of the token"
      },
      "getTransactionCount(bytes)": {
        "notice": "See IERC6358Fungible"
      },
      "getTransactionData(bytes,uint256)": {
        "notice": "See IERC6358Fungible"
      },
      "isMalicious(bytes)": {
        "notice": "Index the user is malicious or not"
      },
      "omniverseBalanceOf(bytes)": {
        "notice": "See {IERC6358Fungible-omniverseBalanceOf} Returns the omniverse balance of a user"
      },
      "sendOmniverseTransaction((uint128,uint32,bytes,bytes,bytes,bytes))": {
        "notice": "See {IERC6358Fungible-sendOmniverseTransaction} Send an omniverse transaction"
      },
      "setCooingDownTime(uint256)": {
        "notice": "Set the cooling down time of an omniverse transaction"
      },
      "setMembers((uint32,bytes)[])": {
        "notice": "Add new chain members to the token"
      },
      "triggerExecution()": {
        "notice": "See {IERC6358Fungible-triggerExecution}"
      }
    },
    "notice": "Implementation of the {IERC6358Fungible} interface",
    "version": 1
  }
}