{
  "contractName": "SkywalkerFungible",
  "abi": [
    {
      "inputs": [
        {
          "internalType": "string",
          "name": "_tokenId",
          "type": "string"
        },
        {
          "internalType": "string",
          "name": "_name",
          "type": "string"
        },
        {
          "internalType": "string",
          "name": "_symbol",
          "type": "string"
        }
      ],
      "stateMutability": "nonpayable",
      "type": "constructor"
    },
    {
      "anonymous": false,
      "inputs": [
        {
          "indexed": true,
          "internalType": "address",
          "name": "owner",
          "type": "address"
        },
        {
          "indexed": true,
          "internalType": "address",
          "name": "spender",
          "type": "address"
        },
        {
          "indexed": false,
          "internalType": "uint256",
          "name": "value",
          "type": "uint256"
        }
      ],
      "name": "Approval",
      "type": "event"
    },
    {
      "anonymous": false,
      "inputs": [
        {
          "indexed": false,
          "internalType": "bytes",
          "name": "sender",
          "type": "bytes"
        },
        {
          "indexed": false,
          "internalType": "string",
          "name": "reason",
          "type": "string"
        }
      ],
      "name": "OmniverseError",
      "type": "event"
    },
    {
      "anonymous": false,
      "inputs": [
        {
          "indexed": false,
          "internalType": "bytes",
          "name": "sender",
          "type": "bytes"
        }
      ],
      "name": "OmniverseNotOwner",
      "type": "event"
    },
    {
      "anonymous": false,
      "inputs": [
        {
          "indexed": false,
          "internalType": "bytes",
          "name": "to",
          "type": "bytes"
        },
        {
          "indexed": false,
          "internalType": "uint256",
          "name": "value",
          "type": "uint256"
        }
      ],
      "name": "OmniverseTokenDeposit",
      "type": "event"
    },
    {
      "anonymous": false,
      "inputs": [
        {
          "indexed": false,
          "internalType": "bytes",
          "name": "owner",
          "type": "bytes"
        },
        {
          "indexed": false,
          "internalType": "uint256",
          "name": "balance",
          "type": "uint256"
        },
        {
          "indexed": false,
          "internalType": "uint256",
          "name": "value",
          "type": "uint256"
        }
      ],
      "name": "OmniverseTokenExceedBalance",
      "type": "event"
    },
    {
      "anonymous": false,
      "inputs": [
        {
          "indexed": false,
          "internalType": "bytes",
          "name": "from",
          "type": "bytes"
        },
        {
          "indexed": false,
          "internalType": "bytes",
          "name": "to",
          "type": "bytes"
        },
        {
          "indexed": false,
          "internalType": "uint256",
          "name": "value",
          "type": "uint256"
        }
      ],
      "name": "OmniverseTokenTransfer",
      "type": "event"
    },
    {
      "anonymous": false,
      "inputs": [
        {
          "indexed": false,
          "internalType": "bytes",
          "name": "from",
          "type": "bytes"
        },
        {
          "indexed": false,
          "internalType": "uint256",
          "name": "value",
          "type": "uint256"
        }
      ],
      "name": "OmniverseTokenWithdraw",
      "type": "event"
    },
    {
      "anonymous": false,
      "inputs": [
        {
          "indexed": false,
          "internalType": "bytes",
          "name": "sender",
          "type": "bytes"
        },
        {
          "indexed": false,
          "internalType": "uint8",
          "name": "op",
          "type": "uint8"
        }
      ],
      "name": "OmniverseTokenWrongOp",
      "type": "event"
    },
    {
      "anonymous": false,
      "inputs": [
        {
          "indexed": true,
          "internalType": "address",
          "name": "previousOwner",
          "type": "address"
        },
        {
          "indexed": true,
          "internalType": "address",
          "name": "newOwner",
          "type": "address"
        }
      ],
      "name": "OwnershipTransferred",
      "type": "event"
    },
    {
      "anonymous": false,
      "inputs": [
        {
          "indexed": true,
          "internalType": "address",
          "name": "from",
          "type": "address"
        },
        {
          "indexed": true,
          "internalType": "address",
          "name": "to",
          "type": "address"
        },
        {
          "indexed": false,
          "internalType": "uint256",
          "name": "value",
          "type": "uint256"
        }
      ],
      "name": "Transfer",
      "type": "event"
    },
    {
      "inputs": [
        {
          "internalType": "address",
          "name": "owner",
          "type": "address"
        },
        {
          "internalType": "address",
          "name": "spender",
          "type": "address"
        }
      ],
      "name": "allowance",
      "outputs": [
        {
          "internalType": "uint256",
          "name": "",
          "type": "uint256"
        }
      ],
      "stateMutability": "view",
      "type": "function",
      "constant": true
    },
    {
      "inputs": [
        {
          "internalType": "address",
          "name": "spender",
          "type": "address"
        },
        {
          "internalType": "uint256",
          "name": "amount",
          "type": "uint256"
        }
      ],
      "name": "approve",
      "outputs": [
        {
          "internalType": "bool",
          "name": "",
          "type": "bool"
        }
      ],
      "stateMutability": "nonpayable",
      "type": "function"
    },
    {
      "inputs": [
        {
          "internalType": "address",
          "name": "account",
          "type": "address"
        }
      ],
      "name": "balanceOf",
      "outputs": [
        {
          "internalType": "uint256",
          "name": "",
          "type": "uint256"
        }
      ],
      "stateMutability": "view",
      "type": "function",
      "constant": true
    },
    {
      "inputs": [],
      "name": "committee",
      "outputs": [
        {
          "internalType": "bytes",
          "name": "",
          "type": "bytes"
        }
      ],
      "stateMutability": "view",
      "type": "function",
      "constant": true
    },
    {
      "inputs": [],
      "name": "decimals",
      "outputs": [
        {
          "internalType": "uint8",
          "name": "",
          "type": "uint8"
        }
      ],
      "stateMutability": "view",
      "type": "function",
      "constant": true
    },
    {
      "inputs": [
        {
          "internalType": "address",
          "name": "spender",
          "type": "address"
        },
        {
          "internalType": "uint256",
          "name": "subtractedValue",
          "type": "uint256"
        }
      ],
      "name": "decreaseAllowance",
      "outputs": [
        {
          "internalType": "bool",
          "name": "",
          "type": "bool"
        }
      ],
      "stateMutability": "nonpayable",
      "type": "function"
    },
    {
      "inputs": [],
      "name": "depositDealingIndex",
      "outputs": [
        {
          "internalType": "uint256",
          "name": "",
          "type": "uint256"
        }
      ],
      "stateMutability": "view",
      "type": "function",
      "constant": true
    },
    {
      "inputs": [
        {
          "internalType": "address",
          "name": "spender",
          "type": "address"
        },
        {
          "internalType": "uint256",
          "name": "addedValue",
          "type": "uint256"
        }
      ],
      "name": "increaseAllowance",
      "outputs": [
        {
          "internalType": "bool",
          "name": "",
          "type": "bool"
        }
      ],
      "stateMutability": "nonpayable",
      "type": "function"
    },
    {
      "inputs": [],
      "name": "name",
      "outputs": [
        {
          "internalType": "string",
          "name": "",
          "type": "string"
        }
      ],
      "stateMutability": "view",
      "type": "function",
      "constant": true
    },
    {
      "inputs": [],
      "name": "omniverseProtocol",
      "outputs": [
        {
          "internalType": "contract IOmniverseProtocol",
          "name": "",
          "type": "address"
        }
      ],
      "stateMutability": "view",
      "type": "function",
      "constant": true
    },
    {
      "inputs": [],
      "name": "owner",
      "outputs": [
        {
          "internalType": "address",
          "name": "",
          "type": "address"
        }
      ],
      "stateMutability": "view",
      "type": "function",
      "constant": true
    },
    {
      "inputs": [],
      "name": "renounceOwnership",
      "outputs": [],
      "stateMutability": "nonpayable",
      "type": "function"
    },
    {
      "inputs": [],
      "name": "symbol",
      "outputs": [
        {
          "internalType": "string",
          "name": "",
          "type": "string"
        }
      ],
      "stateMutability": "view",
      "type": "function",
      "constant": true
    },
    {
      "inputs": [],
      "name": "tokenIdentity",
      "outputs": [
        {
          "internalType": "string",
          "name": "",
          "type": "string"
        }
      ],
      "stateMutability": "view",
      "type": "function",
      "constant": true
    },
    {
      "inputs": [],
      "name": "totalSupply",
      "outputs": [
        {
          "internalType": "uint256",
          "name": "",
          "type": "uint256"
        }
      ],
      "stateMutability": "view",
      "type": "function",
      "constant": true
    },
    {
      "inputs": [
        {
          "internalType": "address",
          "name": "to",
          "type": "address"
        },
        {
          "internalType": "uint256",
          "name": "amount",
          "type": "uint256"
        }
      ],
      "name": "transfer",
      "outputs": [
        {
          "internalType": "bool",
          "name": "",
          "type": "bool"
        }
      ],
      "stateMutability": "nonpayable",
      "type": "function"
    },
    {
      "inputs": [
        {
          "internalType": "address",
          "name": "from",
          "type": "address"
        },
        {
          "internalType": "address",
          "name": "to",
          "type": "address"
        },
        {
          "internalType": "uint256",
          "name": "amount",
          "type": "uint256"
        }
      ],
      "name": "transferFrom",
      "outputs": [
        {
          "internalType": "bool",
          "name": "",
          "type": "bool"
        }
      ],
      "stateMutability": "nonpayable",
      "type": "function"
    },
    {
      "inputs": [
        {
          "internalType": "address",
          "name": "newOwner",
          "type": "address"
        }
      ],
      "name": "transferOwnership",
      "outputs": [],
      "stateMutability": "nonpayable",
      "type": "function"
    },
    {
      "inputs": [
        {
          "internalType": "bytes",
          "name": "_address",
          "type": "bytes"
        }
      ],
      "name": "setCommitteeAddress",
      "outputs": [],
      "stateMutability": "nonpayable",
      "type": "function"
    },
    {
      "inputs": [
        {
          "internalType": "address",
          "name": "_address",
          "type": "address"
        }
      ],
      "name": "setOmniverseProtocolAddress",
      "outputs": [],
      "stateMutability": "nonpayable",
      "type": "function"
    },
    {
      "inputs": [
        {
          "components": [
            {
              "internalType": "uint256",
              "name": "nonce",
              "type": "uint256"
            },
            {
              "internalType": "uint8",
              "name": "chainId",
              "type": "uint8"
            },
            {
              "internalType": "bytes",
              "name": "from",
              "type": "bytes"
            },
            {
              "internalType": "string",
              "name": "to",
              "type": "string"
            },
            {
              "internalType": "bytes",
              "name": "data",
              "type": "bytes"
            },
            {
              "internalType": "bytes",
              "name": "signature",
              "type": "bytes"
            }
          ],
          "internalType": "struct OmniverseTokenProtocol",
          "name": "_data",
          "type": "tuple"
        }
      ],
      "name": "omniverseTransfer",
      "outputs": [],
      "stateMutability": "nonpayable",
      "type": "function"
    },
    {
      "inputs": [
        {
          "components": [
            {
              "internalType": "uint256",
              "name": "nonce",
              "type": "uint256"
            },
            {
              "internalType": "uint8",
              "name": "chainId",
              "type": "uint8"
            },
            {
              "internalType": "bytes",
              "name": "from",
              "type": "bytes"
            },
            {
              "internalType": "string",
              "name": "to",
              "type": "string"
            },
            {
              "internalType": "bytes",
              "name": "data",
              "type": "bytes"
            },
            {
              "internalType": "bytes",
              "name": "signature",
              "type": "bytes"
            }
          ],
          "internalType": "struct OmniverseTokenProtocol",
          "name": "_data",
          "type": "tuple"
        }
      ],
      "name": "omniverseWithdraw",
      "outputs": [],
      "stateMutability": "nonpayable",
      "type": "function"
    },
    {
      "inputs": [
        {
          "components": [
            {
              "internalType": "uint256",
              "name": "nonce",
              "type": "uint256"
            },
            {
              "internalType": "uint8",
              "name": "chainId",
              "type": "uint8"
            },
            {
              "internalType": "bytes",
              "name": "from",
              "type": "bytes"
            },
            {
              "internalType": "string",
              "name": "to",
              "type": "string"
            },
            {
              "internalType": "bytes",
              "name": "data",
              "type": "bytes"
            },
            {
              "internalType": "bytes",
              "name": "signature",
              "type": "bytes"
            }
          ],
          "internalType": "struct OmniverseTokenProtocol",
          "name": "_data",
          "type": "tuple"
        }
      ],
      "name": "omniverseDeposit",
      "outputs": [],
      "stateMutability": "nonpayable",
      "type": "function"
    },
    {
      "inputs": [
        {
          "components": [
            {
              "internalType": "uint256",
              "name": "nonce",
              "type": "uint256"
            },
            {
              "internalType": "uint8",
              "name": "chainId",
              "type": "uint8"
            },
            {
              "internalType": "bytes",
              "name": "from",
              "type": "bytes"
            },
            {
              "internalType": "string",
              "name": "to",
              "type": "string"
            },
            {
              "internalType": "bytes",
              "name": "data",
              "type": "bytes"
            },
            {
              "internalType": "bytes",
              "name": "signature",
              "type": "bytes"
            }
          ],
          "internalType": "struct OmniverseTokenProtocol",
          "name": "_data",
          "type": "tuple"
        }
      ],
      "name": "omniverseMint",
      "outputs": [],
      "stateMutability": "nonpayable",
      "type": "function"
    },
    {
      "inputs": [],
      "name": "triggerExecution",
      "outputs": [],
      "stateMutability": "nonpayable",
      "type": "function"
    },
    {
      "inputs": [],
      "name": "getExecutableDelayedTx",
      "outputs": [
        {
          "components": [
            {
              "internalType": "bytes",
              "name": "sender",
              "type": "bytes"
            },
            {
              "internalType": "uint256",
              "name": "nonce",
              "type": "uint256"
            }
          ],
          "internalType": "struct SkywalkerFungible.DelayedTx",
          "name": "ret",
          "type": "tuple"
        }
      ],
      "stateMutability": "view",
      "type": "function",
      "constant": true
    },
    {
      "inputs": [],
      "name": "getDelayedTxCount",
      "outputs": [
        {
          "internalType": "uint256",
          "name": "",
          "type": "uint256"
        }
      ],
      "stateMutability": "view",
      "type": "function",
      "constant": true
    },
    {
      "inputs": [
        {
          "internalType": "bytes",
          "name": "_pk",
          "type": "bytes"
        }
      ],
      "name": "omniverseBalanceOf",
      "outputs": [
        {
          "internalType": "uint256",
          "name": "",
          "type": "uint256"
        }
      ],
      "stateMutability": "view",
      "type": "function",
      "constant": true
    },
    {
      "inputs": [],
      "name": "getTime",
      "outputs": [
        {
          "internalType": "uint256",
          "name": "",
          "type": "uint256"
        }
      ],
      "stateMutability": "view",
      "type": "function",
      "constant": true
    },
    {
      "inputs": [
        {
          "internalType": "uint8[]",
          "name": "_members",
          "type": "uint8[]"
        }
      ],
      "name": "addMembers",
      "outputs": [],
      "stateMutability": "nonpayable",
      "type": "function"
    },
    {
      "inputs": [],
      "name": "getMembers",
      "outputs": [
        {
          "internalType": "uint8[]",
          "name": "",
          "type": "uint8[]"
        }
      ],
      "stateMutability": "view",
      "type": "function",
      "constant": true
    },
    {
      "inputs": [
        {
          "internalType": "bytes",
          "name": "from",
          "type": "bytes"
        },
        {
          "internalType": "uint256",
          "name": "amount",
          "type": "uint256"
        }
      ],
      "name": "requestDeposit",
      "outputs": [],
      "stateMutability": "nonpayable",
      "type": "function"
    },
    {
      "inputs": [
        {
          "internalType": "uint256",
          "name": "index",
          "type": "uint256"
        },
        {
          "internalType": "uint256",
          "name": "nonce",
          "type": "uint256"
        },
        {
          "internalType": "bytes",
          "name": "signature",
          "type": "bytes"
        }
      ],
      "name": "approveDeposit",
      "outputs": [],
      "stateMutability": "nonpayable",
      "type": "function"
    },
    {
      "inputs": [
        {
          "internalType": "uint256",
          "name": "index",
          "type": "uint256"
        }
      ],
      "name": "getDepositRequest",
      "outputs": [
        {
          "components": [
            {
              "internalType": "bytes",
              "name": "receiver",
              "type": "bytes"
            },
            {
              "internalType": "uint256",
              "name": "amount",
              "type": "uint256"
            }
          ],
          "internalType": "struct DepositRequest",
          "name": "ret",
          "type": "tuple"
        }
      ],
      "stateMutability": "view",
      "type": "function",
      "constant": true
    }
  ],
  "bytecode": "0x60806040523480156200001157600080fd5b506040516200520c3803806200520c8339818101604052810190620000379190620003ca565b81818160039080519060200190620000519291906200017d565b5080600490805190602001906200006a9291906200017d565b5050506200008d62000081620000af60201b60201c565b620000b760201b60201c565b8260079080519060200190620000a59291906200017d565b50505050620004e8565b600033905090565b6000600560009054906101000a900473ffffffffffffffffffffffffffffffffffffffff16905081600560006101000a81548173ffffffffffffffffffffffffffffffffffffffff021916908373ffffffffffffffffffffffffffffffffffffffff1602179055508173ffffffffffffffffffffffffffffffffffffffff168173ffffffffffffffffffffffffffffffffffffffff167f8be0079c531659141344cd1fd0a4f28419497f9722a3daafe3b4186f6b6457e060405160405180910390a35050565b8280546200018b90620004b2565b90600052602060002090601f016020900481019282620001af5760008555620001fb565b82601f10620001ca57805160ff1916838001178555620001fb565b82800160010185558215620001fb579182015b82811115620001fa578251825591602001919060010190620001dd565b5b5090506200020a91906200020e565b5090565b5b80821115620002295760008160009055506001016200020f565b5090565b6000604051905090565b600080fd5b600080fd5b600080fd5b600080fd5b6000601f19601f8301169050919050565b7f4e487b7100000000000000000000000000000000000000000000000000000000600052604160045260246000fd5b62000296826200024b565b810181811067ffffffffffffffff82111715620002b857620002b76200025c565b5b80604052505050565b6000620002cd6200022d565b9050620002db82826200028b565b919050565b600067ffffffffffffffff821115620002fe57620002fd6200025c565b5b62000309826200024b565b9050602081019050919050565b60005b838110156200033657808201518184015260208101905062000319565b8381111562000346576000848401525b50505050565b6000620003636200035d84620002e0565b620002c1565b90508281526020810184848401111562000382576200038162000246565b5b6200038f84828562000316565b509392505050565b600082601f830112620003af57620003ae62000241565b5b8151620003c18482602086016200034c565b91505092915050565b600080600060608486031215620003e657620003e562000237565b5b600084015167ffffffffffffffff8111156200040757620004066200023c565b5b620004158682870162000397565b935050602084015167ffffffffffffffff8111156200043957620004386200023c565b5b620004478682870162000397565b925050604084015167ffffffffffffffff8111156200046b576200046a6200023c565b5b620004798682870162000397565b9150509250925092565b7f4e487b7100000000000000000000000000000000000000000000000000000000600052602260045260246000fd5b60006002820490506001821680620004cb57607f821691505b60208210811415620004e257620004e162000483565b5b50919050565b614d1480620004f86000396000f3fe608060405234801561001057600080fd5b50600436106102065760003560e01c806370a082311161011a578063b36d5478116100ad578063d864e7401161007c578063d864e740146105cb578063dd62ed3e146105e9578063e6aa4c3614610619578063f2fde38b14610635578063f78e94021461065157610206565b8063b36d547814610559578063b49b7c6e14610575578063c15f3b1f14610591578063cb963553146105ad57610206565b806395d89b41116100e957806395d89b41146104bd5780639eab5253146104db578063a457c2d7146104f9578063a9059cbb1461052957610206565b806370a0823114610447578063715018a6146104775780638da5cb5b1461048157806390abca4d1461049f57610206565b80632ac1c5681161019d57806343a642891161016c57806343a64289146103915780634d9ec5f6146103ad57806352ce5831146103c9578063557ed1ba146103f957806364b4c3101461041757610206565b80632ac1c5681461031d578063313ce5671461032757806336e414df14610345578063395093511461036157610206565b80630d94bb52116101d95780630d94bb521461029357806318160ddd146102b15780631cafc401146102cf57806323b872dd146102ed57610206565b8063057aa1a51461020b57806306fdde0314610227578063095ea7b3146102455780630d5f6f9314610275575b600080fd5b61022560048036038101906102209190612cdc565b61066d565b005b61022f610682565b60405161023c9190612dbe565b60405180910390f35b61025f600480360381019061025a9190612e74565b610714565b60405161026c9190612ecf565b60405180910390f35b61027d610737565b60405161028a9190612f8b565b60405180910390f35b61029b6109b4565b6040516102a89190612fbc565b60405180910390f35b6102b96109c1565b6040516102c69190612fbc565b60405180910390f35b6102d76109cb565b6040516102e49190613036565b60405180910390f35b61030760048036038101906103029190613051565b6109f1565b6040516103149190612ecf565b60405180910390f35b610325610a20565b005b61032f610f8c565b60405161033c91906130c0565b60405180910390f35b61035f600480360381019061035a9190613140565b610f95565b005b61037b60048036038101906103769190612e74565b6110c0565b6040516103889190612ecf565b60405180910390f35b6103ab60048036038101906103a69190612cdc565b6110f7565b005b6103c760048036038101906103c2919061318d565b61110c565b005b6103e360048036038101906103de9190613210565b611158565b6040516103f09190612fbc565b60405180910390f35b610401611183565b60405161040e9190612fbc565b60405180910390f35b610431600480360381019061042c919061325d565b61118b565b60405161043e91906132c7565b60405180910390f35b610461600480360381019061045c919061318d565b611271565b60405161046e9190612fbc565b60405180910390f35b61047f6112b9565b005b6104896112cd565b60405161049691906132f8565b60405180910390f35b6104a76112f7565b6040516104b49190612fbc565b60405180910390f35b6104c56112fd565b6040516104d29190612dbe565b60405180910390f35b6104e361138f565b6040516104f091906133d1565b60405180910390f35b610513600480360381019061050e9190612e74565b61140d565b6040516105209190612ecf565b60405180910390f35b610543600480360381019061053e9190612e74565b611484565b6040516105509190612ecf565b60405180910390f35b610573600480360381019061056e9190612cdc565b6114a7565b005b61058f600480360381019061058a91906133f3565b6114bc565b005b6105ab60048036038101906105a69190613210565b611713565b005b6105b5611731565b6040516105c29190612dbe565b60405180910390f35b6105d36117bf565b6040516105e0919061349d565b60405180910390f35b61060360048036038101906105fe91906134bf565b61184d565b6040516106109190612fbc565b60405180910390f35b610633600480360381019061062e9190612cdc565b6118d4565b005b61064f600480360381019061064a919061318d565b6118e9565b005b61066b600480360381019061066691906134ff565b61196d565b005b61067f8161067a9061388a565b611d80565b50565b606060038054610691906138cc565b80601f01602080910402602001604051908101604052809291908181526020018280546106bd906138cc565b801561070a5780601f106106df5761010080835404028352916020019161070a565b820191906000526020600020905b8154815290600101906020018083116106ed57829003601f168201915b5050505050905090565b60008061071f612065565b905061072c81858561206d565b600191505092915050565b61073f612a41565b6000600b8054905011156109b1576000600660009054906101000a900473ffffffffffffffffffffffffffffffffffffffff1673ffffffffffffffffffffffffffffffffffffffff166339aaa281600b6000815481106107a2576107a16138fe565b5b9060005260206000209060020201600001600b6000815481106107c8576107c76138fe565b5b9060005260206000209060020201600101546040518363ffffffff1660e01b81526004016107f79291906139c2565b600060405180830381865afa158015610814573d6000803e3d6000fd5b505050506040513d6000823e3d601f19601f8201168201806040525081019061083d9190613c0c565b915050600660009054906101000a900473ffffffffffffffffffffffffffffffffffffffff1673ffffffffffffffffffffffffffffffffffffffff16636f06f7b86040518163ffffffff1660e01b8152600401602060405180830381865afa1580156108ad573d6000803e3d6000fd5b505050506040513d601f19601f820116820180604052508101906108d19190613c68565b816108dc9190613cc4565b42106109af57600b6000815481106108f7576108f66138fe565b5b9060005260206000209060020201604051806040016040529081600082018054610920906138cc565b80601f016020809104026020016040519081016040528092919081815260200182805461094c906138cc565b80156109995780601f1061096e57610100808354040283529160200191610999565b820191906000526020600020905b81548152906001019060200180831161097c57829003601f168201915b5050505050815260200160018201548152505091505b505b90565b6000600b80549050905090565b6000600254905090565b600660009054906101000a900473ffffffffffffffffffffffffffffffffffffffff1681565b6000806109fc612065565b9050610a09858285612238565b610a148585856122c4565b60019150509392505050565b6000600b8054905011610a68576040517f08c379a0000000000000000000000000000000000000000000000000000000008152600401610a5f90613d66565b60405180910390fd5b600080600660009054906101000a900473ffffffffffffffffffffffffffffffffffffffff1673ffffffffffffffffffffffffffffffffffffffff166339aaa281600b600081548110610abe57610abd6138fe565b5b9060005260206000209060020201600001600b600081548110610ae457610ae36138fe565b5b9060005260206000209060020201600101546040518363ffffffff1660e01b8152600401610b139291906139c2565b600060405180830381865afa158015610b30573d6000803e3d6000fd5b505050506040513d6000823e3d601f19601f82011682018060405250810190610b599190613c0c565b91509150600660009054906101000a900473ffffffffffffffffffffffffffffffffffffffff1673ffffffffffffffffffffffffffffffffffffffff16636f06f7b86040518163ffffffff1660e01b8152600401602060405180830381865afa158015610bca573d6000803e3d6000fd5b505050506040513d601f19601f82011682018060405250810190610bee9190613c68565b81610bf99190613cc4565b421015610c3b576040517f08c379a0000000000000000000000000000000000000000000000000000000008152600401610c3290613dd2565b60405180910390fd5b600b6001600b80549050610c4f9190613df2565b81548110610c6057610c5f6138fe565b5b9060005260206000209060020201600b600081548110610c8357610c826138fe565b5b90600052602060002090600202016000820181600001908054610ca5906138cc565b610cb0929190612a5b565b5060018201548160010155905050600b805480610cd057610ccf613e26565b5b600190038181906000526020600020906002020160008082016000610cf59190612ae8565b6001820160009055505090556000808360800151806020019051810190610d1c9190613e55565b91509150600260ff168260ff161415610df857600081806020019051810190610d459190613c68565b9050610df2856040015182600660009054906101000a900473ffffffffffffffffffffffffffffffffffffffff1673ffffffffffffffffffffffffffffffffffffffff16633408e4706040518163ffffffff1660e01b8152600401602060405180830381865afa158015610dbd573d6000803e3d6000fd5b505050506040513d601f19601f82011682018060405250810190610de19190613eb1565b60ff16886020015160ff1614612545565b50610f85565b600160ff168260ff161415610e385760008082806020019051810190610e1e9190613ede565b91509150610e3186604001518383612698565b5050610f84565b600060ff168260ff161415610e785760008082806020019051810190610e5e9190613ede565b91509150610e718660400151838361279f565b5050610f83565b600360ff168260ff161415610f44576000610e968560400151612868565b9050610ea06112cd565b73ffffffffffffffffffffffffffffffffffffffff168173ffffffffffffffffffffffffffffffffffffffff1614610f17577fbd8697cc45013432c9b28106cbef86826e50ba0069e4f7c82a44c5f9a2e835798560400151604051610f05919061349d565b60405180910390a15050505050610f8a565b60008083806020019051810190610f2e9190613ede565b91509150610f3c8282612881565b505050610f82565b7fb037c465dfd2ba266747dc7bf6ef2589cf239e0c7d2b3f66f666adddf07d4f54846040015183604051610f79929190613f3a565b60405180910390a15b5b5b5b505050505b565b60006012905090565b610f9d6128f3565b60005b828290508110156110bb5760005b60088054905081101561103b57838383818110610fce57610fcd6138fe565b5b9050602002016020810190610fe39190613f6a565b60ff1660088281548110610ffa57610ff96138fe565b5b90600052602060002090602091828204019190069054906101000a900460ff1660ff1614156110285761103b565b808061103390613f97565b915050610fae565b506008838383818110611051576110506138fe565b5b90506020020160208101906110669190613f6a565b90806001815401808255809150506001900390600052602060002090602091828204019190069091909190916101000a81548160ff021916908360ff16021790555080806110b390613f97565b915050610fa0565b505050565b6000806110cb612065565b90506110ec8185856110dd858961184d565b6110e79190613cc4565b61206d565b600191505092915050565b611109816111049061388a565b611d80565b50565b6111146128f3565b80600660006101000a81548173ffffffffffffffffffffffffffffffffffffffff021916908373ffffffffffffffffffffffffffffffffffffffff16021790555050565b60006009838360405161116c929190614010565b908152602001604051809103902054905092915050565b600042905090565b611193612b28565b81600d80549050111561126c57600d82815481106111b4576111b36138fe565b5b90600052602060002090600202016040518060400160405290816000820180546111dd906138cc565b80601f0160208091040260200160405190810160405280929190818152602001828054611209906138cc565b80156112565780601f1061122b57610100808354040283529160200191611256565b820191906000526020600020905b81548152906001019060200180831161123957829003601f168201915b5050505050815260200160018201548152505090505b919050565b60008060008373ffffffffffffffffffffffffffffffffffffffff1673ffffffffffffffffffffffffffffffffffffffff168152602001908152602001600020549050919050565b6112c16128f3565b6112cb6000612971565b565b6000600560009054906101000a900473ffffffffffffffffffffffffffffffffffffffff16905090565b600e5481565b60606004805461130c906138cc565b80601f0160208091040260200160405190810160405280929190818152602001828054611338906138cc565b80156113855780601f1061135a57610100808354040283529160200191611385565b820191906000526020600020905b81548152906001019060200180831161136857829003601f168201915b5050505050905090565b6060600880548060200260200160405190810160405280929190818152602001828054801561140357602002820191906000526020600020906000905b82829054906101000a900460ff1660ff16815260200190600101906020826000010492830192600103820291508084116113cc5790505b5050505050905090565b600080611418612065565b90506000611426828661184d565b90508381101561146b576040517f08c379a00000000000000000000000000000000000000000000000000000000081526004016114629061409b565b60405180910390fd5b611478828686840361206d565b60019250505092915050565b60008061148f612065565b905061149c8185856122c4565b600191505092915050565b6114b9816114b49061388a565b611d80565b50565b600061150b84848080601f016020809104026020016040519081016040528093929190818152602001838380828437600081840152601f19601f82011690508083019250505050505050612868565b90503373ffffffffffffffffffffffffffffffffffffffff168173ffffffffffffffffffffffffffffffffffffffff161461157b576040517f08c379a000000000000000000000000000000000000000000000000000000000815260040161157290614107565b60405180910390fd5b60008060008373ffffffffffffffffffffffffffffffffffffffff1673ffffffffffffffffffffffffffffffffffffffff16815260200190815260200160002054905082811015611601576040517f08c379a00000000000000000000000000000000000000000000000000000000081526004016115f890614173565b60405180910390fd5b8281036000808473ffffffffffffffffffffffffffffffffffffffff1673ffffffffffffffffffffffffffffffffffffffff1681526020019081526020016000208190555082600260008282546116589190613df2565b92505081905550600d604051806040016040528087878080601f016020809104026020016040519081016040528093929190818152602001838380828437600081840152601f19601f82011690508083019250505050505050815260200185815250908060018154018082558091505060019003906000526020600020906002020160009091909190915060008201518160000190805190602001906116ff929190612b42565b506020820151816001015550505050505050565b61171b6128f3565b8181600c919061172c929190612bc8565b505050565b6007805461173e906138cc565b80601f016020809104026020016040519081016040528092919081815260200182805461176a906138cc565b80156117b75780601f1061178c576101008083540402835291602001916117b7565b820191906000526020600020905b81548152906001019060200180831161179a57829003601f168201915b505050505081565b600c80546117cc906138cc565b80601f01602080910402602001604051908101604052809291908181526020018280546117f8906138cc565b80156118455780601f1061181a57610100808354040283529160200191611845565b820191906000526020600020905b81548152906001019060200180831161182857829003601f168201915b505050505081565b6000600160008473ffffffffffffffffffffffffffffffffffffffff1673ffffffffffffffffffffffffffffffffffffffff16815260200190815260200160002060008373ffffffffffffffffffffffffffffffffffffffff1673ffffffffffffffffffffffffffffffffffffffff16815260200190815260200160002054905092915050565b6118e6816118e19061388a565b611d80565b50565b6118f16128f3565b600073ffffffffffffffffffffffffffffffffffffffff168173ffffffffffffffffffffffffffffffffffffffff161415611961576040517f08c379a000000000000000000000000000000000000000000000000000000000815260040161195890614205565b60405180910390fd5b61196a81612971565b50565b6000611a02600c805461197f906138cc565b80601f01602080910402602001604051908101604052809291908181526020018280546119ab906138cc565b80156119f85780601f106119cd576101008083540402835291602001916119f8565b820191906000526020600020905b8154815290600101906020018083116119db57829003601f168201915b5050505050612868565b90508073ffffffffffffffffffffffffffffffffffffffff163373ffffffffffffffffffffffffffffffffffffffff1614611a72576040517f08c379a0000000000000000000000000000000000000000000000000000000008152600401611a6990614297565b60405180910390fd5b600e548514611ab6576040517f08c379a0000000000000000000000000000000000000000000000000000000008152600401611aad90614303565b60405180910390fd5b6000600d8681548110611acc57611acb6138fe565b5b90600052602060002090600202019050600e6000815480929190611aef90613f97565b9190505550611afc612c4e565b85816000018181525050600660009054906101000a900473ffffffffffffffffffffffffffffffffffffffff1673ffffffffffffffffffffffffffffffffffffffff16633408e4706040518163ffffffff1660e01b8152600401602060405180830381865afa158015611b73573d6000803e3d6000fd5b505050506040513d601f19601f82011682018060405250810190611b979190613eb1565b816020019060ff16908160ff1681525050600c8054611bb5906138cc565b80601f0160208091040260200160405190810160405280929190818152602001828054611be1906138cc565b8015611c2e5780601f10611c0357610100808354040283529160200191611c2e565b820191906000526020600020905b815481529060010190602001808311611c1157829003601f168201915b5050505050816040018190525060078054611c48906138cc565b80601f0160208091040260200160405190810160405280929190818152602001828054611c74906138cc565b8015611cc15780601f10611c9657610100808354040283529160200191611cc1565b820191906000526020600020905b815481529060010190602001808311611ca457829003601f168201915b5050505050816060018190525084848080601f016020809104026020016040519081016040528093929190818152602001838380828437600081840152601f19601f820116905080830192505050505050508160a001819052506000826000018360010154604051602001611d379291906139c2565b604051602081830303815290604052604051602001611d57929190614323565b6040516020818303038152906040528160800181905250611d7781611d80565b50505050505050565b6007604051602001611d9291906143e8565b604051602081830303815290604052805190602001208160600151604051602001611dbd9190612dbe565b6040516020818303038152906040528051906020012014611e13576040517f08c379a0000000000000000000000000000000000000000000000000000000008152600401611e0a90614456565b60405180910390fd5b600660009054906101000a900473ffffffffffffffffffffffffffffffffffffffff1673ffffffffffffffffffffffffffffffffffffffff16633713bb5382604001516040518263ffffffff1660e01b8152600401611e72919061349d565b602060405180830381865afa158015611e8f573d6000803e3d6000fd5b505050506040513d601f19601f82011682018060405250810190611eb391906144a2565b15611ef3576040517f08c379a0000000000000000000000000000000000000000000000000000000008152600401611eea9061451b565b60405180910390fd5b6000600660009054906101000a900473ffffffffffffffffffffffffffffffffffffffff1673ffffffffffffffffffffffffffffffffffffffff1663edb6e615836040518263ffffffff1660e01b8152600401611f509190614623565b6020604051808303816000875af1158015611f6f573d6000803e3d6000fd5b505050506040513d601f19601f82011682018060405250810190611f93919061466a565b905060006001811115611fa957611fa8614697565b5b816001811115611fbc57611fbb614697565b5b141561203857600b604051806040016040528084604001518152602001846000015181525090806001815401808255809150506001900390600052602060002090600202016000909190919091506000820151816000019080519060200190612026929190612b42565b50602082015181600101555050612061565b60018081111561204b5761204a614697565b5b81600181111561205e5761205d614697565b5b50505b5050565b600033905090565b600073ffffffffffffffffffffffffffffffffffffffff168373ffffffffffffffffffffffffffffffffffffffff1614156120dd576040517f08c379a00000000000000000000000000000000000000000000000000000000081526004016120d490614738565b60405180910390fd5b600073ffffffffffffffffffffffffffffffffffffffff168273ffffffffffffffffffffffffffffffffffffffff16141561214d576040517f08c379a0000000000000000000000000000000000000000000000000000000008152600401612144906147ca565b60405180910390fd5b80600160008573ffffffffffffffffffffffffffffffffffffffff1673ffffffffffffffffffffffffffffffffffffffff16815260200190815260200160002060008473ffffffffffffffffffffffffffffffffffffffff1673ffffffffffffffffffffffffffffffffffffffff168152602001908152602001600020819055508173ffffffffffffffffffffffffffffffffffffffff168373ffffffffffffffffffffffffffffffffffffffff167f8c5be1e5ebec7d5bd14f71427d1e84f3dd0314c0f7b2291e5b200ac8c7c3b9258360405161222b9190612fbc565b60405180910390a3505050565b6000612244848461184d565b90507fffffffffffffffffffffffffffffffffffffffffffffffffffffffffffffffff81146122be57818110156122b0576040517f08c379a00000000000000000000000000000000000000000000000000000000081526004016122a790614836565b60405180910390fd5b6122bd848484840361206d565b5b50505050565b600073ffffffffffffffffffffffffffffffffffffffff168373ffffffffffffffffffffffffffffffffffffffff161415612334576040517f08c379a000000000000000000000000000000000000000000000000000000000815260040161232b906148c8565b60405180910390fd5b600073ffffffffffffffffffffffffffffffffffffffff168273ffffffffffffffffffffffffffffffffffffffff1614156123a4576040517f08c379a000000000000000000000000000000000000000000000000000000000815260040161239b9061495a565b60405180910390fd5b6123af838383612a37565b60008060008573ffffffffffffffffffffffffffffffffffffffff1673ffffffffffffffffffffffffffffffffffffffff16815260200190815260200160002054905081811015612435576040517f08c379a000000000000000000000000000000000000000000000000000000000815260040161242c906149ec565b60405180910390fd5b8181036000808673ffffffffffffffffffffffffffffffffffffffff1673ffffffffffffffffffffffffffffffffffffffff16815260200190815260200160002081905550816000808573ffffffffffffffffffffffffffffffffffffffff1673ffffffffffffffffffffffffffffffffffffffff16815260200190815260200160002060008282546124c89190613cc4565b925050819055508273ffffffffffffffffffffffffffffffffffffffff168473ffffffffffffffffffffffffffffffffffffffff167fddf252ad1be2c89b69c2b068fc378daa952ba7f163c4a11628f55a4df523b3ef8460405161252c9190612fbc565b60405180910390a361253f848484612a3c565b50505050565b60006009846040516125579190614a3d565b9081526020016040518091039020549050828110156125b0577faa7f93bbb0659f61a11b680e0590ab23205967a5bdaa928dae6372df0bb932678482856040516125a393929190614a54565b60405180910390a1612692565b8281036009856040516125c39190614a3d565b90815260200160405180910390208190555081156126585760006125e685612868565b905083600260008282546125fa9190613cc4565b92505081905550836000808373ffffffffffffffffffffffffffffffffffffffff1673ffffffffffffffffffffffffffffffffffffffff168152602001908152602001600020600082825461264f9190613cc4565b92505081905550505b7fe8206846acaf2b75153b1286f2d74f781d9b94b4787dc2ce7f8c075414e3cf6f8484604051612689929190614a92565b60405180910390a15b50505050565b60006009846040516126aa9190614a3d565b908152602001604051809103902054905081811015612703577faa7f93bbb0659f61a11b680e0590ab23205967a5bdaa928dae6372df0bb932678482846040516126f693929190614a54565b60405180910390a1612799565b8181036009856040516127169190614a3d565b908152602001604051809103902081905550816009846040516127399190614a3d565b908152602001604051809103902060008282546127569190613cc4565b925050819055507f1d8380031597508b7d5d3df4999b8136789b62ed932115f9eb5897e19903792e84848460405161279093929190614ac2565b60405180910390a15b50505050565b600c6040516127ae9190614b86565b60405180910390208380519060200120146127fe576040517f08c379a00000000000000000000000000000000000000000000000000000000081526004016127f590614be9565b60405180910390fd5b8060098360405161280f9190614a3d565b9081526020016040518091039020600082825401925050819055507f1b349f1b9a3c62fcd689a1e9eec1b30e140f416323e50f3206902ea759efbbbe828260405161285b929190614a92565b60405180910390a1505050565b600080828051906020012090508060001c915050919050565b806009836040516128929190614a3d565b908152602001604051809103902060008282546128af9190613cc4565b925050819055507f1d8380031597508b7d5d3df4999b8136789b62ed932115f9eb5897e19903792e82826040516128e7929190614c2f565b60405180910390a15050565b6128fb612065565b73ffffffffffffffffffffffffffffffffffffffff166129196112cd565b73ffffffffffffffffffffffffffffffffffffffff161461296f576040517f08c379a000000000000000000000000000000000000000000000000000000000815260040161296690614cbe565b60405180910390fd5b565b6000600560009054906101000a900473ffffffffffffffffffffffffffffffffffffffff16905081600560006101000a81548173ffffffffffffffffffffffffffffffffffffffff021916908373ffffffffffffffffffffffffffffffffffffffff1602179055508173ffffffffffffffffffffffffffffffffffffffff168173ffffffffffffffffffffffffffffffffffffffff167f8be0079c531659141344cd1fd0a4f28419497f9722a3daafe3b4186f6b6457e060405160405180910390a35050565b505050565b505050565b604051806040016040528060608152602001600081525090565b828054612a67906138cc565b90600052602060002090601f016020900481019282612a895760008555612ad7565b82601f10612a9a5780548555612ad7565b82800160010185558215612ad757600052602060002091601f016020900482015b82811115612ad6578254825591600101919060010190612abb565b5b509050612ae49190612c87565b5090565b508054612af4906138cc565b6000825580601f10612b065750612b25565b601f016020900490600052602060002090810190612b249190612c87565b5b50565b604051806040016040528060608152602001600081525090565b828054612b4e906138cc565b90600052602060002090601f016020900481019282612b705760008555612bb7565b82601f10612b8957805160ff1916838001178555612bb7565b82800160010185558215612bb7579182015b82811115612bb6578251825591602001919060010190612b9b565b5b509050612bc49190612c87565b5090565b828054612bd4906138cc565b90600052602060002090601f016020900481019282612bf65760008555612c3d565b82601f10612c0f57803560ff1916838001178555612c3d565b82800160010185558215612c3d579182015b82811115612c3c578235825591602001919060010190612c21565b5b509050612c4a9190612c87565b5090565b6040518060c0016040528060008152602001600060ff168152602001606081526020016060815260200160608152602001606081525090565b5b80821115612ca0576000816000905550600101612c88565b5090565b6000604051905090565b600080fd5b600080fd5b600080fd5b600060c08284031215612cd357612cd2612cb8565b5b81905092915050565b600060208284031215612cf257612cf1612cae565b5b600082013567ffffffffffffffff811115612d1057612d0f612cb3565b5b612d1c84828501612cbd565b91505092915050565b600081519050919050565b600082825260208201905092915050565b60005b83811015612d5f578082015181840152602081019050612d44565b83811115612d6e576000848401525b50505050565b6000601f19601f8301169050919050565b6000612d9082612d25565b612d9a8185612d30565b9350612daa818560208601612d41565b612db381612d74565b840191505092915050565b60006020820190508181036000830152612dd88184612d85565b905092915050565b600073ffffffffffffffffffffffffffffffffffffffff82169050919050565b6000612e0b82612de0565b9050919050565b612e1b81612e00565b8114612e2657600080fd5b50565b600081359050612e3881612e12565b92915050565b6000819050919050565b612e5181612e3e565b8114612e5c57600080fd5b50565b600081359050612e6e81612e48565b92915050565b60008060408385031215612e8b57612e8a612cae565b5b6000612e9985828601612e29565b9250506020612eaa85828601612e5f565b9150509250929050565b60008115159050919050565b612ec981612eb4565b82525050565b6000602082019050612ee46000830184612ec0565b92915050565b600081519050919050565b600082825260208201905092915050565b6000612f1182612eea565b612f1b8185612ef5565b9350612f2b818560208601612d41565b612f3481612d74565b840191505092915050565b612f4881612e3e565b82525050565b60006040830160008301518482036000860152612f6b8282612f06565b9150506020830151612f806020860182612f3f565b508091505092915050565b60006020820190508181036000830152612fa58184612f4e565b905092915050565b612fb681612e3e565b82525050565b6000602082019050612fd16000830184612fad565b92915050565b6000819050919050565b6000612ffc612ff7612ff284612de0565b612fd7565b612de0565b9050919050565b600061300e82612fe1565b9050919050565b600061302082613003565b9050919050565b61303081613015565b82525050565b600060208201905061304b6000830184613027565b92915050565b60008060006060848603121561306a57613069612cae565b5b600061307886828701612e29565b935050602061308986828701612e29565b925050604061309a86828701612e5f565b9150509250925092565b600060ff82169050919050565b6130ba816130a4565b82525050565b60006020820190506130d560008301846130b1565b92915050565b600080fd5b600080fd5b600080fd5b60008083601f840112613100576130ff6130db565b5b8235905067ffffffffffffffff81111561311d5761311c6130e0565b5b602083019150836020820283011115613139576131386130e5565b5b9250929050565b6000806020838503121561315757613156612cae565b5b600083013567ffffffffffffffff81111561317557613174612cb3565b5b613181858286016130ea565b92509250509250929050565b6000602082840312156131a3576131a2612cae565b5b60006131b184828501612e29565b91505092915050565b60008083601f8401126131d0576131cf6130db565b5b8235905067ffffffffffffffff8111156131ed576131ec6130e0565b5b602083019150836001820283011115613209576132086130e5565b5b9250929050565b6000806020838503121561322757613226612cae565b5b600083013567ffffffffffffffff81111561324557613244612cb3565b5b613251858286016131ba565b92509250509250929050565b60006020828403121561327357613272612cae565b5b600061328184828501612e5f565b91505092915050565b600060408301600083015184820360008601526132a78282612f06565b91505060208301516132bc6020860182612f3f565b508091505092915050565b600060208201905081810360008301526132e1818461328a565b905092915050565b6132f281612e00565b82525050565b600060208201905061330d60008301846132e9565b92915050565b600081519050919050565b600082825260208201905092915050565b6000819050602082019050919050565b613348816130a4565b82525050565b600061335a838361333f565b60208301905092915050565b6000602082019050919050565b600061337e82613313565b613388818561331e565b93506133938361332f565b8060005b838110156133c45781516133ab888261334e565b97506133b683613366565b925050600181019050613397565b5085935050505092915050565b600060208201905081810360008301526133eb8184613373565b905092915050565b60008060006040848603121561340c5761340b612cae565b5b600084013567ffffffffffffffff81111561342a57613429612cb3565b5b613436868287016131ba565b9350935050602061344986828701612e5f565b9150509250925092565b600082825260208201905092915050565b600061346f82612eea565b6134798185613453565b9350613489818560208601612d41565b61349281612d74565b840191505092915050565b600060208201905081810360008301526134b78184613464565b905092915050565b600080604083850312156134d6576134d5612cae565b5b60006134e485828601612e29565b92505060206134f585828601612e29565b9150509250929050565b6000806000806060858703121561351957613518612cae565b5b600061352787828801612e5f565b945050602061353887828801612e5f565b935050604085013567ffffffffffffffff81111561355957613558612cb3565b5b613565878288016131ba565b925092505092959194509250565b600080fd5b7f4e487b7100000000000000000000000000000000000000000000000000000000600052604160045260246000fd5b6135b082612d74565b810181811067ffffffffffffffff821117156135cf576135ce613578565b5b80604052505050565b60006135e2612ca4565b90506135ee82826135a7565b919050565b600080fd5b613601816130a4565b811461360c57600080fd5b50565b60008135905061361e816135f8565b92915050565b600080fd5b600067ffffffffffffffff82111561364457613643613578565b5b61364d82612d74565b9050602081019050919050565b82818337600083830152505050565b600061367c61367784613629565b6135d8565b90508281526020810184848401111561369857613697613624565b5b6136a384828561365a565b509392505050565b600082601f8301126136c0576136bf6130db565b5b81356136d0848260208601613669565b91505092915050565b600067ffffffffffffffff8211156136f4576136f3613578565b5b6136fd82612d74565b9050602081019050919050565b600061371d613718846136d9565b6135d8565b90508281526020810184848401111561373957613738613624565b5b61374484828561365a565b509392505050565b600082601f830112613761576137606130db565b5b813561377184826020860161370a565b91505092915050565b600060c082840312156137905761378f613573565b5b61379a60c06135d8565b905060006137aa84828501612e5f565b60008301525060206137be8482850161360f565b602083015250604082013567ffffffffffffffff8111156137e2576137e16135f3565b5b6137ee848285016136ab565b604083015250606082013567ffffffffffffffff811115613812576138116135f3565b5b61381e8482850161374c565b606083015250608082013567ffffffffffffffff811115613842576138416135f3565b5b61384e848285016136ab565b60808301525060a082013567ffffffffffffffff811115613872576138716135f3565b5b61387e848285016136ab565b60a08301525092915050565b6000613896368361377a565b9050919050565b7f4e487b7100000000000000000000000000000000000000000000000000000000600052602260045260246000fd5b600060028204905060018216806138e457607f821691505b602082108114156138f8576138f761389d565b5b50919050565b7f4e487b7100000000000000000000000000000000000000000000000000000000600052603260045260246000fd5b60008190508160005260206000209050919050565b6000815461394f816138cc565b6139598186613453565b945060018216600081146139745760018114613986576139b9565b60ff19831686526020860193506139b9565b61398f8561392d565b60005b838110156139b157815481890152600182019150602081019050613992565b808801955050505b50505092915050565b600060408201905081810360008301526139dc8185613942565b90506139eb6020830184612fad565b9392505050565b600081519050613a0181612e48565b92915050565b600081519050613a16816135f8565b92915050565b6000613a2f613a2a84613629565b6135d8565b905082815260208101848484011115613a4b57613a4a613624565b5b613a56848285612d41565b509392505050565b600082601f830112613a7357613a726130db565b5b8151613a83848260208601613a1c565b91505092915050565b6000613a9f613a9a846136d9565b6135d8565b905082815260208101848484011115613abb57613aba613624565b5b613ac6848285612d41565b509392505050565b600082601f830112613ae357613ae26130db565b5b8151613af3848260208601613a8c565b91505092915050565b600060c08284031215613b1257613b11613573565b5b613b1c60c06135d8565b90506000613b2c848285016139f2565b6000830152506020613b4084828501613a07565b602083015250604082015167ffffffffffffffff811115613b6457613b636135f3565b5b613b7084828501613a5e565b604083015250606082015167ffffffffffffffff811115613b9457613b936135f3565b5b613ba084828501613ace565b606083015250608082015167ffffffffffffffff811115613bc457613bc36135f3565b5b613bd084828501613a5e565b60808301525060a082015167ffffffffffffffff811115613bf457613bf36135f3565b5b613c0084828501613a5e565b60a08301525092915050565b60008060408385031215613c2357613c22612cae565b5b600083015167ffffffffffffffff811115613c4157613c40612cb3565b5b613c4d85828601613afc565b9250506020613c5e858286016139f2565b9150509250929050565b600060208284031215613c7e57613c7d612cae565b5b6000613c8c848285016139f2565b91505092915050565b7f4e487b7100000000000000000000000000000000000000000000000000000000600052601160045260246000fd5b6000613ccf82612e3e565b9150613cda83612e3e565b9250827fffffffffffffffffffffffffffffffffffffffffffffffffffffffffffffffff03821115613d0f57613d0e613c95565b5b828201905092915050565b7f4e6f2064656c6179656420747800000000000000000000000000000000000000600082015250565b6000613d50600d83612d30565b9150613d5b82613d1a565b602082019050919050565b60006020820190508181036000830152613d7f81613d43565b9050919050565b7f4e6f742065786563757461626c65000000000000000000000000000000000000600082015250565b6000613dbc600e83612d30565b9150613dc782613d86565b602082019050919050565b60006020820190508181036000830152613deb81613daf565b9050919050565b6000613dfd82612e3e565b9150613e0883612e3e565b925082821015613e1b57613e1a613c95565b5b828203905092915050565b7f4e487b7100000000000000000000000000000000000000000000000000000000600052603160045260246000fd5b60008060408385031215613e6c57613e6b612cae565b5b6000613e7a85828601613a07565b925050602083015167ffffffffffffffff811115613e9b57613e9a612cb3565b5b613ea785828601613a5e565b9150509250929050565b600060208284031215613ec757613ec6612cae565b5b6000613ed584828501613a07565b91505092915050565b60008060408385031215613ef557613ef4612cae565b5b600083015167ffffffffffffffff811115613f1357613f12612cb3565b5b613f1f85828601613a5e565b9250506020613f30858286016139f2565b9150509250929050565b60006040820190508181036000830152613f548185613464565b9050613f6360208301846130b1565b9392505050565b600060208284031215613f8057613f7f612cae565b5b6000613f8e8482850161360f565b91505092915050565b6000613fa282612e3e565b91507fffffffffffffffffffffffffffffffffffffffffffffffffffffffffffffffff821415613fd557613fd4613c95565b5b600182019050919050565b600081905092915050565b6000613ff78385613fe0565b935061400483858461365a565b82840190509392505050565b600061401d828486613feb565b91508190509392505050565b7f45524332303a2064656372656173656420616c6c6f77616e63652062656c6f7760008201527f207a65726f000000000000000000000000000000000000000000000000000000602082015250565b6000614085602583612d30565b915061409082614029565b604082019050919050565b600060208201905081810360008301526140b481614078565b9050919050565b7f5369676e657220616e64207265636569766572206e6f74206d61746368000000600082015250565b60006140f1601d83612d30565b91506140fc826140bb565b602082019050919050565b60006020820190508181036000830152614120816140e4565b9050919050565b7f4465706f73697420616d6f756e7420657863656564732062616c616e63650000600082015250565b600061415d601e83612d30565b915061416882614127565b602082019050919050565b6000602082019050818103600083015261418c81614150565b9050919050565b7f4f776e61626c653a206e6577206f776e657220697320746865207a65726f206160008201527f6464726573730000000000000000000000000000000000000000000000000000602082015250565b60006141ef602683612d30565b91506141fa82614193565b604082019050919050565b6000602082019050818103600083015261421e816141e2565b9050919050565b7f4f6e6c7920636f6d6d69747465652063616e20617070726f7665206465706f7360008201527f6974730000000000000000000000000000000000000000000000000000000000602082015250565b6000614281602383612d30565b915061428c82614225565b604082019050919050565b600060208201905081810360008301526142b081614274565b9050919050565b7f496e646578206973206e6f742063757272656e74000000000000000000000000600082015250565b60006142ed601483612d30565b91506142f8826142b7565b602082019050919050565b6000602082019050818103600083015261431c816142e0565b9050919050565b600060408201905061433860008301856130b1565b818103602083015261434a8184613464565b90509392505050565b60008190508160005260206000209050919050565b60008154614375816138cc565b61437f8186612d30565b9450600182166000811461439a57600181146143ac576143df565b60ff19831686526020860193506143df565b6143b585614353565b60005b838110156143d7578154818901526001820191506020810190506143b8565b808801955050505b50505092915050565b600060208201905081810360008301526144028184614368565b905092915050565b7f57726f6e672064657374696e6174696f6e000000000000000000000000000000600082015250565b6000614440601183612d30565b915061444b8261440a565b602082019050919050565b6000602082019050818103600083015261446f81614433565b9050919050565b61447f81612eb4565b811461448a57600080fd5b50565b60008151905061449c81614476565b92915050565b6000602082840312156144b8576144b7612cae565b5b60006144c68482850161448d565b91505092915050565b7f55736572206973206d616c6963696f7573000000000000000000000000000000600082015250565b6000614505601183612d30565b9150614510826144cf565b602082019050919050565b60006020820190508181036000830152614534816144f8565b9050919050565b600082825260208201905092915050565b600061455782612d25565b614561818561453b565b9350614571818560208601612d41565b61457a81612d74565b840191505092915050565b600060c08301600083015161459d6000860182612f3f565b5060208301516145b0602086018261333f565b50604083015184820360408601526145c88282612f06565b915050606083015184820360608601526145e2828261454c565b915050608083015184820360808601526145fc8282612f06565b91505060a083015184820360a08601526146168282612f06565b9150508091505092915050565b6000602082019050818103600083015261463d8184614585565b905092915050565b6002811061465257600080fd5b50565b60008151905061466481614645565b92915050565b6000602082840312156146805761467f612cae565b5b600061468e84828501614655565b91505092915050565b7f4e487b7100000000000000000000000000000000000000000000000000000000600052602160045260246000fd5b7f45524332303a20617070726f76652066726f6d20746865207a65726f2061646460008201527f7265737300000000000000000000000000000000000000000000000000000000602082015250565b6000614722602483612d30565b915061472d826146c6565b604082019050919050565b6000602082019050818103600083015261475181614715565b9050919050565b7f45524332303a20617070726f766520746f20746865207a65726f20616464726560008201527f7373000000000000000000000000000000000000000000000000000000000000602082015250565b60006147b4602283612d30565b91506147bf82614758565b604082019050919050565b600060208201905081810360008301526147e3816147a7565b9050919050565b7f45524332303a20696e73756666696369656e7420616c6c6f77616e6365000000600082015250565b6000614820601d83612d30565b915061482b826147ea565b602082019050919050565b6000602082019050818103600083015261484f81614813565b9050919050565b7f45524332303a207472616e736665722066726f6d20746865207a65726f20616460008201527f6472657373000000000000000000000000000000000000000000000000000000602082015250565b60006148b2602583612d30565b91506148bd82614856565b604082019050919050565b600060208201905081810360008301526148e1816148a5565b9050919050565b7f45524332303a207472616e7366657220746f20746865207a65726f206164647260008201527f6573730000000000000000000000000000000000000000000000000000000000602082015250565b6000614944602383612d30565b915061494f826148e8565b604082019050919050565b6000602082019050818103600083015261497381614937565b9050919050565b7f45524332303a207472616e7366657220616d6f756e742065786365656473206260008201527f616c616e63650000000000000000000000000000000000000000000000000000602082015250565b60006149d6602683612d30565b91506149e18261497a565b604082019050919050565b60006020820190508181036000830152614a05816149c9565b9050919050565b6000614a1782612eea565b614a218185613fe0565b9350614a31818560208601612d41565b80840191505092915050565b6000614a498284614a0c565b915081905092915050565b60006060820190508181036000830152614a6e8186613464565b9050614a7d6020830185612fad565b614a8a6040830184612fad565b949350505050565b60006040820190508181036000830152614aac8185613464565b9050614abb6020830184612fad565b9392505050565b60006060820190508181036000830152614adc8186613464565b90508181036020830152614af08185613464565b9050614aff6040830184612fad565b949350505050565b60008154614b14816138cc565b614b1e8186613fe0565b94506001821660008114614b395760018114614b4a57614b7d565b60ff19831686528186019350614b7d565b614b538561392d565b60005b83811015614b7557815481890152600182019150602081019050614b56565b838801955050505b50505092915050565b6000614b928284614b07565b915081905092915050565b7f4e6f742074686520636f6d6d6974746565000000000000000000000000000000600082015250565b6000614bd3601183612d30565b9150614bde82614b9d565b602082019050919050565b60006020820190508181036000830152614c0281614bc6565b9050919050565b50565b6000614c19600083613453565b9150614c2482614c09565b600082019050919050565b60006060820190508181036000830152614c4881614c0c565b90508181036020830152614c5c8185613464565b9050614c6b6040830184612fad565b9392505050565b7f4f776e61626c653a2063616c6c6572206973206e6f7420746865206f776e6572600082015250565b6000614ca8602083612d30565b9150614cb382614c72565b602082019050919050565b60006020820190508181036000830152614cd781614c9b565b905091905056fea2646970667358221220581fe4b0bddaebcbbcfad6b3cf8745d86cd912967a684021b7d4f0340650647164736f6c634300080c0033",
  "immutableReferences": {},
  "source": "// SPDX-License-Identifier: MIT\npragma solidity >=0.8.0 <0.9.0;\n\nimport \"@openzeppelin/contracts/access/Ownable.sol\";\nimport \"./ERC20.sol\";\nimport \"./interfaces/IOmniverseProtocol.sol\";\nimport \"./interfaces/IOmniverseFungible.sol\";\n\ncontract SkywalkerFungible is ERC20, Ownable, IOmniverseFungible {\n    struct DelayedTx {\n        bytes sender;\n        uint256 nonce;\n    }\n\n    IOmniverseProtocol public omniverseProtocol;\n    string public tokenIdentity;\n    uint8[] members;\n    mapping(bytes => uint256) omniverseBalances;\n    mapping(bytes => uint256) prisons;\n    DelayedTx[] delayedTxs;\n    bytes public committee;\n    DepositRequest[] depositRequests;\n    uint256 public depositDealingIndex;\n\n    event OmniverseTokenTransfer(bytes from, bytes to, uint256 value);\n    event OmniverseTokenWithdraw(bytes from, uint256 value);\n    event OmniverseTokenDeposit(bytes to, uint256 value);\n    event OmniverseTokenExceedBalance(bytes owner, uint256 balance, uint256 value);\n    event OmniverseTokenWrongOp(bytes sender, uint8 op);\n    event OmniverseNotOwner(bytes sender);\n    event OmniverseError(bytes sender, string reason);\n\n    modifier onlyCommittee() {\n        address committeeAddr = pkToAddress(committee);\n        require(msg.sender == committeeAddr, \"Only committee can approve deposits\");\n        _;\n    }\n\n    constructor(string memory _tokenId, string memory _name, string memory _symbol) ERC20(_name, _symbol) {\n        tokenIdentity = _tokenId;\n    }\n\n    /**\n     * @dev Set the address of committee\n     */\n    function setCommitteeAddress(bytes calldata _address) public onlyOwner {\n        committee = _address;\n    }\n\n    /**\n     * @dev Set the address of the omniverse protocol\n     */\n    function setOmniverseProtocolAddress(address _address) public onlyOwner {\n        omniverseProtocol = IOmniverseProtocol(_address);\n    }\n\n    /**\n     * @dev See {IOmniverseFungible-omniverseTransfer}\n     * Transfer omniverse tokens to a user\n     */\n    function omniverseTransfer(OmniverseTokenProtocol calldata _data) external override {\n        _omniverseTransaction(_data);\n    }\n\n    /**\n     * @dev See {IOmniverseFungible-omniverseWithdraw}\n     * Convert omniverse token to ERC20 token\n     */\n    function omniverseWithdraw(OmniverseTokenProtocol calldata _data) external override {\n        _omniverseTransaction(_data);\n    }\n\n    /**\n     * @dev See {IOmniverseFungible-omniverseDeposit}\n     * Convert ERC20 token to omniverse token\n     */\n    function omniverseDeposit(OmniverseTokenProtocol calldata _data) external override {\n        _omniverseTransaction(_data);\n    }\n\n    function omniverseMint(OmniverseTokenProtocol calldata _data) external {\n        _omniverseTransaction(_data);\n    }\n\n    /**\n     * @dev Trigger the execution of the first delayed transaction\n     */\n    function triggerExecution() external {\n        require(delayedTxs.length > 0, \"No delayed tx\");\n\n        (OmniverseTokenProtocol memory txData, uint256 timestamp) = omniverseProtocol.getTransactionData(delayedTxs[0].sender, delayedTxs[0].nonce);\n        require(block.timestamp >= timestamp + omniverseProtocol.getCoolingDownTime(), \"Not executable\");\n        delayedTxs[0] = delayedTxs[delayedTxs.length - 1];\n        delayedTxs.pop();\n\n        (uint8 op, bytes memory wrappedData) = abi.decode(txData.data, (uint8, bytes));\n        if (op == WITHDRAW) {\n            (uint256 amount) = abi.decode(wrappedData, (uint256));\n            _omniverseWithdraw(txData.from, amount, txData.chainId == omniverseProtocol.getChainId());\n        }\n        else if (op == TRANSFER) {\n            (bytes memory to, uint256 amount) = abi.decode(wrappedData, (bytes, uint256));\n            _omniverseTransfer(txData.from, to, amount);\n        }\n        else if (op == DEPOSIT) {\n            (bytes memory to, uint256 amount) = abi.decode(wrappedData, (bytes, uint256));\n            _omniverseDeposit(txData.from, to, amount);\n        }\n        else if (op == MINT) {\n            address fromAddr = pkToAddress(txData.from);\n            if (fromAddr != owner()) {\n                emit OmniverseNotOwner(txData.from);\n                return;\n            }\n            (bytes memory to, uint256 amount) = abi.decode(wrappedData, (bytes, uint256));\n            _omniverseMint(to, amount);\n        }\n        else {\n            emit OmniverseTokenWrongOp(txData.from, op);\n        }\n    }\n\n    /**\n     * @dev Returns the nearest exexutable delayed transaction info\n     * or returns default if not found\n     */\n    function getExecutableDelayedTx() external view returns (DelayedTx memory ret) {\n        if (delayedTxs.length > 0) {\n            (, uint256 timestamp) = omniverseProtocol.getTransactionData(delayedTxs[0].sender, delayedTxs[0].nonce);\n            if (block.timestamp >= timestamp + omniverseProtocol.getCoolingDownTime()) {\n                ret = delayedTxs[0];\n            }\n        }\n    }\n\n    function getDelayedTxCount() external view returns (uint256) {\n        return delayedTxs.length;\n    }\n\n    /**\n     * @dev See {IOmniverseFungible-omniverseBalanceOf}\n     * Returns the omniverse balance of a user\n     */\n    function omniverseBalanceOf(bytes calldata _pk) external view override returns (uint256) {\n        return omniverseBalances[_pk];\n    }\n\n    function _omniverseTransaction(OmniverseTokenProtocol memory _data) internal {\n        // Check if the tx destination is correct\n        require(keccak256(abi.encode(_data.to)) == keccak256(abi.encode(tokenIdentity)), \"Wrong destination\");\n\n        // Check if the sender is honest\n        // to be continued, we can use block list instead of `isMalicious`\n        require(!omniverseProtocol.isMalicious(_data.from), \"User is malicious\");\n\n        // Verify the signature\n        VerifyResult verifyRet = omniverseProtocol.verifyTransaction(_data);\n        if (verifyRet == VerifyResult.Success) {\n            // Delays in executing\n            delayedTxs.push(DelayedTx(_data.from, _data.nonce));\n        }\n        else if (verifyRet == VerifyResult.Malicious) {\n            // Slash\n        }\n    }\n\n    function _omniverseTransfer(bytes memory _from, bytes memory _to, uint256 _amount) internal {\n        uint256 fromBalance = omniverseBalances[_from];\n        if (fromBalance < _amount) {\n            emit OmniverseTokenExceedBalance(_from, fromBalance, _amount);\n        }\n        else {\n            unchecked {\n                omniverseBalances[_from] = fromBalance - _amount;\n            }\n            omniverseBalances[_to] += _amount;\n\n            emit OmniverseTokenTransfer(_from, _to, _amount);\n        }\n    }\n\n    function _omniverseWithdraw(bytes memory _from, uint256 _amount, bool _thisChain) internal {\n        uint256 fromBalance = omniverseBalances[_from];\n        if (fromBalance < _amount) {\n            emit OmniverseTokenExceedBalance(_from, fromBalance, _amount);\n        }\n        else {\n            unchecked {\n                omniverseBalances[_from] = fromBalance - _amount;\n            }\n            \n            if (_thisChain) {\n                address ownerAddr = pkToAddress(_from);\n\n                // mint\n                _totalSupply += _amount;\n                _balances[ownerAddr] += _amount;\n            }\n\n            emit OmniverseTokenWithdraw(_from, _amount);\n        }\n    }\n\n    function _omniverseDeposit(bytes memory _from, bytes memory _to, uint256 _amount) internal {\n        require(keccak256(_from) == keccak256(committee), \"Not the committee\");\n\n        unchecked {\n            omniverseBalances[_to] += _amount;\n        }\n\n        emit OmniverseTokenDeposit(_to, _amount);\n    }\n\n    function _omniverseMint(bytes memory _to, uint256 _amount) internal {\n        omniverseBalances[_to] += _amount;\n        emit OmniverseTokenTransfer(\"\", _to, _amount);\n    }\n\n    function pkToAddress(bytes memory _pk) internal pure returns (address) {\n        bytes32 hash = keccak256(_pk);\n        return address(uint160(uint256(hash)));\n    }\n\n    function getTime() external view returns (uint256) {\n        return block.timestamp;\n    }\n\n    function addMembers(uint8[] calldata _members) external onlyOwner {\n        for (uint256 i = 0; i < _members.length; i++) {\n            for (uint256 j = 0; j < members.length; j++) {\n                if (members[j] == _members[i]) {\n                    break;\n                }\n            }\n            members.push(_members[i]);\n        }\n    }\n\n    function getMembers() external view returns (uint8[] memory) {\n        return members;\n    }\n\n    /**\n     * @dev Users request to convert native token to omniverse token\n     */\n    function requestDeposit(bytes calldata from, uint256 amount) external {\n        address fromAddr = pkToAddress(from);\n        require(fromAddr == msg.sender, \"Signer and receiver not match\");\n\n        uint256 fromBalance = _balances[fromAddr];\n        require(fromBalance >= amount, \"Deposit amount exceeds balance\");\n\n        // Update\n        unchecked {\n            _balances[fromAddr] = fromBalance - amount;\n        }\n        _totalSupply -= amount;\n\n        depositRequests.push(DepositRequest(from, amount));\n    }\n\n    /**\n     * @dev The committee approves a user's request\n     */\n    function approveDeposit(uint256 index, uint256 nonce, bytes calldata signature) external onlyCommittee {\n        require(index == depositDealingIndex, \"Index is not current\");\n\n        DepositRequest storage request = depositRequests[index];\n        depositDealingIndex++;\n\n        OmniverseTokenProtocol memory p;\n        p.nonce = nonce;\n        p.chainId = omniverseProtocol.getChainId();\n        p.from = committee;\n        p.to = tokenIdentity;\n        p.signature = signature;\n        p.data = abi.encode(DEPOSIT, abi.encode(request.receiver, request.amount));\n        _omniverseTransaction(p);\n    }\n\n    /**\n     @dev Returns the deposit request at `index`\n     @param index: The index of requests\n     */\n    function getDepositRequest(uint256 index) external view returns (DepositRequest memory ret) {\n        if (depositRequests.length > index) {\n            ret = depositRequests[index];\n        }\n    }\n}",
  "sourcePath": "/home/george/program/dante/omniverse-evm/contracts/contracts/SkywalkerFungible.sol",
  "compiler": {
    "name": "solc",
    "version": "0.8.12+commit.f00d7308.Emscripten.clang"
  },
  "schemaVersion": "3.4.6",
  "updatedAt": "2022-12-26T22:17:12.359Z",
  "networkType": "ethereum",
  "devdoc": {
    "kind": "dev",
    "methods": {
      "allowance(address,address)": {
        "details": "See {IERC20-allowance}."
      },
      "approve(address,uint256)": {
        "details": "See {IERC20-approve}. NOTE: If `amount` is the maximum `uint256`, the allowance is not updated on `transferFrom`. This is semantically equivalent to an infinite approval. Requirements: - `spender` cannot be the zero address."
      },
      "approveDeposit(uint256,uint256,bytes)": {
        "details": "The committee approves a user's request"
      },
      "balanceOf(address)": {
        "details": "See {IERC20-balanceOf}."
      },
      "decimals()": {
        "details": "Returns the number of decimals used to get its user representation. For example, if `decimals` equals `2`, a balance of `505` tokens should be displayed to a user as `5.05` (`505 / 10 ** 2`). Tokens usually opt for a value of 18, imitating the relationship between Ether and Wei. This is the value {ERC20} uses, unless this function is overridden; NOTE: This information is only used for _display_ purposes: it in no way affects any of the arithmetic of the contract, including {IERC20-balanceOf} and {IERC20-transfer}."
      },
      "decreaseAllowance(address,uint256)": {
        "details": "Atomically decreases the allowance granted to `spender` by the caller. This is an alternative to {approve} that can be used as a mitigation for problems described in {IERC20-approve}. Emits an {Approval} event indicating the updated allowance. Requirements: - `spender` cannot be the zero address. - `spender` must have allowance for the caller of at least `subtractedValue`."
      },
      "getDepositRequest(uint256)": {
        "details": "Returns the deposit request at `index`",
        "params": {
          "index": ": The index of requests"
        }
      },
      "getExecutableDelayedTx()": {
        "details": "Returns the nearest exexutable delayed transaction info or returns default if not found"
      },
      "increaseAllowance(address,uint256)": {
        "details": "Atomically increases the allowance granted to `spender` by the caller. This is an alternative to {approve} that can be used as a mitigation for problems described in {IERC20-approve}. Emits an {Approval} event indicating the updated allowance. Requirements: - `spender` cannot be the zero address."
      },
      "name()": {
        "details": "Returns the name of the token."
      },
      "omniverseBalanceOf(bytes)": {
        "details": "See {IOmniverseFungible-omniverseBalanceOf} Returns the omniverse balance of a user"
      },
      "omniverseDeposit((uint256,uint8,bytes,string,bytes,bytes))": {
        "details": "See {IOmniverseFungible-omniverseDeposit} Convert ERC20 token to omniverse token"
      },
      "omniverseTransfer((uint256,uint8,bytes,string,bytes,bytes))": {
        "details": "See {IOmniverseFungible-omniverseTransfer} Transfer omniverse tokens to a user"
      },
      "omniverseWithdraw((uint256,uint8,bytes,string,bytes,bytes))": {
        "details": "See {IOmniverseFungible-omniverseWithdraw} Convert omniverse token to ERC20 token"
      },
      "owner()": {
        "details": "Returns the address of the current owner."
      },
      "renounceOwnership()": {
        "details": "Leaves the contract without owner. It will not be possible to call `onlyOwner` functions anymore. Can only be called by the current owner. NOTE: Renouncing ownership will leave the contract without an owner, thereby removing any functionality that is only available to the owner."
      },
      "requestDeposit(bytes,uint256)": {
        "details": "Users request to convert native token to omniverse token"
      },
      "setCommitteeAddress(bytes)": {
        "details": "Set the address of committee"
      },
      "setOmniverseProtocolAddress(address)": {
        "details": "Set the address of the omniverse protocol"
      },
      "symbol()": {
        "details": "Returns the symbol of the token, usually a shorter version of the name."
      },
      "totalSupply()": {
        "details": "See {IERC20-totalSupply}."
      },
      "transfer(address,uint256)": {
        "details": "See {IERC20-transfer}. Requirements: - `to` cannot be the zero address. - the caller must have a balance of at least `amount`."
      },
      "transferFrom(address,address,uint256)": {
        "details": "See {IERC20-transferFrom}. Emits an {Approval} event indicating the updated allowance. This is not required by the EIP. See the note at the beginning of {ERC20}. NOTE: Does not update the allowance if the current allowance is the maximum `uint256`. Requirements: - `from` and `to` cannot be the zero address. - `from` must have a balance of at least `amount`. - the caller must have allowance for ``from``'s tokens of at least `amount`."
      },
      "transferOwnership(address)": {
        "details": "Transfers ownership of the contract to a new account (`newOwner`). Can only be called by the current owner."
      },
      "triggerExecution()": {
        "details": "Trigger the execution of the first delayed transaction"
      }
    },
    "version": 1
  },
  "userdoc": {
    "kind": "user",
    "methods": {},
    "version": 1
  }
}