{
  "contractName": "SkywalkerFungible",
  "abi": [
    {
      "inputs": [
        {
          "internalType": "string",
          "name": "_tokenId",
          "type": "string"
        },
        {
          "internalType": "string",
          "name": "_name",
          "type": "string"
        },
        {
          "internalType": "string",
          "name": "_symbol",
          "type": "string"
        }
      ],
      "stateMutability": "nonpayable",
      "type": "constructor"
    },
    {
      "anonymous": false,
      "inputs": [
        {
          "indexed": true,
          "internalType": "address",
          "name": "owner",
          "type": "address"
        },
        {
          "indexed": true,
          "internalType": "address",
          "name": "spender",
          "type": "address"
        },
        {
          "indexed": false,
          "internalType": "uint256",
          "name": "value",
          "type": "uint256"
        }
      ],
      "name": "Approval",
      "type": "event"
    },
    {
      "anonymous": false,
      "inputs": [
        {
          "indexed": true,
          "internalType": "bytes",
          "name": "sender",
          "type": "bytes"
        },
        {
          "indexed": false,
          "internalType": "string",
          "name": "reason",
          "type": "string"
        }
      ],
      "name": "OmniverseError",
      "type": "event"
    },
    {
      "anonymous": false,
      "inputs": [
        {
          "indexed": true,
          "internalType": "bytes",
          "name": "sender",
          "type": "bytes"
        }
      ],
      "name": "OmniverseNotOwner",
      "type": "event"
    },
    {
      "anonymous": false,
      "inputs": [
        {
          "indexed": true,
          "internalType": "bytes",
          "name": "owner",
          "type": "bytes"
        },
        {
          "indexed": true,
          "internalType": "bytes",
          "name": "spender",
          "type": "bytes"
        },
        {
          "indexed": false,
          "internalType": "uint256",
          "name": "value",
          "type": "uint256"
        }
      ],
      "name": "OmniverseTokenApproval",
      "type": "event"
    },
    {
      "anonymous": false,
      "inputs": [
        {
          "indexed": true,
          "internalType": "bytes",
          "name": "owner",
          "type": "bytes"
        },
        {
          "indexed": false,
          "internalType": "uint256",
          "name": "balance",
          "type": "uint256"
        },
        {
          "indexed": false,
          "internalType": "uint256",
          "name": "value",
          "type": "uint256"
        }
      ],
      "name": "OmniverseTokenExceedBalance",
      "type": "event"
    },
    {
      "anonymous": false,
      "inputs": [
        {
          "indexed": true,
          "internalType": "bytes",
          "name": "from",
          "type": "bytes"
        },
        {
          "indexed": true,
          "internalType": "bytes",
          "name": "to",
          "type": "bytes"
        },
        {
          "indexed": false,
          "internalType": "uint256",
          "name": "value",
          "type": "uint256"
        }
      ],
      "name": "OmniverseTokenTransfer",
      "type": "event"
    },
    {
      "anonymous": false,
      "inputs": [
        {
          "indexed": true,
          "internalType": "bytes",
          "name": "from",
          "type": "bytes"
        },
        {
          "indexed": true,
          "internalType": "bytes",
          "name": "to",
          "type": "bytes"
        },
        {
          "indexed": false,
          "internalType": "uint256",
          "name": "value",
          "type": "uint256"
        }
      ],
      "name": "OmniverseTokenTransferFrom",
      "type": "event"
    },
    {
      "anonymous": false,
      "inputs": [
        {
          "indexed": true,
          "internalType": "bytes",
          "name": "sender",
          "type": "bytes"
        },
        {
          "indexed": false,
          "internalType": "uint8",
          "name": "op",
          "type": "uint8"
        }
      ],
      "name": "OmniverseTokenWrongOp",
      "type": "event"
    },
    {
      "anonymous": false,
      "inputs": [
        {
          "indexed": true,
          "internalType": "address",
          "name": "previousOwner",
          "type": "address"
        },
        {
          "indexed": true,
          "internalType": "address",
          "name": "newOwner",
          "type": "address"
        }
      ],
      "name": "OwnershipTransferred",
      "type": "event"
    },
    {
      "anonymous": false,
      "inputs": [
        {
          "indexed": true,
          "internalType": "address",
          "name": "from",
          "type": "address"
        },
        {
          "indexed": true,
          "internalType": "address",
          "name": "to",
          "type": "address"
        },
        {
          "indexed": false,
          "internalType": "uint256",
          "name": "value",
          "type": "uint256"
        }
      ],
      "name": "Transfer",
      "type": "event"
    },
    {
      "inputs": [
        {
          "internalType": "address",
          "name": "owner",
          "type": "address"
        },
        {
          "internalType": "address",
          "name": "spender",
          "type": "address"
        }
      ],
      "name": "allowance",
      "outputs": [
        {
          "internalType": "uint256",
          "name": "",
          "type": "uint256"
        }
      ],
      "stateMutability": "view",
      "type": "function",
      "constant": true
    },
    {
      "inputs": [
        {
          "internalType": "address",
          "name": "spender",
          "type": "address"
        },
        {
          "internalType": "uint256",
          "name": "amount",
          "type": "uint256"
        }
      ],
      "name": "approve",
      "outputs": [
        {
          "internalType": "bool",
          "name": "",
          "type": "bool"
        }
      ],
      "stateMutability": "nonpayable",
      "type": "function"
    },
    {
      "inputs": [
        {
          "internalType": "address",
          "name": "account",
          "type": "address"
        }
      ],
      "name": "balanceOf",
      "outputs": [
        {
          "internalType": "uint256",
          "name": "",
          "type": "uint256"
        }
      ],
      "stateMutability": "view",
      "type": "function",
      "constant": true
    },
    {
      "inputs": [],
      "name": "decimals",
      "outputs": [
        {
          "internalType": "uint8",
          "name": "",
          "type": "uint8"
        }
      ],
      "stateMutability": "view",
      "type": "function",
      "constant": true
    },
    {
      "inputs": [
        {
          "internalType": "address",
          "name": "spender",
          "type": "address"
        },
        {
          "internalType": "uint256",
          "name": "subtractedValue",
          "type": "uint256"
        }
      ],
      "name": "decreaseAllowance",
      "outputs": [
        {
          "internalType": "bool",
          "name": "",
          "type": "bool"
        }
      ],
      "stateMutability": "nonpayable",
      "type": "function"
    },
    {
      "inputs": [
        {
          "internalType": "address",
          "name": "spender",
          "type": "address"
        },
        {
          "internalType": "uint256",
          "name": "addedValue",
          "type": "uint256"
        }
      ],
      "name": "increaseAllowance",
      "outputs": [
        {
          "internalType": "bool",
          "name": "",
          "type": "bool"
        }
      ],
      "stateMutability": "nonpayable",
      "type": "function"
    },
    {
      "inputs": [],
      "name": "name",
      "outputs": [
        {
          "internalType": "string",
          "name": "",
          "type": "string"
        }
      ],
      "stateMutability": "view",
      "type": "function",
      "constant": true
    },
    {
      "inputs": [],
      "name": "omniverseProtocol",
      "outputs": [
        {
          "internalType": "contract IOmniverseProtocol",
          "name": "",
          "type": "address"
        }
      ],
      "stateMutability": "view",
      "type": "function",
      "constant": true
    },
    {
      "inputs": [],
      "name": "owner",
      "outputs": [
        {
          "internalType": "address",
          "name": "",
          "type": "address"
        }
      ],
      "stateMutability": "view",
      "type": "function",
      "constant": true
    },
    {
      "inputs": [],
      "name": "renounceOwnership",
      "outputs": [],
      "stateMutability": "nonpayable",
      "type": "function"
    },
    {
      "inputs": [],
      "name": "symbol",
      "outputs": [
        {
          "internalType": "string",
          "name": "",
          "type": "string"
        }
      ],
      "stateMutability": "view",
      "type": "function",
      "constant": true
    },
    {
      "inputs": [],
      "name": "tokenIdentity",
      "outputs": [
        {
          "internalType": "string",
          "name": "",
          "type": "string"
        }
      ],
      "stateMutability": "view",
      "type": "function",
      "constant": true
    },
    {
      "inputs": [],
      "name": "totalSupply",
      "outputs": [
        {
          "internalType": "uint256",
          "name": "",
          "type": "uint256"
        }
      ],
      "stateMutability": "view",
      "type": "function",
      "constant": true
    },
    {
      "inputs": [
        {
          "internalType": "address",
          "name": "to",
          "type": "address"
        },
        {
          "internalType": "uint256",
          "name": "amount",
          "type": "uint256"
        }
      ],
      "name": "transfer",
      "outputs": [
        {
          "internalType": "bool",
          "name": "",
          "type": "bool"
        }
      ],
      "stateMutability": "nonpayable",
      "type": "function"
    },
    {
      "inputs": [
        {
          "internalType": "address",
          "name": "from",
          "type": "address"
        },
        {
          "internalType": "address",
          "name": "to",
          "type": "address"
        },
        {
          "internalType": "uint256",
          "name": "amount",
          "type": "uint256"
        }
      ],
      "name": "transferFrom",
      "outputs": [
        {
          "internalType": "bool",
          "name": "",
          "type": "bool"
        }
      ],
      "stateMutability": "nonpayable",
      "type": "function"
    },
    {
      "inputs": [
        {
          "internalType": "address",
          "name": "newOwner",
          "type": "address"
        }
      ],
      "name": "transferOwnership",
      "outputs": [],
      "stateMutability": "nonpayable",
      "type": "function"
    },
    {
      "inputs": [
        {
          "internalType": "address",
          "name": "_address",
          "type": "address"
        }
      ],
      "name": "setOmniverseProtocolAddress",
      "outputs": [],
      "stateMutability": "nonpayable",
      "type": "function"
    },
    {
      "inputs": [
        {
          "components": [
            {
              "internalType": "uint256",
              "name": "nonce",
              "type": "uint256"
            },
            {
              "internalType": "string",
              "name": "chainId",
              "type": "string"
            },
            {
              "internalType": "bytes",
              "name": "from",
              "type": "bytes"
            },
            {
              "internalType": "string",
              "name": "to",
              "type": "string"
            },
            {
              "internalType": "bytes",
              "name": "data",
              "type": "bytes"
            },
            {
              "internalType": "bytes",
              "name": "signature",
              "type": "bytes"
            }
          ],
          "internalType": "struct OmniverseTokenProtocol",
          "name": "_data",
          "type": "tuple"
        }
      ],
      "name": "omniverseTransfer",
      "outputs": [],
      "stateMutability": "nonpayable",
      "type": "function"
    },
    {
      "inputs": [
        {
          "components": [
            {
              "internalType": "uint256",
              "name": "nonce",
              "type": "uint256"
            },
            {
              "internalType": "string",
              "name": "chainId",
              "type": "string"
            },
            {
              "internalType": "bytes",
              "name": "from",
              "type": "bytes"
            },
            {
              "internalType": "string",
              "name": "to",
              "type": "string"
            },
            {
              "internalType": "bytes",
              "name": "data",
              "type": "bytes"
            },
            {
              "internalType": "bytes",
              "name": "signature",
              "type": "bytes"
            }
          ],
          "internalType": "struct OmniverseTokenProtocol",
          "name": "_data",
          "type": "tuple"
        }
      ],
      "name": "omniverseApprove",
      "outputs": [],
      "stateMutability": "nonpayable",
      "type": "function"
    },
    {
      "inputs": [
        {
          "components": [
            {
              "internalType": "uint256",
              "name": "nonce",
              "type": "uint256"
            },
            {
              "internalType": "string",
              "name": "chainId",
              "type": "string"
            },
            {
              "internalType": "bytes",
              "name": "from",
              "type": "bytes"
            },
            {
              "internalType": "string",
              "name": "to",
              "type": "string"
            },
            {
              "internalType": "bytes",
              "name": "data",
              "type": "bytes"
            },
            {
              "internalType": "bytes",
              "name": "signature",
              "type": "bytes"
            }
          ],
          "internalType": "struct OmniverseTokenProtocol",
          "name": "_data",
          "type": "tuple"
        }
      ],
      "name": "omniverseTransferFrom",
      "outputs": [],
      "stateMutability": "nonpayable",
      "type": "function"
    },
    {
      "inputs": [
        {
          "components": [
            {
              "internalType": "uint256",
              "name": "nonce",
              "type": "uint256"
            },
            {
              "internalType": "string",
              "name": "chainId",
              "type": "string"
            },
            {
              "internalType": "bytes",
              "name": "from",
              "type": "bytes"
            },
            {
              "internalType": "string",
              "name": "to",
              "type": "string"
            },
            {
              "internalType": "bytes",
              "name": "data",
              "type": "bytes"
            },
            {
              "internalType": "bytes",
              "name": "signature",
              "type": "bytes"
            }
          ],
          "internalType": "struct OmniverseTokenProtocol",
          "name": "_data",
          "type": "tuple"
        }
      ],
      "name": "omniverseMint",
      "outputs": [],
      "stateMutability": "nonpayable",
      "type": "function"
    },
    {
      "inputs": [],
      "name": "triggerExecution",
      "outputs": [],
      "stateMutability": "nonpayable",
      "type": "function"
    },
    {
      "inputs": [],
      "name": "getExecutableDelayedTx",
      "outputs": [
        {
          "components": [
            {
              "internalType": "bytes",
              "name": "sender",
              "type": "bytes"
            },
            {
              "internalType": "uint256",
              "name": "nonce",
              "type": "uint256"
            }
          ],
          "internalType": "struct SkywalkerFungible.DelayedTx",
          "name": "ret",
          "type": "tuple"
        }
      ],
      "stateMutability": "view",
      "type": "function",
      "constant": true
    },
    {
      "inputs": [],
      "name": "getDelayedTxCount",
      "outputs": [
        {
          "internalType": "uint256",
          "name": "",
          "type": "uint256"
        }
      ],
      "stateMutability": "view",
      "type": "function",
      "constant": true
    },
    {
      "inputs": [
        {
          "internalType": "bytes",
          "name": "_pk",
          "type": "bytes"
        }
      ],
      "name": "omniverseBalanceOf",
      "outputs": [
        {
          "internalType": "uint256",
          "name": "",
          "type": "uint256"
        }
      ],
      "stateMutability": "view",
      "type": "function",
      "constant": true
    },
    {
      "inputs": [],
      "name": "getTime",
      "outputs": [
        {
          "internalType": "uint256",
          "name": "",
          "type": "uint256"
        }
      ],
      "stateMutability": "view",
      "type": "function",
      "constant": true
    },
    {
      "inputs": [],
      "name": "getMembers",
      "outputs": [
        {
          "internalType": "string[]",
          "name": "",
          "type": "string[]"
        }
      ],
      "stateMutability": "view",
      "type": "function",
      "constant": true
    }
  ],
  "bytecode": "0x60806040523480156200001157600080fd5b50604051620046ce380380620046ce8339818101604052810190620000379190620003ca565b81818160039080519060200190620000519291906200017d565b5080600490805190602001906200006a9291906200017d565b5050506200008d62000081620000af60201b60201c565b620000b760201b60201c565b8260079080519060200190620000a59291906200017d565b50505050620004e8565b600033905090565b6000600560009054906101000a900473ffffffffffffffffffffffffffffffffffffffff16905081600560006101000a81548173ffffffffffffffffffffffffffffffffffffffff021916908373ffffffffffffffffffffffffffffffffffffffff1602179055508173ffffffffffffffffffffffffffffffffffffffff168173ffffffffffffffffffffffffffffffffffffffff167f8be0079c531659141344cd1fd0a4f28419497f9722a3daafe3b4186f6b6457e060405160405180910390a35050565b8280546200018b90620004b2565b90600052602060002090601f016020900481019282620001af5760008555620001fb565b82601f10620001ca57805160ff1916838001178555620001fb565b82800160010185558215620001fb579182015b82811115620001fa578251825591602001919060010190620001dd565b5b5090506200020a91906200020e565b5090565b5b80821115620002295760008160009055506001016200020f565b5090565b6000604051905090565b600080fd5b600080fd5b600080fd5b600080fd5b6000601f19601f8301169050919050565b7f4e487b7100000000000000000000000000000000000000000000000000000000600052604160045260246000fd5b62000296826200024b565b810181811067ffffffffffffffff82111715620002b857620002b76200025c565b5b80604052505050565b6000620002cd6200022d565b9050620002db82826200028b565b919050565b600067ffffffffffffffff821115620002fe57620002fd6200025c565b5b62000309826200024b565b9050602081019050919050565b60005b838110156200033657808201518184015260208101905062000319565b8381111562000346576000848401525b50505050565b6000620003636200035d84620002e0565b620002c1565b90508281526020810184848401111562000382576200038162000246565b5b6200038f84828562000316565b509392505050565b600082601f830112620003af57620003ae62000241565b5b8151620003c18482602086016200034c565b91505092915050565b600080600060608486031215620003e657620003e562000237565b5b600084015167ffffffffffffffff8111156200040757620004066200023c565b5b620004158682870162000397565b935050602084015167ffffffffffffffff8111156200043957620004386200023c565b5b620004478682870162000397565b925050604084015167ffffffffffffffff8111156200046b576200046a6200023c565b5b620004798682870162000397565b9150509250925092565b7f4e487b7100000000000000000000000000000000000000000000000000000000600052602260045260246000fd5b60006002820490506001821680620004cb57607f821691505b60208210811415620004e257620004e162000483565b5b50919050565b6141d680620004f86000396000f3fe608060405234801561001057600080fd5b50600436106101a95760003560e01c8063557ed1ba116100f95780639eab525311610097578063b3d46f7a11610071578063b3d46f7a146104ae578063cb963553146104ca578063dd62ed3e146104e8578063f2fde38b14610518576101a9565b80639eab525314610430578063a457c2d71461044e578063a9059cbb1461047e576101a9565b8063715018a6116100d3578063715018a6146103ce57806388655de7146103d85780638da5cb5b146103f457806395d89b4114610412576101a9565b8063557ed1ba146103645780636c194a921461038257806370a082311461039e576101a9565b80631cafc40111610166578063313ce56711610140578063313ce567146102ca57806339509351146102e85780634d9ec5f61461031857806352ce583114610334576101a9565b80631cafc4011461027257806323b872dd146102905780632ac1c568146102c0576101a9565b806306fdde03146101ae578063095ea7b3146101cc5780630d5f6f93146101fc5780630d94bb521461021a57806318160ddd146102385780631ba24cfd14610256575b600080fd5b6101b6610534565b6040516101c391906126bb565b60405180910390f35b6101e660048036038101906101e19190612785565b6105c6565b6040516101f391906127e0565b60405180910390f35b6102046105e9565b604051610211919061289c565b60405180910390f35b610222610866565b60405161022f91906128cd565b60405180910390f35b610240610873565b60405161024d91906128cd565b60405180910390f35b610270600480360381019061026b919061290c565b61087d565b005b61027a610892565b60405161028791906129b4565b60405180910390f35b6102aa60048036038101906102a591906129cf565b6108b8565b6040516102b791906127e0565b60405180910390f35b6102c86108e7565b005b6102d2610f34565b6040516102df9190612a3e565b60405180910390f35b61030260048036038101906102fd9190612785565b610f3d565b60405161030f91906127e0565b60405180910390f35b610332600480360381019061032d9190612a59565b610f74565b005b61034e60048036038101906103499190612aeb565b610fc0565b60405161035b91906128cd565b60405180910390f35b61036c610feb565b60405161037991906128cd565b60405180910390f35b61039c6004803603810190610397919061290c565b610ff3565b005b6103b860048036038101906103b39190612a59565b611008565b6040516103c591906128cd565b60405180910390f35b6103d6611050565b005b6103f260048036038101906103ed919061290c565b611064565b005b6103fc611079565b6040516104099190612b47565b60405180910390f35b61041a6110a3565b60405161042791906126bb565b60405180910390f35b610438611135565b6040516104459190612c6e565b60405180910390f35b61046860048036038101906104639190612785565b61120e565b60405161047591906127e0565b60405180910390f35b61049860048036038101906104939190612785565b611285565b6040516104a591906127e0565b60405180910390f35b6104c860048036038101906104c3919061290c565b6112a8565b005b6104d26112bd565b6040516104df91906126bb565b60405180910390f35b61050260048036038101906104fd9190612c90565b61134b565b60405161050f91906128cd565b60405180910390f35b610532600480360381019061052d9190612a59565b6113d2565b005b60606003805461054390612cff565b80601f016020809104026020016040519081016040528092919081815260200182805461056f90612cff565b80156105bc5780601f10610591576101008083540402835291602001916105bc565b820191906000526020600020905b81548152906001019060200180831161059f57829003601f168201915b5050505050905090565b6000806105d1611456565b90506105de81858561145e565b600191505092915050565b6105f1612498565b6000600b805490501115610863576000600660009054906101000a900473ffffffffffffffffffffffffffffffffffffffff1673ffffffffffffffffffffffffffffffffffffffff166339aaa281600b60008154811061065457610653612d31565b5b9060005260206000209060020201600001600b60008154811061067a57610679612d31565b5b9060005260206000209060020201600101546040518363ffffffff1660e01b81526004016106a9929190612e06565b600060405180830381865afa1580156106c6573d6000803e3d6000fd5b505050506040513d6000823e3d601f19601f820116820180604052508101906106ef9190613143565b915050600660009054906101000a900473ffffffffffffffffffffffffffffffffffffffff1673ffffffffffffffffffffffffffffffffffffffff16636f06f7b86040518163ffffffff1660e01b8152600401602060405180830381865afa15801561075f573d6000803e3d6000fd5b505050506040513d601f19601f82011682018060405250810190610783919061319f565b8161078e91906131fb565b421061086157600b6000815481106107a9576107a8612d31565b5b90600052602060002090600202016040518060400160405290816000820180546107d290612cff565b80601f01602080910402602001604051908101604052809291908181526020018280546107fe90612cff565b801561084b5780601f106108205761010080835404028352916020019161084b565b820191906000526020600020905b81548152906001019060200180831161082e57829003601f168201915b5050505050815260200160018201548152505091505b505b90565b6000600b80549050905090565b6000600254905090565b61088f8161088a9061346c565b611629565b50565b600660009054906101000a900473ffffffffffffffffffffffffffffffffffffffff1681565b6000806108c3611456565b90506108d085828561190e565b6108db85858561199a565b60019150509392505050565b6000600b805490501161092f576040517f08c379a0000000000000000000000000000000000000000000000000000000008152600401610926906134cb565b60405180910390fd5b600080600660009054906101000a900473ffffffffffffffffffffffffffffffffffffffff1673ffffffffffffffffffffffffffffffffffffffff166339aaa281600b60008154811061098557610984612d31565b5b9060005260206000209060020201600001600b6000815481106109ab576109aa612d31565b5b9060005260206000209060020201600101546040518363ffffffff1660e01b81526004016109da929190612e06565b600060405180830381865afa1580156109f7573d6000803e3d6000fd5b505050506040513d6000823e3d601f19601f82011682018060405250810190610a209190613143565b91509150600660009054906101000a900473ffffffffffffffffffffffffffffffffffffffff1673ffffffffffffffffffffffffffffffffffffffff16636f06f7b86040518163ffffffff1660e01b8152600401602060405180830381865afa158015610a91573d6000803e3d6000fd5b505050506040513d601f19601f82011682018060405250810190610ab5919061319f565b81610ac091906131fb565b421015610b02576040517f08c379a0000000000000000000000000000000000000000000000000000000008152600401610af990613537565b60405180910390fd5b600b6001600b80549050610b169190613557565b81548110610b2757610b26612d31565b5b9060005260206000209060020201600b600081548110610b4a57610b49612d31565b5b90600052602060002090600202016000820181600001908054610b6c90612cff565b610b779291906124b2565b5060018201548160010155905050600b805480610b9757610b9661358b565b5b600190038181906000526020600020906002020160008082016000610bbc919061253f565b6001820160009055505090556000808360800151806020019051810190610be391906135e6565b91509150600260ff168260ff161415610cd15760008082806020019051810190610c0d9190613642565b91509150610cca86604001518383600660009054906101000a900473ffffffffffffffffffffffffffffffffffffffff1673ffffffffffffffffffffffffffffffffffffffff16633408e4706040518163ffffffff1660e01b8152600401600060405180830381865afa158015610c88573d6000803e3d6000fd5b505050506040513d6000823e3d601f19601f82011682018060405250810190610cb1919061369e565b805190602001208a602001518051906020012014611c1b565b5050610f2d565b600160ff168260ff161415610d115760008082806020019051810190610cf79190613642565b91509150610d0a86604001518383611e3c565b5050610f2c565b600060ff168260ff161415610e0157600080600083806020019051810190610d3991906136e7565b925092509250610df98760400151848484600660009054906101000a900473ffffffffffffffffffffffffffffffffffffffff1673ffffffffffffffffffffffffffffffffffffffff16633408e4706040518163ffffffff1660e01b8152600401600060405180830381865afa158015610db7573d6000803e3d6000fd5b505050506040513d6000823e3d601f19601f82011682018060405250810190610de0919061369e565b805190602001208c602001518051906020012014611f7f565b505050610f2b565b600360ff168260ff161415610ed8576000610e1f8560400151612297565b9050610e29611079565b73ffffffffffffffffffffffffffffffffffffffff168173ffffffffffffffffffffffffffffffffffffffff1614610eab578460400151604051610e6d91906137ae565b60405180910390207fbd8697cc45013432c9b28106cbef86826e50ba0069e4f7c82a44c5f9a2e8357960405160405180910390a25050505050610f32565b60008083806020019051810190610ec29190613642565b91509150610ed082826122b0565b505050610f2a565b8360400151604051610eea91906137ae565b60405180910390207fb037c465dfd2ba266747dc7bf6ef2589cf239e0c7d2b3f66f666adddf07d4f5483604051610f219190612a3e565b60405180910390a25b5b5b5b505050505b565b60006012905090565b600080610f48611456565b9050610f69818585610f5a858961134b565b610f6491906131fb565b61145e565b600191505092915050565b610f7c61234a565b80600660006101000a81548173ffffffffffffffffffffffffffffffffffffffff021916908373ffffffffffffffffffffffffffffffffffffffff16021790555050565b600060098383604051610fd49291906137ea565b908152602001604051809103902054905092915050565b600042905090565b611005816110009061346c565b611629565b50565b60008060008373ffffffffffffffffffffffffffffffffffffffff1673ffffffffffffffffffffffffffffffffffffffff168152602001908152602001600020549050919050565b61105861234a565b61106260006123c8565b565b611076816110719061346c565b611629565b50565b6000600560009054906101000a900473ffffffffffffffffffffffffffffffffffffffff16905090565b6060600480546110b290612cff565b80601f01602080910402602001604051908101604052809291908181526020018280546110de90612cff565b801561112b5780601f106111005761010080835404028352916020019161112b565b820191906000526020600020905b81548152906001019060200180831161110e57829003601f168201915b5050505050905090565b60606008805480602002602001604051908101604052809291908181526020016000905b8282101561120557838290600052602060002001805461117890612cff565b80601f01602080910402602001604051908101604052809291908181526020018280546111a490612cff565b80156111f15780601f106111c6576101008083540402835291602001916111f1565b820191906000526020600020905b8154815290600101906020018083116111d457829003601f168201915b505050505081526020019060010190611159565b50505050905090565b600080611219611456565b90506000611227828661134b565b90508381101561126c576040517f08c379a000000000000000000000000000000000000000000000000000000000815260040161126390613875565b60405180910390fd5b611279828686840361145e565b60019250505092915050565b600080611290611456565b905061129d81858561199a565b600191505092915050565b6112ba816112b59061346c565b611629565b50565b600780546112ca90612cff565b80601f01602080910402602001604051908101604052809291908181526020018280546112f690612cff565b80156113435780601f1061131857610100808354040283529160200191611343565b820191906000526020600020905b81548152906001019060200180831161132657829003601f168201915b505050505081565b6000600160008473ffffffffffffffffffffffffffffffffffffffff1673ffffffffffffffffffffffffffffffffffffffff16815260200190815260200160002060008373ffffffffffffffffffffffffffffffffffffffff1673ffffffffffffffffffffffffffffffffffffffff16815260200190815260200160002054905092915050565b6113da61234a565b600073ffffffffffffffffffffffffffffffffffffffff168173ffffffffffffffffffffffffffffffffffffffff16141561144a576040517f08c379a000000000000000000000000000000000000000000000000000000000815260040161144190613907565b60405180910390fd5b611453816123c8565b50565b600033905090565b600073ffffffffffffffffffffffffffffffffffffffff168373ffffffffffffffffffffffffffffffffffffffff1614156114ce576040517f08c379a00000000000000000000000000000000000000000000000000000000081526004016114c590613999565b60405180910390fd5b600073ffffffffffffffffffffffffffffffffffffffff168273ffffffffffffffffffffffffffffffffffffffff16141561153e576040517f08c379a000000000000000000000000000000000000000000000000000000000815260040161153590613a2b565b60405180910390fd5b80600160008573ffffffffffffffffffffffffffffffffffffffff1673ffffffffffffffffffffffffffffffffffffffff16815260200190815260200160002060008473ffffffffffffffffffffffffffffffffffffffff1673ffffffffffffffffffffffffffffffffffffffff168152602001908152602001600020819055508173ffffffffffffffffffffffffffffffffffffffff168373ffffffffffffffffffffffffffffffffffffffff167f8c5be1e5ebec7d5bd14f71427d1e84f3dd0314c0f7b2291e5b200ac8c7c3b9258360405161161c91906128cd565b60405180910390a3505050565b600760405160200161163b9190613ae0565b60405160208183030381529060405280519060200120816060015160405160200161166691906126bb565b60405160208183030381529060405280519060200120146116bc576040517f08c379a00000000000000000000000000000000000000000000000000000000081526004016116b390613b4e565b60405180910390fd5b600660009054906101000a900473ffffffffffffffffffffffffffffffffffffffff1673ffffffffffffffffffffffffffffffffffffffff16633713bb5382604001516040518263ffffffff1660e01b815260040161171b9190613ba7565b602060405180830381865afa158015611738573d6000803e3d6000fd5b505050506040513d601f19601f8201168201806040525081019061175c9190613bf5565b1561179c576040517f08c379a000000000000000000000000000000000000000000000000000000000815260040161179390613c6e565b60405180910390fd5b6000600660009054906101000a900473ffffffffffffffffffffffffffffffffffffffff1673ffffffffffffffffffffffffffffffffffffffff1663b551169e836040518263ffffffff1660e01b81526004016117f99190613d33565b6020604051808303816000875af1158015611818573d6000803e3d6000fd5b505050506040513d601f19601f8201168201806040525081019061183c9190613d7a565b90506000600181111561185257611851613da7565b5b81600181111561186557611864613da7565b5b14156118e157600b6040518060400160405280846040015181526020018460000151815250908060018154018082558091505060019003906000526020600020906002020160009091909190915060008201518160000190805190602001906118cf92919061257f565b5060208201518160010155505061190a565b6001808111156118f4576118f3613da7565b5b81600181111561190757611906613da7565b5b50505b5050565b600061191a848461134b565b90507fffffffffffffffffffffffffffffffffffffffffffffffffffffffffffffffff81146119945781811015611986576040517f08c379a000000000000000000000000000000000000000000000000000000000815260040161197d90613e22565b60405180910390fd5b611993848484840361145e565b5b50505050565b600073ffffffffffffffffffffffffffffffffffffffff168373ffffffffffffffffffffffffffffffffffffffff161415611a0a576040517f08c379a0000000000000000000000000000000000000000000000000000000008152600401611a0190613eb4565b60405180910390fd5b600073ffffffffffffffffffffffffffffffffffffffff168273ffffffffffffffffffffffffffffffffffffffff161415611a7a576040517f08c379a0000000000000000000000000000000000000000000000000000000008152600401611a7190613f46565b60405180910390fd5b611a8583838361248e565b60008060008573ffffffffffffffffffffffffffffffffffffffff1673ffffffffffffffffffffffffffffffffffffffff16815260200190815260200160002054905081811015611b0b576040517f08c379a0000000000000000000000000000000000000000000000000000000008152600401611b0290613fd8565b60405180910390fd5b8181036000808673ffffffffffffffffffffffffffffffffffffffff1673ffffffffffffffffffffffffffffffffffffffff16815260200190815260200160002081905550816000808573ffffffffffffffffffffffffffffffffffffffff1673ffffffffffffffffffffffffffffffffffffffff1681526020019081526020016000206000828254611b9e91906131fb565b925050819055508273ffffffffffffffffffffffffffffffffffffffff168473ffffffffffffffffffffffffffffffffffffffff167fddf252ad1be2c89b69c2b068fc378daa952ba7f163c4a11628f55a4df523b3ef84604051611c0291906128cd565b60405180910390a3611c15848484612493565b50505050565b6000600985604051611c2d91906137ae565b908152602001604051809103902054905082811015611c9a5784604051611c5491906137ae565b60405180910390207faa7f93bbb0659f61a11b680e0590ab23205967a5bdaa928dae6372df0bb932678285604051611c8d929190613ff8565b60405180910390a2611e35565b828103600986604051611cad91906137ae565b9081526020016040518091039020819055508115611dd1576000611cd086612297565b90506000611cdd86612297565b90508460026000828254611cf191906131fb565b92505081905550846000808473ffffffffffffffffffffffffffffffffffffffff1673ffffffffffffffffffffffffffffffffffffffff1681526020019081526020016000206000828254611d4691906131fb565b9250508190555084600160008473ffffffffffffffffffffffffffffffffffffffff1673ffffffffffffffffffffffffffffffffffffffff16815260200190815260200160002060008373ffffffffffffffffffffffffffffffffffffffff1673ffffffffffffffffffffffffffffffffffffffff1681526020019081526020016000208190555050505b83604051611ddf91906137ae565b604051809103902085604051611df591906137ae565b60405180910390207fdef0f31451edb45073f38f2b372985fe138ee585432d98d59ffd45b6097ab97e85604051611e2c91906128cd565b60405180910390a35b5050505050565b6000600984604051611e4e91906137ae565b908152602001604051809103902054905081811015611ebb5783604051611e7591906137ae565b60405180910390207faa7f93bbb0659f61a11b680e0590ab23205967a5bdaa928dae6372df0bb932678284604051611eae929190613ff8565b60405180910390a2611f79565b818103600985604051611ece91906137ae565b90815260200160405180910390208190555081600984604051611ef191906137ae565b90815260200160405180910390206000828254611f0e91906131fb565b9250508190555082604051611f2391906137ae565b604051809103902084604051611f3991906137ae565b60405180910390207f1d8380031597508b7d5d3df4999b8136789b62ed932115f9eb5897e19903792e84604051611f7091906128cd565b60405180910390a35b50505050565b8015612200576000611f9086612297565b90506000611f9d86612297565b90506000600160008373ffffffffffffffffffffffffffffffffffffffff1673ffffffffffffffffffffffffffffffffffffffff16815260200190815260200160002060008473ffffffffffffffffffffffffffffffffffffffff1673ffffffffffffffffffffffffffffffffffffffff1681526020019081526020016000205490508481101561207b578760405161203691906137ae565b60405180910390207f4704aea2c6ecd240514f4f7dffe7f8403381ec5f3d7b1eade3be30e4f687859660405161206b9061406d565b60405180910390a2505050612290565b60008060008473ffffffffffffffffffffffffffffffffffffffff1673ffffffffffffffffffffffffffffffffffffffff1681526020019081526020016000205490508581101561211a57886040516120d491906137ae565b60405180910390207f4704aea2c6ecd240514f4f7dffe7f8403381ec5f3d7b1eade3be30e4f6878596604051612109906140d9565b60405180910390a250505050612290565b858203600160008573ffffffffffffffffffffffffffffffffffffffff1673ffffffffffffffffffffffffffffffffffffffff16815260200190815260200160002060008673ffffffffffffffffffffffffffffffffffffffff1673ffffffffffffffffffffffffffffffffffffffff168152602001908152602001600020819055508581036000808573ffffffffffffffffffffffffffffffffffffffff1673ffffffffffffffffffffffffffffffffffffffff1681526020019081526020016000208190555085600260008282546121f49190613557565b92505081905550505050505b8160098460405161221191906137ae565b9081526020016040518091039020600082825401925050819055508260405161223a91906137ae565b60405180910390208460405161225091906137ae565b60405180910390207f67e3ad403202450551624c0c8b76e0de82a103bbc467062b0b3944ddb48b154e8460405161228791906128cd565b60405180910390a35b5050505050565b600080828051906020012090508060001c915050919050565b806009836040516122c191906137ae565b908152602001604051809103902060008282546122de91906131fb565b92505081905550816040516122f391906137ae565b60405180910390206040516123079061411f565b60405180910390207f1d8380031597508b7d5d3df4999b8136789b62ed932115f9eb5897e19903792e8360405161233e91906128cd565b60405180910390a35050565b612352611456565b73ffffffffffffffffffffffffffffffffffffffff16612370611079565b73ffffffffffffffffffffffffffffffffffffffff16146123c6576040517f08c379a00000000000000000000000000000000000000000000000000000000081526004016123bd90614180565b60405180910390fd5b565b6000600560009054906101000a900473ffffffffffffffffffffffffffffffffffffffff16905081600560006101000a81548173ffffffffffffffffffffffffffffffffffffffff021916908373ffffffffffffffffffffffffffffffffffffffff1602179055508173ffffffffffffffffffffffffffffffffffffffff168173ffffffffffffffffffffffffffffffffffffffff167f8be0079c531659141344cd1fd0a4f28419497f9722a3daafe3b4186f6b6457e060405160405180910390a35050565b505050565b505050565b604051806040016040528060608152602001600081525090565b8280546124be90612cff565b90600052602060002090601f0160209004810192826124e0576000855561252e565b82601f106124f1578054855561252e565b8280016001018555821561252e57600052602060002091601f016020900482015b8281111561252d578254825591600101919060010190612512565b5b50905061253b9190612605565b5090565b50805461254b90612cff565b6000825580601f1061255d575061257c565b601f01602090049060005260206000209081019061257b9190612605565b5b50565b82805461258b90612cff565b90600052602060002090601f0160209004810192826125ad57600085556125f4565b82601f106125c657805160ff19168380011785556125f4565b828001600101855582156125f4579182015b828111156125f35782518255916020019190600101906125d8565b5b5090506126019190612605565b5090565b5b8082111561261e576000816000905550600101612606565b5090565b600081519050919050565b600082825260208201905092915050565b60005b8381101561265c578082015181840152602081019050612641565b8381111561266b576000848401525b50505050565b6000601f19601f8301169050919050565b600061268d82612622565b612697818561262d565b93506126a781856020860161263e565b6126b081612671565b840191505092915050565b600060208201905081810360008301526126d58184612682565b905092915050565b6000604051905090565b600080fd5b600080fd5b600073ffffffffffffffffffffffffffffffffffffffff82169050919050565b600061271c826126f1565b9050919050565b61272c81612711565b811461273757600080fd5b50565b60008135905061274981612723565b92915050565b6000819050919050565b6127628161274f565b811461276d57600080fd5b50565b60008135905061277f81612759565b92915050565b6000806040838503121561279c5761279b6126e7565b5b60006127aa8582860161273a565b92505060206127bb85828601612770565b9150509250929050565b60008115159050919050565b6127da816127c5565b82525050565b60006020820190506127f560008301846127d1565b92915050565b600081519050919050565b600082825260208201905092915050565b6000612822826127fb565b61282c8185612806565b935061283c81856020860161263e565b61284581612671565b840191505092915050565b6128598161274f565b82525050565b6000604083016000830151848203600086015261287c8282612817565b91505060208301516128916020860182612850565b508091505092915050565b600060208201905081810360008301526128b6818461285f565b905092915050565b6128c78161274f565b82525050565b60006020820190506128e260008301846128be565b92915050565b600080fd5b600060c08284031215612903576129026128e8565b5b81905092915050565b600060208284031215612922576129216126e7565b5b600082013567ffffffffffffffff8111156129405761293f6126ec565b5b61294c848285016128ed565b91505092915050565b6000819050919050565b600061297a612975612970846126f1565b612955565b6126f1565b9050919050565b600061298c8261295f565b9050919050565b600061299e82612981565b9050919050565b6129ae81612993565b82525050565b60006020820190506129c960008301846129a5565b92915050565b6000806000606084860312156129e8576129e76126e7565b5b60006129f68682870161273a565b9350506020612a078682870161273a565b9250506040612a1886828701612770565b9150509250925092565b600060ff82169050919050565b612a3881612a22565b82525050565b6000602082019050612a536000830184612a2f565b92915050565b600060208284031215612a6f57612a6e6126e7565b5b6000612a7d8482850161273a565b91505092915050565b600080fd5b600080fd5b600080fd5b60008083601f840112612aab57612aaa612a86565b5b8235905067ffffffffffffffff811115612ac857612ac7612a8b565b5b602083019150836001820283011115612ae457612ae3612a90565b5b9250929050565b60008060208385031215612b0257612b016126e7565b5b600083013567ffffffffffffffff811115612b2057612b1f6126ec565b5b612b2c85828601612a95565b92509250509250929050565b612b4181612711565b82525050565b6000602082019050612b5c6000830184612b38565b92915050565b600081519050919050565b600082825260208201905092915050565b6000819050602082019050919050565b600082825260208201905092915050565b6000612baa82612622565b612bb48185612b8e565b9350612bc481856020860161263e565b612bcd81612671565b840191505092915050565b6000612be48383612b9f565b905092915050565b6000602082019050919050565b6000612c0482612b62565b612c0e8185612b6d565b935083602082028501612c2085612b7e565b8060005b85811015612c5c5784840389528151612c3d8582612bd8565b9450612c4883612bec565b925060208a01995050600181019050612c24565b50829750879550505050505092915050565b60006020820190508181036000830152612c888184612bf9565b905092915050565b60008060408385031215612ca757612ca66126e7565b5b6000612cb58582860161273a565b9250506020612cc68582860161273a565b9150509250929050565b7f4e487b7100000000000000000000000000000000000000000000000000000000600052602260045260246000fd5b60006002820490506001821680612d1757607f821691505b60208210811415612d2b57612d2a612cd0565b5b50919050565b7f4e487b7100000000000000000000000000000000000000000000000000000000600052603260045260246000fd5b600082825260208201905092915050565b60008190508160005260206000209050919050565b60008154612d9381612cff565b612d9d8186612d60565b94506001821660008114612db85760018114612dca57612dfd565b60ff1983168652602086019350612dfd565b612dd385612d71565b60005b83811015612df557815481890152600182019150602081019050612dd6565b808801955050505b50505092915050565b60006040820190508181036000830152612e208185612d86565b9050612e2f60208301846128be565b9392505050565b600080fd5b7f4e487b7100000000000000000000000000000000000000000000000000000000600052604160045260246000fd5b612e7382612671565b810181811067ffffffffffffffff82111715612e9257612e91612e3b565b5b80604052505050565b6000612ea56126dd565b9050612eb18282612e6a565b919050565b600080fd5b600081519050612eca81612759565b92915050565b600080fd5b600067ffffffffffffffff821115612ef057612eef612e3b565b5b612ef982612671565b9050602081019050919050565b6000612f19612f1484612ed5565b612e9b565b905082815260208101848484011115612f3557612f34612ed0565b5b612f4084828561263e565b509392505050565b600082601f830112612f5d57612f5c612a86565b5b8151612f6d848260208601612f06565b91505092915050565b600067ffffffffffffffff821115612f9157612f90612e3b565b5b612f9a82612671565b9050602081019050919050565b6000612fba612fb584612f76565b612e9b565b905082815260208101848484011115612fd657612fd5612ed0565b5b612fe184828561263e565b509392505050565b600082601f830112612ffe57612ffd612a86565b5b815161300e848260208601612fa7565b91505092915050565b600060c0828403121561302d5761302c612e36565b5b61303760c0612e9b565b9050600061304784828501612ebb565b600083015250602082015167ffffffffffffffff81111561306b5761306a612eb6565b5b61307784828501612f48565b602083015250604082015167ffffffffffffffff81111561309b5761309a612eb6565b5b6130a784828501612fe9565b604083015250606082015167ffffffffffffffff8111156130cb576130ca612eb6565b5b6130d784828501612f48565b606083015250608082015167ffffffffffffffff8111156130fb576130fa612eb6565b5b61310784828501612fe9565b60808301525060a082015167ffffffffffffffff81111561312b5761312a612eb6565b5b61313784828501612fe9565b60a08301525092915050565b6000806040838503121561315a576131596126e7565b5b600083015167ffffffffffffffff811115613178576131776126ec565b5b61318485828601613017565b925050602061319585828601612ebb565b9150509250929050565b6000602082840312156131b5576131b46126e7565b5b60006131c384828501612ebb565b91505092915050565b7f4e487b7100000000000000000000000000000000000000000000000000000000600052601160045260246000fd5b60006132068261274f565b91506132118361274f565b9250827fffffffffffffffffffffffffffffffffffffffffffffffffffffffffffffffff03821115613246576132456131cc565b5b828201905092915050565b82818337600083830152505050565b600061327361326e84612ed5565b612e9b565b90508281526020810184848401111561328f5761328e612ed0565b5b61329a848285613251565b509392505050565b600082601f8301126132b7576132b6612a86565b5b81356132c7848260208601613260565b91505092915050565b60006132e36132de84612f76565b612e9b565b9050828152602081018484840111156132ff576132fe612ed0565b5b61330a848285613251565b509392505050565b600082601f83011261332757613326612a86565b5b81356133378482602086016132d0565b91505092915050565b600060c0828403121561335657613355612e36565b5b61336060c0612e9b565b9050600061337084828501612770565b600083015250602082013567ffffffffffffffff81111561339457613393612eb6565b5b6133a0848285016132a2565b602083015250604082013567ffffffffffffffff8111156133c4576133c3612eb6565b5b6133d084828501613312565b604083015250606082013567ffffffffffffffff8111156133f4576133f3612eb6565b5b613400848285016132a2565b606083015250608082013567ffffffffffffffff81111561342457613423612eb6565b5b61343084828501613312565b60808301525060a082013567ffffffffffffffff81111561345457613453612eb6565b5b61346084828501613312565b60a08301525092915050565b60006134783683613340565b9050919050565b7f4e6f2064656c6179656420747800000000000000000000000000000000000000600082015250565b60006134b5600d8361262d565b91506134c08261347f565b602082019050919050565b600060208201905081810360008301526134e4816134a8565b9050919050565b7f4e6f742065786563757461626c65000000000000000000000000000000000000600082015250565b6000613521600e8361262d565b915061352c826134eb565b602082019050919050565b6000602082019050818103600083015261355081613514565b9050919050565b60006135628261274f565b915061356d8361274f565b9250828210156135805761357f6131cc565b5b828203905092915050565b7f4e487b7100000000000000000000000000000000000000000000000000000000600052603160045260246000fd5b6135c381612a22565b81146135ce57600080fd5b50565b6000815190506135e0816135ba565b92915050565b600080604083850312156135fd576135fc6126e7565b5b600061360b858286016135d1565b925050602083015167ffffffffffffffff81111561362c5761362b6126ec565b5b61363885828601612fe9565b9150509250929050565b60008060408385031215613659576136586126e7565b5b600083015167ffffffffffffffff811115613677576136766126ec565b5b61368385828601612fe9565b925050602061369485828601612ebb565b9150509250929050565b6000602082840312156136b4576136b36126e7565b5b600082015167ffffffffffffffff8111156136d2576136d16126ec565b5b6136de84828501612f48565b91505092915050565b600080600060608486031215613700576136ff6126e7565b5b600084015167ffffffffffffffff81111561371e5761371d6126ec565b5b61372a86828701612fe9565b935050602084015167ffffffffffffffff81111561374b5761374a6126ec565b5b61375786828701612fe9565b925050604061376886828701612ebb565b9150509250925092565b600081905092915050565b6000613788826127fb565b6137928185613772565b93506137a281856020860161263e565b80840191505092915050565b60006137ba828461377d565b915081905092915050565b60006137d18385613772565b93506137de838584613251565b82840190509392505050565b60006137f78284866137c5565b91508190509392505050565b7f45524332303a2064656372656173656420616c6c6f77616e63652062656c6f7760008201527f207a65726f000000000000000000000000000000000000000000000000000000602082015250565b600061385f60258361262d565b915061386a82613803565b604082019050919050565b6000602082019050818103600083015261388e81613852565b9050919050565b7f4f776e61626c653a206e6577206f776e657220697320746865207a65726f206160008201527f6464726573730000000000000000000000000000000000000000000000000000602082015250565b60006138f160268361262d565b91506138fc82613895565b604082019050919050565b60006020820190508181036000830152613920816138e4565b9050919050565b7f45524332303a20617070726f76652066726f6d20746865207a65726f2061646460008201527f7265737300000000000000000000000000000000000000000000000000000000602082015250565b600061398360248361262d565b915061398e82613927565b604082019050919050565b600060208201905081810360008301526139b281613976565b9050919050565b7f45524332303a20617070726f766520746f20746865207a65726f20616464726560008201527f7373000000000000000000000000000000000000000000000000000000000000602082015250565b6000613a1560228361262d565b9150613a20826139b9565b604082019050919050565b60006020820190508181036000830152613a4481613a08565b9050919050565b60008190508160005260206000209050919050565b60008154613a6d81612cff565b613a77818661262d565b94506001821660008114613a925760018114613aa457613ad7565b60ff1983168652602086019350613ad7565b613aad85613a4b565b60005b83811015613acf57815481890152600182019150602081019050613ab0565b808801955050505b50505092915050565b60006020820190508181036000830152613afa8184613a60565b905092915050565b7f57726f6e672064657374696e6174696f6e000000000000000000000000000000600082015250565b6000613b3860118361262d565b9150613b4382613b02565b602082019050919050565b60006020820190508181036000830152613b6781613b2b565b9050919050565b6000613b79826127fb565b613b838185612d60565b9350613b9381856020860161263e565b613b9c81612671565b840191505092915050565b60006020820190508181036000830152613bc18184613b6e565b905092915050565b613bd2816127c5565b8114613bdd57600080fd5b50565b600081519050613bef81613bc9565b92915050565b600060208284031215613c0b57613c0a6126e7565b5b6000613c1984828501613be0565b91505092915050565b7f55736572206973206d616c6963696f7573000000000000000000000000000000600082015250565b6000613c5860118361262d565b9150613c6382613c22565b602082019050919050565b60006020820190508181036000830152613c8781613c4b565b9050919050565b600060c083016000830151613ca66000860182612850565b5060208301518482036020860152613cbe8282612b9f565b91505060408301518482036040860152613cd88282612817565b91505060608301518482036060860152613cf28282612b9f565b91505060808301518482036080860152613d0c8282612817565b91505060a083015184820360a0860152613d268282612817565b9150508091505092915050565b60006020820190508181036000830152613d4d8184613c8e565b905092915050565b60028110613d6257600080fd5b50565b600081519050613d7481613d55565b92915050565b600060208284031215613d9057613d8f6126e7565b5b6000613d9e84828501613d65565b91505092915050565b7f4e487b7100000000000000000000000000000000000000000000000000000000600052602160045260246000fd5b7f45524332303a20696e73756666696369656e7420616c6c6f77616e6365000000600082015250565b6000613e0c601d8361262d565b9150613e1782613dd6565b602082019050919050565b60006020820190508181036000830152613e3b81613dff565b9050919050565b7f45524332303a207472616e736665722066726f6d20746865207a65726f20616460008201527f6472657373000000000000000000000000000000000000000000000000000000602082015250565b6000613e9e60258361262d565b9150613ea982613e42565b604082019050919050565b60006020820190508181036000830152613ecd81613e91565b9050919050565b7f45524332303a207472616e7366657220746f20746865207a65726f206164647260008201527f6573730000000000000000000000000000000000000000000000000000000000602082015250565b6000613f3060238361262d565b9150613f3b82613ed4565b604082019050919050565b60006020820190508181036000830152613f5f81613f23565b9050919050565b7f45524332303a207472616e7366657220616d6f756e742065786365656473206260008201527f616c616e63650000000000000000000000000000000000000000000000000000602082015250565b6000613fc260268361262d565b9150613fcd82613f66565b604082019050919050565b60006020820190508181036000830152613ff181613fb5565b9050919050565b600060408201905061400d60008301856128be565b61401a60208301846128be565b9392505050565b7f496e73756666696369656e7420616c6c6f77616e636500000000000000000000600082015250565b600061405760168361262d565b915061406282614021565b602082019050919050565b600060208201905081810360008301526140868161404a565b9050919050565b7f5472616e7366657220616d6f756e7420657863656564732062616c616e636500600082015250565b60006140c3601f8361262d565b91506140ce8261408d565b602082019050919050565b600060208201905081810360008301526140f2816140b6565b9050919050565b50565b6000614109600083613772565b9150614114826140f9565b600082019050919050565b600061412a826140fc565b9150819050919050565b7f4f776e61626c653a2063616c6c6572206973206e6f7420746865206f776e6572600082015250565b600061416a60208361262d565b915061417582614134565b602082019050919050565b600060208201905081810360008301526141998161415d565b905091905056fea2646970667358221220223db3b16afcad6f6851a16f60a012a8450fac5a46d5c81f6529347609ecd23264736f6c634300080c0033",
  "immutableReferences": {},
  "source": "// SPDX-License-Identifier: MIT\npragma solidity >=0.8.0 <0.9.0;\n\nimport \"@openzeppelin/contracts/access/Ownable.sol\";\nimport \"./ERC20.sol\";\nimport \"./interfaces/IOmniverseProtocol.sol\";\nimport \"./interfaces/IOmniverseFungible.sol\";\n\ncontract SkywalkerFungible is ERC20, Ownable, IOmniverseFungible {\n    struct DelayedTx {\n        bytes sender;\n        uint256 nonce;\n    }\n\n    IOmniverseProtocol public omniverseProtocol;\n    string public tokenIdentity;\n    string[] members;\n    mapping(bytes => uint256) omniverseBalances;\n    mapping(bytes => uint256) prisons;\n    DelayedTx[] delayedTxs;\n\n    event OmniverseTokenTransfer(bytes indexed from, bytes indexed to, uint256 value);\n    event OmniverseTokenApproval(bytes indexed owner, bytes indexed spender, uint256 value);\n    event OmniverseTokenTransferFrom(bytes indexed from, bytes indexed to, uint256 value);\n    event OmniverseTokenExceedBalance(bytes indexed owner, uint256 balance, uint256 value);\n    event OmniverseTokenWrongOp(bytes indexed sender, uint8 op);\n    event OmniverseNotOwner(bytes indexed sender);\n    event OmniverseError(bytes indexed sender, string reason);\n\n    constructor(string memory _tokenId, string memory _name, string memory _symbol) ERC20(_name, _symbol) {\n        tokenIdentity = _tokenId;\n    }\n\n    /**\n     * @dev Set the address of the omniverse protocol\n     */\n    function setOmniverseProtocolAddress(address _address) public onlyOwner {\n        omniverseProtocol = IOmniverseProtocol(_address);\n    }\n\n    /**\n     * @dev See {IOmniverseFungible-omniverseTransfer}\n     * Transfer omniverse tokens to a user\n     */\n    function omniverseTransfer(OmniverseTokenProtocol calldata _data) external override {\n        _omniverseTransaction(_data);\n    }\n\n    /**\n     * @dev See {IOmniverseFungible-omniverseApprove}\n     * Approve omniverse tokens for a user\n     */\n    function omniverseApprove(OmniverseTokenProtocol calldata _data) external override {\n        _omniverseTransaction(_data);\n    }\n\n    /**\n     * @dev See {IOmniverseFungible-omniverseTransferFrom}\n     * Transfer omniverse tokens from a user to another user\n     */\n    function omniverseTransferFrom(OmniverseTokenProtocol calldata _data) external override {\n        _omniverseTransaction(_data);\n    }\n\n    function omniverseMint(OmniverseTokenProtocol calldata _data) external {\n        _omniverseTransaction(_data);\n    }\n\n    /**\n     * @dev Trigger the execution of the first delayed transaction\n     */\n    function triggerExecution() external {\n        require(delayedTxs.length > 0, \"No delayed tx\");\n\n        (OmniverseTokenProtocol memory txData, uint256 timestamp) = omniverseProtocol.getTransactionData(delayedTxs[0].sender, delayedTxs[0].nonce);\n        require(block.timestamp >= timestamp + omniverseProtocol.getCoolingDownTime(), \"Not executable\");\n        delayedTxs[0] = delayedTxs[delayedTxs.length - 1];\n        delayedTxs.pop();\n\n        (uint8 op, bytes memory wrappedData) = abi.decode(txData.data, (uint8, bytes));\n        if (op == APPROVE) {\n            (bytes memory spender, uint256 amount) = abi.decode(wrappedData, (bytes, uint256));\n            _omniverseApprove(txData.from, spender, amount, keccak256(bytes(txData.chainId)) == keccak256(bytes(omniverseProtocol.getChainId())));\n        }\n        else if (op == TRANSFER) {\n            (bytes memory to, uint256 amount) = abi.decode(wrappedData, (bytes, uint256));\n            _omniverseTransfer(txData.from, to, amount);\n        }\n        else if (op == TRANSFER_FROM) {\n            (bytes memory from, bytes memory to, uint256 amount) = abi.decode(wrappedData, (bytes, bytes, uint256));\n            _omniverseTransferFrom(txData.from, from, to, amount, keccak256(bytes(txData.chainId)) == keccak256(bytes(omniverseProtocol.getChainId())));\n        }\n        else if (op == MINT) {\n            address fromAddr = pkToAddress(txData.from);\n            if (fromAddr != owner()) {\n                emit OmniverseNotOwner(txData.from);\n                return;\n            }\n            (bytes memory to, uint256 amount) = abi.decode(wrappedData, (bytes, uint256));\n            _omniverseMint(to, amount);\n        }\n        else {\n            emit OmniverseTokenWrongOp(txData.from, op);\n        }\n    }\n\n    /**\n     * @dev Returns the nearest exexutable delayed transaction info\n     * or returns default if not found\n     */\n    function getExecutableDelayedTx() external view returns (DelayedTx memory ret) {\n        if (delayedTxs.length > 0) {\n            (, uint256 timestamp) = omniverseProtocol.getTransactionData(delayedTxs[0].sender, delayedTxs[0].nonce);\n            if (block.timestamp >= timestamp + omniverseProtocol.getCoolingDownTime()) {\n                ret = delayedTxs[0];\n            }\n        }\n    }\n\n    function getDelayedTxCount() external view returns (uint256) {\n        return delayedTxs.length;\n    }\n\n    /**\n     * @dev See {IOmniverseFungible-omniverseBalanceOf}\n     * Returns the omniverse balance of a user\n     */\n    function omniverseBalanceOf(bytes calldata _pk) external view override returns (uint256) {\n        return omniverseBalances[_pk];\n    }\n\n    function _omniverseTransaction(OmniverseTokenProtocol memory _data) internal {\n        // Check if the tx destination is correct\n        require(keccak256(abi.encode(_data.to)) == keccak256(abi.encode(tokenIdentity)), \"Wrong destination\");\n\n        // Check if the sender is honest\n        // to be continued, we can use block list instead of `isMalicious`\n        require(!omniverseProtocol.isMalicious(_data.from), \"User is malicious\");\n\n        // Verify the signature\n        VerifyResult verifyRet = omniverseProtocol.verifyTransaction(_data);\n        if (verifyRet == VerifyResult.Success) {\n            // Delays in executing\n            delayedTxs.push(DelayedTx(_data.from, _data.nonce));\n        }\n        else if (verifyRet == VerifyResult.Malicious) {\n            // Slash\n        }\n    }\n\n    function _omniverseTransfer(bytes memory _from, bytes memory _to, uint256 _amount) internal {\n        uint256 fromBalance = omniverseBalances[_from];\n        if (fromBalance < _amount) {\n            emit OmniverseTokenExceedBalance(_from, fromBalance, _amount);\n        }\n        else {\n            unchecked {\n                omniverseBalances[_from] = fromBalance - _amount;\n            }\n            omniverseBalances[_to] += _amount;\n\n            emit OmniverseTokenTransfer(_from, _to, _amount);\n        }\n    }\n\n    function _omniverseApprove(bytes memory _owner, bytes memory _spender, uint256 _amount, bool _thisChain) internal {\n        uint256 ownerBalance = omniverseBalances[_owner];\n        if (ownerBalance < _amount) {\n            emit OmniverseTokenExceedBalance(_owner, ownerBalance, _amount);\n        }\n        else {\n            unchecked {\n                omniverseBalances[_owner] = ownerBalance - _amount;\n            }\n            \n            if (_thisChain) {\n                address ownerAddr = pkToAddress(_owner);\n                address spenderAddr = pkToAddress(_spender);\n\n                // mint\n                _totalSupply += _amount;\n                _balances[ownerAddr] += _amount;\n                // approve\n                _allowances[ownerAddr][spenderAddr] = _amount;\n            }\n\n            emit OmniverseTokenApproval(_owner, _spender, _amount);\n        }\n    }\n\n    function _omniverseTransferFrom(bytes memory _spender, bytes memory _from, bytes memory _to, uint256 _amount, bool _thisChain) internal {\n        if (_thisChain) {\n            address spenderAddr = pkToAddress(_spender);\n            address fromAddr = pkToAddress(_from);\n            uint256 currentAllowance = _allowances[fromAddr][spenderAddr];\n            // Check\n            if(currentAllowance < _amount) {\n                emit OmniverseError(_spender, \"Insufficient allowance\");\n                return;\n            }\n\n            uint256 fromBalance = _balances[fromAddr];\n            if(fromBalance < _amount) {\n                emit OmniverseError(_spender, \"Transfer amount exceeds balance\");\n                return;\n            }\n\n            // Update\n            unchecked {\n                _allowances[fromAddr][spenderAddr] = currentAllowance - _amount;\n                _balances[fromAddr] = fromBalance - _amount;\n            }\n            _totalSupply -= _amount;\n        }\n\n        unchecked {\n            omniverseBalances[_to] += _amount;\n        }\n\n        emit OmniverseTokenTransferFrom(_from, _to, _amount);\n    }\n\n    function _omniverseMint(bytes memory _to, uint256 _amount) internal {\n        omniverseBalances[_to] += _amount;\n        emit OmniverseTokenTransfer(\"\", _to, _amount);\n    }\n\n    function pkToAddress(bytes memory _pk) internal pure returns (address) {\n        bytes32 hash = keccak256(_pk);\n        return address(uint160(uint256(hash)));\n    }\n\n    function getTime() external view returns (uint256) {\n        return block.timestamp;\n    }\n\n    function getMembers() external view returns (string[] memory) {\n        return members;\n    }\n}",
  "sourcePath": "/home/george/program/dante/omniverse-evm/contracts/contracts/SkywalkerFungible.sol",
  "compiler": {
    "name": "solc",
    "version": "0.8.12+commit.f00d7308.Emscripten.clang"
  },
  "schemaVersion": "3.4.6",
  "updatedAt": "2022-10-21T03:02:40.166Z",
  "networkType": "ethereum",
  "devdoc": {
    "kind": "dev",
    "methods": {
      "allowance(address,address)": {
        "details": "See {IERC20-allowance}."
      },
      "approve(address,uint256)": {
        "details": "See {IERC20-approve}. NOTE: If `amount` is the maximum `uint256`, the allowance is not updated on `transferFrom`. This is semantically equivalent to an infinite approval. Requirements: - `spender` cannot be the zero address."
      },
      "balanceOf(address)": {
        "details": "See {IERC20-balanceOf}."
      },
      "decimals()": {
        "details": "Returns the number of decimals used to get its user representation. For example, if `decimals` equals `2`, a balance of `505` tokens should be displayed to a user as `5.05` (`505 / 10 ** 2`). Tokens usually opt for a value of 18, imitating the relationship between Ether and Wei. This is the value {ERC20} uses, unless this function is overridden; NOTE: This information is only used for _display_ purposes: it in no way affects any of the arithmetic of the contract, including {IERC20-balanceOf} and {IERC20-transfer}."
      },
      "decreaseAllowance(address,uint256)": {
        "details": "Atomically decreases the allowance granted to `spender` by the caller. This is an alternative to {approve} that can be used as a mitigation for problems described in {IERC20-approve}. Emits an {Approval} event indicating the updated allowance. Requirements: - `spender` cannot be the zero address. - `spender` must have allowance for the caller of at least `subtractedValue`."
      },
      "getExecutableDelayedTx()": {
        "details": "Returns the nearest exexutable delayed transaction info or returns default if not found"
      },
      "increaseAllowance(address,uint256)": {
        "details": "Atomically increases the allowance granted to `spender` by the caller. This is an alternative to {approve} that can be used as a mitigation for problems described in {IERC20-approve}. Emits an {Approval} event indicating the updated allowance. Requirements: - `spender` cannot be the zero address."
      },
      "name()": {
        "details": "Returns the name of the token."
      },
      "omniverseApprove((uint256,string,bytes,string,bytes,bytes))": {
        "details": "See {IOmniverseFungible-omniverseApprove} Approve omniverse tokens for a user"
      },
      "omniverseBalanceOf(bytes)": {
        "details": "See {IOmniverseFungible-omniverseBalanceOf} Returns the omniverse balance of a user"
      },
      "omniverseTransfer((uint256,string,bytes,string,bytes,bytes))": {
        "details": "See {IOmniverseFungible-omniverseTransfer} Transfer omniverse tokens to a user"
      },
      "omniverseTransferFrom((uint256,string,bytes,string,bytes,bytes))": {
        "details": "See {IOmniverseFungible-omniverseTransferFrom} Transfer omniverse tokens from a user to another user"
      },
      "owner()": {
        "details": "Returns the address of the current owner."
      },
      "renounceOwnership()": {
        "details": "Leaves the contract without owner. It will not be possible to call `onlyOwner` functions anymore. Can only be called by the current owner. NOTE: Renouncing ownership will leave the contract without an owner, thereby removing any functionality that is only available to the owner."
      },
      "setOmniverseProtocolAddress(address)": {
        "details": "Set the address of the omniverse protocol"
      },
      "symbol()": {
        "details": "Returns the symbol of the token, usually a shorter version of the name."
      },
      "totalSupply()": {
        "details": "See {IERC20-totalSupply}."
      },
      "transfer(address,uint256)": {
        "details": "See {IERC20-transfer}. Requirements: - `to` cannot be the zero address. - the caller must have a balance of at least `amount`."
      },
      "transferFrom(address,address,uint256)": {
        "details": "See {IERC20-transferFrom}. Emits an {Approval} event indicating the updated allowance. This is not required by the EIP. See the note at the beginning of {ERC20}. NOTE: Does not update the allowance if the current allowance is the maximum `uint256`. Requirements: - `from` and `to` cannot be the zero address. - `from` must have a balance of at least `amount`. - the caller must have allowance for ``from``'s tokens of at least `amount`."
      },
      "transferOwnership(address)": {
        "details": "Transfers ownership of the contract to a new account (`newOwner`). Can only be called by the current owner."
      },
      "triggerExecution()": {
        "details": "Trigger the execution of the first delayed transaction"
      }
    },
    "version": 1
  },
  "userdoc": {
    "kind": "user",
    "methods": {},
    "version": 1
  }
}