{
  "contractName": "OmniverseProtocol",
  "abi": [
    {
      "inputs": [
        {
          "components": [
            {
              "internalType": "uint256",
              "name": "nonce",
              "type": "uint256"
            },
            {
              "internalType": "uint8",
              "name": "chainId",
              "type": "uint8"
            },
            {
              "internalType": "bytes",
              "name": "from",
              "type": "bytes"
            },
            {
              "internalType": "string",
              "name": "to",
              "type": "string"
            },
            {
              "internalType": "bytes",
              "name": "data",
              "type": "bytes"
            },
            {
              "internalType": "bytes",
              "name": "signature",
              "type": "bytes"
            }
          ],
          "internalType": "struct OmniverseTokenProtocol",
          "name": "_data",
          "type": "tuple"
        }
      ],
      "name": "getTransactionHash",
      "outputs": [
        {
          "internalType": "bytes32",
          "name": "",
          "type": "bytes32"
        }
      ],
      "stateMutability": "pure",
      "type": "function"
    },
    {
      "inputs": [
        {
          "internalType": "bytes32",
          "name": "_hash",
          "type": "bytes32"
        },
        {
          "internalType": "bytes",
          "name": "_signature",
          "type": "bytes"
        }
      ],
      "name": "recoverAddress",
      "outputs": [
        {
          "internalType": "address",
          "name": "",
          "type": "address"
        }
      ],
      "stateMutability": "pure",
      "type": "function"
    },
    {
      "inputs": [
        {
          "internalType": "bytes",
          "name": "_pk",
          "type": "bytes"
        },
        {
          "internalType": "address",
          "name": "_address",
          "type": "address"
        }
      ],
      "name": "checkPkMatched",
      "outputs": [],
      "stateMutability": "pure",
      "type": "function"
    }
  ],
  "bytecode": "0x6116fd610053600b82828239805160001a607314610046577f4e487b7100000000000000000000000000000000000000000000000000000000600052600060045260246000fd5b30600052607381538281f3fe73000000000000000000000000000000000000000030146080604052600436106100565760003560e01c8063028120f41461005b578063b25572fd1461008b578063c655d7aa146100c8578063ea0e41c2146100f8575b600080fd5b61007560048036038101906100709190610d86565b610114565b6040516100829190610de8565b60405180910390f35b81801561009757600080fd5b506100b260048036038101906100ad9190610e39565b6102db565b6040516100bf9190610f0c565b60405180910390f35b6100e260048036038101906100dd9190610f53565b610766565b6040516100ef9190610ff0565b60405180910390f35b610112600480360381019061010d9190611037565b610851565b005b600060606000808460800151806020019051810190610133919061114b565b91509150600260ff168260ff1614156101885760008180602001905181019061015c91906111bc565b90508281604051602001610171929190611271565b60405160208183030381529060405293505061028c565b600160ff168260ff1614156101df57600080828060200190518101906101ae919061129d565b915091508382826040516020016101c793929190611340565b6040516020818303038152906040529450505061028b565b600060ff168260ff1614156102365760008082806020019051810190610205919061129d565b9150915083828260405160200161021e93929190611340565b6040516020818303038152906040529450505061028a565b600360ff168260ff161415610289576000808280602001905181019061025c919061129d565b9150915083828260405160200161027593929190611340565b604051602081830303815290604052945050505b5b5b5b60008560000151866020015187604001518860600151876040516020016102b79594939291906113c0565b60405160208183030381529060405290508080519060200120945050505050919050565b6000808360000180549050905060006102f384610114565b90506000610305828660a00151610766565b9050610315856040015182610851565b846000015183141561032d5760009350505050610760565b84600001518311156107255760008660000186600001518154811061035557610354611413565b5b9060005260206000209060070201905060006105ed826000016040518060c0016040529081600082015481526020016001820160009054906101000a900460ff1660ff1660ff1681526020016002820180546103b090611471565b80601f01602080910402602001604051908101604052809291908181526020018280546103dc90611471565b80156104295780601f106103fe57610100808354040283529160200191610429565b820191906000526020600020905b81548152906001019060200180831161040c57829003601f168201915b5050505050815260200160038201805461044290611471565b80601f016020809104026020016040519081016040528092919081815260200182805461046e90611471565b80156104bb5780601f10610490576101008083540402835291602001916104bb565b820191906000526020600020905b81548152906001019060200180831161049e57829003601f168201915b505050505081526020016004820180546104d490611471565b80601f016020809104026020016040519081016040528092919081815260200182805461050090611471565b801561054d5780601f106105225761010080835404028352916020019161054d565b820191906000526020600020905b81548152906001019060200180831161053057829003601f168201915b5050505050815260200160058201805461056690611471565b80601f016020809104026020016040519081016040528092919081815260200182805461059290611471565b80156105df5780601f106105b4576101008083540402835291602001916105df565b820191906000526020600020905b8154815290600101906020018083116105c257829003601f168201915b505050505081525050610114565b90508381146106ea57600088600101600181600181540180825580915050039060005260206000209060080201905085816007018190555087816000016000016000820151816000015560208201518160010160006101000a81548160ff021916908360ff16021790555060408201518160020190805190602001906106749291906108d9565b50606082015181600301908051906020019061069192919061095f565b5060808201518160040190805190602001906106ae9291906108d9565b5060a08201518160050190805190602001906106cb9291906108d9565b5090505042816000016006018190555060019650505050505050610760565b6040517f08c379a000000000000000000000000000000000000000000000000000000000815260040161071c90611500565b60405180910390fd5b6040517f08c379a00000000000000000000000000000000000000000000000000000000081526004016107579061156c565b60405180910390fd5b92915050565b6000806000806020850151915060408501519050604185015192506000600187858585604051600081526020016040526040516107a694939291906115aa565b6020604051602081039080840390855afa1580156107c8573d6000803e3d6000fd5b505050602060405103519050600073ffffffffffffffffffffffffffffffffffffffff168173ffffffffffffffffffffffffffffffffffffffff161415610844576040517f08c379a000000000000000000000000000000000000000000000000000000000815260040161083b9061163b565b60405180910390fd5b8094505050505092915050565b60008280519060200120905060008160001c90508073ffffffffffffffffffffffffffffffffffffffff168373ffffffffffffffffffffffffffffffffffffffff16146108d3576040517f08c379a00000000000000000000000000000000000000000000000000000000081526004016108ca906116a7565b60405180910390fd5b50505050565b8280546108e590611471565b90600052602060002090601f016020900481019282610907576000855561094e565b82601f1061092057805160ff191683800117855561094e565b8280016001018555821561094e579182015b8281111561094d578251825591602001919060010190610932565b5b50905061095b91906109e5565b5090565b82805461096b90611471565b90600052602060002090601f01602090048101928261098d57600085556109d4565b82601f106109a657805160ff19168380011785556109d4565b828001600101855582156109d4579182015b828111156109d35782518255916020019190600101906109b8565b5b5090506109e191906109e5565b5090565b5b808211156109fe5760008160009055506001016109e6565b5090565b6000604051905090565b600080fd5b600080fd5b600080fd5b6000601f19601f8301169050919050565b7f4e487b7100000000000000000000000000000000000000000000000000000000600052604160045260246000fd5b610a6482610a1b565b810181811067ffffffffffffffff82111715610a8357610a82610a2c565b5b80604052505050565b6000610a96610a02565b9050610aa28282610a5b565b919050565b600080fd5b6000819050919050565b610abf81610aac565b8114610aca57600080fd5b50565b600081359050610adc81610ab6565b92915050565b600060ff82169050919050565b610af881610ae2565b8114610b0357600080fd5b50565b600081359050610b1581610aef565b92915050565b600080fd5b600080fd5b600067ffffffffffffffff821115610b4057610b3f610a2c565b5b610b4982610a1b565b9050602081019050919050565b82818337600083830152505050565b6000610b78610b7384610b25565b610a8c565b905082815260208101848484011115610b9457610b93610b20565b5b610b9f848285610b56565b509392505050565b600082601f830112610bbc57610bbb610b1b565b5b8135610bcc848260208601610b65565b91505092915050565b600067ffffffffffffffff821115610bf057610bef610a2c565b5b610bf982610a1b565b9050602081019050919050565b6000610c19610c1484610bd5565b610a8c565b905082815260208101848484011115610c3557610c34610b20565b5b610c40848285610b56565b509392505050565b600082601f830112610c5d57610c5c610b1b565b5b8135610c6d848260208601610c06565b91505092915050565b600060c08284031215610c8c57610c8b610a16565b5b610c9660c0610a8c565b90506000610ca684828501610acd565b6000830152506020610cba84828501610b06565b602083015250604082013567ffffffffffffffff811115610cde57610cdd610aa7565b5b610cea84828501610ba7565b604083015250606082013567ffffffffffffffff811115610d0e57610d0d610aa7565b5b610d1a84828501610c48565b606083015250608082013567ffffffffffffffff811115610d3e57610d3d610aa7565b5b610d4a84828501610ba7565b60808301525060a082013567ffffffffffffffff811115610d6e57610d6d610aa7565b5b610d7a84828501610ba7565b60a08301525092915050565b600060208284031215610d9c57610d9b610a0c565b5b600082013567ffffffffffffffff811115610dba57610db9610a11565b5b610dc684828501610c76565b91505092915050565b6000819050919050565b610de281610dcf565b82525050565b6000602082019050610dfd6000830184610dd9565b92915050565b6000819050919050565b610e1681610e03565b8114610e2157600080fd5b50565b600081359050610e3381610e0d565b92915050565b60008060408385031215610e5057610e4f610a0c565b5b6000610e5e85828601610e24565b925050602083013567ffffffffffffffff811115610e7f57610e7e610a11565b5b610e8b85828601610c76565b9150509250929050565b7f4e487b7100000000000000000000000000000000000000000000000000000000600052602160045260246000fd5b60028110610ed557610ed4610e95565b5b50565b6000819050610ee682610ec4565b919050565b6000610ef682610ed8565b9050919050565b610f0681610eeb565b82525050565b6000602082019050610f216000830184610efd565b92915050565b610f3081610dcf565b8114610f3b57600080fd5b50565b600081359050610f4d81610f27565b92915050565b60008060408385031215610f6a57610f69610a0c565b5b6000610f7885828601610f3e565b925050602083013567ffffffffffffffff811115610f9957610f98610a11565b5b610fa585828601610ba7565b9150509250929050565b600073ffffffffffffffffffffffffffffffffffffffff82169050919050565b6000610fda82610faf565b9050919050565b610fea81610fcf565b82525050565b60006020820190506110056000830184610fe1565b92915050565b61101481610fcf565b811461101f57600080fd5b50565b6000813590506110318161100b565b92915050565b6000806040838503121561104e5761104d610a0c565b5b600083013567ffffffffffffffff81111561106c5761106b610a11565b5b61107885828601610ba7565b925050602061108985828601611022565b9150509250929050565b6000815190506110a281610aef565b92915050565b60005b838110156110c65780820151818401526020810190506110ab565b838111156110d5576000848401525b50505050565b60006110ee6110e984610b25565b610a8c565b90508281526020810184848401111561110a57611109610b20565b5b6111158482856110a8565b509392505050565b600082601f83011261113257611131610b1b565b5b81516111428482602086016110db565b91505092915050565b6000806040838503121561116257611161610a0c565b5b600061117085828601611093565b925050602083015167ffffffffffffffff81111561119157611190610a11565b5b61119d8582860161111d565b9150509250929050565b6000815190506111b681610ab6565b92915050565b6000602082840312156111d2576111d1610a0c565b5b60006111e0848285016111a7565b91505092915050565b60008160f81b9050919050565b6000611201826111e9565b9050919050565b61121961121482610ae2565b6111f6565b82525050565b60006fffffffffffffffffffffffffffffffff82169050919050565b60008160801b9050919050565b60006112538261123b565b9050919050565b61126b6112668261121f565b611248565b82525050565b600061127d8285611208565b60018201915061128d828461125a565b6010820191508190509392505050565b600080604083850312156112b4576112b3610a0c565b5b600083015167ffffffffffffffff8111156112d2576112d1610a11565b5b6112de8582860161111d565b92505060206112ef858286016111a7565b9150509250929050565b600081519050919050565b600081905092915050565b600061131a826112f9565b6113248185611304565b93506113348185602086016110a8565b80840191505092915050565b600061134c8286611208565b60018201915061135c828561130f565b9150611368828461125a565b601082019150819050949350505050565b600081519050919050565b600081905092915050565b600061139a82611379565b6113a48185611384565b93506113b48185602086016110a8565b80840191505092915050565b60006113cc828861125a565b6010820191506113dc8287611208565b6001820191506113ec828661130f565b91506113f8828561138f565b9150611404828461130f565b91508190509695505050505050565b7f4e487b7100000000000000000000000000000000000000000000000000000000600052603260045260246000fd5b7f4e487b7100000000000000000000000000000000000000000000000000000000600052602260045260246000fd5b6000600282049050600182168061148957607f821691505b6020821081141561149d5761149c611442565b5b50919050565b600082825260208201905092915050565b7f5472616e73616374696f6e206475706c69636174656400000000000000000000600082015250565b60006114ea6016836114a3565b91506114f5826114b4565b602082019050919050565b60006020820190508181036000830152611519816114dd565b9050919050565b7f4e6f6e6365206572726f72000000000000000000000000000000000000000000600082015250565b6000611556600b836114a3565b915061156182611520565b602082019050919050565b6000602082019050818103600083015261158581611549565b9050919050565b61159581610dcf565b82525050565b6115a481610ae2565b82525050565b60006080820190506115bf600083018761158c565b6115cc602083018661159b565b6115d9604083018561158c565b6115e6606083018461158c565b95945050505050565b7f5369676e617475726520766572696679696e67206661696c6564000000000000600082015250565b6000611625601a836114a3565b9150611630826115ef565b602082019050919050565b6000602082019050818103600083015261165481611618565b9050919050565b7f53656e646572206e6f74207369676e6572000000000000000000000000000000600082015250565b60006116916011836114a3565b915061169c8261165b565b602082019050919050565b600060208201905081810360008301526116c081611684565b905091905056fea26469706673582212208259ba57b44fee66ac6b9207bb83d04d1ef3f46c452d67452305586249866f2764736f6c634300080c0033",
  "immutableReferences": {},
  "source": "// SPDX-License-Identifier: MIT\npragma solidity >=0.8.0 <0.9.0;\n\nimport \"./OmniverseData.sol\";\n\nenum VerifyResult {\n    Success,\n    Malicious\n}\n\nlibrary OmniverseProtocol {\n    /**\n     * @dev Get the hash of a tx\n     */\n    function getTransactionHash(OmniverseTokenProtocol memory _data) public pure returns (bytes32) {\n        bytes memory bData;\n        (uint8 op, bytes memory wrappedData) = abi.decode(_data.data, (uint8, bytes));\n        if (op == WITHDRAW) {\n            (uint256 amount) = abi.decode(wrappedData, (uint256));\n            bData = abi.encodePacked(op, uint128(amount));\n        }\n        else if (op == TRANSFER) {\n            (bytes memory to, uint256 amount) = abi.decode(wrappedData, (bytes, uint256));\n            bData = abi.encodePacked(op, to, uint128(amount));\n        }\n        else if (op == DEPOSIT) {\n            (bytes memory to, uint256 amount) = abi.decode(wrappedData, (bytes, uint256));\n            bData = abi.encodePacked(op, to, uint128(amount));\n        }\n        else if (op == MINT) {\n            (bytes memory to, uint256 amount) = abi.decode(wrappedData, (bytes, uint256));\n            bData = abi.encodePacked(op, to, uint128(amount));\n        }\n        bytes memory rawData = abi.encodePacked(uint128(_data.nonce), _data.chainId, _data.from, _data.to, bData);\n        return keccak256(rawData);\n    }\n\n    /**\n     * @dev Recover the address\n     */\n    function recoverAddress(bytes32 _hash, bytes memory _signature) public pure returns (address) {\n        uint8 v;\n        bytes32 r;\n        bytes32 s;\n        assembly {\n            r := mload(add(_signature, 32))\n            s := mload(add(_signature, 64))\n            v := mload(add(_signature, 65))\n        }\n        address recovered = ecrecover(_hash, v, r, s);\n        require(recovered != address(0), \"Signature verifying failed\");\n        return recovered;\n    }\n\n    /**\n     * @dev Check if the public key matches the recovered address\n     */\n    function checkPkMatched(bytes memory _pk, address _address) public pure {\n        bytes32 hash = keccak256(_pk);\n        address pkAddress = address(uint160(uint256(hash)));\n        require(_address == pkAddress, \"Sender not signer\");\n    }\n\n    function verifyTransaction(RecordedCertificate storage rc, OmniverseTokenProtocol memory _data) public returns (VerifyResult) {\n        uint256 nonce = rc.txList.length;\n        \n        bytes32 txHash = getTransactionHash(_data);\n        address recoveredAddress = recoverAddress(txHash, _data.signature);\n        // Signature verified failed\n        checkPkMatched(_data.from, recoveredAddress);\n\n        // Check nonce\n        if (nonce == _data.nonce) {\n            return VerifyResult.Success;\n        }\n        else if (nonce > _data.nonce) {\n            // The message has been received, check conflicts\n            OmniverseTx storage hisTx = rc.txList[_data.nonce];\n            bytes32 hisTxHash = getTransactionHash(hisTx.txData);\n            if (hisTxHash != txHash) {\n                // to be continued, add to evil list, but can not be duplicated\n                EvilTxData storage evilTx = rc.evilTxList.push();\n                evilTx.hisNonce = nonce;\n                evilTx.txData.txData = _data;\n                evilTx.txData.timestamp = block.timestamp;\n                return VerifyResult.Malicious;\n            }\n            else {\n                revert(\"Transaction duplicated\");\n            }\n        }\n        else {\n            revert(\"Nonce error\");\n        }\n    }\n}",
  "sourcePath": "/home/george/program/dante/omniverse-evm/contracts/contracts/OmniverseProtocol.sol",
  "compiler": {
    "name": "solc",
    "version": "0.8.12+commit.f00d7308.Emscripten.clang"
  },
  "schemaVersion": "3.4.6",
  "updatedAt": "2023-01-11T04:22:26.002Z",
  "devdoc": {
    "kind": "dev",
    "methods": {
      "checkPkMatched(bytes,address)": {
        "details": "Check if the public key matches the recovered address"
      },
      "getTransactionHash(OmniverseTokenProtocol)": {
        "details": "Get the hash of a tx"
      },
      "recoverAddress(bytes32,bytes)": {
        "details": "Recover the address"
      }
    },
    "version": 1
  },
  "userdoc": {
    "kind": "user",
    "methods": {},
    "version": 1
  }
}