{
  "contractName": "OmniverseProtocol",
  "abi": [
    {
      "inputs": [
        {
          "internalType": "uint8",
          "name": "_chainId",
          "type": "uint8"
        }
      ],
      "stateMutability": "nonpayable",
      "type": "constructor"
    },
    {
      "anonymous": false,
      "inputs": [
        {
          "indexed": false,
          "internalType": "bytes",
          "name": "pk",
          "type": "bytes"
        },
        {
          "indexed": false,
          "internalType": "uint256",
          "name": "nonce",
          "type": "uint256"
        }
      ],
      "name": "TransactionSent",
      "type": "event"
    },
    {
      "inputs": [],
      "name": "cdTime",
      "outputs": [
        {
          "internalType": "uint256",
          "name": "",
          "type": "uint256"
        }
      ],
      "stateMutability": "view",
      "type": "function",
      "constant": true
    },
    {
      "inputs": [
        {
          "components": [
            {
              "internalType": "uint256",
              "name": "nonce",
              "type": "uint256"
            },
            {
              "internalType": "uint8",
              "name": "chainId",
              "type": "uint8"
            },
            {
              "internalType": "bytes",
              "name": "from",
              "type": "bytes"
            },
            {
              "internalType": "string",
              "name": "to",
              "type": "string"
            },
            {
              "internalType": "bytes",
              "name": "data",
              "type": "bytes"
            },
            {
              "internalType": "bytes",
              "name": "signature",
              "type": "bytes"
            }
          ],
          "internalType": "struct OmniverseTokenProtocol",
          "name": "_data",
          "type": "tuple"
        }
      ],
      "name": "verifyTransaction",
      "outputs": [
        {
          "internalType": "enum VerifyResult",
          "name": "",
          "type": "uint8"
        }
      ],
      "stateMutability": "nonpayable",
      "type": "function"
    },
    {
      "inputs": [
        {
          "internalType": "bytes",
          "name": "_pk",
          "type": "bytes"
        }
      ],
      "name": "getTransactionCount",
      "outputs": [
        {
          "internalType": "uint256",
          "name": "",
          "type": "uint256"
        }
      ],
      "stateMutability": "view",
      "type": "function",
      "constant": true
    },
    {
      "inputs": [
        {
          "internalType": "bytes",
          "name": "_user",
          "type": "bytes"
        },
        {
          "internalType": "uint256",
          "name": "_nonce",
          "type": "uint256"
        }
      ],
      "name": "getTransactionData",
      "outputs": [
        {
          "components": [
            {
              "internalType": "uint256",
              "name": "nonce",
              "type": "uint256"
            },
            {
              "internalType": "uint8",
              "name": "chainId",
              "type": "uint8"
            },
            {
              "internalType": "bytes",
              "name": "from",
              "type": "bytes"
            },
            {
              "internalType": "string",
              "name": "to",
              "type": "string"
            },
            {
              "internalType": "bytes",
              "name": "data",
              "type": "bytes"
            },
            {
              "internalType": "bytes",
              "name": "signature",
              "type": "bytes"
            }
          ],
          "internalType": "struct OmniverseTokenProtocol",
          "name": "txData",
          "type": "tuple"
        },
        {
          "internalType": "uint256",
          "name": "timestamp",
          "type": "uint256"
        }
      ],
      "stateMutability": "view",
      "type": "function",
      "constant": true
    },
    {
      "inputs": [],
      "name": "getCoolingDownTime",
      "outputs": [
        {
          "internalType": "uint256",
          "name": "",
          "type": "uint256"
        }
      ],
      "stateMutability": "view",
      "type": "function",
      "constant": true
    },
    {
      "inputs": [
        {
          "internalType": "uint256",
          "name": "_time",
          "type": "uint256"
        }
      ],
      "name": "setCooingDownTime",
      "outputs": [],
      "stateMutability": "nonpayable",
      "type": "function"
    },
    {
      "inputs": [],
      "name": "getChainId",
      "outputs": [
        {
          "internalType": "uint8",
          "name": "",
          "type": "uint8"
        }
      ],
      "stateMutability": "view",
      "type": "function",
      "constant": true
    },
    {
      "inputs": [
        {
          "internalType": "bytes",
          "name": "_pk",
          "type": "bytes"
        }
      ],
      "name": "isMalicious",
      "outputs": [
        {
          "internalType": "bool",
          "name": "",
          "type": "bool"
        }
      ],
      "stateMutability": "view",
      "type": "function",
      "constant": true
    }
  ],
  "bytecode": "0x60806040523480156200001157600080fd5b50604051620026d7380380620026d783398181016040528101906200003791906200009b565b806000806101000a81548160ff021916908360ff16021790555050620000cd565b600080fd5b600060ff82169050919050565b62000075816200005d565b81146200008157600080fd5b50565b60008151905062000095816200006a565b92915050565b600060208284031215620000b457620000b362000058565b5b6000620000c48482850162000084565b91505092915050565b6125fa80620000dd6000396000f3fe608060405234801561001057600080fd5b50600436106100885760003560e01c806339aaa2811161005b57806339aaa281146101275780636f06f7b814610158578063df097cac14610176578063edb6e6151461019457610088565b806319ea3bed1461008d5780632b506660146100a95780633408e470146100d95780633713bb53146100f7575b600080fd5b6100a760048036038101906100a29190610f58565b6101c4565b005b6100c360048036038101906100be91906110cb565b6101ce565b6040516100d09190611123565b60405180910390f35b6100e16101fc565b6040516100ee919061115a565b60405180910390f35b610111600480360381019061010c91906110cb565b610212565b60405161011e9190611190565b60405180910390f35b610141600480360381019061013c919061120b565b610248565b60405161014f929190611404565b60405180910390f35b61016061052e565b60405161016d9190611123565b60405180910390f35b61017e610538565b60405161018b9190611123565b60405180910390f35b6101ae60048036038101906101a99190611458565b61053e565b6040516101bb9190611518565b60405180910390f35b8060018190555050565b60006002826040516101e0919061156f565b9081526020016040518091039020600001805490509050919050565b60008060009054906101000a900460ff16905090565b600080600283604051610225919061156f565b908152602001604051809103902090506000816001018054905011915050919050565b610250610ed5565b600080600286866040516102659291906115ab565b90815260200160405180910390209050600081600001858154811061028d5761028c6115c4565b5b90600052602060002090600702019050806000016040518060c0016040529081600082015481526020016001820160009054906101000a900460ff1660ff1660ff1681526020016002820180546102e390611622565b80601f016020809104026020016040519081016040528092919081815260200182805461030f90611622565b801561035c5780601f106103315761010080835404028352916020019161035c565b820191906000526020600020905b81548152906001019060200180831161033f57829003601f168201915b5050505050815260200160038201805461037590611622565b80601f01602080910402602001604051908101604052809291908181526020018280546103a190611622565b80156103ee5780601f106103c3576101008083540402835291602001916103ee565b820191906000526020600020905b8154815290600101906020018083116103d157829003601f168201915b5050505050815260200160048201805461040790611622565b80601f016020809104026020016040519081016040528092919081815260200182805461043390611622565b80156104805780601f1061045557610100808354040283529160200191610480565b820191906000526020600020905b81548152906001019060200180831161046357829003601f168201915b5050505050815260200160058201805461049990611622565b80601f01602080910402602001604051908101604052809291908181526020018280546104c590611622565b80156105125780601f106104e757610100808354040283529160200191610512565b820191906000526020600020905b8154815290600101906020018083116104f557829003601f168201915b5050505050815250509350806006015492505050935093915050565b6000600154905090565b60015481565b60008060028380604001906105539190611663565b6040516105619291906115ab565b90815260200160405180910390209050600060028480604001906105859190611663565b6040516105939291906115ab565b908152602001604051809103902060000180549050905060006105be856105b9906118ad565b610b9b565b9050600061061e82878060a001906105d69190611663565b8080601f016020809104026020016040519081016040528093929190818152602001838380828437600081840152601f19601f82011690508083019250505050505050610d62565b905061067c8680604001906106339190611663565b8080601f016020809104026020016040519081016040528093929190818152602001838380828437600081840152601f19601f8201169050808301925050505050505082610e4d565b85600001358314156107ec57600080856000018054905011156106d75784600001600186600001805490506106b191906118ef565b815481106106c2576106c16115c4565b5b90600052602060002090600702016006015490505b600154816106e59190611923565b421015610727576040517f08c379a000000000000000000000000000000000000000000000000000000000815260040161071e906119d6565b60405180910390fd5b6000856000016001816001815401808255809150500390600052602060002090600702019050428160060181905550878160000181816107679190612010565b90505060008054906101000a900460ff1660ff1688602001602081019061078e919061201e565b60ff1614156107e5577f101abacb8de0d05456bbaf85756276fd0c5225e9ede84f539855df28aba51a7e8880604001906107c89190611663565b8a600001356040516107dc93929190612089565b60405180910390a15b5050610b8d565b8560000135831115610b5257600084600001876000013581548110610814576108136115c4565b5b906000526020600020906007020190506000610aac826000016040518060c0016040529081600082015481526020016001820160009054906101000a900460ff1660ff1660ff16815260200160028201805461086f90611622565b80601f016020809104026020016040519081016040528092919081815260200182805461089b90611622565b80156108e85780601f106108bd576101008083540402835291602001916108e8565b820191906000526020600020905b8154815290600101906020018083116108cb57829003601f168201915b5050505050815260200160038201805461090190611622565b80601f016020809104026020016040519081016040528092919081815260200182805461092d90611622565b801561097a5780601f1061094f5761010080835404028352916020019161097a565b820191906000526020600020905b81548152906001019060200180831161095d57829003601f168201915b5050505050815260200160048201805461099390611622565b80601f01602080910402602001604051908101604052809291908181526020018280546109bf90611622565b8015610a0c5780601f106109e157610100808354040283529160200191610a0c565b820191906000526020600020905b8154815290600101906020018083116109ef57829003601f168201915b50505050508152602001600582018054610a2590611622565b80601f0160208091040260200160405190810160405280929190818152602001828054610a5190611622565b8015610a9e5780601f10610a7357610100808354040283529160200191610a9e565b820191906000526020600020905b815481529060010190602001808311610a8157829003601f168201915b505050505081525050610b9b565b9050838114610b1757600086600101600181600181540180825580915050039060005260206000209060080201905085816007018190555088816000016000018181610af89190612010565b9050504281600001600601819055506001975050505050505050610b96565b6040517f08c379a0000000000000000000000000000000000000000000000000000000008152600401610b4990612107565b60405180910390fd5b6040517f08c379a0000000000000000000000000000000000000000000000000000000008152600401610b8490612173565b60405180910390fd5b60009450505050505b919050565b600060606000808460800151806020019051810190610bba9190612218565b91509150600260ff168260ff161415610c0f57600081806020019051810190610be39190612289565b90508281604051602001610bf892919061233e565b604051602081830303815290604052935050610d13565b600160ff168260ff161415610c665760008082806020019051810190610c35919061236a565b91509150838282604051602001610c4e939291906123c6565b60405160208183030381529060405294505050610d12565b600060ff168260ff161415610cbd5760008082806020019051810190610c8c919061236a565b91509150838282604051602001610ca5939291906123c6565b60405160208183030381529060405294505050610d11565b600360ff168260ff161415610d105760008082806020019051810190610ce3919061236a565b91509150838282604051602001610cfc939291906123c6565b604051602081830303815290604052945050505b5b5b5b6000856000015186602001518760400151886060015187604051602001610d3e95949392919061243b565b60405160208183030381529060405290508080519060200120945050505050919050565b600080600080602085015191506040850151905060418501519250600060018785858560405160008152602001604052604051610da294939291906124a7565b6020604051602081039080840390855afa158015610dc4573d6000803e3d6000fd5b505050602060405103519050600073ffffffffffffffffffffffffffffffffffffffff168173ffffffffffffffffffffffffffffffffffffffff161415610e40576040517f08c379a0000000000000000000000000000000000000000000000000000000008152600401610e3790612538565b60405180910390fd5b8094505050505092915050565b60008280519060200120905060008160001c90508073ffffffffffffffffffffffffffffffffffffffff168373ffffffffffffffffffffffffffffffffffffffff1614610ecf576040517f08c379a0000000000000000000000000000000000000000000000000000000008152600401610ec6906125a4565b60405180910390fd5b50505050565b6040518060c0016040528060008152602001600060ff168152602001606081526020016060815260200160608152602001606081525090565b6000604051905090565b600080fd5b600080fd5b6000819050919050565b610f3581610f22565b8114610f4057600080fd5b50565b600081359050610f5281610f2c565b92915050565b600060208284031215610f6e57610f6d610f18565b5b6000610f7c84828501610f43565b91505092915050565b600080fd5b600080fd5b6000601f19601f8301169050919050565b7f4e487b7100000000000000000000000000000000000000000000000000000000600052604160045260246000fd5b610fd882610f8f565b810181811067ffffffffffffffff82111715610ff757610ff6610fa0565b5b80604052505050565b600061100a610f0e565b90506110168282610fcf565b919050565b600067ffffffffffffffff82111561103657611035610fa0565b5b61103f82610f8f565b9050602081019050919050565b82818337600083830152505050565b600061106e6110698461101b565b611000565b90508281526020810184848401111561108a57611089610f8a565b5b61109584828561104c565b509392505050565b600082601f8301126110b2576110b1610f85565b5b81356110c284826020860161105b565b91505092915050565b6000602082840312156110e1576110e0610f18565b5b600082013567ffffffffffffffff8111156110ff576110fe610f1d565b5b61110b8482850161109d565b91505092915050565b61111d81610f22565b82525050565b60006020820190506111386000830184611114565b92915050565b600060ff82169050919050565b6111548161113e565b82525050565b600060208201905061116f600083018461114b565b92915050565b60008115159050919050565b61118a81611175565b82525050565b60006020820190506111a56000830184611181565b92915050565b600080fd5b600080fd5b60008083601f8401126111cb576111ca610f85565b5b8235905067ffffffffffffffff8111156111e8576111e76111ab565b5b602083019150836001820283011115611204576112036111b0565b5b9250929050565b60008060006040848603121561122457611223610f18565b5b600084013567ffffffffffffffff81111561124257611241610f1d565b5b61124e868287016111b5565b9350935050602061126186828701610f43565b9150509250925092565b61127481610f22565b82525050565b6112838161113e565b82525050565b600081519050919050565b600082825260208201905092915050565b60005b838110156112c35780820151818401526020810190506112a8565b838111156112d2576000848401525b50505050565b60006112e382611289565b6112ed8185611294565b93506112fd8185602086016112a5565b61130681610f8f565b840191505092915050565b600081519050919050565b600082825260208201905092915050565b600061133882611311565b611342818561131c565b93506113528185602086016112a5565b61135b81610f8f565b840191505092915050565b600060c08301600083015161137e600086018261126b565b506020830151611391602086018261127a565b50604083015184820360408601526113a982826112d8565b915050606083015184820360608601526113c3828261132d565b915050608083015184820360808601526113dd82826112d8565b91505060a083015184820360a08601526113f782826112d8565b9150508091505092915050565b6000604082019050818103600083015261141e8185611366565b905061142d6020830184611114565b9392505050565b600080fd5b600060c0828403121561144f5761144e611434565b5b81905092915050565b60006020828403121561146e5761146d610f18565b5b600082013567ffffffffffffffff81111561148c5761148b610f1d565b5b61149884828501611439565b91505092915050565b7f4e487b7100000000000000000000000000000000000000000000000000000000600052602160045260246000fd5b600281106114e1576114e06114a1565b5b50565b60008190506114f2826114d0565b919050565b6000611502826114e4565b9050919050565b611512816114f7565b82525050565b600060208201905061152d6000830184611509565b92915050565b600081905092915050565b600061154982611289565b6115538185611533565b93506115638185602086016112a5565b80840191505092915050565b600061157b828461153e565b915081905092915050565b60006115928385611533565b935061159f83858461104c565b82840190509392505050565b60006115b8828486611586565b91508190509392505050565b7f4e487b7100000000000000000000000000000000000000000000000000000000600052603260045260246000fd5b7f4e487b7100000000000000000000000000000000000000000000000000000000600052602260045260246000fd5b6000600282049050600182168061163a57607f821691505b6020821081141561164e5761164d6115f3565b5b50919050565b600080fd5b600080fd5b600080fd5b600080833560016020038436030381126116805761167f611654565b5b80840192508235915067ffffffffffffffff8211156116a2576116a1611659565b5b6020830192506001820236038313156116be576116bd61165e565b5b509250929050565b600080fd5b600080fd5b6116d98161113e565b81146116e457600080fd5b50565b6000813590506116f6816116d0565b92915050565b600067ffffffffffffffff82111561171757611716610fa0565b5b61172082610f8f565b9050602081019050919050565b600061174061173b846116fc565b611000565b90508281526020810184848401111561175c5761175b610f8a565b5b61176784828561104c565b509392505050565b600082601f83011261178457611783610f85565b5b813561179484826020860161172d565b91505092915050565b600060c082840312156117b3576117b26116c6565b5b6117bd60c0611000565b905060006117cd84828501610f43565b60008301525060206117e1848285016116e7565b602083015250604082013567ffffffffffffffff811115611805576118046116cb565b5b6118118482850161109d565b604083015250606082013567ffffffffffffffff811115611835576118346116cb565b5b6118418482850161176f565b606083015250608082013567ffffffffffffffff811115611865576118646116cb565b5b6118718482850161109d565b60808301525060a082013567ffffffffffffffff811115611895576118946116cb565b5b6118a18482850161109d565b60a08301525092915050565b60006118b9368361179d565b9050919050565b7f4e487b7100000000000000000000000000000000000000000000000000000000600052601160045260246000fd5b60006118fa82610f22565b915061190583610f22565b925082821015611918576119176118c0565b5b828203905092915050565b600061192e82610f22565b915061193983610f22565b9250827fffffffffffffffffffffffffffffffffffffffffffffffffffffffffffffffff0382111561196e5761196d6118c0565b5b828201905092915050565b600082825260208201905092915050565b7f5472616e73616374696f6e20636f6f6c696e6720646f776e0000000000000000600082015250565b60006119c0601883611979565b91506119cb8261198a565b602082019050919050565b600060208201905081810360008301526119ef816119b3565b9050919050565b60008135611a0381610f2c565b80915050919050565b60008160001b9050919050565b60007fffffffffffffffffffffffffffffffffffffffffffffffffffffffffffffffff611a4584611a0c565b9350801983169250808416831791505092915050565b6000819050919050565b6000611a80611a7b611a7684610f22565b611a5b565b610f22565b9050919050565b6000819050919050565b611a9a82611a65565b611aad611aa682611a87565b8354611a19565b8255505050565b60008135611ac1816116d0565b80915050919050565b600060ff611ad784611a0c565b9350801983169250808416831791505092915050565b6000611b08611b03611afe8461113e565b611a5b565b61113e565b9050919050565b6000819050919050565b611b2282611aed565b611b35611b2e82611b0f565b8354611aca565b8255505050565b600082905092915050565b60008190508160005260206000209050919050565b60006020601f8301049050919050565b600082821b905092915050565b600060088302611ba97fffffffffffffffffffffffffffffffffffffffffffffffffffffffffffffffff82611b6c565b611bb38683611b6c565b95508019841693508086168417925050509392505050565b611bd483611a65565b611be8611be082611a87565b848454611b79565b825550505050565b600090565b611bfd611bf0565b611c08818484611bcb565b505050565b5b81811015611c2c57611c21600082611bf5565b600181019050611c0e565b5050565b601f821115611c7157611c4281611b47565b611c4b84611b5c565b81016020851015611c5a578190505b611c6e611c6685611b5c565b830182611c0d565b50505b505050565b600082821c905092915050565b6000611c9460001984600802611c76565b1980831691505092915050565b6000611cad8383611c83565b9150826002028217905092915050565b611cc78383611b3c565b67ffffffffffffffff811115611ce057611cdf610fa0565b5b611cea8254611622565b611cf5828285611c30565b6000601f831160018114611d245760008415611d12578287013590505b611d1c8582611ca1565b865550611d84565b601f198416611d3286611b47565b60005b82811015611d5a57848901358255600182019150602085019450602081019050611d35565b86831015611d775784890135611d73601f891682611c83565b8355505b6001600288020188555050505b50505050505050565b611d98838383611cbd565b505050565b60008083356001602003843603038112611dba57611db9611654565b5b80840192508235915067ffffffffffffffff821115611ddc57611ddb611659565b5b602083019250600182023603831315611df857611df761165e565b5b509250929050565b600082905092915050565b60008190508160005260206000209050919050565b601f821115611e6157611e3281611e0b565b611e3b84611b5c565b81016020851015611e4a578190505b611e5e611e5685611b5c565b830182611c0d565b50505b505050565b611e708383611e00565b67ffffffffffffffff811115611e8957611e88610fa0565b5b611e938254611622565b611e9e828285611e20565b6000601f831160018114611ecd5760008415611ebb578287013590505b611ec58582611ca1565b865550611f2d565b601f198416611edb86611e0b565b60005b82811015611f0357848901358255600182019150602085019450602081019050611ede565b86831015611f205784890135611f1c601f891682611c83565b8355505b6001600288020188555050505b50505050505050565b611f41838383611e66565b505050565b600081016000830180611f58816119f6565b9050611f648184611a91565b505050600181016020830180611f7981611ab4565b9050611f858184611b19565b5050506002810160408301611f9a8185611663565b611fa5818386611d8d565b505050506003810160608301611fbb8185611d9d565b611fc6818386611f36565b505050506004810160808301611fdc8185611663565b611fe7818386611d8d565b505050506005810160a08301611ffd8185611663565b612008818386611d8d565b505050505050565b61201a8282611f46565b5050565b60006020828403121561203457612033610f18565b5b6000612042848285016116e7565b91505092915050565b600082825260208201905092915050565b6000612068838561204b565b935061207583858461104c565b61207e83610f8f565b840190509392505050565b600060408201905081810360008301526120a481858761205c565b90506120b36020830184611114565b949350505050565b7f5472616e73616374696f6e206475706c69636174656400000000000000000000600082015250565b60006120f1601683611979565b91506120fc826120bb565b602082019050919050565b60006020820190508181036000830152612120816120e4565b9050919050565b7f4e6f6e6365206572726f72000000000000000000000000000000000000000000600082015250565b600061215d600b83611979565b915061216882612127565b602082019050919050565b6000602082019050818103600083015261218c81612150565b9050919050565b6000815190506121a2816116d0565b92915050565b60006121bb6121b68461101b565b611000565b9050828152602081018484840111156121d7576121d6610f8a565b5b6121e28482856112a5565b509392505050565b600082601f8301126121ff576121fe610f85565b5b815161220f8482602086016121a8565b91505092915050565b6000806040838503121561222f5761222e610f18565b5b600061223d85828601612193565b925050602083015167ffffffffffffffff81111561225e5761225d610f1d565b5b61226a858286016121ea565b9150509250929050565b60008151905061228381610f2c565b92915050565b60006020828403121561229f5761229e610f18565b5b60006122ad84828501612274565b91505092915050565b60008160f81b9050919050565b60006122ce826122b6565b9050919050565b6122e66122e18261113e565b6122c3565b82525050565b60006fffffffffffffffffffffffffffffffff82169050919050565b60008160801b9050919050565b600061232082612308565b9050919050565b612338612333826122ec565b612315565b82525050565b600061234a82856122d5565b60018201915061235a8284612327565b6010820191508190509392505050565b6000806040838503121561238157612380610f18565b5b600083015167ffffffffffffffff81111561239f5761239e610f1d565b5b6123ab858286016121ea565b92505060206123bc85828601612274565b9150509250929050565b60006123d282866122d5565b6001820191506123e2828561153e565b91506123ee8284612327565b601082019150819050949350505050565b600081905092915050565b600061241582611311565b61241f81856123ff565b935061242f8185602086016112a5565b80840191505092915050565b60006124478288612327565b60108201915061245782876122d5565b600182019150612467828661153e565b9150612473828561240a565b915061247f828461153e565b91508190509695505050505050565b6000819050919050565b6124a18161248e565b82525050565b60006080820190506124bc6000830187612498565b6124c9602083018661114b565b6124d66040830185612498565b6124e36060830184612498565b95945050505050565b7f5369676e617475726520766572696679696e67206661696c6564000000000000600082015250565b6000612522601a83611979565b915061252d826124ec565b602082019050919050565b6000602082019050818103600083015261255181612515565b9050919050565b7f53656e646572206e6f74207369676e6572000000000000000000000000000000600082015250565b600061258e601183611979565b915061259982612558565b602082019050919050565b600060208201905081810360008301526125bd81612581565b905091905056fea264697066735822122062912322189713bf0e1625a342b33c7066f99cdd9607fb1dddd92532c1a4447c64736f6c634300080c0033",
  "immutableReferences": {},
  "source": "// SPDX-License-Identifier: MIT\npragma solidity >=0.8.0 <0.9.0;\n\nimport \"./interfaces/IOmniverseProtocol.sol\";\n\ncontract OmniverseProtocol is IOmniverseProtocol {\n    struct OmniverseTx {\n        OmniverseTokenProtocol txData;\n        uint256 timestamp;\n    }\n\n    struct EvilTxData {\n        OmniverseTx txData;\n        uint256 hisNonce;\n    }\n\n    struct RecordedCertificate {\n        // uint256 nonce;\n        // address evmAddress;\n        OmniverseTx[] txList;\n        EvilTxData[] evilTxList;\n    }\n\n    uint8 private chainId;\n    uint256 public cdTime;\n    mapping(bytes => RecordedCertificate) transactionRecorder;\n\n    constructor(uint8 _chainId) {\n        chainId = _chainId;\n    }\n\n    /**\n     * @dev See IOmniverseProtocl\n     */\n    function verifyTransaction(OmniverseTokenProtocol calldata _data) external override returns (VerifyResult) {\n        RecordedCertificate storage rc = transactionRecorder[_data.from];\n        uint256 nonce = transactionRecorder[_data.from].txList.length;\n        \n        bytes32 txHash = _getTransactionHash(_data);\n        address recoveredAddress = _recoverAddress(txHash, _data.signature);\n        // Signature verified failed\n        _checkPkMatched(_data.from, recoveredAddress);\n\n        // Check nonce\n        if (nonce == _data.nonce) {\n            uint256 lastestTxTime = 0;\n            if (rc.txList.length > 0) {\n                lastestTxTime = rc.txList[rc.txList.length - 1].timestamp;\n            }\n            require(block.timestamp >= lastestTxTime + cdTime, \"Transaction cooling down\");\n            // Add to transaction recorder\n            OmniverseTx storage omniTx = rc.txList.push();\n            omniTx.timestamp = block.timestamp;\n            omniTx.txData = _data;\n            if (_data.chainId == chainId) {\n                emit TransactionSent(_data.from, _data.nonce);\n            }\n        }\n        else if (nonce > _data.nonce) {\n            // The message has been received, check conflicts\n            OmniverseTx storage hisTx = rc.txList[_data.nonce];\n            bytes32 hisTxHash = _getTransactionHash(hisTx.txData);\n            if (hisTxHash != txHash) {\n                // to be continued, add to evil list, but can not be duplicated\n                EvilTxData storage evilTx = rc.evilTxList.push();\n                evilTx.hisNonce = nonce;\n                evilTx.txData.txData = _data;\n                evilTx.txData.timestamp = block.timestamp;\n                return VerifyResult.Malicious;\n            }\n            else {\n                revert(\"Transaction duplicated\");\n            }\n        }\n        else {\n            revert(\"Nonce error\");\n        }\n        return VerifyResult.Success;\n    }\n\n    /**\n     * @dev See IOmniverseProtocl\n     */\n    function getTransactionCount(bytes memory _pk) external view override returns (uint256) {\n        return transactionRecorder[_pk].txList.length;\n    }\n\n    /**\n     * @dev Returns the transaction data of the user with a specified nonce\n     */\n    function getTransactionData(bytes calldata _user, uint256 _nonce) external view override returns (OmniverseTokenProtocol memory txData, uint256 timestamp) {\n        RecordedCertificate storage rc = transactionRecorder[_user];\n        OmniverseTx storage omniTx = rc.txList[_nonce];\n        txData = omniTx.txData;\n        timestamp = omniTx.timestamp;\n    }\n\n    /**\n     *\n     */\n    function getCoolingDownTime() external view override returns (uint256) {\n        return cdTime;\n    }\n\n    function setCooingDownTime(uint256 _time) external {\n        cdTime = _time;\n    }\n\n    /**\n     * @dev Returns the chain ID\n     */\n    function getChainId() external view override returns (uint8) {\n        return chainId;\n    }\n\n    /**\n     * @dev Get the hash of a tx\n     */\n    function _getTransactionHash(OmniverseTokenProtocol memory _data) internal pure returns (bytes32) {\n        bytes memory bData;\n        (uint8 op, bytes memory wrappedData) = abi.decode(_data.data, (uint8, bytes));\n        if (op == WITHDRAW) {\n            (uint256 amount) = abi.decode(wrappedData, (uint256));\n            bData = abi.encodePacked(op, uint128(amount));\n        }\n        else if (op == TRANSFER) {\n            (bytes memory to, uint256 amount) = abi.decode(wrappedData, (bytes, uint256));\n            bData = abi.encodePacked(op, to, uint128(amount));\n        }\n        else if (op == DEPOSIT) {\n            (bytes memory to, uint256 amount) = abi.decode(wrappedData, (bytes, uint256));\n            bData = abi.encodePacked(op, to, uint128(amount));\n        }\n        else if (op == MINT) {\n            (bytes memory to, uint256 amount) = abi.decode(wrappedData, (bytes, uint256));\n            bData = abi.encodePacked(op, to, uint128(amount));\n        }\n        bytes memory rawData = abi.encodePacked(uint128(_data.nonce), _data.chainId, _data.from, _data.to, bData);\n        return keccak256(rawData);\n    }\n\n    /**\n     * @dev Recover the address\n     */\n    function _recoverAddress(bytes32 _hash, bytes memory _signature) internal pure returns (address) {\n        uint8 v;\n        bytes32 r;\n        bytes32 s;\n        assembly {\n            r := mload(add(_signature, 32))\n            s := mload(add(_signature, 64))\n            v := mload(add(_signature, 65))\n        }\n        address recovered = ecrecover(_hash, v, r, s);\n        require(recovered != address(0), \"Signature verifying failed\");\n        return recovered;\n    }\n\n    /**\n     * @dev Check if the public key matches the recovered address\n     */\n    function _checkPkMatched(bytes memory _pk, address _address) internal pure {\n        bytes32 hash = keccak256(_pk);\n        address pkAddress = address(uint160(uint256(hash)));\n        require(_address == pkAddress, \"Sender not signer\");\n    }\n\n    /**\n     * @dev See IOmniverseProtocl\n     */\n    function isMalicious(bytes memory _pk) external view override returns (bool) {\n        RecordedCertificate storage rc = transactionRecorder[_pk];\n        return (rc.evilTxList.length > 0);\n    }\n}",
  "sourcePath": "/home/george/program/dante/omniverse-evm/contracts/contracts/OmniverseProtocol.sol",
  "compiler": {
    "name": "solc",
    "version": "0.8.12+commit.f00d7308.Emscripten.clang"
  },
  "schemaVersion": "3.4.6",
  "updatedAt": "2022-12-28T06:25:34.506Z",
  "networkType": "ethereum",
  "devdoc": {
    "kind": "dev",
    "methods": {
      "getChainId()": {
        "details": "Returns the chain ID"
      },
      "getCoolingDownTime()": {
        "details": "Returns the cooling down time"
      },
      "getTransactionCount(bytes)": {
        "details": "See IOmniverseProtocl"
      },
      "getTransactionData(bytes,uint256)": {
        "details": "Returns the transaction data of the user with a specified nonce"
      },
      "isMalicious(bytes)": {
        "details": "See IOmniverseProtocl"
      },
      "verifyTransaction((uint256,uint8,bytes,string,bytes,bytes))": {
        "details": "See IOmniverseProtocl"
      }
    },
    "version": 1
  },
  "userdoc": {
    "kind": "user",
    "methods": {},
    "version": 1
  }
}