{
  "contractName": "SkywalkerFungible",
  "abi": [
    {
      "inputs": [
        {
          "internalType": "uint8",
          "name": "_chainId",
          "type": "uint8"
        },
        {
          "internalType": "string",
          "name": "_tokenId",
          "type": "string"
        },
        {
          "internalType": "string",
          "name": "_name",
          "type": "string"
        },
        {
          "internalType": "string",
          "name": "_symbol",
          "type": "string"
        }
      ],
      "stateMutability": "nonpayable",
      "type": "constructor"
    },
    {
      "anonymous": false,
      "inputs": [
        {
          "indexed": true,
          "internalType": "address",
          "name": "owner",
          "type": "address"
        },
        {
          "indexed": true,
          "internalType": "address",
          "name": "spender",
          "type": "address"
        },
        {
          "indexed": false,
          "internalType": "uint256",
          "name": "value",
          "type": "uint256"
        }
      ],
      "name": "Approval",
      "type": "event"
    },
    {
      "anonymous": false,
      "inputs": [
        {
          "indexed": false,
          "internalType": "bytes",
          "name": "sender",
          "type": "bytes"
        },
        {
          "indexed": false,
          "internalType": "string",
          "name": "reason",
          "type": "string"
        }
      ],
      "name": "OmniverseError",
      "type": "event"
    },
    {
      "anonymous": false,
      "inputs": [
        {
          "indexed": false,
          "internalType": "bytes",
          "name": "sender",
          "type": "bytes"
        }
      ],
      "name": "OmniverseNotOwner",
      "type": "event"
    },
    {
      "anonymous": false,
      "inputs": [
        {
          "indexed": false,
          "internalType": "bytes",
          "name": "to",
          "type": "bytes"
        },
        {
          "indexed": false,
          "internalType": "uint256",
          "name": "value",
          "type": "uint256"
        }
      ],
      "name": "OmniverseTokenDeposit",
      "type": "event"
    },
    {
      "anonymous": false,
      "inputs": [
        {
          "indexed": false,
          "internalType": "bytes",
          "name": "from",
          "type": "bytes"
        },
        {
          "indexed": false,
          "internalType": "bytes",
          "name": "to",
          "type": "bytes"
        },
        {
          "indexed": false,
          "internalType": "uint256",
          "name": "value",
          "type": "uint256"
        }
      ],
      "name": "OmniverseTokenTransfer",
      "type": "event"
    },
    {
      "anonymous": false,
      "inputs": [
        {
          "indexed": false,
          "internalType": "bytes",
          "name": "from",
          "type": "bytes"
        },
        {
          "indexed": false,
          "internalType": "uint256",
          "name": "value",
          "type": "uint256"
        }
      ],
      "name": "OmniverseTokenWithdraw",
      "type": "event"
    },
    {
      "anonymous": false,
      "inputs": [
        {
          "indexed": false,
          "internalType": "bytes",
          "name": "sender",
          "type": "bytes"
        },
        {
          "indexed": false,
          "internalType": "uint8",
          "name": "op",
          "type": "uint8"
        }
      ],
      "name": "OmniverseTokenWrongOp",
      "type": "event"
    },
    {
      "anonymous": false,
      "inputs": [
        {
          "indexed": true,
          "internalType": "address",
          "name": "previousOwner",
          "type": "address"
        },
        {
          "indexed": true,
          "internalType": "address",
          "name": "newOwner",
          "type": "address"
        }
      ],
      "name": "OwnershipTransferred",
      "type": "event"
    },
    {
      "anonymous": false,
      "inputs": [
        {
          "indexed": false,
          "internalType": "bytes",
          "name": "pk",
          "type": "bytes"
        },
        {
          "indexed": false,
          "internalType": "uint256",
          "name": "nonce",
          "type": "uint256"
        }
      ],
      "name": "TransactionSent",
      "type": "event"
    },
    {
      "anonymous": false,
      "inputs": [
        {
          "indexed": true,
          "internalType": "address",
          "name": "from",
          "type": "address"
        },
        {
          "indexed": true,
          "internalType": "address",
          "name": "to",
          "type": "address"
        },
        {
          "indexed": false,
          "internalType": "uint256",
          "name": "value",
          "type": "uint256"
        }
      ],
      "name": "Transfer",
      "type": "event"
    },
    {
      "inputs": [
        {
          "internalType": "address",
          "name": "owner",
          "type": "address"
        },
        {
          "internalType": "address",
          "name": "spender",
          "type": "address"
        }
      ],
      "name": "allowance",
      "outputs": [
        {
          "internalType": "uint256",
          "name": "",
          "type": "uint256"
        }
      ],
      "stateMutability": "view",
      "type": "function"
    },
    {
      "inputs": [
        {
          "internalType": "address",
          "name": "spender",
          "type": "address"
        },
        {
          "internalType": "uint256",
          "name": "amount",
          "type": "uint256"
        }
      ],
      "name": "approve",
      "outputs": [
        {
          "internalType": "bool",
          "name": "",
          "type": "bool"
        }
      ],
      "stateMutability": "nonpayable",
      "type": "function"
    },
    {
      "inputs": [],
      "name": "cdTime",
      "outputs": [
        {
          "internalType": "uint256",
          "name": "",
          "type": "uint256"
        }
      ],
      "stateMutability": "view",
      "type": "function"
    },
    {
      "inputs": [],
      "name": "chainId",
      "outputs": [
        {
          "internalType": "uint8",
          "name": "",
          "type": "uint8"
        }
      ],
      "stateMutability": "view",
      "type": "function"
    },
    {
      "inputs": [],
      "name": "committee",
      "outputs": [
        {
          "internalType": "bytes",
          "name": "",
          "type": "bytes"
        }
      ],
      "stateMutability": "view",
      "type": "function"
    },
    {
      "inputs": [
        {
          "internalType": "address",
          "name": "spender",
          "type": "address"
        },
        {
          "internalType": "uint256",
          "name": "subtractedValue",
          "type": "uint256"
        }
      ],
      "name": "decreaseAllowance",
      "outputs": [
        {
          "internalType": "bool",
          "name": "",
          "type": "bool"
        }
      ],
      "stateMutability": "nonpayable",
      "type": "function"
    },
    {
      "inputs": [],
      "name": "depositDealingIndex",
      "outputs": [
        {
          "internalType": "uint256",
          "name": "",
          "type": "uint256"
        }
      ],
      "stateMutability": "view",
      "type": "function"
    },
    {
      "inputs": [
        {
          "internalType": "address",
          "name": "spender",
          "type": "address"
        },
        {
          "internalType": "uint256",
          "name": "addedValue",
          "type": "uint256"
        }
      ],
      "name": "increaseAllowance",
      "outputs": [
        {
          "internalType": "bool",
          "name": "",
          "type": "bool"
        }
      ],
      "stateMutability": "nonpayable",
      "type": "function"
    },
    {
      "inputs": [],
      "name": "name",
      "outputs": [
        {
          "internalType": "string",
          "name": "",
          "type": "string"
        }
      ],
      "stateMutability": "view",
      "type": "function"
    },
    {
      "inputs": [],
      "name": "owner",
      "outputs": [
        {
          "internalType": "address",
          "name": "",
          "type": "address"
        }
      ],
      "stateMutability": "view",
      "type": "function"
    },
    {
      "inputs": [],
      "name": "renounceOwnership",
      "outputs": [],
      "stateMutability": "nonpayable",
      "type": "function"
    },
    {
      "inputs": [],
      "name": "symbol",
      "outputs": [
        {
          "internalType": "string",
          "name": "",
          "type": "string"
        }
      ],
      "stateMutability": "view",
      "type": "function"
    },
    {
      "inputs": [],
      "name": "tokenIdentity",
      "outputs": [
        {
          "internalType": "string",
          "name": "",
          "type": "string"
        }
      ],
      "stateMutability": "view",
      "type": "function"
    },
    {
      "inputs": [],
      "name": "totalSupply",
      "outputs": [
        {
          "internalType": "uint256",
          "name": "",
          "type": "uint256"
        }
      ],
      "stateMutability": "view",
      "type": "function"
    },
    {
      "inputs": [
        {
          "internalType": "address",
          "name": "to",
          "type": "address"
        },
        {
          "internalType": "uint256",
          "name": "amount",
          "type": "uint256"
        }
      ],
      "name": "transfer",
      "outputs": [
        {
          "internalType": "bool",
          "name": "",
          "type": "bool"
        }
      ],
      "stateMutability": "nonpayable",
      "type": "function"
    },
    {
      "inputs": [
        {
          "internalType": "address",
          "name": "from",
          "type": "address"
        },
        {
          "internalType": "address",
          "name": "to",
          "type": "address"
        },
        {
          "internalType": "uint256",
          "name": "amount",
          "type": "uint256"
        }
      ],
      "name": "transferFrom",
      "outputs": [
        {
          "internalType": "bool",
          "name": "",
          "type": "bool"
        }
      ],
      "stateMutability": "nonpayable",
      "type": "function"
    },
    {
      "inputs": [
        {
          "internalType": "address",
          "name": "newOwner",
          "type": "address"
        }
      ],
      "name": "transferOwnership",
      "outputs": [],
      "stateMutability": "nonpayable",
      "type": "function"
    },
    {
      "inputs": [
        {
          "internalType": "bytes",
          "name": "_address",
          "type": "bytes"
        }
      ],
      "name": "setCommitteeAddress",
      "outputs": [],
      "stateMutability": "nonpayable",
      "type": "function"
    },
    {
      "inputs": [
        {
          "components": [
            {
              "internalType": "uint256",
              "name": "nonce",
              "type": "uint256"
            },
            {
              "internalType": "uint8",
              "name": "chainId",
              "type": "uint8"
            },
            {
              "internalType": "bytes",
              "name": "from",
              "type": "bytes"
            },
            {
              "internalType": "string",
              "name": "to",
              "type": "string"
            },
            {
              "internalType": "bytes",
              "name": "data",
              "type": "bytes"
            },
            {
              "internalType": "bytes",
              "name": "signature",
              "type": "bytes"
            }
          ],
          "internalType": "struct OmniverseTokenProtocol",
          "name": "_data",
          "type": "tuple"
        }
      ],
      "name": "sendOmniverseTransaction",
      "outputs": [],
      "stateMutability": "nonpayable",
      "type": "function"
    },
    {
      "inputs": [],
      "name": "triggerExecution",
      "outputs": [],
      "stateMutability": "nonpayable",
      "type": "function"
    },
    {
      "inputs": [],
      "name": "getExecutableDelayedTx",
      "outputs": [
        {
          "components": [
            {
              "internalType": "bytes",
              "name": "sender",
              "type": "bytes"
            },
            {
              "internalType": "uint256",
              "name": "nonce",
              "type": "uint256"
            }
          ],
          "internalType": "struct SkywalkerFungible.DelayedTx",
          "name": "ret",
          "type": "tuple"
        }
      ],
      "stateMutability": "view",
      "type": "function"
    },
    {
      "inputs": [],
      "name": "getDelayedTxCount",
      "outputs": [
        {
          "internalType": "uint256",
          "name": "",
          "type": "uint256"
        }
      ],
      "stateMutability": "view",
      "type": "function"
    },
    {
      "inputs": [
        {
          "internalType": "bytes",
          "name": "_pk",
          "type": "bytes"
        }
      ],
      "name": "omniverseBalanceOf",
      "outputs": [
        {
          "internalType": "uint256",
          "name": "",
          "type": "uint256"
        }
      ],
      "stateMutability": "view",
      "type": "function"
    },
    {
      "inputs": [
        {
          "internalType": "address",
          "name": "account",
          "type": "address"
        }
      ],
      "name": "balanceOf",
      "outputs": [
        {
          "internalType": "uint256",
          "name": "",
          "type": "uint256"
        }
      ],
      "stateMutability": "view",
      "type": "function"
    },
    {
      "inputs": [
        {
          "internalType": "address",
          "name": "account",
          "type": "address"
        }
      ],
      "name": "nativeBalanceOf",
      "outputs": [
        {
          "internalType": "uint256",
          "name": "",
          "type": "uint256"
        }
      ],
      "stateMutability": "view",
      "type": "function"
    },
    {
      "inputs": [],
      "name": "getTime",
      "outputs": [
        {
          "internalType": "uint256",
          "name": "",
          "type": "uint256"
        }
      ],
      "stateMutability": "view",
      "type": "function"
    },
    {
      "inputs": [
        {
          "internalType": "uint8[]",
          "name": "_members",
          "type": "uint8[]"
        }
      ],
      "name": "addMembers",
      "outputs": [],
      "stateMutability": "nonpayable",
      "type": "function"
    },
    {
      "inputs": [],
      "name": "getMembers",
      "outputs": [
        {
          "internalType": "uint8[]",
          "name": "",
          "type": "uint8[]"
        }
      ],
      "stateMutability": "view",
      "type": "function"
    },
    {
      "inputs": [
        {
          "internalType": "bytes",
          "name": "from",
          "type": "bytes"
        },
        {
          "internalType": "uint256",
          "name": "amount",
          "type": "uint256"
        }
      ],
      "name": "requestDeposit",
      "outputs": [],
      "stateMutability": "nonpayable",
      "type": "function"
    },
    {
      "inputs": [
        {
          "internalType": "uint256",
          "name": "index",
          "type": "uint256"
        },
        {
          "internalType": "uint256",
          "name": "nonce",
          "type": "uint256"
        },
        {
          "internalType": "bytes",
          "name": "signature",
          "type": "bytes"
        }
      ],
      "name": "approveDeposit",
      "outputs": [],
      "stateMutability": "nonpayable",
      "type": "function"
    },
    {
      "inputs": [
        {
          "internalType": "uint256",
          "name": "index",
          "type": "uint256"
        }
      ],
      "name": "getDepositRequest",
      "outputs": [
        {
          "components": [
            {
              "internalType": "bytes",
              "name": "receiver",
              "type": "bytes"
            },
            {
              "internalType": "uint256",
              "name": "amount",
              "type": "uint256"
            }
          ],
          "internalType": "struct DepositRequest",
          "name": "ret",
          "type": "tuple"
        }
      ],
      "stateMutability": "view",
      "type": "function"
    },
    {
      "inputs": [],
      "name": "decimals",
      "outputs": [
        {
          "internalType": "uint8",
          "name": "",
          "type": "uint8"
        }
      ],
      "stateMutability": "view",
      "type": "function"
    },
    {
      "inputs": [
        {
          "internalType": "bytes",
          "name": "_pk",
          "type": "bytes"
        }
      ],
      "name": "getTransactionCount",
      "outputs": [
        {
          "internalType": "uint256",
          "name": "",
          "type": "uint256"
        }
      ],
      "stateMutability": "view",
      "type": "function"
    },
    {
      "inputs": [
        {
          "internalType": "bytes",
          "name": "_user",
          "type": "bytes"
        },
        {
          "internalType": "uint256",
          "name": "_nonce",
          "type": "uint256"
        }
      ],
      "name": "getTransactionData",
      "outputs": [
        {
          "components": [
            {
              "internalType": "uint256",
              "name": "nonce",
              "type": "uint256"
            },
            {
              "internalType": "uint8",
              "name": "chainId",
              "type": "uint8"
            },
            {
              "internalType": "bytes",
              "name": "from",
              "type": "bytes"
            },
            {
              "internalType": "string",
              "name": "to",
              "type": "string"
            },
            {
              "internalType": "bytes",
              "name": "data",
              "type": "bytes"
            },
            {
              "internalType": "bytes",
              "name": "signature",
              "type": "bytes"
            }
          ],
          "internalType": "struct OmniverseTokenProtocol",
          "name": "txData",
          "type": "tuple"
        },
        {
          "internalType": "uint256",
          "name": "timestamp",
          "type": "uint256"
        }
      ],
      "stateMutability": "view",
      "type": "function"
    },
    {
      "inputs": [
        {
          "internalType": "uint256",
          "name": "_time",
          "type": "uint256"
        }
      ],
      "name": "setCooingDownTime",
      "outputs": [],
      "stateMutability": "nonpayable",
      "type": "function"
    },
    {
      "inputs": [
        {
          "internalType": "bytes",
          "name": "_pk",
          "type": "bytes"
        }
      ],
      "name": "isMalicious",
      "outputs": [
        {
          "internalType": "bool",
          "name": "",
          "type": "bool"
        }
      ],
      "stateMutability": "view",
      "type": "function"
    }
  ],
  "bytecode": "0x60806040523480156200001157600080fd5b5060405162005d5738038062005d57833981810160405281019062000037919062000424565b818181600390805190602001906200005192919062000199565b5080600490805190602001906200006a92919062000199565b5050506200008d62000081620000cb60201b60201c565b620000d360201b60201c565b8260099080519060200190620000a592919062000199565b5083600560146101000a81548160ff021916908360ff1602179055505050505062000558565b600033905090565b6000600560009054906101000a900473ffffffffffffffffffffffffffffffffffffffff16905081600560006101000a81548173ffffffffffffffffffffffffffffffffffffffff021916908373ffffffffffffffffffffffffffffffffffffffff1602179055508173ffffffffffffffffffffffffffffffffffffffff168173ffffffffffffffffffffffffffffffffffffffff167f8be0079c531659141344cd1fd0a4f28419497f9722a3daafe3b4186f6b6457e060405160405180910390a35050565b828054620001a79062000522565b90600052602060002090601f016020900481019282620001cb576000855562000217565b82601f10620001e657805160ff191683800117855562000217565b8280016001018555821562000217579182015b8281111562000216578251825591602001919060010190620001f9565b5b5090506200022691906200022a565b5090565b5b80821115620002455760008160009055506001016200022b565b5090565b6000604051905090565b600080fd5b600080fd5b600060ff82169050919050565b62000275816200025d565b81146200028157600080fd5b50565b60008151905062000295816200026a565b92915050565b600080fd5b600080fd5b6000601f19601f8301169050919050565b7f4e487b7100000000000000000000000000000000000000000000000000000000600052604160045260246000fd5b620002f082620002a5565b810181811067ffffffffffffffff82111715620003125762000311620002b6565b5b80604052505050565b60006200032762000249565b9050620003358282620002e5565b919050565b600067ffffffffffffffff821115620003585762000357620002b6565b5b6200036382620002a5565b9050602081019050919050565b60005b838110156200039057808201518184015260208101905062000373565b83811115620003a0576000848401525b50505050565b6000620003bd620003b7846200033a565b6200031b565b905082815260208101848484011115620003dc57620003db620002a0565b5b620003e984828562000370565b509392505050565b600082601f8301126200040957620004086200029b565b5b81516200041b848260208601620003a6565b91505092915050565b6000806000806080858703121562000441576200044062000253565b5b6000620004518782880162000284565b945050602085015167ffffffffffffffff81111562000475576200047462000258565b5b6200048387828801620003f1565b935050604085015167ffffffffffffffff811115620004a757620004a662000258565b5b620004b587828801620003f1565b925050606085015167ffffffffffffffff811115620004d957620004d862000258565b5b620004e787828801620003f1565b91505092959194509250565b7f4e487b7100000000000000000000000000000000000000000000000000000000600052602260045260246000fd5b600060028204905060018216806200053b57607f821691505b60208210811415620005525762000551620004f3565b5b50919050565b6157ef80620005686000396000f3fe608060405234801561001057600080fd5b506004361061021c5760003560e01c8063715018a611610125578063a9059cbb116100ad578063d864e7401161007c578063d864e7401461066a578063dd62ed3e14610688578063df097cac146106b8578063f2fde38b146106d6578063f78e9402146106f25761021c565b8063a9059cbb146105e4578063b49b7c6e14610614578063c15f3b1f14610630578063cb9635531461064c5761021c565b806395270ba7116100f457806395270ba71461052a57806395d89b411461055a5780639a8a0592146105785780639eab525314610596578063a457c2d7146105b45761021c565b8063715018a6146104c857806389366b2d146104d25780638da5cb5b146104ee57806390abca4d1461050c5761021c565b8063313ce567116101a857806339aaa2811161017757806339aaa281146103e957806352ce58311461041a578063557ed1ba1461044a57806364b4c3101461046857806370a08231146104985761021c565b8063313ce5671461034f57806336e414df1461036d5780633713bb531461038957806339509351146103b95761021c565b806318160ddd116101ef57806318160ddd146102ab57806319ea3bed146102c957806323b872dd146102e55780632ac1c568146103155780632b5066601461031f5761021c565b806306fdde0314610221578063095ea7b31461023f5780630d5f6f931461026f5780630d94bb521461028d575b600080fd5b61022961070e565b604051610236919061366b565b60405180910390f35b61025960048036038101906102549190613735565b6107a0565b6040516102669190613790565b60405180910390f35b6102776107c3565b604051610284919061384c565b60405180910390f35b61029561090a565b6040516102a2919061387d565b60405180910390f35b6102b3610917565b6040516102c0919061387d565b60405180910390f35b6102e360048036038101906102de9190613898565b610921565b005b6102ff60048036038101906102fa91906138c5565b61092b565b60405161030c9190613790565b60405180910390f35b61031d61095a565b005b61033960048036038101906103349190613a4d565b611221565b604051610346919061387d565b60405180910390f35b61035761124f565b6040516103649190613ab2565b60405180910390f35b61038760048036038101906103829190613b2d565b611258565b005b6103a3600480360381019061039e9190613a4d565b61138f565b6040516103b09190613790565b60405180910390f35b6103d360048036038101906103ce9190613735565b6113c5565b6040516103e09190613790565b60405180910390f35b61040360048036038101906103fe9190613bd0565b6113fc565b604051610411929190613d27565b60405180910390f35b610434600480360381019061042f9190613d57565b6116e2565b604051610441919061387d565b60405180910390f35b61045261170d565b60405161045f919061387d565b60405180910390f35b610482600480360381019061047d9190613898565b611715565b60405161048f9190613de1565b60405180910390f35b6104b260048036038101906104ad9190613e03565b6117fb565b6040516104bf919061387d565b60405180910390f35b6104d0611887565b005b6104ec60048036038101906104e79190613e54565b61189b565b005b6104f66118b0565b6040516105039190613eac565b60405180910390f35b6105146118da565b604051610521919061387d565b60405180910390f35b610544600480360381019061053f9190613e03565b6118e0565b604051610551919061387d565b60405180910390f35b610562611928565b60405161056f919061366b565b60405180910390f35b6105806119ba565b60405161058d9190613ab2565b60405180910390f35b61059e6119cd565b6040516105ab9190613f76565b60405180910390f35b6105ce60048036038101906105c99190613735565b611a4b565b6040516105db9190613790565b60405180910390f35b6105fe60048036038101906105f99190613735565b611ac2565b60405161060b9190613790565b60405180910390f35b61062e60048036038101906106299190613bd0565b611ae5565b005b61064a60048036038101906106459190613d57565b611d3c565b005b610654611d5a565b604051610661919061366b565b60405180910390f35b610672611de8565b60405161067f9190613fe2565b60405180910390f35b6106a2600480360381019061069d9190614004565b611e76565b6040516106af919061387d565b60405180910390f35b6106c0611efd565b6040516106cd919061387d565b60405180910390f35b6106f060048036038101906106eb9190613e03565b611f03565b005b61070c60048036038101906107079190614044565b611f87565b005b60606003805461071d906140e7565b80601f0160208091040260200160405190810160405280929190818152602001828054610749906140e7565b80156107965780601f1061076b57610100808354040283529160200191610796565b820191906000526020600020905b81548152906001019060200180831161077957829003601f168201915b5050505050905090565b6000806107ab612319565b90506107b8818585612321565b600191505092915050565b6107cb61325c565b6000600d8054905011156109075760006008600d6000815481106107f2576107f1614119565b5b906000526020600020906002020160000160405161081091906141e7565b908152602001604051809103902090506006548160060154610832919061422d565b421061090557600d60008154811061084d5761084c614119565b5b9060005260206000209060020201604051806040016040529081600082018054610876906140e7565b80601f01602080910402602001604051908101604052809291908181526020018280546108a2906140e7565b80156108ef5780601f106108c4576101008083540402835291602001916108ef565b820191906000526020600020905b8154815290600101906020018083116108d257829003601f168201915b5050505050815260200160018201548152505091505b505b90565b6000600d80549050905090565b6000600254905090565b8060068190555050565b600080610936612319565b90506109438582856124ec565b61094e858585612578565b60019150509392505050565b6000600d80549050116109a2576040517f08c379a0000000000000000000000000000000000000000000000000000000008152600401610999906142cf565b60405180910390fd5b60006008600d6000815481106109bb576109ba614119565b5b90600052602060002090600202016000016040516109d991906141e7565b90815260200160405180910390209050600081600601541415610a31576040517f08c379a0000000000000000000000000000000000000000000000000000000008152600401610a289061433b565b60405180910390fd5b600d600081548110610a4657610a45614119565b5b906000526020600020906002020160010154816000016000015414610aa0576040517f08c379a0000000000000000000000000000000000000000000000000000000008152600401610a97906143a7565b60405180910390fd5b6000808260000183600601549150915060065481610abe919061422d565b421015610b00576040517f08c379a0000000000000000000000000000000000000000000000000000000008152600401610af790614413565b60405180910390fd5b600d6001600d80549050610b149190614433565b81548110610b2557610b24614119565b5b9060005260206000209060020201600d600081548110610b4857610b47614119565b5b90600052602060002090600202016000820181600001908054610b6a906140e7565b610b75929190613276565b5060018201548160010155905050600d805480610b9557610b94614467565b5b600190038181906000526020600020906002020160008082016000610bba9190613303565b600182016000905550509055600083600601819055506000600783600201604051610be591906141e7565b90815260200160405180910390209050806000018490806001815401808255809150506001900390600052602060002090600702016000909190919091506000820181600001600082015481600001556001820160009054906101000a900460ff168160010160006101000a81548160ff021916908360ff1602179055506002820181600201908054610c77906140e7565b610c82929190613276565b506003820181600301908054610c97906140e7565b610ca2929190613343565b506004820181600401908054610cb7906140e7565b610cc2929190613276565b506005820181600501908054610cd7906140e7565b610ce2929190613276565b505050600682015481600601555050600560149054906101000a900460ff1660ff168360010160009054906101000a900460ff1660ff161415610d60577f101abacb8de0d05456bbaf85756276fd0c5225e9ede84f539855df28aba51a7e836002018460000154604051610d57929190614516565b60405180910390a15b600080846004018054610d72906140e7565b80601f0160208091040260200160405190810160405280929190818152602001828054610d9e906140e7565b8015610deb5780601f10610dc057610100808354040283529160200191610deb565b820191906000526020600020905b815481529060010190602001808311610dce57829003601f168201915b5050505050806020019051810190610e0391906145e2565b91509150600260ff168260ff161415610ef357600081806020019051810190610e2c9190614653565b9050610eed866002018054610e40906140e7565b80601f0160208091040260200160405190810160405280929190818152602001828054610e6c906140e7565b8015610eb95780601f10610e8e57610100808354040283529160200191610eb9565b820191906000526020600020905b815481529060010190602001808311610e9c57829003601f168201915b505050505082600560149054906101000a900460ff1660ff168960010160009054906101000a900460ff1660ff16146127f9565b50611218565b600160ff168260ff161415610fbb5760008082806020019051810190610f199190614680565b91509150610fb4876002018054610f2f906140e7565b80601f0160208091040260200160405190810160405280929190818152602001828054610f5b906140e7565b8015610fa85780601f10610f7d57610100808354040283529160200191610fa8565b820191906000526020600020905b815481529060010190602001808311610f8b57829003601f168201915b5050505050838361290d565b5050611217565b600060ff168260ff1614156110835760008082806020019051810190610fe19190614680565b9150915061107c876002018054610ff7906140e7565b80601f0160208091040260200160405190810160405280929190818152602001828054611023906140e7565b80156110705780601f1061104557610100808354040283529160200191611070565b820191906000526020600020905b81548152906001019060200180831161105357829003601f168201915b50505050508383612a37565b5050611216565b600360ff168260ff1614156111d85760006111298660020180546110a6906140e7565b80601f01602080910402602001604051908101604052809291908181526020018280546110d2906140e7565b801561111f5780601f106110f45761010080835404028352916020019161111f565b820191906000526020600020905b81548152906001019060200180831161110257829003601f168201915b5050505050612b00565b90506111336118b0565b73ffffffffffffffffffffffffffffffffffffffff168173ffffffffffffffffffffffffffffffffffffffff16146111ab577fbd8697cc45013432c9b28106cbef86826e50ba0069e4f7c82a44c5f9a2e835798660020160405161119791906146dc565b60405180910390a15050505050505061121f565b600080838060200190518101906111c29190614680565b915091506111d08282612b19565b505050611215565b7fb037c465dfd2ba266747dc7bf6ef2589cf239e0c7d2b3f66f666adddf07d4f54856002018360405161120c9291906146fe565b60405180910390a15b5b5b5b5050505050505b565b6000600782604051611233919061475f565b9081526020016040518091039020600001805490509050919050565b6000600c905090565b611260612bed565b60005b8282905081101561138a576000805b600a805490508110156113035784848481811061129257611291614119565b5b90506020020160208101906112a7919061478b565b60ff16600a82815481106112be576112bd614119565b5b90600052602060002090602091828204019190069054906101000a900460ff1660ff1614156112f05760019150611303565b80806112fb906147b8565b915050611272565b508061137657600a84848481811061131e5761131d614119565b5b9050602002016020810190611333919061478b565b90806001815401808255809150506001900390600052602060002090602091828204019190069091909190916101000a81548160ff021916908360ff1602179055505b508080611382906147b8565b915050611263565b505050565b6000806007836040516113a2919061475f565b908152602001604051809103902090506000816001018054905011915050919050565b6000806113d0612319565b90506113f18185856113e28589611e76565b6113ec919061422d565b612321565b600191505092915050565b6114046133d0565b60008060078686604051611419929190614826565b90815260200160405180910390209050600081600001858154811061144157611440614119565b5b90600052602060002090600702019050806000016040518060c0016040529081600082015481526020016001820160009054906101000a900460ff1660ff1660ff168152602001600282018054611497906140e7565b80601f01602080910402602001604051908101604052809291908181526020018280546114c3906140e7565b80156115105780601f106114e557610100808354040283529160200191611510565b820191906000526020600020905b8154815290600101906020018083116114f357829003601f168201915b50505050508152602001600382018054611529906140e7565b80601f0160208091040260200160405190810160405280929190818152602001828054611555906140e7565b80156115a25780601f10611577576101008083540402835291602001916115a2565b820191906000526020600020905b81548152906001019060200180831161158557829003601f168201915b505050505081526020016004820180546115bb906140e7565b80601f01602080910402602001604051908101604052809291908181526020018280546115e7906140e7565b80156116345780601f1061160957610100808354040283529160200191611634565b820191906000526020600020905b81548152906001019060200180831161161757829003601f168201915b5050505050815260200160058201805461164d906140e7565b80601f0160208091040260200160405190810160405280929190818152602001828054611679906140e7565b80156116c65780601f1061169b576101008083540402835291602001916116c6565b820191906000526020600020905b8154815290600101906020018083116116a957829003601f168201915b5050505050815250509350806006015492505050935093915050565b6000600b83836040516116f6929190614826565b908152602001604051809103902054905092915050565b600042905090565b61171d613409565b81600f8054905011156117f657600f828154811061173e5761173d614119565b5b9060005260206000209060020201604051806040016040529081600082018054611767906140e7565b80601f0160208091040260200160405190810160405280929190818152602001828054611793906140e7565b80156117e05780601f106117b5576101008083540402835291602001916117e0565b820191906000526020600020905b8154815290600101906020018083116117c357829003601f168201915b5050505050815260200160018201548152505090505b919050565b600080601160008473ffffffffffffffffffffffffffffffffffffffff1673ffffffffffffffffffffffffffffffffffffffff1681526020019081526020016000209050600081805461184d906140e7565b9050141561185f576000915050611882565b600b8160405161186f91906148d3565b9081526020016040518091039020549150505b919050565b61188f612bed565b6118996000612c6b565b565b6118ad816118a890614aa5565b612d31565b50565b6000600560009054906101000a900473ffffffffffffffffffffffffffffffffffffffff16905090565b60105481565b60008060008373ffffffffffffffffffffffffffffffffffffffff1673ffffffffffffffffffffffffffffffffffffffff168152602001908152602001600020549050919050565b606060048054611937906140e7565b80601f0160208091040260200160405190810160405280929190818152602001828054611963906140e7565b80156119b05780601f10611985576101008083540402835291602001916119b0565b820191906000526020600020905b81548152906001019060200180831161199357829003601f168201915b5050505050905090565b600560149054906101000a900460ff1681565b6060600a805480602002602001604051908101604052809291908181526020018280548015611a4157602002820191906000526020600020906000905b82829054906101000a900460ff1660ff1681526020019060010190602082600001049283019260010382029150808411611a0a5790505b5050505050905090565b600080611a56612319565b90506000611a648286611e76565b905083811015611aa9576040517f08c379a0000000000000000000000000000000000000000000000000000000008152600401611aa090614b2a565b60405180910390fd5b611ab68286868403612321565b60019250505092915050565b600080611acd612319565b9050611ada818585612578565b600191505092915050565b6000611b3484848080601f016020809104026020016040519081016040528093929190818152602001838380828437600081840152601f19601f82011690508083019250505050505050612b00565b90503373ffffffffffffffffffffffffffffffffffffffff168173ffffffffffffffffffffffffffffffffffffffff1614611ba4576040517f08c379a0000000000000000000000000000000000000000000000000000000008152600401611b9b90614b96565b60405180910390fd5b60008060008373ffffffffffffffffffffffffffffffffffffffff1673ffffffffffffffffffffffffffffffffffffffff16815260200190815260200160002054905082811015611c2a576040517f08c379a0000000000000000000000000000000000000000000000000000000008152600401611c2190614c02565b60405180910390fd5b8281036000808473ffffffffffffffffffffffffffffffffffffffff1673ffffffffffffffffffffffffffffffffffffffff168152602001908152602001600020819055508260026000828254611c819190614433565b92505081905550600f604051806040016040528087878080601f016020809104026020016040519081016040528093929190818152602001838380828437600081840152601f19601f8201169050808301925050505050505081526020018581525090806001815401808255809150506001900390600052602060002090600202016000909190919091506000820151816000019080519060200190611d28929190613423565b506020820151816001015550505050505050565b611d44612bed565b8181600e9190611d559291906134a9565b505050565b60098054611d67906140e7565b80601f0160208091040260200160405190810160405280929190818152602001828054611d93906140e7565b8015611de05780601f10611db557610100808354040283529160200191611de0565b820191906000526020600020905b815481529060010190602001808311611dc357829003601f168201915b505050505081565b600e8054611df5906140e7565b80601f0160208091040260200160405190810160405280929190818152602001828054611e21906140e7565b8015611e6e5780601f10611e4357610100808354040283529160200191611e6e565b820191906000526020600020905b815481529060010190602001808311611e5157829003601f168201915b505050505081565b6000600160008473ffffffffffffffffffffffffffffffffffffffff1673ffffffffffffffffffffffffffffffffffffffff16815260200190815260200160002060008373ffffffffffffffffffffffffffffffffffffffff1673ffffffffffffffffffffffffffffffffffffffff16815260200190815260200160002054905092915050565b60065481565b611f0b612bed565b600073ffffffffffffffffffffffffffffffffffffffff168173ffffffffffffffffffffffffffffffffffffffff161415611f7b576040517f08c379a0000000000000000000000000000000000000000000000000000000008152600401611f7290614c94565b60405180910390fd5b611f8481612c6b565b50565b600061201c600e8054611f99906140e7565b80601f0160208091040260200160405190810160405280929190818152602001828054611fc5906140e7565b80156120125780601f10611fe757610100808354040283529160200191612012565b820191906000526020600020905b815481529060010190602001808311611ff557829003601f168201915b5050505050612b00565b90508073ffffffffffffffffffffffffffffffffffffffff163373ffffffffffffffffffffffffffffffffffffffff161461208c576040517f08c379a000000000000000000000000000000000000000000000000000000000815260040161208390614d26565b60405180910390fd5b60105485146120d0576040517f08c379a00000000000000000000000000000000000000000000000000000000081526004016120c790614d92565b60405180910390fd5b6000600f86815481106120e6576120e5614119565b5b9060005260206000209060020201905060106000815480929190612109906147b8565b91905055506121166133d0565b85816000018181525050600560149054906101000a900460ff16816020019060ff16908160ff1681525050600e805461214e906140e7565b80601f016020809104026020016040519081016040528092919081815260200182805461217a906140e7565b80156121c75780601f1061219c576101008083540402835291602001916121c7565b820191906000526020600020905b8154815290600101906020018083116121aa57829003601f168201915b50505050508160400181905250600980546121e1906140e7565b80601f016020809104026020016040519081016040528092919081815260200182805461220d906140e7565b801561225a5780601f1061222f5761010080835404028352916020019161225a565b820191906000526020600020905b81548152906001019060200180831161223d57829003601f168201915b5050505050816060018190525084848080601f016020809104026020016040519081016040528093929190818152602001838380828437600081840152601f19601f820116905080830192505050505050508160a0018190525060008260000183600101546040516020016122d0929190614516565b6040516020818303038152906040526040516020016122f0929190614db2565b604051602081830303815290604052816080018190525061231081612d31565b50505050505050565b600033905090565b600073ffffffffffffffffffffffffffffffffffffffff168373ffffffffffffffffffffffffffffffffffffffff161415612391576040517f08c379a000000000000000000000000000000000000000000000000000000000815260040161238890614e54565b60405180910390fd5b600073ffffffffffffffffffffffffffffffffffffffff168273ffffffffffffffffffffffffffffffffffffffff161415612401576040517f08c379a00000000000000000000000000000000000000000000000000000000081526004016123f890614ee6565b60405180910390fd5b80600160008573ffffffffffffffffffffffffffffffffffffffff1673ffffffffffffffffffffffffffffffffffffffff16815260200190815260200160002060008473ffffffffffffffffffffffffffffffffffffffff1673ffffffffffffffffffffffffffffffffffffffff168152602001908152602001600020819055508173ffffffffffffffffffffffffffffffffffffffff168373ffffffffffffffffffffffffffffffffffffffff167f8c5be1e5ebec7d5bd14f71427d1e84f3dd0314c0f7b2291e5b200ac8c7c3b925836040516124df919061387d565b60405180910390a3505050565b60006124f88484611e76565b90507fffffffffffffffffffffffffffffffffffffffffffffffffffffffffffffffff81146125725781811015612564576040517f08c379a000000000000000000000000000000000000000000000000000000000815260040161255b90614f52565b60405180910390fd5b6125718484848403612321565b5b50505050565b600073ffffffffffffffffffffffffffffffffffffffff168373ffffffffffffffffffffffffffffffffffffffff1614156125e8576040517f08c379a00000000000000000000000000000000000000000000000000000000081526004016125df90614fe4565b60405180910390fd5b600073ffffffffffffffffffffffffffffffffffffffff168273ffffffffffffffffffffffffffffffffffffffff161415612658576040517f08c379a000000000000000000000000000000000000000000000000000000000815260040161264f90615076565b60405180910390fd5b6126638383836130a7565b60008060008573ffffffffffffffffffffffffffffffffffffffff1673ffffffffffffffffffffffffffffffffffffffff168152602001908152602001600020549050818110156126e9576040517f08c379a00000000000000000000000000000000000000000000000000000000081526004016126e090615108565b60405180910390fd5b8181036000808673ffffffffffffffffffffffffffffffffffffffff1673ffffffffffffffffffffffffffffffffffffffff16815260200190815260200160002081905550816000808573ffffffffffffffffffffffffffffffffffffffff1673ffffffffffffffffffffffffffffffffffffffff168152602001908152602001600020600082825461277c919061422d565b925050819055508273ffffffffffffffffffffffffffffffffffffffff168473ffffffffffffffffffffffffffffffffffffffff167fddf252ad1be2c89b69c2b068fc378daa952ba7f163c4a11628f55a4df523b3ef846040516127e0919061387d565b60405180910390a36127f38484846130ac565b50505050565b61280383836130b1565b6000600b84604051612815919061475f565b9081526020016040518091039020549050828103600b85604051612839919061475f565b90815260200160405180910390208190555081156128ce57600061285c85612b00565b90508360026000828254612870919061422d565b92505081905550836000808373ffffffffffffffffffffffffffffffffffffffff1673ffffffffffffffffffffffffffffffffffffffff16815260200190815260200160002060008282546128c5919061422d565b92505081905550505b7fe8206846acaf2b75153b1286f2d74f781d9b94b4787dc2ce7f8c075414e3cf6f84846040516128ff929190615128565b60405180910390a150505050565b612917838261311b565b6000600b84604051612929919061475f565b9081526020016040518091039020549050818103600b8560405161294d919061475f565b90815260200160405180910390208190555081600b84604051612970919061475f565b9081526020016040518091039020600082825461298d919061422d565b925050819055507f1d8380031597508b7d5d3df4999b8136789b62ed932115f9eb5897e19903792e8484846040516129c793929190615158565b60405180910390a160006129da84612b00565b905083601160008373ffffffffffffffffffffffffffffffffffffffff1673ffffffffffffffffffffffffffffffffffffffff1681526020019081526020016000209080519060200190612a2f929190613423565b505050505050565b600e604051612a4691906141e7565b6040518091039020838051906020012014612a96576040517f08c379a0000000000000000000000000000000000000000000000000000000008152600401612a8d906151e9565b60405180910390fd5b80600b83604051612aa7919061475f565b9081526020016040518091039020600082825401925050819055507f1b349f1b9a3c62fcd689a1e9eec1b30e140f416323e50f3206902ea759efbbbe8282604051612af3929190615128565b60405180910390a1505050565b600080828051906020012090508060001c915050919050565b80600b83604051612b2a919061475f565b90815260200160405180910390206000828254612b47919061422d565b925050819055507f1d8380031597508b7d5d3df4999b8136789b62ed932115f9eb5897e19903792e8282604051612b7f92919061522f565b60405180910390a16000612b9283612b00565b905082601160008373ffffffffffffffffffffffffffffffffffffffff1673ffffffffffffffffffffffffffffffffffffffff1681526020019081526020016000209080519060200190612be7929190613423565b50505050565b612bf5612319565b73ffffffffffffffffffffffffffffffffffffffff16612c136118b0565b73ffffffffffffffffffffffffffffffffffffffff1614612c69576040517f08c379a0000000000000000000000000000000000000000000000000000000008152600401612c60906152be565b60405180910390fd5b565b6000600560009054906101000a900473ffffffffffffffffffffffffffffffffffffffff16905081600560006101000a81548173ffffffffffffffffffffffffffffffffffffffff021916908373ffffffffffffffffffffffffffffffffffffffff1602179055508173ffffffffffffffffffffffffffffffffffffffff168173ffffffffffffffffffffffffffffffffffffffff167f8be0079c531659141344cd1fd0a4f28419497f9722a3daafe3b4186f6b6457e060405160405180910390a35050565b6009604051602001612d439190615373565b604051602081830303815290604052805190602001208160600151604051602001612d6e919061366b565b6040516020818303038152906040528051906020012014612dc4576040517f08c379a0000000000000000000000000000000000000000000000000000000008152600401612dbb906153e1565b60405180910390fd5b612dd1816040015161138f565b15612e11576040517f08c379a0000000000000000000000000000000000000000000000000000000008152600401612e089061544d565b60405180910390fd5b600073__OmniverseProtocol_____________________63b25572fd60078460400151604051612e41919061475f565b9081526020016040518091039020846040518363ffffffff1660e01b8152600401612e6d9291906155c4565b602060405180830381865af4158015612e8a573d6000803e3d6000fd5b505050506040513d601f19601f82011682018060405250810190612eae9190615619565b905060006001811115612ec457612ec3615646565b5b816001811115612ed757612ed6615646565b5b141561307a57600060088360400151604051612ef3919061475f565b908152602001604051809103902090506000816006015414612f4a576040517f08c379a0000000000000000000000000000000000000000000000000000000008152600401612f41906156c1565b60405180910390fd5b612f5383613185565b82816000016000820151816000015560208201518160010160006101000a81548160ff021916908360ff1602179055506040820151816002019080519060200190612f9f929190613423565b506060820151816003019080519060200190612fbc92919061352f565b506080820151816004019080519060200190612fd9929190613423565b5060a0820151816005019080519060200190612ff6929190613423565b50905050428160060181905550600d604051806040016040528085604001518152602001856000015181525090806001815401808255809150506001900390600052602060002090600202016000909190919091506000820151816000019080519060200190613067929190613423565b50602082015181600101555050506130a3565b60018081111561308d5761308c615646565b5b8160018111156130a05761309f615646565b5b50505b5050565b505050565b505050565b6000600b836040516130c3919061475f565b9081526020016040518091039020549050818110613116576040517f08c379a000000000000000000000000000000000000000000000000000000000815260040161310d9061572d565b60405180910390fd5b505050565b6000600b8360405161312d919061475f565b9081526020016040518091039020549050818110613180576040517f08c379a00000000000000000000000000000000000000000000000000000000081526004016131779061572d565b60405180910390fd5b505050565b60008082608001518060200190518101906131a091906145e2565b91509150600260ff168260ff1614156131df576000818060200190518101906131c99190614653565b90506131d98460400151826130b1565b50613257565b600160ff168260ff16141561321b576000818060200190518101906132049190614680565b91505061321584604001518261311b565b50613256565b6040517f08c379a000000000000000000000000000000000000000000000000000000000815260040161324d90615799565b60405180910390fd5b5b505050565b604051806040016040528060608152602001600081525090565b828054613282906140e7565b90600052602060002090601f0160209004810192826132a457600085556132f2565b82601f106132b557805485556132f2565b828001600101855582156132f257600052602060002091601f016020900482015b828111156132f15782548255916001019190600101906132d6565b5b5090506132ff91906135b5565b5090565b50805461330f906140e7565b6000825580601f106133215750613340565b601f01602090049060005260206000209081019061333f91906135b5565b5b50565b82805461334f906140e7565b90600052602060002090601f01602090048101928261337157600085556133bf565b82601f1061338257805485556133bf565b828001600101855582156133bf57600052602060002091601f016020900482015b828111156133be5782548255916001019190600101906133a3565b5b5090506133cc91906135b5565b5090565b6040518060c0016040528060008152602001600060ff168152602001606081526020016060815260200160608152602001606081525090565b604051806040016040528060608152602001600081525090565b82805461342f906140e7565b90600052602060002090601f0160209004810192826134515760008555613498565b82601f1061346a57805160ff1916838001178555613498565b82800160010185558215613498579182015b8281111561349757825182559160200191906001019061347c565b5b5090506134a591906135b5565b5090565b8280546134b5906140e7565b90600052602060002090601f0160209004810192826134d7576000855561351e565b82601f106134f057803560ff191683800117855561351e565b8280016001018555821561351e579182015b8281111561351d578235825591602001919060010190613502565b5b50905061352b91906135b5565b5090565b82805461353b906140e7565b90600052602060002090601f01602090048101928261355d57600085556135a4565b82601f1061357657805160ff19168380011785556135a4565b828001600101855582156135a4579182015b828111156135a3578251825591602001919060010190613588565b5b5090506135b191906135b5565b5090565b5b808211156135ce5760008160009055506001016135b6565b5090565b600081519050919050565b600082825260208201905092915050565b60005b8381101561360c5780820151818401526020810190506135f1565b8381111561361b576000848401525b50505050565b6000601f19601f8301169050919050565b600061363d826135d2565b61364781856135dd565b93506136578185602086016135ee565b61366081613621565b840191505092915050565b600060208201905081810360008301526136858184613632565b905092915050565b6000604051905090565b600080fd5b600080fd5b600073ffffffffffffffffffffffffffffffffffffffff82169050919050565b60006136cc826136a1565b9050919050565b6136dc816136c1565b81146136e757600080fd5b50565b6000813590506136f9816136d3565b92915050565b6000819050919050565b613712816136ff565b811461371d57600080fd5b50565b60008135905061372f81613709565b92915050565b6000806040838503121561374c5761374b613697565b5b600061375a858286016136ea565b925050602061376b85828601613720565b9150509250929050565b60008115159050919050565b61378a81613775565b82525050565b60006020820190506137a56000830184613781565b92915050565b600081519050919050565b600082825260208201905092915050565b60006137d2826137ab565b6137dc81856137b6565b93506137ec8185602086016135ee565b6137f581613621565b840191505092915050565b613809816136ff565b82525050565b6000604083016000830151848203600086015261382c82826137c7565b91505060208301516138416020860182613800565b508091505092915050565b60006020820190508181036000830152613866818461380f565b905092915050565b613877816136ff565b82525050565b6000602082019050613892600083018461386e565b92915050565b6000602082840312156138ae576138ad613697565b5b60006138bc84828501613720565b91505092915050565b6000806000606084860312156138de576138dd613697565b5b60006138ec868287016136ea565b93505060206138fd868287016136ea565b925050604061390e86828701613720565b9150509250925092565b600080fd5b600080fd5b7f4e487b7100000000000000000000000000000000000000000000000000000000600052604160045260246000fd5b61395a82613621565b810181811067ffffffffffffffff8211171561397957613978613922565b5b80604052505050565b600061398c61368d565b90506139988282613951565b919050565b600067ffffffffffffffff8211156139b8576139b7613922565b5b6139c182613621565b9050602081019050919050565b82818337600083830152505050565b60006139f06139eb8461399d565b613982565b905082815260208101848484011115613a0c57613a0b61391d565b5b613a178482856139ce565b509392505050565b600082601f830112613a3457613a33613918565b5b8135613a448482602086016139dd565b91505092915050565b600060208284031215613a6357613a62613697565b5b600082013567ffffffffffffffff811115613a8157613a8061369c565b5b613a8d84828501613a1f565b91505092915050565b600060ff82169050919050565b613aac81613a96565b82525050565b6000602082019050613ac76000830184613aa3565b92915050565b600080fd5b600080fd5b60008083601f840112613aed57613aec613918565b5b8235905067ffffffffffffffff811115613b0a57613b09613acd565b5b602083019150836020820283011115613b2657613b25613ad2565b5b9250929050565b60008060208385031215613b4457613b43613697565b5b600083013567ffffffffffffffff811115613b6257613b6161369c565b5b613b6e85828601613ad7565b92509250509250929050565b60008083601f840112613b9057613b8f613918565b5b8235905067ffffffffffffffff811115613bad57613bac613acd565b5b602083019150836001820283011115613bc957613bc8613ad2565b5b9250929050565b600080600060408486031215613be957613be8613697565b5b600084013567ffffffffffffffff811115613c0757613c0661369c565b5b613c1386828701613b7a565b93509350506020613c2686828701613720565b9150509250925092565b613c3981613a96565b82525050565b600082825260208201905092915050565b6000613c5b826135d2565b613c658185613c3f565b9350613c758185602086016135ee565b613c7e81613621565b840191505092915050565b600060c083016000830151613ca16000860182613800565b506020830151613cb46020860182613c30565b5060408301518482036040860152613ccc82826137c7565b91505060608301518482036060860152613ce68282613c50565b91505060808301518482036080860152613d0082826137c7565b91505060a083015184820360a0860152613d1a82826137c7565b9150508091505092915050565b60006040820190508181036000830152613d418185613c89565b9050613d50602083018461386e565b9392505050565b60008060208385031215613d6e57613d6d613697565b5b600083013567ffffffffffffffff811115613d8c57613d8b61369c565b5b613d9885828601613b7a565b92509250509250929050565b60006040830160008301518482036000860152613dc182826137c7565b9150506020830151613dd66020860182613800565b508091505092915050565b60006020820190508181036000830152613dfb8184613da4565b905092915050565b600060208284031215613e1957613e18613697565b5b6000613e27848285016136ea565b91505092915050565b600080fd5b600060c08284031215613e4b57613e4a613e30565b5b81905092915050565b600060208284031215613e6a57613e69613697565b5b600082013567ffffffffffffffff811115613e8857613e8761369c565b5b613e9484828501613e35565b91505092915050565b613ea6816136c1565b82525050565b6000602082019050613ec16000830184613e9d565b92915050565b600081519050919050565b600082825260208201905092915050565b6000819050602082019050919050565b6000613eff8383613c30565b60208301905092915050565b6000602082019050919050565b6000613f2382613ec7565b613f2d8185613ed2565b9350613f3883613ee3565b8060005b83811015613f69578151613f508882613ef3565b9750613f5b83613f0b565b925050600181019050613f3c565b5085935050505092915050565b60006020820190508181036000830152613f908184613f18565b905092915050565b600082825260208201905092915050565b6000613fb4826137ab565b613fbe8185613f98565b9350613fce8185602086016135ee565b613fd781613621565b840191505092915050565b60006020820190508181036000830152613ffc8184613fa9565b905092915050565b6000806040838503121561401b5761401a613697565b5b6000614029858286016136ea565b925050602061403a858286016136ea565b9150509250929050565b6000806000806060858703121561405e5761405d613697565b5b600061406c87828801613720565b945050602061407d87828801613720565b935050604085013567ffffffffffffffff81111561409e5761409d61369c565b5b6140aa87828801613b7a565b925092505092959194509250565b7f4e487b7100000000000000000000000000000000000000000000000000000000600052602260045260246000fd5b600060028204905060018216806140ff57607f821691505b60208210811415614113576141126140b8565b5b50919050565b7f4e487b7100000000000000000000000000000000000000000000000000000000600052603260045260246000fd5b600081905092915050565b60008190508160005260206000209050919050565b60008154614175816140e7565b61417f8186614148565b9450600182166000811461419a57600181146141ab576141de565b60ff198316865281860193506141de565b6141b485614153565b60005b838110156141d6578154818901526001820191506020810190506141b7565b838801955050505b50505092915050565b60006141f38284614168565b915081905092915050565b7f4e487b7100000000000000000000000000000000000000000000000000000000600052601160045260246000fd5b6000614238826136ff565b9150614243836136ff565b9250827fffffffffffffffffffffffffffffffffffffffffffffffffffffffffffffffff03821115614278576142776141fe565b5b828201905092915050565b7f4e6f2064656c6179656420747800000000000000000000000000000000000000600082015250565b60006142b9600d836135dd565b91506142c482614283565b602082019050919050565b600060208201905081810360008301526142e8816142ac565b9050919050565b7f4e6f742063616368656400000000000000000000000000000000000000000000600082015250565b6000614325600a836135dd565b9150614330826142ef565b602082019050919050565b6000602082019050818103600083015261435481614318565b9050919050565b7f4e6f6e6365206572726f72000000000000000000000000000000000000000000600082015250565b6000614391600b836135dd565b915061439c8261435b565b602082019050919050565b600060208201905081810360008301526143c081614384565b9050919050565b7f4e6f742065786563757461626c65000000000000000000000000000000000000600082015250565b60006143fd600e836135dd565b9150614408826143c7565b602082019050919050565b6000602082019050818103600083015261442c816143f0565b9050919050565b600061443e826136ff565b9150614449836136ff565b92508282101561445c5761445b6141fe565b5b828203905092915050565b7f4e487b7100000000000000000000000000000000000000000000000000000000600052603160045260246000fd5b600081546144a3816140e7565b6144ad8186613f98565b945060018216600081146144c857600181146144da5761450d565b60ff198316865260208601935061450d565b6144e385614153565b60005b83811015614505578154818901526001820191506020810190506144e6565b808801955050505b50505092915050565b600060408201905081810360008301526145308185614496565b905061453f602083018461386e565b9392505050565b61454f81613a96565b811461455a57600080fd5b50565b60008151905061456c81614546565b92915050565b60006145856145808461399d565b613982565b9050828152602081018484840111156145a1576145a061391d565b5b6145ac8482856135ee565b509392505050565b600082601f8301126145c9576145c8613918565b5b81516145d9848260208601614572565b91505092915050565b600080604083850312156145f9576145f8613697565b5b60006146078582860161455d565b925050602083015167ffffffffffffffff8111156146285761462761369c565b5b614634858286016145b4565b9150509250929050565b60008151905061464d81613709565b92915050565b60006020828403121561466957614668613697565b5b60006146778482850161463e565b91505092915050565b6000806040838503121561469757614696613697565b5b600083015167ffffffffffffffff8111156146b5576146b461369c565b5b6146c1858286016145b4565b92505060206146d28582860161463e565b9150509250929050565b600060208201905081810360008301526146f68184614496565b905092915050565b600060408201905081810360008301526147188185614496565b90506147276020830184613aa3565b9392505050565b6000614739826137ab565b6147438185614148565b93506147538185602086016135ee565b80840191505092915050565b600061476b828461472e565b915081905092915050565b60008135905061478581614546565b92915050565b6000602082840312156147a1576147a0613697565b5b60006147af84828501614776565b91505092915050565b60006147c3826136ff565b91507fffffffffffffffffffffffffffffffffffffffffffffffffffffffffffffffff8214156147f6576147f56141fe565b5b600182019050919050565b600061480d8385614148565b935061481a8385846139ce565b82840190509392505050565b6000614833828486614801565b91508190509392505050565b60008190508160005260206000209050919050565b60008154614861816140e7565b61486b8186614148565b945060018216600081146148865760018114614897576148ca565b60ff198316865281860193506148ca565b6148a08561483f565b60005b838110156148c2578154818901526001820191506020810190506148a3565b838801955050505b50505092915050565b60006148df8284614854565b915081905092915050565b600080fd5b600080fd5b600067ffffffffffffffff82111561490f5761490e613922565b5b61491882613621565b9050602081019050919050565b6000614938614933846148f4565b613982565b9050828152602081018484840111156149545761495361391d565b5b61495f8482856139ce565b509392505050565b600082601f83011261497c5761497b613918565b5b813561498c848260208601614925565b91505092915050565b600060c082840312156149ab576149aa6148ea565b5b6149b560c0613982565b905060006149c584828501613720565b60008301525060206149d984828501614776565b602083015250604082013567ffffffffffffffff8111156149fd576149fc6148ef565b5b614a0984828501613a1f565b604083015250606082013567ffffffffffffffff811115614a2d57614a2c6148ef565b5b614a3984828501614967565b606083015250608082013567ffffffffffffffff811115614a5d57614a5c6148ef565b5b614a6984828501613a1f565b60808301525060a082013567ffffffffffffffff811115614a8d57614a8c6148ef565b5b614a9984828501613a1f565b60a08301525092915050565b6000614ab13683614995565b9050919050565b7f45524332303a2064656372656173656420616c6c6f77616e63652062656c6f7760008201527f207a65726f000000000000000000000000000000000000000000000000000000602082015250565b6000614b146025836135dd565b9150614b1f82614ab8565b604082019050919050565b60006020820190508181036000830152614b4381614b07565b9050919050565b7f5369676e657220616e64207265636569766572206e6f74206d61746368000000600082015250565b6000614b80601d836135dd565b9150614b8b82614b4a565b602082019050919050565b60006020820190508181036000830152614baf81614b73565b9050919050565b7f4465706f73697420616d6f756e7420657863656564732062616c616e63650000600082015250565b6000614bec601e836135dd565b9150614bf782614bb6565b602082019050919050565b60006020820190508181036000830152614c1b81614bdf565b9050919050565b7f4f776e61626c653a206e6577206f776e657220697320746865207a65726f206160008201527f6464726573730000000000000000000000000000000000000000000000000000602082015250565b6000614c7e6026836135dd565b9150614c8982614c22565b604082019050919050565b60006020820190508181036000830152614cad81614c71565b9050919050565b7f4f6e6c7920636f6d6d69747465652063616e20617070726f7665206465706f7360008201527f6974730000000000000000000000000000000000000000000000000000000000602082015250565b6000614d106023836135dd565b9150614d1b82614cb4565b604082019050919050565b60006020820190508181036000830152614d3f81614d03565b9050919050565b7f496e646578206973206e6f742063757272656e74000000000000000000000000600082015250565b6000614d7c6014836135dd565b9150614d8782614d46565b602082019050919050565b60006020820190508181036000830152614dab81614d6f565b9050919050565b6000604082019050614dc76000830185613aa3565b8181036020830152614dd98184613fa9565b90509392505050565b7f45524332303a20617070726f76652066726f6d20746865207a65726f2061646460008201527f7265737300000000000000000000000000000000000000000000000000000000602082015250565b6000614e3e6024836135dd565b9150614e4982614de2565b604082019050919050565b60006020820190508181036000830152614e6d81614e31565b9050919050565b7f45524332303a20617070726f766520746f20746865207a65726f20616464726560008201527f7373000000000000000000000000000000000000000000000000000000000000602082015250565b6000614ed06022836135dd565b9150614edb82614e74565b604082019050919050565b60006020820190508181036000830152614eff81614ec3565b9050919050565b7f45524332303a20696e73756666696369656e7420616c6c6f77616e6365000000600082015250565b6000614f3c601d836135dd565b9150614f4782614f06565b602082019050919050565b60006020820190508181036000830152614f6b81614f2f565b9050919050565b7f45524332303a207472616e736665722066726f6d20746865207a65726f20616460008201527f6472657373000000000000000000000000000000000000000000000000000000602082015250565b6000614fce6025836135dd565b9150614fd982614f72565b604082019050919050565b60006020820190508181036000830152614ffd81614fc1565b9050919050565b7f45524332303a207472616e7366657220746f20746865207a65726f206164647260008201527f6573730000000000000000000000000000000000000000000000000000000000602082015250565b60006150606023836135dd565b915061506b82615004565b604082019050919050565b6000602082019050818103600083015261508f81615053565b9050919050565b7f45524332303a207472616e7366657220616d6f756e742065786365656473206260008201527f616c616e63650000000000000000000000000000000000000000000000000000602082015250565b60006150f26026836135dd565b91506150fd82615096565b604082019050919050565b60006020820190508181036000830152615121816150e5565b9050919050565b600060408201905081810360008301526151428185613fa9565b9050615151602083018461386e565b9392505050565b600060608201905081810360008301526151728186613fa9565b905081810360208301526151868185613fa9565b9050615195604083018461386e565b949350505050565b7f4e6f742074686520636f6d6d6974746565000000000000000000000000000000600082015250565b60006151d36011836135dd565b91506151de8261519d565b602082019050919050565b60006020820190508181036000830152615202816151c6565b9050919050565b50565b6000615219600083613f98565b915061522482615209565b600082019050919050565b600060608201905081810360008301526152488161520c565b9050818103602083015261525c8185613fa9565b905061526b604083018461386e565b9392505050565b7f4f776e61626c653a2063616c6c6572206973206e6f7420746865206f776e6572600082015250565b60006152a86020836135dd565b91506152b382615272565b602082019050919050565b600060208201905081810360008301526152d78161529b565b9050919050565b60008190508160005260206000209050919050565b60008154615300816140e7565b61530a81866135dd565b9450600182166000811461532557600181146153375761536a565b60ff198316865260208601935061536a565b615340856152de565b60005b8381101561536257815481890152600182019150602081019050615343565b808801955050505b50505092915050565b6000602082019050818103600083015261538d81846152f3565b905092915050565b7f57726f6e672064657374696e6174696f6e000000000000000000000000000000600082015250565b60006153cb6011836135dd565b91506153d682615395565b602082019050919050565b600060208201905081810360008301526153fa816153be565b9050919050565b7f55736572206973206d616c6963696f7573000000000000000000000000000000600082015250565b60006154376011836135dd565b915061544282615401565b602082019050919050565b600060208201905081810360008301526154668161542a565b9050919050565b8082525050565b61547d816136ff565b82525050565b61548c81613a96565b82525050565b600082825260208201905092915050565b60006154ae826137ab565b6154b88185615492565b93506154c88185602086016135ee565b6154d181613621565b840191505092915050565b600082825260208201905092915050565b60006154f8826135d2565b61550281856154dc565b93506155128185602086016135ee565b61551b81613621565b840191505092915050565b600060c08301600083015161553e6000860182615474565b5060208301516155516020860182615483565b506040830151848203604086015261556982826154a3565b9150506060830151848203606086015261558382826154ed565b9150506080830151848203608086015261559d82826154a3565b91505060a083015184820360a08601526155b782826154a3565b9150508091505092915050565b60006040820190506155d9600083018561546d565b81810360208301526155eb8184615526565b90509392505050565b6002811061560157600080fd5b50565b600081519050615613816155f4565b92915050565b60006020828403121561562f5761562e613697565b5b600061563d84828501615604565b91505092915050565b7f4e487b7100000000000000000000000000000000000000000000000000000000600052602160045260246000fd5b7f5472616e73616374696f6e206361636865640000000000000000000000000000600082015250565b60006156ab6012836135dd565b91506156b682615675565b602082019050919050565b600060208201905081810360008301526156da8161569e565b9050919050565b7f4578636565642042616c616e6365000000000000000000000000000000000000600082015250565b6000615717600e836135dd565b9150615722826156e1565b602082019050919050565b600060208201905081810360008301526157468161570a565b9050919050565b7f4f5020636f6465206572726f7200000000000000000000000000000000000000600082015250565b6000615783600d836135dd565b915061578e8261574d565b602082019050919050565b600060208201905081810360008301526157b281615776565b905091905056fea26469706673582212204c38c440b06003be903907084c62c96ffee2e8a6a7925e2f85eda1e5cf37963f64736f6c634300080c0033",
  "immutableReferences": {},
  "source": "// SPDX-License-Identifier: MIT\npragma solidity >=0.8.0 <0.9.0;\n\nimport \"@openzeppelin/contracts/access/Ownable.sol\";\nimport \"./ERC20.sol\";\nimport \"./OmniverseProtocol.sol\";\nimport \"./interfaces/IOmniverseFungible.sol\";\n\ncontract SkywalkerFungible is ERC20, Ownable, IOmniverseFungible {\n    struct DelayedTx {\n        bytes sender;\n        uint256 nonce;\n    }\n\n    uint8 public chainId;\n    uint256 public cdTime;\n    mapping(bytes => RecordedCertificate) transactionRecorder;\n    mapping(bytes => OmniverseTx) transactionCache;\n\n    string public tokenIdentity;\n    uint8[] members;\n    mapping(bytes => uint256) omniverseBalances;\n    mapping(bytes => uint256) prisons;\n    DelayedTx[] delayedTxs;\n    bytes public committee;\n    DepositRequest[] depositRequests;\n    uint256 public depositDealingIndex;\n    mapping(address => bytes) accountsMap;\n\n    event OmniverseTokenTransfer(bytes from, bytes to, uint256 value);\n    event OmniverseTokenWithdraw(bytes from, uint256 value);\n    event OmniverseTokenDeposit(bytes to, uint256 value);\n    event OmniverseTokenWrongOp(bytes sender, uint8 op);\n    event OmniverseNotOwner(bytes sender);\n    event OmniverseError(bytes sender, string reason);\n    event TransactionSent(bytes pk, uint256 nonce);\n\n    modifier onlyCommittee() {\n        address committeeAddr = _pkToAddress(committee);\n        require(msg.sender == committeeAddr, \"Only committee can approve deposits\");\n        _;\n    }\n\n    constructor(uint8 _chainId, string memory _tokenId, string memory _name, string memory _symbol) ERC20(_name, _symbol) {\n        tokenIdentity = _tokenId;\n        chainId = _chainId;\n    }\n\n    /**\n     * @dev Set the address of committee\n     */\n    function setCommitteeAddress(bytes calldata _address) public onlyOwner {\n        committee = _address;\n    }\n\n    /**\n     * @dev See {IOmniverseFungible-omniverseTransfer}\n     * Send an omniverse transaction\n     */\n    function sendOmniverseTransaction(OmniverseTokenProtocol calldata _data) external override {\n        _omniverseTransaction(_data);\n    }\n\n    /**\n     * @dev Trigger the execution of the first delayed transaction\n     */\n    function triggerExecution() external {\n        require(delayedTxs.length > 0, \"No delayed tx\");\n\n        OmniverseTx storage cache = transactionCache[delayedTxs[0].sender];\n        require(cache.timestamp != 0, \"Not cached\");\n        require(cache.txData.nonce == delayedTxs[0].nonce, \"Nonce error\");\n        (OmniverseTokenProtocol storage txData, uint256 timestamp) = (cache.txData, cache.timestamp);\n        require(block.timestamp >= timestamp + cdTime, \"Not executable\");\n        delayedTxs[0] = delayedTxs[delayedTxs.length - 1];\n        delayedTxs.pop();\n        cache.timestamp = 0;\n        // Add to transaction recorder\n        RecordedCertificate storage rc = transactionRecorder[txData.from];\n        rc.txList.push(cache);\n        if (txData.chainId == chainId) {\n            emit TransactionSent(txData.from, txData.nonce);\n        }\n\n        (uint8 op, bytes memory wrappedData) = abi.decode(txData.data, (uint8, bytes));\n        if (op == WITHDRAW) {\n            (uint256 amount) = abi.decode(wrappedData, (uint256));\n            _omniverseWithdraw(txData.from, amount, txData.chainId == chainId);\n        }\n        else if (op == TRANSFER) {\n            (bytes memory to, uint256 amount) = abi.decode(wrappedData, (bytes, uint256));\n            _omniverseTransfer(txData.from, to, amount);\n        }\n        else if (op == DEPOSIT) {\n            (bytes memory to, uint256 amount) = abi.decode(wrappedData, (bytes, uint256));\n            _omniverseDeposit(txData.from, to, amount);\n        }\n        else if (op == MINT) {\n            address fromAddr = _pkToAddress(txData.from);\n            if (fromAddr != owner()) {\n                emit OmniverseNotOwner(txData.from);\n                return;\n            }\n            (bytes memory to, uint256 amount) = abi.decode(wrappedData, (bytes, uint256));\n            _omniverseMint(to, amount);\n        }\n        else {\n            emit OmniverseTokenWrongOp(txData.from, op);\n        }\n    }\n    \n    /**\n     * @dev Trigger the execution of the first delayed transaction\n     */\n    function _checkExecution(OmniverseTokenProtocol memory txData) internal view {\n        (uint8 op, bytes memory wrappedData) = abi.decode(txData.data, (uint8, bytes));\n        if (op == WITHDRAW) {\n            (uint256 amount) = abi.decode(wrappedData, (uint256));\n            _checkOmniverseWithdraw(txData.from, amount);\n        }\n        else if (op == TRANSFER) {\n            (, uint256 amount) = abi.decode(wrappedData, (bytes, uint256));\n            _checkOmniverseTransfer(txData.from, amount);\n        }\n        else {\n            revert(\"OP code error\");\n        }\n    }\n\n    /**\n     * @dev Returns the nearest exexutable delayed transaction info\n     * or returns default if not found\n     */\n    function getExecutableDelayedTx() external view returns (DelayedTx memory ret) {\n        if (delayedTxs.length > 0) {\n            OmniverseTx storage cache = transactionCache[delayedTxs[0].sender];\n            if (block.timestamp >= cache.timestamp + cdTime) {\n                ret = delayedTxs[0];\n            }\n        }\n    }\n\n    function getDelayedTxCount() external view returns (uint256) {\n        return delayedTxs.length;\n    }\n\n    /**\n     * @dev See {IOmniverseFungible-omniverseBalanceOf}\n     * Returns the omniverse balance of a user\n     */\n    function omniverseBalanceOf(bytes calldata _pk) external view override returns (uint256) {\n        return omniverseBalances[_pk];\n    }\n\n    /**\n     * @dev See {IERC20-balanceOf}.\n     */\n    function balanceOf(address account) public view virtual override returns (uint256) {\n        bytes storage pk = accountsMap[account];\n        if (pk.length == 0) {\n            return 0;\n        }\n        else {\n            return omniverseBalances[pk];\n        }\n    }\n    \n    /**\n     * @dev See {Replace IERC20-balanceOf}.\n     */\n    function nativeBalanceOf(address account) public view returns (uint256) {\n        return _balances[account];\n    }\n\n    function _omniverseTransaction(OmniverseTokenProtocol memory _data) internal {\n        // Check if the tx destination is correct\n        require(keccak256(abi.encode(_data.to)) == keccak256(abi.encode(tokenIdentity)), \"Wrong destination\");\n\n        // Check if the sender is honest\n        // to be continued, we can use block list instead of `isMalicious`\n        require(!isMalicious(_data.from), \"User is malicious\");\n\n        // Verify the signature\n        VerifyResult verifyRet = OmniverseProtocol.verifyTransaction(transactionRecorder[_data.from], _data);\n\n        if (verifyRet == VerifyResult.Success) {\n            // Check cache\n            OmniverseTx storage cache = transactionCache[_data.from];\n            require(cache.timestamp == 0, \"Transaction cached\");\n            // Logic verification\n            _checkExecution(_data);\n            // Delays in executing\n            cache.txData = _data;\n            cache.timestamp = block.timestamp;\n            delayedTxs.push(DelayedTx(_data.from, _data.nonce));\n        }\n        else if (verifyRet == VerifyResult.Malicious) {\n            // Slash\n        }\n    }\n\n    function _checkOmniverseTransfer(bytes memory _from, uint256 _amount) internal view {\n        uint256 fromBalance = omniverseBalances[_from];\n        require(fromBalance < _amount, \"Exceed Balance\");\n    }\n\n    function _omniverseTransfer(bytes memory _from, bytes memory _to, uint256 _amount) internal {\n        _checkOmniverseTransfer(_from, _amount);\n        \n        uint256 fromBalance = omniverseBalances[_from];\n        \n        unchecked {\n            omniverseBalances[_from] = fromBalance - _amount;\n        }\n        omniverseBalances[_to] += _amount;\n\n        emit OmniverseTokenTransfer(_from, _to, _amount);\n\n        address toAddr = _pkToAddress(_to);\n        accountsMap[toAddr] = _to;\n    }\n\n    function _checkOmniverseWithdraw(bytes memory _from, uint256 _amount) internal view {\n        uint256 fromBalance = omniverseBalances[_from];\n        require(fromBalance < _amount, \"Exceed Balance\");\n    }\n\n    function _omniverseWithdraw(bytes memory _from, uint256 _amount, bool _thisChain) internal {\n        _checkOmniverseWithdraw(_from, _amount);\n\n        uint256 fromBalance = omniverseBalances[_from];\n        \n        unchecked {\n            omniverseBalances[_from] = fromBalance - _amount;\n        }\n        \n        if (_thisChain) {\n            address ownerAddr = _pkToAddress(_from);\n\n            // mint\n            _totalSupply += _amount;\n            _balances[ownerAddr] += _amount;\n        }\n\n        emit OmniverseTokenWithdraw(_from, _amount);\n    }\n\n    function _omniverseDeposit(bytes memory _from, bytes memory _to, uint256 _amount) internal {\n        require(keccak256(_from) == keccak256(committee), \"Not the committee\");\n\n        unchecked {\n            omniverseBalances[_to] += _amount;\n        }\n\n        emit OmniverseTokenDeposit(_to, _amount);\n    }\n\n    function _omniverseMint(bytes memory _to, uint256 _amount) internal {\n        omniverseBalances[_to] += _amount;\n        emit OmniverseTokenTransfer(\"\", _to, _amount);\n\n        address toAddr = _pkToAddress(_to);\n        accountsMap[toAddr] = _to;\n    }\n\n    function _pkToAddress(bytes memory _pk) internal pure returns (address) {\n        bytes32 hash = keccak256(_pk);\n        return address(uint160(uint256(hash)));\n    }\n\n    function getTime() external view returns (uint256) {\n        return block.timestamp;\n    }\n\n    function addMembers(uint8[] calldata _members) external onlyOwner {\n        for (uint256 i = 0; i < _members.length; i++) {\n            bool found = false;\n            for (uint256 j = 0; j < members.length; j++) {\n                if (members[j] == _members[i]) {\n                    found = true;\n                    break;\n                }\n            }\n            \n            if (!found) {\n                members.push(_members[i]);\n            }\n        }\n    }\n\n    function getMembers() external view returns (uint8[] memory) {\n        return members;\n    }\n\n    /**\n     * @dev Users request to convert native token to omniverse token\n     */\n    function requestDeposit(bytes calldata from, uint256 amount) external {\n        address fromAddr = _pkToAddress(from);\n        require(fromAddr == msg.sender, \"Signer and receiver not match\");\n\n        uint256 fromBalance = _balances[fromAddr];\n        require(fromBalance >= amount, \"Deposit amount exceeds balance\");\n\n        // Update\n        unchecked {\n            _balances[fromAddr] = fromBalance - amount;\n        }\n        _totalSupply -= amount;\n\n        depositRequests.push(DepositRequest(from, amount));\n    }\n\n    /**\n     * @dev The committee approves a user's request\n     */\n    function approveDeposit(uint256 index, uint256 nonce, bytes calldata signature) external onlyCommittee {\n        require(index == depositDealingIndex, \"Index is not current\");\n\n        DepositRequest storage request = depositRequests[index];\n        depositDealingIndex++;\n\n        OmniverseTokenProtocol memory p;\n        p.nonce = nonce;\n        p.chainId = chainId;\n        p.from = committee;\n        p.to = tokenIdentity;\n        p.signature = signature;\n        p.data = abi.encode(DEPOSIT, abi.encode(request.receiver, request.amount));\n        _omniverseTransaction(p);\n    }\n\n    /**\n     @dev Returns the deposit request at `index`\n     @param index: The index of requests\n     */\n    function getDepositRequest(uint256 index) external view returns (DepositRequest memory ret) {\n        if (depositRequests.length > index) {\n            ret = depositRequests[index];\n        }\n    }\n\n    function decimals() public view virtual override returns (uint8) {\n        return 12;\n    }\n\n    /**\n     * @dev See IOmniverseProtocl\n     */\n    function getTransactionCount(bytes memory _pk) external view returns (uint256) {\n        return transactionRecorder[_pk].txList.length;\n    }\n\n    /**\n     * @dev Returns the transaction data of the user with a specified nonce\n     */\n    function getTransactionData(bytes calldata _user, uint256 _nonce) external view returns (OmniverseTokenProtocol memory txData, uint256 timestamp) {\n        RecordedCertificate storage rc = transactionRecorder[_user];\n        OmniverseTx storage omniTx = rc.txList[_nonce];\n        txData = omniTx.txData;\n        timestamp = omniTx.timestamp;\n    }\n\n    function setCooingDownTime(uint256 _time) external {\n        cdTime = _time;\n    }\n\n    /**\n     * @dev See IOmniverseFungible\n     */\n    function isMalicious(bytes memory _pk) public view returns (bool) {\n        RecordedCertificate storage rc = transactionRecorder[_pk];\n        return (rc.evilTxList.length > 0);\n    }\n}",
  "sourcePath": "/home/george/program/dante/omniverse-evm/contracts/contracts/SkywalkerFungible.sol",
  "compiler": {
    "name": "solc",
    "version": "0.8.12+commit.f00d7308.Emscripten.clang"
  },
  "schemaVersion": "3.4.6",
  "updatedAt": "2023-01-11T04:22:26.025Z",
  "devdoc": {
    "kind": "dev",
    "methods": {
      "allowance(address,address)": {
        "details": "See {IERC20-allowance}."
      },
      "approve(address,uint256)": {
        "details": "See {IERC20-approve}. NOTE: If `amount` is the maximum `uint256`, the allowance is not updated on `transferFrom`. This is semantically equivalent to an infinite approval. Requirements: - `spender` cannot be the zero address."
      },
      "approveDeposit(uint256,uint256,bytes)": {
        "details": "The committee approves a user's request"
      },
      "balanceOf(address)": {
        "details": "See {IERC20-balanceOf}."
      },
      "decimals()": {
        "details": "Returns the number of decimals used to get its user representation. For example, if `decimals` equals `2`, a balance of `505` tokens should be displayed to a user as `5.05` (`505 / 10 ** 2`). Tokens usually opt for a value of 18, imitating the relationship between Ether and Wei. This is the value {ERC20} uses, unless this function is overridden; NOTE: This information is only used for _display_ purposes: it in no way affects any of the arithmetic of the contract, including {IERC20-balanceOf} and {IERC20-transfer}."
      },
      "decreaseAllowance(address,uint256)": {
        "details": "Atomically decreases the allowance granted to `spender` by the caller. This is an alternative to {approve} that can be used as a mitigation for problems described in {IERC20-approve}. Emits an {Approval} event indicating the updated allowance. Requirements: - `spender` cannot be the zero address. - `spender` must have allowance for the caller of at least `subtractedValue`."
      },
      "getDepositRequest(uint256)": {
        "details": "Returns the deposit request at `index`",
        "params": {
          "index": ": The index of requests"
        }
      },
      "getExecutableDelayedTx()": {
        "details": "Returns the nearest exexutable delayed transaction info or returns default if not found"
      },
      "getTransactionCount(bytes)": {
        "details": "See IOmniverseProtocl"
      },
      "getTransactionData(bytes,uint256)": {
        "details": "Returns the transaction data of the user with a specified nonce"
      },
      "increaseAllowance(address,uint256)": {
        "details": "Atomically increases the allowance granted to `spender` by the caller. This is an alternative to {approve} that can be used as a mitigation for problems described in {IERC20-approve}. Emits an {Approval} event indicating the updated allowance. Requirements: - `spender` cannot be the zero address."
      },
      "isMalicious(bytes)": {
        "details": "See IOmniverseFungible"
      },
      "name()": {
        "details": "Returns the name of the token."
      },
      "nativeBalanceOf(address)": {
        "details": "See {Replace IERC20-balanceOf}."
      },
      "omniverseBalanceOf(bytes)": {
        "details": "See {IOmniverseFungible-omniverseBalanceOf} Returns the omniverse balance of a user"
      },
      "owner()": {
        "details": "Returns the address of the current owner."
      },
      "renounceOwnership()": {
        "details": "Leaves the contract without owner. It will not be possible to call `onlyOwner` functions anymore. Can only be called by the current owner. NOTE: Renouncing ownership will leave the contract without an owner, thereby removing any functionality that is only available to the owner."
      },
      "requestDeposit(bytes,uint256)": {
        "details": "Users request to convert native token to omniverse token"
      },
      "sendOmniverseTransaction((uint256,uint8,bytes,string,bytes,bytes))": {
        "details": "See {IOmniverseFungible-omniverseTransfer} Send an omniverse transaction"
      },
      "setCommitteeAddress(bytes)": {
        "details": "Set the address of committee"
      },
      "symbol()": {
        "details": "Returns the symbol of the token, usually a shorter version of the name."
      },
      "totalSupply()": {
        "details": "See {IERC20-totalSupply}."
      },
      "transfer(address,uint256)": {
        "details": "See {IERC20-transfer}. Requirements: - `to` cannot be the zero address. - the caller must have a balance of at least `amount`."
      },
      "transferFrom(address,address,uint256)": {
        "details": "See {IERC20-transferFrom}. Emits an {Approval} event indicating the updated allowance. This is not required by the EIP. See the note at the beginning of {ERC20}. NOTE: Does not update the allowance if the current allowance is the maximum `uint256`. Requirements: - `from` and `to` cannot be the zero address. - `from` must have a balance of at least `amount`. - the caller must have allowance for ``from``'s tokens of at least `amount`."
      },
      "transferOwnership(address)": {
        "details": "Transfers ownership of the contract to a new account (`newOwner`). Can only be called by the current owner."
      },
      "triggerExecution()": {
        "details": "Trigger the execution of the first delayed transaction"
      }
    },
    "version": 1
  },
  "userdoc": {
    "kind": "user",
    "methods": {},
    "version": 1
  }
}