{
  "contractName": "SkywalkerFungible",
  "abi": [
    {
      "inputs": [
        {
          "internalType": "string",
          "name": "_tokenId",
          "type": "string"
        },
        {
          "internalType": "string",
          "name": "_name",
          "type": "string"
        },
        {
          "internalType": "string",
          "name": "_symbol",
          "type": "string"
        }
      ],
      "stateMutability": "nonpayable",
      "type": "constructor"
    },
    {
      "anonymous": false,
      "inputs": [
        {
          "indexed": true,
          "internalType": "address",
          "name": "owner",
          "type": "address"
        },
        {
          "indexed": true,
          "internalType": "address",
          "name": "spender",
          "type": "address"
        },
        {
          "indexed": false,
          "internalType": "uint256",
          "name": "value",
          "type": "uint256"
        }
      ],
      "name": "Approval",
      "type": "event"
    },
    {
      "anonymous": false,
      "inputs": [
        {
          "indexed": false,
          "internalType": "bytes",
          "name": "sender",
          "type": "bytes"
        },
        {
          "indexed": false,
          "internalType": "string",
          "name": "reason",
          "type": "string"
        }
      ],
      "name": "OmniverseError",
      "type": "event"
    },
    {
      "anonymous": false,
      "inputs": [
        {
          "indexed": false,
          "internalType": "bytes",
          "name": "sender",
          "type": "bytes"
        }
      ],
      "name": "OmniverseNotOwner",
      "type": "event"
    },
    {
      "anonymous": false,
      "inputs": [
        {
          "indexed": false,
          "internalType": "bytes",
          "name": "to",
          "type": "bytes"
        },
        {
          "indexed": false,
          "internalType": "uint256",
          "name": "value",
          "type": "uint256"
        }
      ],
      "name": "OmniverseTokenDeposit",
      "type": "event"
    },
    {
      "anonymous": false,
      "inputs": [
        {
          "indexed": false,
          "internalType": "bytes",
          "name": "owner",
          "type": "bytes"
        },
        {
          "indexed": false,
          "internalType": "uint256",
          "name": "balance",
          "type": "uint256"
        },
        {
          "indexed": false,
          "internalType": "uint256",
          "name": "value",
          "type": "uint256"
        }
      ],
      "name": "OmniverseTokenExceedBalance",
      "type": "event"
    },
    {
      "anonymous": false,
      "inputs": [
        {
          "indexed": false,
          "internalType": "bytes",
          "name": "from",
          "type": "bytes"
        },
        {
          "indexed": false,
          "internalType": "bytes",
          "name": "to",
          "type": "bytes"
        },
        {
          "indexed": false,
          "internalType": "uint256",
          "name": "value",
          "type": "uint256"
        }
      ],
      "name": "OmniverseTokenTransfer",
      "type": "event"
    },
    {
      "anonymous": false,
      "inputs": [
        {
          "indexed": false,
          "internalType": "bytes",
          "name": "from",
          "type": "bytes"
        },
        {
          "indexed": false,
          "internalType": "uint256",
          "name": "value",
          "type": "uint256"
        }
      ],
      "name": "OmniverseTokenWithdraw",
      "type": "event"
    },
    {
      "anonymous": false,
      "inputs": [
        {
          "indexed": false,
          "internalType": "bytes",
          "name": "sender",
          "type": "bytes"
        },
        {
          "indexed": false,
          "internalType": "uint8",
          "name": "op",
          "type": "uint8"
        }
      ],
      "name": "OmniverseTokenWrongOp",
      "type": "event"
    },
    {
      "anonymous": false,
      "inputs": [
        {
          "indexed": true,
          "internalType": "address",
          "name": "previousOwner",
          "type": "address"
        },
        {
          "indexed": true,
          "internalType": "address",
          "name": "newOwner",
          "type": "address"
        }
      ],
      "name": "OwnershipTransferred",
      "type": "event"
    },
    {
      "anonymous": false,
      "inputs": [
        {
          "indexed": true,
          "internalType": "address",
          "name": "from",
          "type": "address"
        },
        {
          "indexed": true,
          "internalType": "address",
          "name": "to",
          "type": "address"
        },
        {
          "indexed": false,
          "internalType": "uint256",
          "name": "value",
          "type": "uint256"
        }
      ],
      "name": "Transfer",
      "type": "event"
    },
    {
      "inputs": [
        {
          "internalType": "address",
          "name": "owner",
          "type": "address"
        },
        {
          "internalType": "address",
          "name": "spender",
          "type": "address"
        }
      ],
      "name": "allowance",
      "outputs": [
        {
          "internalType": "uint256",
          "name": "",
          "type": "uint256"
        }
      ],
      "stateMutability": "view",
      "type": "function",
      "constant": true
    },
    {
      "inputs": [
        {
          "internalType": "address",
          "name": "spender",
          "type": "address"
        },
        {
          "internalType": "uint256",
          "name": "amount",
          "type": "uint256"
        }
      ],
      "name": "approve",
      "outputs": [
        {
          "internalType": "bool",
          "name": "",
          "type": "bool"
        }
      ],
      "stateMutability": "nonpayable",
      "type": "function"
    },
    {
      "inputs": [
        {
          "internalType": "address",
          "name": "account",
          "type": "address"
        }
      ],
      "name": "balanceOf",
      "outputs": [
        {
          "internalType": "uint256",
          "name": "",
          "type": "uint256"
        }
      ],
      "stateMutability": "view",
      "type": "function",
      "constant": true
    },
    {
      "inputs": [],
      "name": "committee",
      "outputs": [
        {
          "internalType": "bytes",
          "name": "",
          "type": "bytes"
        }
      ],
      "stateMutability": "view",
      "type": "function",
      "constant": true
    },
    {
      "inputs": [],
      "name": "decimals",
      "outputs": [
        {
          "internalType": "uint8",
          "name": "",
          "type": "uint8"
        }
      ],
      "stateMutability": "view",
      "type": "function",
      "constant": true
    },
    {
      "inputs": [
        {
          "internalType": "address",
          "name": "spender",
          "type": "address"
        },
        {
          "internalType": "uint256",
          "name": "subtractedValue",
          "type": "uint256"
        }
      ],
      "name": "decreaseAllowance",
      "outputs": [
        {
          "internalType": "bool",
          "name": "",
          "type": "bool"
        }
      ],
      "stateMutability": "nonpayable",
      "type": "function"
    },
    {
      "inputs": [],
      "name": "depositDealingIndex",
      "outputs": [
        {
          "internalType": "uint256",
          "name": "",
          "type": "uint256"
        }
      ],
      "stateMutability": "view",
      "type": "function",
      "constant": true
    },
    {
      "inputs": [
        {
          "internalType": "address",
          "name": "spender",
          "type": "address"
        },
        {
          "internalType": "uint256",
          "name": "addedValue",
          "type": "uint256"
        }
      ],
      "name": "increaseAllowance",
      "outputs": [
        {
          "internalType": "bool",
          "name": "",
          "type": "bool"
        }
      ],
      "stateMutability": "nonpayable",
      "type": "function"
    },
    {
      "inputs": [],
      "name": "name",
      "outputs": [
        {
          "internalType": "string",
          "name": "",
          "type": "string"
        }
      ],
      "stateMutability": "view",
      "type": "function",
      "constant": true
    },
    {
      "inputs": [],
      "name": "omniverseProtocol",
      "outputs": [
        {
          "internalType": "contract IOmniverseProtocol",
          "name": "",
          "type": "address"
        }
      ],
      "stateMutability": "view",
      "type": "function",
      "constant": true
    },
    {
      "inputs": [],
      "name": "owner",
      "outputs": [
        {
          "internalType": "address",
          "name": "",
          "type": "address"
        }
      ],
      "stateMutability": "view",
      "type": "function",
      "constant": true
    },
    {
      "inputs": [],
      "name": "renounceOwnership",
      "outputs": [],
      "stateMutability": "nonpayable",
      "type": "function"
    },
    {
      "inputs": [],
      "name": "symbol",
      "outputs": [
        {
          "internalType": "string",
          "name": "",
          "type": "string"
        }
      ],
      "stateMutability": "view",
      "type": "function",
      "constant": true
    },
    {
      "inputs": [],
      "name": "tokenIdentity",
      "outputs": [
        {
          "internalType": "string",
          "name": "",
          "type": "string"
        }
      ],
      "stateMutability": "view",
      "type": "function",
      "constant": true
    },
    {
      "inputs": [],
      "name": "totalSupply",
      "outputs": [
        {
          "internalType": "uint256",
          "name": "",
          "type": "uint256"
        }
      ],
      "stateMutability": "view",
      "type": "function",
      "constant": true
    },
    {
      "inputs": [
        {
          "internalType": "address",
          "name": "to",
          "type": "address"
        },
        {
          "internalType": "uint256",
          "name": "amount",
          "type": "uint256"
        }
      ],
      "name": "transfer",
      "outputs": [
        {
          "internalType": "bool",
          "name": "",
          "type": "bool"
        }
      ],
      "stateMutability": "nonpayable",
      "type": "function"
    },
    {
      "inputs": [
        {
          "internalType": "address",
          "name": "from",
          "type": "address"
        },
        {
          "internalType": "address",
          "name": "to",
          "type": "address"
        },
        {
          "internalType": "uint256",
          "name": "amount",
          "type": "uint256"
        }
      ],
      "name": "transferFrom",
      "outputs": [
        {
          "internalType": "bool",
          "name": "",
          "type": "bool"
        }
      ],
      "stateMutability": "nonpayable",
      "type": "function"
    },
    {
      "inputs": [
        {
          "internalType": "address",
          "name": "newOwner",
          "type": "address"
        }
      ],
      "name": "transferOwnership",
      "outputs": [],
      "stateMutability": "nonpayable",
      "type": "function"
    },
    {
      "inputs": [
        {
          "internalType": "bytes",
          "name": "_address",
          "type": "bytes"
        }
      ],
      "name": "setCommitteeAddress",
      "outputs": [],
      "stateMutability": "nonpayable",
      "type": "function"
    },
    {
      "inputs": [
        {
          "internalType": "address",
          "name": "_address",
          "type": "address"
        }
      ],
      "name": "setOmniverseProtocolAddress",
      "outputs": [],
      "stateMutability": "nonpayable",
      "type": "function"
    },
    {
      "inputs": [
        {
          "components": [
            {
              "internalType": "uint256",
              "name": "nonce",
              "type": "uint256"
            },
            {
              "internalType": "uint8",
              "name": "chainId",
              "type": "uint8"
            },
            {
              "internalType": "bytes",
              "name": "from",
              "type": "bytes"
            },
            {
              "internalType": "string",
              "name": "to",
              "type": "string"
            },
            {
              "internalType": "bytes",
              "name": "data",
              "type": "bytes"
            },
            {
              "internalType": "bytes",
              "name": "signature",
              "type": "bytes"
            }
          ],
          "internalType": "struct OmniverseTokenProtocol",
          "name": "_data",
          "type": "tuple"
        }
      ],
      "name": "omniverseTransfer",
      "outputs": [],
      "stateMutability": "nonpayable",
      "type": "function"
    },
    {
      "inputs": [
        {
          "components": [
            {
              "internalType": "uint256",
              "name": "nonce",
              "type": "uint256"
            },
            {
              "internalType": "uint8",
              "name": "chainId",
              "type": "uint8"
            },
            {
              "internalType": "bytes",
              "name": "from",
              "type": "bytes"
            },
            {
              "internalType": "string",
              "name": "to",
              "type": "string"
            },
            {
              "internalType": "bytes",
              "name": "data",
              "type": "bytes"
            },
            {
              "internalType": "bytes",
              "name": "signature",
              "type": "bytes"
            }
          ],
          "internalType": "struct OmniverseTokenProtocol",
          "name": "_data",
          "type": "tuple"
        }
      ],
      "name": "omniverseWithdraw",
      "outputs": [],
      "stateMutability": "nonpayable",
      "type": "function"
    },
    {
      "inputs": [
        {
          "components": [
            {
              "internalType": "uint256",
              "name": "nonce",
              "type": "uint256"
            },
            {
              "internalType": "uint8",
              "name": "chainId",
              "type": "uint8"
            },
            {
              "internalType": "bytes",
              "name": "from",
              "type": "bytes"
            },
            {
              "internalType": "string",
              "name": "to",
              "type": "string"
            },
            {
              "internalType": "bytes",
              "name": "data",
              "type": "bytes"
            },
            {
              "internalType": "bytes",
              "name": "signature",
              "type": "bytes"
            }
          ],
          "internalType": "struct OmniverseTokenProtocol",
          "name": "_data",
          "type": "tuple"
        }
      ],
      "name": "omniverseDeposit",
      "outputs": [],
      "stateMutability": "nonpayable",
      "type": "function"
    },
    {
      "inputs": [
        {
          "components": [
            {
              "internalType": "uint256",
              "name": "nonce",
              "type": "uint256"
            },
            {
              "internalType": "uint8",
              "name": "chainId",
              "type": "uint8"
            },
            {
              "internalType": "bytes",
              "name": "from",
              "type": "bytes"
            },
            {
              "internalType": "string",
              "name": "to",
              "type": "string"
            },
            {
              "internalType": "bytes",
              "name": "data",
              "type": "bytes"
            },
            {
              "internalType": "bytes",
              "name": "signature",
              "type": "bytes"
            }
          ],
          "internalType": "struct OmniverseTokenProtocol",
          "name": "_data",
          "type": "tuple"
        }
      ],
      "name": "omniverseMint",
      "outputs": [],
      "stateMutability": "nonpayable",
      "type": "function"
    },
    {
      "inputs": [],
      "name": "triggerExecution",
      "outputs": [],
      "stateMutability": "nonpayable",
      "type": "function"
    },
    {
      "inputs": [],
      "name": "getExecutableDelayedTx",
      "outputs": [
        {
          "components": [
            {
              "internalType": "bytes",
              "name": "sender",
              "type": "bytes"
            },
            {
              "internalType": "uint256",
              "name": "nonce",
              "type": "uint256"
            }
          ],
          "internalType": "struct SkywalkerFungible.DelayedTx",
          "name": "ret",
          "type": "tuple"
        }
      ],
      "stateMutability": "view",
      "type": "function",
      "constant": true
    },
    {
      "inputs": [],
      "name": "getDelayedTxCount",
      "outputs": [
        {
          "internalType": "uint256",
          "name": "",
          "type": "uint256"
        }
      ],
      "stateMutability": "view",
      "type": "function",
      "constant": true
    },
    {
      "inputs": [
        {
          "internalType": "bytes",
          "name": "_pk",
          "type": "bytes"
        }
      ],
      "name": "omniverseBalanceOf",
      "outputs": [
        {
          "internalType": "uint256",
          "name": "",
          "type": "uint256"
        }
      ],
      "stateMutability": "view",
      "type": "function",
      "constant": true
    },
    {
      "inputs": [],
      "name": "getTime",
      "outputs": [
        {
          "internalType": "uint256",
          "name": "",
          "type": "uint256"
        }
      ],
      "stateMutability": "view",
      "type": "function",
      "constant": true
    },
    {
      "inputs": [
        {
          "internalType": "uint8[]",
          "name": "_members",
          "type": "uint8[]"
        }
      ],
      "name": "addMembers",
      "outputs": [],
      "stateMutability": "nonpayable",
      "type": "function"
    },
    {
      "inputs": [],
      "name": "getMembers",
      "outputs": [
        {
          "internalType": "uint8[]",
          "name": "",
          "type": "uint8[]"
        }
      ],
      "stateMutability": "view",
      "type": "function",
      "constant": true
    },
    {
      "inputs": [
        {
          "internalType": "bytes",
          "name": "from",
          "type": "bytes"
        },
        {
          "internalType": "uint256",
          "name": "amount",
          "type": "uint256"
        }
      ],
      "name": "requestDeposit",
      "outputs": [],
      "stateMutability": "nonpayable",
      "type": "function"
    },
    {
      "inputs": [
        {
          "internalType": "uint256",
          "name": "index",
          "type": "uint256"
        },
        {
          "internalType": "uint256",
          "name": "nonce",
          "type": "uint256"
        },
        {
          "internalType": "bytes",
          "name": "signature",
          "type": "bytes"
        }
      ],
      "name": "approveDeposit",
      "outputs": [],
      "stateMutability": "nonpayable",
      "type": "function"
    },
    {
      "inputs": [
        {
          "internalType": "uint256",
          "name": "index",
          "type": "uint256"
        }
      ],
      "name": "getDepositRequest",
      "outputs": [
        {
          "components": [
            {
              "internalType": "bytes",
              "name": "receiver",
              "type": "bytes"
            },
            {
              "internalType": "uint256",
              "name": "amount",
              "type": "uint256"
            }
          ],
          "internalType": "struct DepositRequest",
          "name": "ret",
          "type": "tuple"
        }
      ],
      "stateMutability": "view",
      "type": "function",
      "constant": true
    }
  ],
  "bytecode": "0x60806040523480156200001157600080fd5b5060405162005218380380620052188339818101604052810190620000379190620003ca565b81818160039080519060200190620000519291906200017d565b5080600490805190602001906200006a9291906200017d565b5050506200008d62000081620000af60201b60201c565b620000b760201b60201c565b8260079080519060200190620000a59291906200017d565b50505050620004e8565b600033905090565b6000600560009054906101000a900473ffffffffffffffffffffffffffffffffffffffff16905081600560006101000a81548173ffffffffffffffffffffffffffffffffffffffff021916908373ffffffffffffffffffffffffffffffffffffffff1602179055508173ffffffffffffffffffffffffffffffffffffffff168173ffffffffffffffffffffffffffffffffffffffff167f8be0079c531659141344cd1fd0a4f28419497f9722a3daafe3b4186f6b6457e060405160405180910390a35050565b8280546200018b90620004b2565b90600052602060002090601f016020900481019282620001af5760008555620001fb565b82601f10620001ca57805160ff1916838001178555620001fb565b82800160010185558215620001fb579182015b82811115620001fa578251825591602001919060010190620001dd565b5b5090506200020a91906200020e565b5090565b5b80821115620002295760008160009055506001016200020f565b5090565b6000604051905090565b600080fd5b600080fd5b600080fd5b600080fd5b6000601f19601f8301169050919050565b7f4e487b7100000000000000000000000000000000000000000000000000000000600052604160045260246000fd5b62000296826200024b565b810181811067ffffffffffffffff82111715620002b857620002b76200025c565b5b80604052505050565b6000620002cd6200022d565b9050620002db82826200028b565b919050565b600067ffffffffffffffff821115620002fe57620002fd6200025c565b5b62000309826200024b565b9050602081019050919050565b60005b838110156200033657808201518184015260208101905062000319565b8381111562000346576000848401525b50505050565b6000620003636200035d84620002e0565b620002c1565b90508281526020810184848401111562000382576200038162000246565b5b6200038f84828562000316565b509392505050565b600082601f830112620003af57620003ae62000241565b5b8151620003c18482602086016200034c565b91505092915050565b600080600060608486031215620003e657620003e562000237565b5b600084015167ffffffffffffffff8111156200040757620004066200023c565b5b620004158682870162000397565b935050602084015167ffffffffffffffff8111156200043957620004386200023c565b5b620004478682870162000397565b925050604084015167ffffffffffffffff8111156200046b576200046a6200023c565b5b620004798682870162000397565b9150509250925092565b7f4e487b7100000000000000000000000000000000000000000000000000000000600052602260045260246000fd5b60006002820490506001821680620004cb57607f821691505b60208210811415620004e257620004e162000483565b5b50919050565b614d2080620004f86000396000f3fe608060405234801561001057600080fd5b50600436106102065760003560e01c806370a082311161011a578063b36d5478116100ad578063d864e7401161007c578063d864e740146105cb578063dd62ed3e146105e9578063e6aa4c3614610619578063f2fde38b14610635578063f78e94021461065157610206565b8063b36d547814610559578063b49b7c6e14610575578063c15f3b1f14610591578063cb963553146105ad57610206565b806395d89b41116100e957806395d89b41146104bd5780639eab5253146104db578063a457c2d7146104f9578063a9059cbb1461052957610206565b806370a0823114610447578063715018a6146104775780638da5cb5b1461048157806390abca4d1461049f57610206565b80632ac1c5681161019d57806343a642891161016c57806343a64289146103915780634d9ec5f6146103ad57806352ce5831146103c9578063557ed1ba146103f957806364b4c3101461041757610206565b80632ac1c5681461031d578063313ce5671461032757806336e414df14610345578063395093511461036157610206565b80630d94bb52116101d95780630d94bb521461029357806318160ddd146102b15780631cafc401146102cf57806323b872dd146102ed57610206565b8063057aa1a51461020b57806306fdde0314610227578063095ea7b3146102455780630d5f6f9314610275575b600080fd5b61022560048036038101906102209190612ce8565b61066d565b005b61022f610682565b60405161023c9190612dca565b60405180910390f35b61025f600480360381019061025a9190612e80565b610714565b60405161026c9190612edb565b60405180910390f35b61027d610737565b60405161028a9190612f97565b60405180910390f35b61029b6109b4565b6040516102a89190612fc8565b60405180910390f35b6102b96109c1565b6040516102c69190612fc8565b60405180910390f35b6102d76109cb565b6040516102e49190613042565b60405180910390f35b6103076004803603810190610302919061305d565b6109f1565b6040516103149190612edb565b60405180910390f35b610325610a20565b005b61032f610f8c565b60405161033c91906130cc565b60405180910390f35b61035f600480360381019061035a919061314c565b610f95565b005b61037b60048036038101906103769190612e80565b6110cc565b6040516103889190612edb565b60405180910390f35b6103ab60048036038101906103a69190612ce8565b611103565b005b6103c760048036038101906103c29190613199565b611118565b005b6103e360048036038101906103de919061321c565b611164565b6040516103f09190612fc8565b60405180910390f35b61040161118f565b60405161040e9190612fc8565b60405180910390f35b610431600480360381019061042c9190613269565b611197565b60405161043e91906132d3565b60405180910390f35b610461600480360381019061045c9190613199565b61127d565b60405161046e9190612fc8565b60405180910390f35b61047f6112c5565b005b6104896112d9565b6040516104969190613304565b60405180910390f35b6104a7611303565b6040516104b49190612fc8565b60405180910390f35b6104c5611309565b6040516104d29190612dca565b60405180910390f35b6104e361139b565b6040516104f091906133dd565b60405180910390f35b610513600480360381019061050e9190612e80565b611419565b6040516105209190612edb565b60405180910390f35b610543600480360381019061053e9190612e80565b611490565b6040516105509190612edb565b60405180910390f35b610573600480360381019061056e9190612ce8565b6114b3565b005b61058f600480360381019061058a91906133ff565b6114c8565b005b6105ab60048036038101906105a6919061321c565b61171f565b005b6105b561173d565b6040516105c29190612dca565b60405180910390f35b6105d36117cb565b6040516105e091906134a9565b60405180910390f35b61060360048036038101906105fe91906134cb565b611859565b6040516106109190612fc8565b60405180910390f35b610633600480360381019061062e9190612ce8565b6118e0565b005b61064f600480360381019061064a9190613199565b6118f5565b005b61066b6004803603810190610666919061350b565b611979565b005b61067f8161067a90613896565b611d8c565b50565b606060038054610691906138d8565b80601f01602080910402602001604051908101604052809291908181526020018280546106bd906138d8565b801561070a5780601f106106df5761010080835404028352916020019161070a565b820191906000526020600020905b8154815290600101906020018083116106ed57829003601f168201915b5050505050905090565b60008061071f612071565b905061072c818585612079565b600191505092915050565b61073f612a4d565b6000600b8054905011156109b1576000600660009054906101000a900473ffffffffffffffffffffffffffffffffffffffff1673ffffffffffffffffffffffffffffffffffffffff166339aaa281600b6000815481106107a2576107a161390a565b5b9060005260206000209060020201600001600b6000815481106107c8576107c761390a565b5b9060005260206000209060020201600101546040518363ffffffff1660e01b81526004016107f79291906139ce565b600060405180830381865afa158015610814573d6000803e3d6000fd5b505050506040513d6000823e3d601f19601f8201168201806040525081019061083d9190613c18565b915050600660009054906101000a900473ffffffffffffffffffffffffffffffffffffffff1673ffffffffffffffffffffffffffffffffffffffff16636f06f7b86040518163ffffffff1660e01b8152600401602060405180830381865afa1580156108ad573d6000803e3d6000fd5b505050506040513d601f19601f820116820180604052508101906108d19190613c74565b816108dc9190613cd0565b42106109af57600b6000815481106108f7576108f661390a565b5b9060005260206000209060020201604051806040016040529081600082018054610920906138d8565b80601f016020809104026020016040519081016040528092919081815260200182805461094c906138d8565b80156109995780601f1061096e57610100808354040283529160200191610999565b820191906000526020600020905b81548152906001019060200180831161097c57829003601f168201915b5050505050815260200160018201548152505091505b505b90565b6000600b80549050905090565b6000600254905090565b600660009054906101000a900473ffffffffffffffffffffffffffffffffffffffff1681565b6000806109fc612071565b9050610a09858285612244565b610a148585856122d0565b60019150509392505050565b6000600b8054905011610a68576040517f08c379a0000000000000000000000000000000000000000000000000000000008152600401610a5f90613d72565b60405180910390fd5b600080600660009054906101000a900473ffffffffffffffffffffffffffffffffffffffff1673ffffffffffffffffffffffffffffffffffffffff166339aaa281600b600081548110610abe57610abd61390a565b5b9060005260206000209060020201600001600b600081548110610ae457610ae361390a565b5b9060005260206000209060020201600101546040518363ffffffff1660e01b8152600401610b139291906139ce565b600060405180830381865afa158015610b30573d6000803e3d6000fd5b505050506040513d6000823e3d601f19601f82011682018060405250810190610b599190613c18565b91509150600660009054906101000a900473ffffffffffffffffffffffffffffffffffffffff1673ffffffffffffffffffffffffffffffffffffffff16636f06f7b86040518163ffffffff1660e01b8152600401602060405180830381865afa158015610bca573d6000803e3d6000fd5b505050506040513d601f19601f82011682018060405250810190610bee9190613c74565b81610bf99190613cd0565b421015610c3b576040517f08c379a0000000000000000000000000000000000000000000000000000000008152600401610c3290613dde565b60405180910390fd5b600b6001600b80549050610c4f9190613dfe565b81548110610c6057610c5f61390a565b5b9060005260206000209060020201600b600081548110610c8357610c8261390a565b5b90600052602060002090600202016000820181600001908054610ca5906138d8565b610cb0929190612a67565b5060018201548160010155905050600b805480610cd057610ccf613e32565b5b600190038181906000526020600020906002020160008082016000610cf59190612af4565b6001820160009055505090556000808360800151806020019051810190610d1c9190613e61565b91509150600260ff168260ff161415610df857600081806020019051810190610d459190613c74565b9050610df2856040015182600660009054906101000a900473ffffffffffffffffffffffffffffffffffffffff1673ffffffffffffffffffffffffffffffffffffffff16633408e4706040518163ffffffff1660e01b8152600401602060405180830381865afa158015610dbd573d6000803e3d6000fd5b505050506040513d601f19601f82011682018060405250810190610de19190613ebd565b60ff16886020015160ff1614612551565b50610f85565b600160ff168260ff161415610e385760008082806020019051810190610e1e9190613eea565b91509150610e31866040015183836126a4565b5050610f84565b600060ff168260ff161415610e785760008082806020019051810190610e5e9190613eea565b91509150610e71866040015183836127ab565b5050610f83565b600360ff168260ff161415610f44576000610e968560400151612874565b9050610ea06112d9565b73ffffffffffffffffffffffffffffffffffffffff168173ffffffffffffffffffffffffffffffffffffffff1614610f17577fbd8697cc45013432c9b28106cbef86826e50ba0069e4f7c82a44c5f9a2e835798560400151604051610f0591906134a9565b60405180910390a15050505050610f8a565b60008083806020019051810190610f2e9190613eea565b91509150610f3c828261288d565b505050610f82565b7fb037c465dfd2ba266747dc7bf6ef2589cf239e0c7d2b3f66f666adddf07d4f54846040015183604051610f79929190613f46565b60405180910390a15b5b5b5b505050505b565b60006012905090565b610f9d6128ff565b60005b828290508110156110c7576000805b60088054905081101561104057848484818110610fcf57610fce61390a565b5b9050602002016020810190610fe49190613f76565b60ff1660088281548110610ffb57610ffa61390a565b5b90600052602060002090602091828204019190069054906101000a900460ff1660ff16141561102d5760019150611040565b808061103890613fa3565b915050610faf565b50806110b357600884848481811061105b5761105a61390a565b5b90506020020160208101906110709190613f76565b90806001815401808255809150506001900390600052602060002090602091828204019190069091909190916101000a81548160ff021916908360ff1602179055505b5080806110bf90613fa3565b915050610fa0565b505050565b6000806110d7612071565b90506110f88185856110e98589611859565b6110f39190613cd0565b612079565b600191505092915050565b6111158161111090613896565b611d8c565b50565b6111206128ff565b80600660006101000a81548173ffffffffffffffffffffffffffffffffffffffff021916908373ffffffffffffffffffffffffffffffffffffffff16021790555050565b60006009838360405161117892919061401c565b908152602001604051809103902054905092915050565b600042905090565b61119f612b34565b81600d80549050111561127857600d82815481106111c0576111bf61390a565b5b90600052602060002090600202016040518060400160405290816000820180546111e9906138d8565b80601f0160208091040260200160405190810160405280929190818152602001828054611215906138d8565b80156112625780601f1061123757610100808354040283529160200191611262565b820191906000526020600020905b81548152906001019060200180831161124557829003601f168201915b5050505050815260200160018201548152505090505b919050565b60008060008373ffffffffffffffffffffffffffffffffffffffff1673ffffffffffffffffffffffffffffffffffffffff168152602001908152602001600020549050919050565b6112cd6128ff565b6112d7600061297d565b565b6000600560009054906101000a900473ffffffffffffffffffffffffffffffffffffffff16905090565b600e5481565b606060048054611318906138d8565b80601f0160208091040260200160405190810160405280929190818152602001828054611344906138d8565b80156113915780601f1061136657610100808354040283529160200191611391565b820191906000526020600020905b81548152906001019060200180831161137457829003601f168201915b5050505050905090565b6060600880548060200260200160405190810160405280929190818152602001828054801561140f57602002820191906000526020600020906000905b82829054906101000a900460ff1660ff16815260200190600101906020826000010492830192600103820291508084116113d85790505b5050505050905090565b600080611424612071565b905060006114328286611859565b905083811015611477576040517f08c379a000000000000000000000000000000000000000000000000000000000815260040161146e906140a7565b60405180910390fd5b6114848286868403612079565b60019250505092915050565b60008061149b612071565b90506114a88185856122d0565b600191505092915050565b6114c5816114c090613896565b611d8c565b50565b600061151784848080601f016020809104026020016040519081016040528093929190818152602001838380828437600081840152601f19601f82011690508083019250505050505050612874565b90503373ffffffffffffffffffffffffffffffffffffffff168173ffffffffffffffffffffffffffffffffffffffff1614611587576040517f08c379a000000000000000000000000000000000000000000000000000000000815260040161157e90614113565b60405180910390fd5b60008060008373ffffffffffffffffffffffffffffffffffffffff1673ffffffffffffffffffffffffffffffffffffffff1681526020019081526020016000205490508281101561160d576040517f08c379a00000000000000000000000000000000000000000000000000000000081526004016116049061417f565b60405180910390fd5b8281036000808473ffffffffffffffffffffffffffffffffffffffff1673ffffffffffffffffffffffffffffffffffffffff1681526020019081526020016000208190555082600260008282546116649190613dfe565b92505081905550600d604051806040016040528087878080601f016020809104026020016040519081016040528093929190818152602001838380828437600081840152601f19601f820116905080830192505050505050508152602001858152509080600181540180825580915050600190039060005260206000209060020201600090919091909150600082015181600001908051906020019061170b929190612b4e565b506020820151816001015550505050505050565b6117276128ff565b8181600c9190611738929190612bd4565b505050565b6007805461174a906138d8565b80601f0160208091040260200160405190810160405280929190818152602001828054611776906138d8565b80156117c35780601f10611798576101008083540402835291602001916117c3565b820191906000526020600020905b8154815290600101906020018083116117a657829003601f168201915b505050505081565b600c80546117d8906138d8565b80601f0160208091040260200160405190810160405280929190818152602001828054611804906138d8565b80156118515780601f1061182657610100808354040283529160200191611851565b820191906000526020600020905b81548152906001019060200180831161183457829003601f168201915b505050505081565b6000600160008473ffffffffffffffffffffffffffffffffffffffff1673ffffffffffffffffffffffffffffffffffffffff16815260200190815260200160002060008373ffffffffffffffffffffffffffffffffffffffff1673ffffffffffffffffffffffffffffffffffffffff16815260200190815260200160002054905092915050565b6118f2816118ed90613896565b611d8c565b50565b6118fd6128ff565b600073ffffffffffffffffffffffffffffffffffffffff168173ffffffffffffffffffffffffffffffffffffffff16141561196d576040517f08c379a000000000000000000000000000000000000000000000000000000000815260040161196490614211565b60405180910390fd5b6119768161297d565b50565b6000611a0e600c805461198b906138d8565b80601f01602080910402602001604051908101604052809291908181526020018280546119b7906138d8565b8015611a045780601f106119d957610100808354040283529160200191611a04565b820191906000526020600020905b8154815290600101906020018083116119e757829003601f168201915b5050505050612874565b90508073ffffffffffffffffffffffffffffffffffffffff163373ffffffffffffffffffffffffffffffffffffffff1614611a7e576040517f08c379a0000000000000000000000000000000000000000000000000000000008152600401611a75906142a3565b60405180910390fd5b600e548514611ac2576040517f08c379a0000000000000000000000000000000000000000000000000000000008152600401611ab99061430f565b60405180910390fd5b6000600d8681548110611ad857611ad761390a565b5b90600052602060002090600202019050600e6000815480929190611afb90613fa3565b9190505550611b08612c5a565b85816000018181525050600660009054906101000a900473ffffffffffffffffffffffffffffffffffffffff1673ffffffffffffffffffffffffffffffffffffffff16633408e4706040518163ffffffff1660e01b8152600401602060405180830381865afa158015611b7f573d6000803e3d6000fd5b505050506040513d601f19601f82011682018060405250810190611ba39190613ebd565b816020019060ff16908160ff1681525050600c8054611bc1906138d8565b80601f0160208091040260200160405190810160405280929190818152602001828054611bed906138d8565b8015611c3a5780601f10611c0f57610100808354040283529160200191611c3a565b820191906000526020600020905b815481529060010190602001808311611c1d57829003601f168201915b5050505050816040018190525060078054611c54906138d8565b80601f0160208091040260200160405190810160405280929190818152602001828054611c80906138d8565b8015611ccd5780601f10611ca257610100808354040283529160200191611ccd565b820191906000526020600020905b815481529060010190602001808311611cb057829003601f168201915b5050505050816060018190525084848080601f016020809104026020016040519081016040528093929190818152602001838380828437600081840152601f19601f820116905080830192505050505050508160a001819052506000826000018360010154604051602001611d439291906139ce565b604051602081830303815290604052604051602001611d6392919061432f565b6040516020818303038152906040528160800181905250611d8381611d8c565b50505050505050565b6007604051602001611d9e91906143f4565b604051602081830303815290604052805190602001208160600151604051602001611dc99190612dca565b6040516020818303038152906040528051906020012014611e1f576040517f08c379a0000000000000000000000000000000000000000000000000000000008152600401611e1690614462565b60405180910390fd5b600660009054906101000a900473ffffffffffffffffffffffffffffffffffffffff1673ffffffffffffffffffffffffffffffffffffffff16633713bb5382604001516040518263ffffffff1660e01b8152600401611e7e91906134a9565b602060405180830381865afa158015611e9b573d6000803e3d6000fd5b505050506040513d601f19601f82011682018060405250810190611ebf91906144ae565b15611eff576040517f08c379a0000000000000000000000000000000000000000000000000000000008152600401611ef690614527565b60405180910390fd5b6000600660009054906101000a900473ffffffffffffffffffffffffffffffffffffffff1673ffffffffffffffffffffffffffffffffffffffff1663edb6e615836040518263ffffffff1660e01b8152600401611f5c919061462f565b6020604051808303816000875af1158015611f7b573d6000803e3d6000fd5b505050506040513d601f19601f82011682018060405250810190611f9f9190614676565b905060006001811115611fb557611fb46146a3565b5b816001811115611fc857611fc76146a3565b5b141561204457600b604051806040016040528084604001518152602001846000015181525090806001815401808255809150506001900390600052602060002090600202016000909190919091506000820151816000019080519060200190612032929190612b4e565b5060208201518160010155505061206d565b600180811115612057576120566146a3565b5b81600181111561206a576120696146a3565b5b50505b5050565b600033905090565b600073ffffffffffffffffffffffffffffffffffffffff168373ffffffffffffffffffffffffffffffffffffffff1614156120e9576040517f08c379a00000000000000000000000000000000000000000000000000000000081526004016120e090614744565b60405180910390fd5b600073ffffffffffffffffffffffffffffffffffffffff168273ffffffffffffffffffffffffffffffffffffffff161415612159576040517f08c379a0000000000000000000000000000000000000000000000000000000008152600401612150906147d6565b60405180910390fd5b80600160008573ffffffffffffffffffffffffffffffffffffffff1673ffffffffffffffffffffffffffffffffffffffff16815260200190815260200160002060008473ffffffffffffffffffffffffffffffffffffffff1673ffffffffffffffffffffffffffffffffffffffff168152602001908152602001600020819055508173ffffffffffffffffffffffffffffffffffffffff168373ffffffffffffffffffffffffffffffffffffffff167f8c5be1e5ebec7d5bd14f71427d1e84f3dd0314c0f7b2291e5b200ac8c7c3b925836040516122379190612fc8565b60405180910390a3505050565b60006122508484611859565b90507fffffffffffffffffffffffffffffffffffffffffffffffffffffffffffffffff81146122ca57818110156122bc576040517f08c379a00000000000000000000000000000000000000000000000000000000081526004016122b390614842565b60405180910390fd5b6122c98484848403612079565b5b50505050565b600073ffffffffffffffffffffffffffffffffffffffff168373ffffffffffffffffffffffffffffffffffffffff161415612340576040517f08c379a0000000000000000000000000000000000000000000000000000000008152600401612337906148d4565b60405180910390fd5b600073ffffffffffffffffffffffffffffffffffffffff168273ffffffffffffffffffffffffffffffffffffffff1614156123b0576040517f08c379a00000000000000000000000000000000000000000000000000000000081526004016123a790614966565b60405180910390fd5b6123bb838383612a43565b60008060008573ffffffffffffffffffffffffffffffffffffffff1673ffffffffffffffffffffffffffffffffffffffff16815260200190815260200160002054905081811015612441576040517f08c379a0000000000000000000000000000000000000000000000000000000008152600401612438906149f8565b60405180910390fd5b8181036000808673ffffffffffffffffffffffffffffffffffffffff1673ffffffffffffffffffffffffffffffffffffffff16815260200190815260200160002081905550816000808573ffffffffffffffffffffffffffffffffffffffff1673ffffffffffffffffffffffffffffffffffffffff16815260200190815260200160002060008282546124d49190613cd0565b925050819055508273ffffffffffffffffffffffffffffffffffffffff168473ffffffffffffffffffffffffffffffffffffffff167fddf252ad1be2c89b69c2b068fc378daa952ba7f163c4a11628f55a4df523b3ef846040516125389190612fc8565b60405180910390a361254b848484612a48565b50505050565b60006009846040516125639190614a49565b9081526020016040518091039020549050828110156125bc577faa7f93bbb0659f61a11b680e0590ab23205967a5bdaa928dae6372df0bb932678482856040516125af93929190614a60565b60405180910390a161269e565b8281036009856040516125cf9190614a49565b90815260200160405180910390208190555081156126645760006125f285612874565b905083600260008282546126069190613cd0565b92505081905550836000808373ffffffffffffffffffffffffffffffffffffffff1673ffffffffffffffffffffffffffffffffffffffff168152602001908152602001600020600082825461265b9190613cd0565b92505081905550505b7fe8206846acaf2b75153b1286f2d74f781d9b94b4787dc2ce7f8c075414e3cf6f8484604051612695929190614a9e565b60405180910390a15b50505050565b60006009846040516126b69190614a49565b90815260200160405180910390205490508181101561270f577faa7f93bbb0659f61a11b680e0590ab23205967a5bdaa928dae6372df0bb9326784828460405161270293929190614a60565b60405180910390a16127a5565b8181036009856040516127229190614a49565b908152602001604051809103902081905550816009846040516127459190614a49565b908152602001604051809103902060008282546127629190613cd0565b925050819055507f1d8380031597508b7d5d3df4999b8136789b62ed932115f9eb5897e19903792e84848460405161279c93929190614ace565b60405180910390a15b50505050565b600c6040516127ba9190614b92565b604051809103902083805190602001201461280a576040517f08c379a000000000000000000000000000000000000000000000000000000000815260040161280190614bf5565b60405180910390fd5b8060098360405161281b9190614a49565b9081526020016040518091039020600082825401925050819055507f1b349f1b9a3c62fcd689a1e9eec1b30e140f416323e50f3206902ea759efbbbe8282604051612867929190614a9e565b60405180910390a1505050565b600080828051906020012090508060001c915050919050565b8060098360405161289e9190614a49565b908152602001604051809103902060008282546128bb9190613cd0565b925050819055507f1d8380031597508b7d5d3df4999b8136789b62ed932115f9eb5897e19903792e82826040516128f3929190614c3b565b60405180910390a15050565b612907612071565b73ffffffffffffffffffffffffffffffffffffffff166129256112d9565b73ffffffffffffffffffffffffffffffffffffffff161461297b576040517f08c379a000000000000000000000000000000000000000000000000000000000815260040161297290614cca565b60405180910390fd5b565b6000600560009054906101000a900473ffffffffffffffffffffffffffffffffffffffff16905081600560006101000a81548173ffffffffffffffffffffffffffffffffffffffff021916908373ffffffffffffffffffffffffffffffffffffffff1602179055508173ffffffffffffffffffffffffffffffffffffffff168173ffffffffffffffffffffffffffffffffffffffff167f8be0079c531659141344cd1fd0a4f28419497f9722a3daafe3b4186f6b6457e060405160405180910390a35050565b505050565b505050565b604051806040016040528060608152602001600081525090565b828054612a73906138d8565b90600052602060002090601f016020900481019282612a955760008555612ae3565b82601f10612aa65780548555612ae3565b82800160010185558215612ae357600052602060002091601f016020900482015b82811115612ae2578254825591600101919060010190612ac7565b5b509050612af09190612c93565b5090565b508054612b00906138d8565b6000825580601f10612b125750612b31565b601f016020900490600052602060002090810190612b309190612c93565b5b50565b604051806040016040528060608152602001600081525090565b828054612b5a906138d8565b90600052602060002090601f016020900481019282612b7c5760008555612bc3565b82601f10612b9557805160ff1916838001178555612bc3565b82800160010185558215612bc3579182015b82811115612bc2578251825591602001919060010190612ba7565b5b509050612bd09190612c93565b5090565b828054612be0906138d8565b90600052602060002090601f016020900481019282612c025760008555612c49565b82601f10612c1b57803560ff1916838001178555612c49565b82800160010185558215612c49579182015b82811115612c48578235825591602001919060010190612c2d565b5b509050612c569190612c93565b5090565b6040518060c0016040528060008152602001600060ff168152602001606081526020016060815260200160608152602001606081525090565b5b80821115612cac576000816000905550600101612c94565b5090565b6000604051905090565b600080fd5b600080fd5b600080fd5b600060c08284031215612cdf57612cde612cc4565b5b81905092915050565b600060208284031215612cfe57612cfd612cba565b5b600082013567ffffffffffffffff811115612d1c57612d1b612cbf565b5b612d2884828501612cc9565b91505092915050565b600081519050919050565b600082825260208201905092915050565b60005b83811015612d6b578082015181840152602081019050612d50565b83811115612d7a576000848401525b50505050565b6000601f19601f8301169050919050565b6000612d9c82612d31565b612da68185612d3c565b9350612db6818560208601612d4d565b612dbf81612d80565b840191505092915050565b60006020820190508181036000830152612de48184612d91565b905092915050565b600073ffffffffffffffffffffffffffffffffffffffff82169050919050565b6000612e1782612dec565b9050919050565b612e2781612e0c565b8114612e3257600080fd5b50565b600081359050612e4481612e1e565b92915050565b6000819050919050565b612e5d81612e4a565b8114612e6857600080fd5b50565b600081359050612e7a81612e54565b92915050565b60008060408385031215612e9757612e96612cba565b5b6000612ea585828601612e35565b9250506020612eb685828601612e6b565b9150509250929050565b60008115159050919050565b612ed581612ec0565b82525050565b6000602082019050612ef06000830184612ecc565b92915050565b600081519050919050565b600082825260208201905092915050565b6000612f1d82612ef6565b612f278185612f01565b9350612f37818560208601612d4d565b612f4081612d80565b840191505092915050565b612f5481612e4a565b82525050565b60006040830160008301518482036000860152612f778282612f12565b9150506020830151612f8c6020860182612f4b565b508091505092915050565b60006020820190508181036000830152612fb18184612f5a565b905092915050565b612fc281612e4a565b82525050565b6000602082019050612fdd6000830184612fb9565b92915050565b6000819050919050565b6000613008613003612ffe84612dec565b612fe3565b612dec565b9050919050565b600061301a82612fed565b9050919050565b600061302c8261300f565b9050919050565b61303c81613021565b82525050565b60006020820190506130576000830184613033565b92915050565b60008060006060848603121561307657613075612cba565b5b600061308486828701612e35565b935050602061309586828701612e35565b92505060406130a686828701612e6b565b9150509250925092565b600060ff82169050919050565b6130c6816130b0565b82525050565b60006020820190506130e160008301846130bd565b92915050565b600080fd5b600080fd5b600080fd5b60008083601f84011261310c5761310b6130e7565b5b8235905067ffffffffffffffff811115613129576131286130ec565b5b602083019150836020820283011115613145576131446130f1565b5b9250929050565b6000806020838503121561316357613162612cba565b5b600083013567ffffffffffffffff81111561318157613180612cbf565b5b61318d858286016130f6565b92509250509250929050565b6000602082840312156131af576131ae612cba565b5b60006131bd84828501612e35565b91505092915050565b60008083601f8401126131dc576131db6130e7565b5b8235905067ffffffffffffffff8111156131f9576131f86130ec565b5b602083019150836001820283011115613215576132146130f1565b5b9250929050565b6000806020838503121561323357613232612cba565b5b600083013567ffffffffffffffff81111561325157613250612cbf565b5b61325d858286016131c6565b92509250509250929050565b60006020828403121561327f5761327e612cba565b5b600061328d84828501612e6b565b91505092915050565b600060408301600083015184820360008601526132b38282612f12565b91505060208301516132c86020860182612f4b565b508091505092915050565b600060208201905081810360008301526132ed8184613296565b905092915050565b6132fe81612e0c565b82525050565b600060208201905061331960008301846132f5565b92915050565b600081519050919050565b600082825260208201905092915050565b6000819050602082019050919050565b613354816130b0565b82525050565b6000613366838361334b565b60208301905092915050565b6000602082019050919050565b600061338a8261331f565b613394818561332a565b935061339f8361333b565b8060005b838110156133d05781516133b7888261335a565b97506133c283613372565b9250506001810190506133a3565b5085935050505092915050565b600060208201905081810360008301526133f7818461337f565b905092915050565b60008060006040848603121561341857613417612cba565b5b600084013567ffffffffffffffff81111561343657613435612cbf565b5b613442868287016131c6565b9350935050602061345586828701612e6b565b9150509250925092565b600082825260208201905092915050565b600061347b82612ef6565b613485818561345f565b9350613495818560208601612d4d565b61349e81612d80565b840191505092915050565b600060208201905081810360008301526134c38184613470565b905092915050565b600080604083850312156134e2576134e1612cba565b5b60006134f085828601612e35565b925050602061350185828601612e35565b9150509250929050565b6000806000806060858703121561352557613524612cba565b5b600061353387828801612e6b565b945050602061354487828801612e6b565b935050604085013567ffffffffffffffff81111561356557613564612cbf565b5b613571878288016131c6565b925092505092959194509250565b600080fd5b7f4e487b7100000000000000000000000000000000000000000000000000000000600052604160045260246000fd5b6135bc82612d80565b810181811067ffffffffffffffff821117156135db576135da613584565b5b80604052505050565b60006135ee612cb0565b90506135fa82826135b3565b919050565b600080fd5b61360d816130b0565b811461361857600080fd5b50565b60008135905061362a81613604565b92915050565b600080fd5b600067ffffffffffffffff8211156136505761364f613584565b5b61365982612d80565b9050602081019050919050565b82818337600083830152505050565b600061368861368384613635565b6135e4565b9050828152602081018484840111156136a4576136a3613630565b5b6136af848285613666565b509392505050565b600082601f8301126136cc576136cb6130e7565b5b81356136dc848260208601613675565b91505092915050565b600067ffffffffffffffff821115613700576136ff613584565b5b61370982612d80565b9050602081019050919050565b6000613729613724846136e5565b6135e4565b90508281526020810184848401111561374557613744613630565b5b613750848285613666565b509392505050565b600082601f83011261376d5761376c6130e7565b5b813561377d848260208601613716565b91505092915050565b600060c0828403121561379c5761379b61357f565b5b6137a660c06135e4565b905060006137b684828501612e6b565b60008301525060206137ca8482850161361b565b602083015250604082013567ffffffffffffffff8111156137ee576137ed6135ff565b5b6137fa848285016136b7565b604083015250606082013567ffffffffffffffff81111561381e5761381d6135ff565b5b61382a84828501613758565b606083015250608082013567ffffffffffffffff81111561384e5761384d6135ff565b5b61385a848285016136b7565b60808301525060a082013567ffffffffffffffff81111561387e5761387d6135ff565b5b61388a848285016136b7565b60a08301525092915050565b60006138a23683613786565b9050919050565b7f4e487b7100000000000000000000000000000000000000000000000000000000600052602260045260246000fd5b600060028204905060018216806138f057607f821691505b60208210811415613904576139036138a9565b5b50919050565b7f4e487b7100000000000000000000000000000000000000000000000000000000600052603260045260246000fd5b60008190508160005260206000209050919050565b6000815461395b816138d8565b613965818661345f565b945060018216600081146139805760018114613992576139c5565b60ff19831686526020860193506139c5565b61399b85613939565b60005b838110156139bd5781548189015260018201915060208101905061399e565b808801955050505b50505092915050565b600060408201905081810360008301526139e8818561394e565b90506139f76020830184612fb9565b9392505050565b600081519050613a0d81612e54565b92915050565b600081519050613a2281613604565b92915050565b6000613a3b613a3684613635565b6135e4565b905082815260208101848484011115613a5757613a56613630565b5b613a62848285612d4d565b509392505050565b600082601f830112613a7f57613a7e6130e7565b5b8151613a8f848260208601613a28565b91505092915050565b6000613aab613aa6846136e5565b6135e4565b905082815260208101848484011115613ac757613ac6613630565b5b613ad2848285612d4d565b509392505050565b600082601f830112613aef57613aee6130e7565b5b8151613aff848260208601613a98565b91505092915050565b600060c08284031215613b1e57613b1d61357f565b5b613b2860c06135e4565b90506000613b38848285016139fe565b6000830152506020613b4c84828501613a13565b602083015250604082015167ffffffffffffffff811115613b7057613b6f6135ff565b5b613b7c84828501613a6a565b604083015250606082015167ffffffffffffffff811115613ba057613b9f6135ff565b5b613bac84828501613ada565b606083015250608082015167ffffffffffffffff811115613bd057613bcf6135ff565b5b613bdc84828501613a6a565b60808301525060a082015167ffffffffffffffff811115613c0057613bff6135ff565b5b613c0c84828501613a6a565b60a08301525092915050565b60008060408385031215613c2f57613c2e612cba565b5b600083015167ffffffffffffffff811115613c4d57613c4c612cbf565b5b613c5985828601613b08565b9250506020613c6a858286016139fe565b9150509250929050565b600060208284031215613c8a57613c89612cba565b5b6000613c98848285016139fe565b91505092915050565b7f4e487b7100000000000000000000000000000000000000000000000000000000600052601160045260246000fd5b6000613cdb82612e4a565b9150613ce683612e4a565b9250827fffffffffffffffffffffffffffffffffffffffffffffffffffffffffffffffff03821115613d1b57613d1a613ca1565b5b828201905092915050565b7f4e6f2064656c6179656420747800000000000000000000000000000000000000600082015250565b6000613d5c600d83612d3c565b9150613d6782613d26565b602082019050919050565b60006020820190508181036000830152613d8b81613d4f565b9050919050565b7f4e6f742065786563757461626c65000000000000000000000000000000000000600082015250565b6000613dc8600e83612d3c565b9150613dd382613d92565b602082019050919050565b60006020820190508181036000830152613df781613dbb565b9050919050565b6000613e0982612e4a565b9150613e1483612e4a565b925082821015613e2757613e26613ca1565b5b828203905092915050565b7f4e487b7100000000000000000000000000000000000000000000000000000000600052603160045260246000fd5b60008060408385031215613e7857613e77612cba565b5b6000613e8685828601613a13565b925050602083015167ffffffffffffffff811115613ea757613ea6612cbf565b5b613eb385828601613a6a565b9150509250929050565b600060208284031215613ed357613ed2612cba565b5b6000613ee184828501613a13565b91505092915050565b60008060408385031215613f0157613f00612cba565b5b600083015167ffffffffffffffff811115613f1f57613f1e612cbf565b5b613f2b85828601613a6a565b9250506020613f3c858286016139fe565b9150509250929050565b60006040820190508181036000830152613f608185613470565b9050613f6f60208301846130bd565b9392505050565b600060208284031215613f8c57613f8b612cba565b5b6000613f9a8482850161361b565b91505092915050565b6000613fae82612e4a565b91507fffffffffffffffffffffffffffffffffffffffffffffffffffffffffffffffff821415613fe157613fe0613ca1565b5b600182019050919050565b600081905092915050565b60006140038385613fec565b9350614010838584613666565b82840190509392505050565b6000614029828486613ff7565b91508190509392505050565b7f45524332303a2064656372656173656420616c6c6f77616e63652062656c6f7760008201527f207a65726f000000000000000000000000000000000000000000000000000000602082015250565b6000614091602583612d3c565b915061409c82614035565b604082019050919050565b600060208201905081810360008301526140c081614084565b9050919050565b7f5369676e657220616e64207265636569766572206e6f74206d61746368000000600082015250565b60006140fd601d83612d3c565b9150614108826140c7565b602082019050919050565b6000602082019050818103600083015261412c816140f0565b9050919050565b7f4465706f73697420616d6f756e7420657863656564732062616c616e63650000600082015250565b6000614169601e83612d3c565b915061417482614133565b602082019050919050565b600060208201905081810360008301526141988161415c565b9050919050565b7f4f776e61626c653a206e6577206f776e657220697320746865207a65726f206160008201527f6464726573730000000000000000000000000000000000000000000000000000602082015250565b60006141fb602683612d3c565b91506142068261419f565b604082019050919050565b6000602082019050818103600083015261422a816141ee565b9050919050565b7f4f6e6c7920636f6d6d69747465652063616e20617070726f7665206465706f7360008201527f6974730000000000000000000000000000000000000000000000000000000000602082015250565b600061428d602383612d3c565b915061429882614231565b604082019050919050565b600060208201905081810360008301526142bc81614280565b9050919050565b7f496e646578206973206e6f742063757272656e74000000000000000000000000600082015250565b60006142f9601483612d3c565b9150614304826142c3565b602082019050919050565b60006020820190508181036000830152614328816142ec565b9050919050565b600060408201905061434460008301856130bd565b81810360208301526143568184613470565b90509392505050565b60008190508160005260206000209050919050565b60008154614381816138d8565b61438b8186612d3c565b945060018216600081146143a657600181146143b8576143eb565b60ff19831686526020860193506143eb565b6143c18561435f565b60005b838110156143e3578154818901526001820191506020810190506143c4565b808801955050505b50505092915050565b6000602082019050818103600083015261440e8184614374565b905092915050565b7f57726f6e672064657374696e6174696f6e000000000000000000000000000000600082015250565b600061444c601183612d3c565b915061445782614416565b602082019050919050565b6000602082019050818103600083015261447b8161443f565b9050919050565b61448b81612ec0565b811461449657600080fd5b50565b6000815190506144a881614482565b92915050565b6000602082840312156144c4576144c3612cba565b5b60006144d284828501614499565b91505092915050565b7f55736572206973206d616c6963696f7573000000000000000000000000000000600082015250565b6000614511601183612d3c565b915061451c826144db565b602082019050919050565b6000602082019050818103600083015261454081614504565b9050919050565b600082825260208201905092915050565b600061456382612d31565b61456d8185614547565b935061457d818560208601612d4d565b61458681612d80565b840191505092915050565b600060c0830160008301516145a96000860182612f4b565b5060208301516145bc602086018261334b565b50604083015184820360408601526145d48282612f12565b915050606083015184820360608601526145ee8282614558565b915050608083015184820360808601526146088282612f12565b91505060a083015184820360a08601526146228282612f12565b9150508091505092915050565b600060208201905081810360008301526146498184614591565b905092915050565b6002811061465e57600080fd5b50565b60008151905061467081614651565b92915050565b60006020828403121561468c5761468b612cba565b5b600061469a84828501614661565b91505092915050565b7f4e487b7100000000000000000000000000000000000000000000000000000000600052602160045260246000fd5b7f45524332303a20617070726f76652066726f6d20746865207a65726f2061646460008201527f7265737300000000000000000000000000000000000000000000000000000000602082015250565b600061472e602483612d3c565b9150614739826146d2565b604082019050919050565b6000602082019050818103600083015261475d81614721565b9050919050565b7f45524332303a20617070726f766520746f20746865207a65726f20616464726560008201527f7373000000000000000000000000000000000000000000000000000000000000602082015250565b60006147c0602283612d3c565b91506147cb82614764565b604082019050919050565b600060208201905081810360008301526147ef816147b3565b9050919050565b7f45524332303a20696e73756666696369656e7420616c6c6f77616e6365000000600082015250565b600061482c601d83612d3c565b9150614837826147f6565b602082019050919050565b6000602082019050818103600083015261485b8161481f565b9050919050565b7f45524332303a207472616e736665722066726f6d20746865207a65726f20616460008201527f6472657373000000000000000000000000000000000000000000000000000000602082015250565b60006148be602583612d3c565b91506148c982614862565b604082019050919050565b600060208201905081810360008301526148ed816148b1565b9050919050565b7f45524332303a207472616e7366657220746f20746865207a65726f206164647260008201527f6573730000000000000000000000000000000000000000000000000000000000602082015250565b6000614950602383612d3c565b915061495b826148f4565b604082019050919050565b6000602082019050818103600083015261497f81614943565b9050919050565b7f45524332303a207472616e7366657220616d6f756e742065786365656473206260008201527f616c616e63650000000000000000000000000000000000000000000000000000602082015250565b60006149e2602683612d3c565b91506149ed82614986565b604082019050919050565b60006020820190508181036000830152614a11816149d5565b9050919050565b6000614a2382612ef6565b614a2d8185613fec565b9350614a3d818560208601612d4d565b80840191505092915050565b6000614a558284614a18565b915081905092915050565b60006060820190508181036000830152614a7a8186613470565b9050614a896020830185612fb9565b614a966040830184612fb9565b949350505050565b60006040820190508181036000830152614ab88185613470565b9050614ac76020830184612fb9565b9392505050565b60006060820190508181036000830152614ae88186613470565b90508181036020830152614afc8185613470565b9050614b0b6040830184612fb9565b949350505050565b60008154614b20816138d8565b614b2a8186613fec565b94506001821660008114614b455760018114614b5657614b89565b60ff19831686528186019350614b89565b614b5f85613939565b60005b83811015614b8157815481890152600182019150602081019050614b62565b838801955050505b50505092915050565b6000614b9e8284614b13565b915081905092915050565b7f4e6f742074686520636f6d6d6974746565000000000000000000000000000000600082015250565b6000614bdf601183612d3c565b9150614bea82614ba9565b602082019050919050565b60006020820190508181036000830152614c0e81614bd2565b9050919050565b50565b6000614c2560008361345f565b9150614c3082614c15565b600082019050919050565b60006060820190508181036000830152614c5481614c18565b90508181036020830152614c688185613470565b9050614c776040830184612fb9565b9392505050565b7f4f776e61626c653a2063616c6c6572206973206e6f7420746865206f776e6572600082015250565b6000614cb4602083612d3c565b9150614cbf82614c7e565b602082019050919050565b60006020820190508181036000830152614ce381614ca7565b905091905056fea26469706673582212205cbb03f71f76ae54487b81d328ed13fad1a15038656290d403c81b1fb2a6616764736f6c634300080c0033",
  "immutableReferences": {},
  "source": "// SPDX-License-Identifier: MIT\npragma solidity >=0.8.0 <0.9.0;\n\nimport \"@openzeppelin/contracts/access/Ownable.sol\";\nimport \"./ERC20.sol\";\nimport \"./interfaces/IOmniverseProtocol.sol\";\nimport \"./interfaces/IOmniverseFungible.sol\";\n\ncontract SkywalkerFungible is ERC20, Ownable, IOmniverseFungible {\n    struct DelayedTx {\n        bytes sender;\n        uint256 nonce;\n    }\n\n    IOmniverseProtocol public omniverseProtocol;\n    string public tokenIdentity;\n    uint8[] members;\n    mapping(bytes => uint256) omniverseBalances;\n    mapping(bytes => uint256) prisons;\n    DelayedTx[] delayedTxs;\n    bytes public committee;\n    DepositRequest[] depositRequests;\n    uint256 public depositDealingIndex;\n\n    event OmniverseTokenTransfer(bytes from, bytes to, uint256 value);\n    event OmniverseTokenWithdraw(bytes from, uint256 value);\n    event OmniverseTokenDeposit(bytes to, uint256 value);\n    event OmniverseTokenExceedBalance(bytes owner, uint256 balance, uint256 value);\n    event OmniverseTokenWrongOp(bytes sender, uint8 op);\n    event OmniverseNotOwner(bytes sender);\n    event OmniverseError(bytes sender, string reason);\n\n    modifier onlyCommittee() {\n        address committeeAddr = pkToAddress(committee);\n        require(msg.sender == committeeAddr, \"Only committee can approve deposits\");\n        _;\n    }\n\n    constructor(string memory _tokenId, string memory _name, string memory _symbol) ERC20(_name, _symbol) {\n        tokenIdentity = _tokenId;\n    }\n\n    /**\n     * @dev Set the address of committee\n     */\n    function setCommitteeAddress(bytes calldata _address) public onlyOwner {\n        committee = _address;\n    }\n\n    /**\n     * @dev Set the address of the omniverse protocol\n     */\n    function setOmniverseProtocolAddress(address _address) public onlyOwner {\n        omniverseProtocol = IOmniverseProtocol(_address);\n    }\n\n    /**\n     * @dev See {IOmniverseFungible-omniverseTransfer}\n     * Transfer omniverse tokens to a user\n     */\n    function omniverseTransfer(OmniverseTokenProtocol calldata _data) external override {\n        _omniverseTransaction(_data);\n    }\n\n    /**\n     * @dev See {IOmniverseFungible-omniverseWithdraw}\n     * Convert omniverse token to ERC20 token\n     */\n    function omniverseWithdraw(OmniverseTokenProtocol calldata _data) external override {\n        _omniverseTransaction(_data);\n    }\n\n    /**\n     * @dev See {IOmniverseFungible-omniverseDeposit}\n     * Convert ERC20 token to omniverse token\n     */\n    function omniverseDeposit(OmniverseTokenProtocol calldata _data) external override {\n        _omniverseTransaction(_data);\n    }\n\n    function omniverseMint(OmniverseTokenProtocol calldata _data) external {\n        _omniverseTransaction(_data);\n    }\n\n    /**\n     * @dev Trigger the execution of the first delayed transaction\n     */\n    function triggerExecution() external {\n        require(delayedTxs.length > 0, \"No delayed tx\");\n\n        (OmniverseTokenProtocol memory txData, uint256 timestamp) = omniverseProtocol.getTransactionData(delayedTxs[0].sender, delayedTxs[0].nonce);\n        require(block.timestamp >= timestamp + omniverseProtocol.getCoolingDownTime(), \"Not executable\");\n        delayedTxs[0] = delayedTxs[delayedTxs.length - 1];\n        delayedTxs.pop();\n\n        (uint8 op, bytes memory wrappedData) = abi.decode(txData.data, (uint8, bytes));\n        if (op == WITHDRAW) {\n            (uint256 amount) = abi.decode(wrappedData, (uint256));\n            _omniverseWithdraw(txData.from, amount, txData.chainId == omniverseProtocol.getChainId());\n        }\n        else if (op == TRANSFER) {\n            (bytes memory to, uint256 amount) = abi.decode(wrappedData, (bytes, uint256));\n            _omniverseTransfer(txData.from, to, amount);\n        }\n        else if (op == DEPOSIT) {\n            (bytes memory to, uint256 amount) = abi.decode(wrappedData, (bytes, uint256));\n            _omniverseDeposit(txData.from, to, amount);\n        }\n        else if (op == MINT) {\n            address fromAddr = pkToAddress(txData.from);\n            if (fromAddr != owner()) {\n                emit OmniverseNotOwner(txData.from);\n                return;\n            }\n            (bytes memory to, uint256 amount) = abi.decode(wrappedData, (bytes, uint256));\n            _omniverseMint(to, amount);\n        }\n        else {\n            emit OmniverseTokenWrongOp(txData.from, op);\n        }\n    }\n\n    /**\n     * @dev Returns the nearest exexutable delayed transaction info\n     * or returns default if not found\n     */\n    function getExecutableDelayedTx() external view returns (DelayedTx memory ret) {\n        if (delayedTxs.length > 0) {\n            (, uint256 timestamp) = omniverseProtocol.getTransactionData(delayedTxs[0].sender, delayedTxs[0].nonce);\n            if (block.timestamp >= timestamp + omniverseProtocol.getCoolingDownTime()) {\n                ret = delayedTxs[0];\n            }\n        }\n    }\n\n    function getDelayedTxCount() external view returns (uint256) {\n        return delayedTxs.length;\n    }\n\n    /**\n     * @dev See {IOmniverseFungible-omniverseBalanceOf}\n     * Returns the omniverse balance of a user\n     */\n    function omniverseBalanceOf(bytes calldata _pk) external view override returns (uint256) {\n        return omniverseBalances[_pk];\n    }\n\n    function _omniverseTransaction(OmniverseTokenProtocol memory _data) internal {\n        // Check if the tx destination is correct\n        require(keccak256(abi.encode(_data.to)) == keccak256(abi.encode(tokenIdentity)), \"Wrong destination\");\n\n        // Check if the sender is honest\n        // to be continued, we can use block list instead of `isMalicious`\n        require(!omniverseProtocol.isMalicious(_data.from), \"User is malicious\");\n\n        // Verify the signature\n        VerifyResult verifyRet = omniverseProtocol.verifyTransaction(_data);\n        if (verifyRet == VerifyResult.Success) {\n            // Delays in executing\n            delayedTxs.push(DelayedTx(_data.from, _data.nonce));\n        }\n        else if (verifyRet == VerifyResult.Malicious) {\n            // Slash\n        }\n    }\n\n    function _omniverseTransfer(bytes memory _from, bytes memory _to, uint256 _amount) internal {\n        uint256 fromBalance = omniverseBalances[_from];\n        if (fromBalance < _amount) {\n            emit OmniverseTokenExceedBalance(_from, fromBalance, _amount);\n        }\n        else {\n            unchecked {\n                omniverseBalances[_from] = fromBalance - _amount;\n            }\n            omniverseBalances[_to] += _amount;\n\n            emit OmniverseTokenTransfer(_from, _to, _amount);\n        }\n    }\n\n    function _omniverseWithdraw(bytes memory _from, uint256 _amount, bool _thisChain) internal {\n        uint256 fromBalance = omniverseBalances[_from];\n        if (fromBalance < _amount) {\n            emit OmniverseTokenExceedBalance(_from, fromBalance, _amount);\n        }\n        else {\n            unchecked {\n                omniverseBalances[_from] = fromBalance - _amount;\n            }\n            \n            if (_thisChain) {\n                address ownerAddr = pkToAddress(_from);\n\n                // mint\n                _totalSupply += _amount;\n                _balances[ownerAddr] += _amount;\n            }\n\n            emit OmniverseTokenWithdraw(_from, _amount);\n        }\n    }\n\n    function _omniverseDeposit(bytes memory _from, bytes memory _to, uint256 _amount) internal {\n        require(keccak256(_from) == keccak256(committee), \"Not the committee\");\n\n        unchecked {\n            omniverseBalances[_to] += _amount;\n        }\n\n        emit OmniverseTokenDeposit(_to, _amount);\n    }\n\n    function _omniverseMint(bytes memory _to, uint256 _amount) internal {\n        omniverseBalances[_to] += _amount;\n        emit OmniverseTokenTransfer(\"\", _to, _amount);\n    }\n\n    function pkToAddress(bytes memory _pk) internal pure returns (address) {\n        bytes32 hash = keccak256(_pk);\n        return address(uint160(uint256(hash)));\n    }\n\n    function getTime() external view returns (uint256) {\n        return block.timestamp;\n    }\n\n    function addMembers(uint8[] calldata _members) external onlyOwner {\n        for (uint256 i = 0; i < _members.length; i++) {\n            bool found = false;\n            for (uint256 j = 0; j < members.length; j++) {\n                if (members[j] == _members[i]) {\n                    found = true;\n                    break;\n                }\n            }\n            \n            if (!found) {\n                members.push(_members[i]);\n            }\n        }\n    }\n\n    function getMembers() external view returns (uint8[] memory) {\n        return members;\n    }\n\n    /**\n     * @dev Users request to convert native token to omniverse token\n     */\n    function requestDeposit(bytes calldata from, uint256 amount) external {\n        address fromAddr = pkToAddress(from);\n        require(fromAddr == msg.sender, \"Signer and receiver not match\");\n\n        uint256 fromBalance = _balances[fromAddr];\n        require(fromBalance >= amount, \"Deposit amount exceeds balance\");\n\n        // Update\n        unchecked {\n            _balances[fromAddr] = fromBalance - amount;\n        }\n        _totalSupply -= amount;\n\n        depositRequests.push(DepositRequest(from, amount));\n    }\n\n    /**\n     * @dev The committee approves a user's request\n     */\n    function approveDeposit(uint256 index, uint256 nonce, bytes calldata signature) external onlyCommittee {\n        require(index == depositDealingIndex, \"Index is not current\");\n\n        DepositRequest storage request = depositRequests[index];\n        depositDealingIndex++;\n\n        OmniverseTokenProtocol memory p;\n        p.nonce = nonce;\n        p.chainId = omniverseProtocol.getChainId();\n        p.from = committee;\n        p.to = tokenIdentity;\n        p.signature = signature;\n        p.data = abi.encode(DEPOSIT, abi.encode(request.receiver, request.amount));\n        _omniverseTransaction(p);\n    }\n\n    /**\n     @dev Returns the deposit request at `index`\n     @param index: The index of requests\n     */\n    function getDepositRequest(uint256 index) external view returns (DepositRequest memory ret) {\n        if (depositRequests.length > index) {\n            ret = depositRequests[index];\n        }\n    }\n}",
  "sourcePath": "/home/george/program/dante/omniverse-evm/contracts/contracts/SkywalkerFungible.sol",
  "compiler": {
    "name": "solc",
    "version": "0.8.12+commit.f00d7308.Emscripten.clang"
  },
  "schemaVersion": "3.4.6",
  "updatedAt": "2022-12-27T02:13:27.978Z",
  "networkType": "ethereum",
  "devdoc": {
    "kind": "dev",
    "methods": {
      "allowance(address,address)": {
        "details": "See {IERC20-allowance}."
      },
      "approve(address,uint256)": {
        "details": "See {IERC20-approve}. NOTE: If `amount` is the maximum `uint256`, the allowance is not updated on `transferFrom`. This is semantically equivalent to an infinite approval. Requirements: - `spender` cannot be the zero address."
      },
      "approveDeposit(uint256,uint256,bytes)": {
        "details": "The committee approves a user's request"
      },
      "balanceOf(address)": {
        "details": "See {IERC20-balanceOf}."
      },
      "decimals()": {
        "details": "Returns the number of decimals used to get its user representation. For example, if `decimals` equals `2`, a balance of `505` tokens should be displayed to a user as `5.05` (`505 / 10 ** 2`). Tokens usually opt for a value of 18, imitating the relationship between Ether and Wei. This is the value {ERC20} uses, unless this function is overridden; NOTE: This information is only used for _display_ purposes: it in no way affects any of the arithmetic of the contract, including {IERC20-balanceOf} and {IERC20-transfer}."
      },
      "decreaseAllowance(address,uint256)": {
        "details": "Atomically decreases the allowance granted to `spender` by the caller. This is an alternative to {approve} that can be used as a mitigation for problems described in {IERC20-approve}. Emits an {Approval} event indicating the updated allowance. Requirements: - `spender` cannot be the zero address. - `spender` must have allowance for the caller of at least `subtractedValue`."
      },
      "getDepositRequest(uint256)": {
        "details": "Returns the deposit request at `index`",
        "params": {
          "index": ": The index of requests"
        }
      },
      "getExecutableDelayedTx()": {
        "details": "Returns the nearest exexutable delayed transaction info or returns default if not found"
      },
      "increaseAllowance(address,uint256)": {
        "details": "Atomically increases the allowance granted to `spender` by the caller. This is an alternative to {approve} that can be used as a mitigation for problems described in {IERC20-approve}. Emits an {Approval} event indicating the updated allowance. Requirements: - `spender` cannot be the zero address."
      },
      "name()": {
        "details": "Returns the name of the token."
      },
      "omniverseBalanceOf(bytes)": {
        "details": "See {IOmniverseFungible-omniverseBalanceOf} Returns the omniverse balance of a user"
      },
      "omniverseDeposit((uint256,uint8,bytes,string,bytes,bytes))": {
        "details": "See {IOmniverseFungible-omniverseDeposit} Convert ERC20 token to omniverse token"
      },
      "omniverseTransfer((uint256,uint8,bytes,string,bytes,bytes))": {
        "details": "See {IOmniverseFungible-omniverseTransfer} Transfer omniverse tokens to a user"
      },
      "omniverseWithdraw((uint256,uint8,bytes,string,bytes,bytes))": {
        "details": "See {IOmniverseFungible-omniverseWithdraw} Convert omniverse token to ERC20 token"
      },
      "owner()": {
        "details": "Returns the address of the current owner."
      },
      "renounceOwnership()": {
        "details": "Leaves the contract without owner. It will not be possible to call `onlyOwner` functions anymore. Can only be called by the current owner. NOTE: Renouncing ownership will leave the contract without an owner, thereby removing any functionality that is only available to the owner."
      },
      "requestDeposit(bytes,uint256)": {
        "details": "Users request to convert native token to omniverse token"
      },
      "setCommitteeAddress(bytes)": {
        "details": "Set the address of committee"
      },
      "setOmniverseProtocolAddress(address)": {
        "details": "Set the address of the omniverse protocol"
      },
      "symbol()": {
        "details": "Returns the symbol of the token, usually a shorter version of the name."
      },
      "totalSupply()": {
        "details": "See {IERC20-totalSupply}."
      },
      "transfer(address,uint256)": {
        "details": "See {IERC20-transfer}. Requirements: - `to` cannot be the zero address. - the caller must have a balance of at least `amount`."
      },
      "transferFrom(address,address,uint256)": {
        "details": "See {IERC20-transferFrom}. Emits an {Approval} event indicating the updated allowance. This is not required by the EIP. See the note at the beginning of {ERC20}. NOTE: Does not update the allowance if the current allowance is the maximum `uint256`. Requirements: - `from` and `to` cannot be the zero address. - `from` must have a balance of at least `amount`. - the caller must have allowance for ``from``'s tokens of at least `amount`."
      },
      "transferOwnership(address)": {
        "details": "Transfers ownership of the contract to a new account (`newOwner`). Can only be called by the current owner."
      },
      "triggerExecution()": {
        "details": "Trigger the execution of the first delayed transaction"
      }
    },
    "version": 1
  },
  "userdoc": {
    "kind": "user",
    "methods": {},
    "version": 1
  }
}