{
  "contractName": "SkywalkerFungible",
  "abi": [
    {
      "inputs": [
        {
          "internalType": "string",
          "name": "_tokenId",
          "type": "string"
        },
        {
          "internalType": "string",
          "name": "_name",
          "type": "string"
        },
        {
          "internalType": "string",
          "name": "_symbol",
          "type": "string"
        }
      ],
      "stateMutability": "nonpayable",
      "type": "constructor"
    },
    {
      "anonymous": false,
      "inputs": [
        {
          "indexed": true,
          "internalType": "address",
          "name": "owner",
          "type": "address"
        },
        {
          "indexed": true,
          "internalType": "address",
          "name": "spender",
          "type": "address"
        },
        {
          "indexed": false,
          "internalType": "uint256",
          "name": "value",
          "type": "uint256"
        }
      ],
      "name": "Approval",
      "type": "event"
    },
    {
      "anonymous": false,
      "inputs": [
        {
          "indexed": false,
          "internalType": "bytes",
          "name": "sender",
          "type": "bytes"
        },
        {
          "indexed": false,
          "internalType": "string",
          "name": "reason",
          "type": "string"
        }
      ],
      "name": "OmniverseError",
      "type": "event"
    },
    {
      "anonymous": false,
      "inputs": [
        {
          "indexed": false,
          "internalType": "bytes",
          "name": "sender",
          "type": "bytes"
        }
      ],
      "name": "OmniverseNotOwner",
      "type": "event"
    },
    {
      "anonymous": false,
      "inputs": [
        {
          "indexed": false,
          "internalType": "bytes",
          "name": "to",
          "type": "bytes"
        },
        {
          "indexed": false,
          "internalType": "uint256",
          "name": "value",
          "type": "uint256"
        }
      ],
      "name": "OmniverseTokenDeposit",
      "type": "event"
    },
    {
      "anonymous": false,
      "inputs": [
        {
          "indexed": false,
          "internalType": "bytes",
          "name": "owner",
          "type": "bytes"
        },
        {
          "indexed": false,
          "internalType": "uint256",
          "name": "balance",
          "type": "uint256"
        },
        {
          "indexed": false,
          "internalType": "uint256",
          "name": "value",
          "type": "uint256"
        }
      ],
      "name": "OmniverseTokenExceedBalance",
      "type": "event"
    },
    {
      "anonymous": false,
      "inputs": [
        {
          "indexed": false,
          "internalType": "bytes",
          "name": "from",
          "type": "bytes"
        },
        {
          "indexed": false,
          "internalType": "bytes",
          "name": "to",
          "type": "bytes"
        },
        {
          "indexed": false,
          "internalType": "uint256",
          "name": "value",
          "type": "uint256"
        }
      ],
      "name": "OmniverseTokenTransfer",
      "type": "event"
    },
    {
      "anonymous": false,
      "inputs": [
        {
          "indexed": false,
          "internalType": "bytes",
          "name": "from",
          "type": "bytes"
        },
        {
          "indexed": false,
          "internalType": "uint256",
          "name": "value",
          "type": "uint256"
        }
      ],
      "name": "OmniverseTokenWithdraw",
      "type": "event"
    },
    {
      "anonymous": false,
      "inputs": [
        {
          "indexed": false,
          "internalType": "bytes",
          "name": "sender",
          "type": "bytes"
        },
        {
          "indexed": false,
          "internalType": "uint8",
          "name": "op",
          "type": "uint8"
        }
      ],
      "name": "OmniverseTokenWrongOp",
      "type": "event"
    },
    {
      "anonymous": false,
      "inputs": [
        {
          "indexed": true,
          "internalType": "address",
          "name": "previousOwner",
          "type": "address"
        },
        {
          "indexed": true,
          "internalType": "address",
          "name": "newOwner",
          "type": "address"
        }
      ],
      "name": "OwnershipTransferred",
      "type": "event"
    },
    {
      "anonymous": false,
      "inputs": [
        {
          "indexed": true,
          "internalType": "address",
          "name": "from",
          "type": "address"
        },
        {
          "indexed": true,
          "internalType": "address",
          "name": "to",
          "type": "address"
        },
        {
          "indexed": false,
          "internalType": "uint256",
          "name": "value",
          "type": "uint256"
        }
      ],
      "name": "Transfer",
      "type": "event"
    },
    {
      "inputs": [
        {
          "internalType": "address",
          "name": "owner",
          "type": "address"
        },
        {
          "internalType": "address",
          "name": "spender",
          "type": "address"
        }
      ],
      "name": "allowance",
      "outputs": [
        {
          "internalType": "uint256",
          "name": "",
          "type": "uint256"
        }
      ],
      "stateMutability": "view",
      "type": "function"
    },
    {
      "inputs": [
        {
          "internalType": "address",
          "name": "spender",
          "type": "address"
        },
        {
          "internalType": "uint256",
          "name": "amount",
          "type": "uint256"
        }
      ],
      "name": "approve",
      "outputs": [
        {
          "internalType": "bool",
          "name": "",
          "type": "bool"
        }
      ],
      "stateMutability": "nonpayable",
      "type": "function"
    },
    {
      "inputs": [],
      "name": "committee",
      "outputs": [
        {
          "internalType": "bytes",
          "name": "",
          "type": "bytes"
        }
      ],
      "stateMutability": "view",
      "type": "function"
    },
    {
      "inputs": [],
      "name": "decimals",
      "outputs": [
        {
          "internalType": "uint8",
          "name": "",
          "type": "uint8"
        }
      ],
      "stateMutability": "view",
      "type": "function"
    },
    {
      "inputs": [
        {
          "internalType": "address",
          "name": "spender",
          "type": "address"
        },
        {
          "internalType": "uint256",
          "name": "subtractedValue",
          "type": "uint256"
        }
      ],
      "name": "decreaseAllowance",
      "outputs": [
        {
          "internalType": "bool",
          "name": "",
          "type": "bool"
        }
      ],
      "stateMutability": "nonpayable",
      "type": "function"
    },
    {
      "inputs": [],
      "name": "depositDealingIndex",
      "outputs": [
        {
          "internalType": "uint256",
          "name": "",
          "type": "uint256"
        }
      ],
      "stateMutability": "view",
      "type": "function"
    },
    {
      "inputs": [
        {
          "internalType": "address",
          "name": "spender",
          "type": "address"
        },
        {
          "internalType": "uint256",
          "name": "addedValue",
          "type": "uint256"
        }
      ],
      "name": "increaseAllowance",
      "outputs": [
        {
          "internalType": "bool",
          "name": "",
          "type": "bool"
        }
      ],
      "stateMutability": "nonpayable",
      "type": "function"
    },
    {
      "inputs": [],
      "name": "name",
      "outputs": [
        {
          "internalType": "string",
          "name": "",
          "type": "string"
        }
      ],
      "stateMutability": "view",
      "type": "function"
    },
    {
      "inputs": [],
      "name": "omniverseProtocol",
      "outputs": [
        {
          "internalType": "contract IOmniverseProtocol",
          "name": "",
          "type": "address"
        }
      ],
      "stateMutability": "view",
      "type": "function"
    },
    {
      "inputs": [],
      "name": "owner",
      "outputs": [
        {
          "internalType": "address",
          "name": "",
          "type": "address"
        }
      ],
      "stateMutability": "view",
      "type": "function"
    },
    {
      "inputs": [],
      "name": "renounceOwnership",
      "outputs": [],
      "stateMutability": "nonpayable",
      "type": "function"
    },
    {
      "inputs": [],
      "name": "symbol",
      "outputs": [
        {
          "internalType": "string",
          "name": "",
          "type": "string"
        }
      ],
      "stateMutability": "view",
      "type": "function"
    },
    {
      "inputs": [],
      "name": "tokenIdentity",
      "outputs": [
        {
          "internalType": "string",
          "name": "",
          "type": "string"
        }
      ],
      "stateMutability": "view",
      "type": "function"
    },
    {
      "inputs": [],
      "name": "totalSupply",
      "outputs": [
        {
          "internalType": "uint256",
          "name": "",
          "type": "uint256"
        }
      ],
      "stateMutability": "view",
      "type": "function"
    },
    {
      "inputs": [
        {
          "internalType": "address",
          "name": "to",
          "type": "address"
        },
        {
          "internalType": "uint256",
          "name": "amount",
          "type": "uint256"
        }
      ],
      "name": "transfer",
      "outputs": [
        {
          "internalType": "bool",
          "name": "",
          "type": "bool"
        }
      ],
      "stateMutability": "nonpayable",
      "type": "function"
    },
    {
      "inputs": [
        {
          "internalType": "address",
          "name": "from",
          "type": "address"
        },
        {
          "internalType": "address",
          "name": "to",
          "type": "address"
        },
        {
          "internalType": "uint256",
          "name": "amount",
          "type": "uint256"
        }
      ],
      "name": "transferFrom",
      "outputs": [
        {
          "internalType": "bool",
          "name": "",
          "type": "bool"
        }
      ],
      "stateMutability": "nonpayable",
      "type": "function"
    },
    {
      "inputs": [
        {
          "internalType": "address",
          "name": "newOwner",
          "type": "address"
        }
      ],
      "name": "transferOwnership",
      "outputs": [],
      "stateMutability": "nonpayable",
      "type": "function"
    },
    {
      "inputs": [
        {
          "internalType": "bytes",
          "name": "_address",
          "type": "bytes"
        }
      ],
      "name": "setCommitteeAddress",
      "outputs": [],
      "stateMutability": "nonpayable",
      "type": "function"
    },
    {
      "inputs": [
        {
          "internalType": "address",
          "name": "_address",
          "type": "address"
        }
      ],
      "name": "setOmniverseProtocolAddress",
      "outputs": [],
      "stateMutability": "nonpayable",
      "type": "function"
    },
    {
      "inputs": [
        {
          "components": [
            {
              "internalType": "uint256",
              "name": "nonce",
              "type": "uint256"
            },
            {
              "internalType": "uint8",
              "name": "chainId",
              "type": "uint8"
            },
            {
              "internalType": "bytes",
              "name": "from",
              "type": "bytes"
            },
            {
              "internalType": "string",
              "name": "to",
              "type": "string"
            },
            {
              "internalType": "bytes",
              "name": "data",
              "type": "bytes"
            },
            {
              "internalType": "bytes",
              "name": "signature",
              "type": "bytes"
            }
          ],
          "internalType": "struct OmniverseTokenProtocol",
          "name": "_data",
          "type": "tuple"
        }
      ],
      "name": "omniverseTransfer",
      "outputs": [],
      "stateMutability": "nonpayable",
      "type": "function"
    },
    {
      "inputs": [
        {
          "components": [
            {
              "internalType": "uint256",
              "name": "nonce",
              "type": "uint256"
            },
            {
              "internalType": "uint8",
              "name": "chainId",
              "type": "uint8"
            },
            {
              "internalType": "bytes",
              "name": "from",
              "type": "bytes"
            },
            {
              "internalType": "string",
              "name": "to",
              "type": "string"
            },
            {
              "internalType": "bytes",
              "name": "data",
              "type": "bytes"
            },
            {
              "internalType": "bytes",
              "name": "signature",
              "type": "bytes"
            }
          ],
          "internalType": "struct OmniverseTokenProtocol",
          "name": "_data",
          "type": "tuple"
        }
      ],
      "name": "omniverseWithdraw",
      "outputs": [],
      "stateMutability": "nonpayable",
      "type": "function"
    },
    {
      "inputs": [
        {
          "components": [
            {
              "internalType": "uint256",
              "name": "nonce",
              "type": "uint256"
            },
            {
              "internalType": "uint8",
              "name": "chainId",
              "type": "uint8"
            },
            {
              "internalType": "bytes",
              "name": "from",
              "type": "bytes"
            },
            {
              "internalType": "string",
              "name": "to",
              "type": "string"
            },
            {
              "internalType": "bytes",
              "name": "data",
              "type": "bytes"
            },
            {
              "internalType": "bytes",
              "name": "signature",
              "type": "bytes"
            }
          ],
          "internalType": "struct OmniverseTokenProtocol",
          "name": "_data",
          "type": "tuple"
        }
      ],
      "name": "omniverseDeposit",
      "outputs": [],
      "stateMutability": "nonpayable",
      "type": "function"
    },
    {
      "inputs": [
        {
          "components": [
            {
              "internalType": "uint256",
              "name": "nonce",
              "type": "uint256"
            },
            {
              "internalType": "uint8",
              "name": "chainId",
              "type": "uint8"
            },
            {
              "internalType": "bytes",
              "name": "from",
              "type": "bytes"
            },
            {
              "internalType": "string",
              "name": "to",
              "type": "string"
            },
            {
              "internalType": "bytes",
              "name": "data",
              "type": "bytes"
            },
            {
              "internalType": "bytes",
              "name": "signature",
              "type": "bytes"
            }
          ],
          "internalType": "struct OmniverseTokenProtocol",
          "name": "_data",
          "type": "tuple"
        }
      ],
      "name": "omniverseMint",
      "outputs": [],
      "stateMutability": "nonpayable",
      "type": "function"
    },
    {
      "inputs": [],
      "name": "triggerExecution",
      "outputs": [],
      "stateMutability": "nonpayable",
      "type": "function"
    },
    {
      "inputs": [],
      "name": "getExecutableDelayedTx",
      "outputs": [
        {
          "components": [
            {
              "internalType": "bytes",
              "name": "sender",
              "type": "bytes"
            },
            {
              "internalType": "uint256",
              "name": "nonce",
              "type": "uint256"
            }
          ],
          "internalType": "struct SkywalkerFungible.DelayedTx",
          "name": "ret",
          "type": "tuple"
        }
      ],
      "stateMutability": "view",
      "type": "function"
    },
    {
      "inputs": [],
      "name": "getDelayedTxCount",
      "outputs": [
        {
          "internalType": "uint256",
          "name": "",
          "type": "uint256"
        }
      ],
      "stateMutability": "view",
      "type": "function"
    },
    {
      "inputs": [
        {
          "internalType": "bytes",
          "name": "_pk",
          "type": "bytes"
        }
      ],
      "name": "omniverseBalanceOf",
      "outputs": [
        {
          "internalType": "uint256",
          "name": "",
          "type": "uint256"
        }
      ],
      "stateMutability": "view",
      "type": "function"
    },
    {
      "inputs": [
        {
          "internalType": "address",
          "name": "account",
          "type": "address"
        }
      ],
      "name": "balanceOf",
      "outputs": [
        {
          "internalType": "uint256",
          "name": "",
          "type": "uint256"
        }
      ],
      "stateMutability": "view",
      "type": "function"
    },
    {
      "inputs": [
        {
          "internalType": "address",
          "name": "account",
          "type": "address"
        }
      ],
      "name": "nativeBalanceOf",
      "outputs": [
        {
          "internalType": "uint256",
          "name": "",
          "type": "uint256"
        }
      ],
      "stateMutability": "view",
      "type": "function"
    },
    {
      "inputs": [],
      "name": "getTime",
      "outputs": [
        {
          "internalType": "uint256",
          "name": "",
          "type": "uint256"
        }
      ],
      "stateMutability": "view",
      "type": "function"
    },
    {
      "inputs": [
        {
          "internalType": "uint8[]",
          "name": "_members",
          "type": "uint8[]"
        }
      ],
      "name": "addMembers",
      "outputs": [],
      "stateMutability": "nonpayable",
      "type": "function"
    },
    {
      "inputs": [],
      "name": "getMembers",
      "outputs": [
        {
          "internalType": "uint8[]",
          "name": "",
          "type": "uint8[]"
        }
      ],
      "stateMutability": "view",
      "type": "function"
    },
    {
      "inputs": [
        {
          "internalType": "bytes",
          "name": "from",
          "type": "bytes"
        },
        {
          "internalType": "uint256",
          "name": "amount",
          "type": "uint256"
        }
      ],
      "name": "requestDeposit",
      "outputs": [],
      "stateMutability": "nonpayable",
      "type": "function"
    },
    {
      "inputs": [
        {
          "internalType": "uint256",
          "name": "index",
          "type": "uint256"
        },
        {
          "internalType": "uint256",
          "name": "nonce",
          "type": "uint256"
        },
        {
          "internalType": "bytes",
          "name": "signature",
          "type": "bytes"
        }
      ],
      "name": "approveDeposit",
      "outputs": [],
      "stateMutability": "nonpayable",
      "type": "function"
    },
    {
      "inputs": [
        {
          "internalType": "uint256",
          "name": "index",
          "type": "uint256"
        }
      ],
      "name": "getDepositRequest",
      "outputs": [
        {
          "components": [
            {
              "internalType": "bytes",
              "name": "receiver",
              "type": "bytes"
            },
            {
              "internalType": "uint256",
              "name": "amount",
              "type": "uint256"
            }
          ],
          "internalType": "struct DepositRequest",
          "name": "ret",
          "type": "tuple"
        }
      ],
      "stateMutability": "view",
      "type": "function"
    }
  ],
  "bytecode": "0x60806040523480156200001157600080fd5b506040516200544e3803806200544e8339818101604052810190620000379190620003ca565b81818160039080519060200190620000519291906200017d565b5080600490805190602001906200006a9291906200017d565b5050506200008d62000081620000af60201b60201c565b620000b760201b60201c565b8260079080519060200190620000a59291906200017d565b50505050620004e8565b600033905090565b6000600560009054906101000a900473ffffffffffffffffffffffffffffffffffffffff16905081600560006101000a81548173ffffffffffffffffffffffffffffffffffffffff021916908373ffffffffffffffffffffffffffffffffffffffff1602179055508173ffffffffffffffffffffffffffffffffffffffff168173ffffffffffffffffffffffffffffffffffffffff167f8be0079c531659141344cd1fd0a4f28419497f9722a3daafe3b4186f6b6457e060405160405180910390a35050565b8280546200018b90620004b2565b90600052602060002090601f016020900481019282620001af5760008555620001fb565b82601f10620001ca57805160ff1916838001178555620001fb565b82800160010185558215620001fb579182015b82811115620001fa578251825591602001919060010190620001dd565b5b5090506200020a91906200020e565b5090565b5b80821115620002295760008160009055506001016200020f565b5090565b6000604051905090565b600080fd5b600080fd5b600080fd5b600080fd5b6000601f19601f8301169050919050565b7f4e487b7100000000000000000000000000000000000000000000000000000000600052604160045260246000fd5b62000296826200024b565b810181811067ffffffffffffffff82111715620002b857620002b76200025c565b5b80604052505050565b6000620002cd6200022d565b9050620002db82826200028b565b919050565b600067ffffffffffffffff821115620002fe57620002fd6200025c565b5b62000309826200024b565b9050602081019050919050565b60005b838110156200033657808201518184015260208101905062000319565b8381111562000346576000848401525b50505050565b6000620003636200035d84620002e0565b620002c1565b90508281526020810184848401111562000382576200038162000246565b5b6200038f84828562000316565b509392505050565b600082601f830112620003af57620003ae62000241565b5b8151620003c18482602086016200034c565b91505092915050565b600080600060608486031215620003e657620003e562000237565b5b600084015167ffffffffffffffff8111156200040757620004066200023c565b5b620004158682870162000397565b935050602084015167ffffffffffffffff8111156200043957620004386200023c565b5b620004478682870162000397565b925050604084015167ffffffffffffffff8111156200046b576200046a6200023c565b5b620004798682870162000397565b9150509250925092565b7f4e487b7100000000000000000000000000000000000000000000000000000000600052602260045260246000fd5b60006002820490506001821680620004cb57607f821691505b60208210811415620004e257620004e162000483565b5b50919050565b614f5680620004f86000396000f3fe608060405234801561001057600080fd5b50600436106102115760003560e01c806370a0823111610125578063b36d5478116100ad578063d864e7401161007c578063d864e74014610606578063dd62ed3e14610624578063e6aa4c3614610654578063f2fde38b14610670578063f78e94021461068c57610211565b8063b36d547814610594578063b49b7c6e146105b0578063c15f3b1f146105cc578063cb963553146105e857610211565b806395270ba7116100f457806395270ba7146104c857806395d89b41146104f85780639eab525314610516578063a457c2d714610534578063a9059cbb1461056457610211565b806370a0823114610452578063715018a6146104825780638da5cb5b1461048c57806390abca4d146104aa57610211565b80632ac1c568116101a857806343a642891161017757806343a642891461039c5780634d9ec5f6146103b857806352ce5831146103d4578063557ed1ba1461040457806364b4c3101461042257610211565b80632ac1c56814610328578063313ce5671461033257806336e414df14610350578063395093511461036c57610211565b80630d94bb52116101e45780630d94bb521461029e57806318160ddd146102bc5780631cafc401146102da57806323b872dd146102f857610211565b8063057aa1a51461021657806306fdde0314610232578063095ea7b3146102505780630d5f6f9314610280575b600080fd5b610230600480360381019061022b9190612e73565b6106a8565b005b61023a6106bd565b6040516102479190612f55565b60405180910390f35b61026a6004803603810190610265919061300b565b61074f565b6040516102779190613066565b60405180910390f35b610288610772565b6040516102959190613122565b60405180910390f35b6102a66109ef565b6040516102b39190613153565b60405180910390f35b6102c46109fc565b6040516102d19190613153565b60405180910390f35b6102e2610a06565b6040516102ef91906131cd565b60405180910390f35b610312600480360381019061030d91906131e8565b610a2c565b60405161031f9190613066565b60405180910390f35b610330610a5b565b005b61033a610fc7565b6040516103479190613257565b60405180910390f35b61036a600480360381019061036591906132d7565b610fd0565b005b6103866004803603810190610381919061300b565b611107565b6040516103939190613066565b60405180910390f35b6103b660048036038101906103b19190612e73565b61113e565b005b6103d260048036038101906103cd9190613324565b611153565b005b6103ee60048036038101906103e991906133a7565b61119f565b6040516103fb9190613153565b60405180910390f35b61040c6111ca565b6040516104199190613153565b60405180910390f35b61043c600480360381019061043791906133f4565b6111d2565b604051610449919061345e565b60405180910390f35b61046c60048036038101906104679190613324565b6112b8565b6040516104799190613153565b60405180910390f35b61048a611344565b005b610494611358565b6040516104a1919061348f565b60405180910390f35b6104b2611382565b6040516104bf9190613153565b60405180910390f35b6104e260048036038101906104dd9190613324565b611388565b6040516104ef9190613153565b60405180910390f35b6105006113d0565b60405161050d9190612f55565b60405180910390f35b61051e611462565b60405161052b9190613568565b60405180910390f35b61054e6004803603810190610549919061300b565b6114e0565b60405161055b9190613066565b60405180910390f35b61057e6004803603810190610579919061300b565b611557565b60405161058b9190613066565b60405180910390f35b6105ae60048036038101906105a99190612e73565b61157a565b005b6105ca60048036038101906105c5919061358a565b61158f565b005b6105e660048036038101906105e191906133a7565b6117e6565b005b6105f0611804565b6040516105fd9190612f55565b60405180910390f35b61060e611892565b60405161061b9190613634565b60405180910390f35b61063e60048036038101906106399190613656565b611920565b60405161064b9190613153565b60405180910390f35b61066e60048036038101906106699190612e73565b6119a7565b005b61068a60048036038101906106859190613324565b6119bc565b005b6106a660048036038101906106a19190613696565b611a40565b005b6106ba816106b590613a21565b611e53565b50565b6060600380546106cc90613a63565b80601f01602080910402602001604051908101604052809291908181526020018280546106f890613a63565b80156107455780601f1061071a57610100808354040283529160200191610745565b820191906000526020600020905b81548152906001019060200180831161072857829003601f168201915b5050505050905090565b60008061075a612138565b9050610767818585612140565b600191505092915050565b61077a612bd8565b6000600b8054905011156109ec576000600660009054906101000a900473ffffffffffffffffffffffffffffffffffffffff1673ffffffffffffffffffffffffffffffffffffffff166339aaa281600b6000815481106107dd576107dc613a95565b5b9060005260206000209060020201600001600b60008154811061080357610802613a95565b5b9060005260206000209060020201600101546040518363ffffffff1660e01b8152600401610832929190613b59565b600060405180830381865afa15801561084f573d6000803e3d6000fd5b505050506040513d6000823e3d601f19601f820116820180604052508101906108789190613da3565b915050600660009054906101000a900473ffffffffffffffffffffffffffffffffffffffff1673ffffffffffffffffffffffffffffffffffffffff16636f06f7b86040518163ffffffff1660e01b8152600401602060405180830381865afa1580156108e8573d6000803e3d6000fd5b505050506040513d601f19601f8201168201806040525081019061090c9190613dff565b816109179190613e5b565b42106109ea57600b60008154811061093257610931613a95565b5b906000526020600020906002020160405180604001604052908160008201805461095b90613a63565b80601f016020809104026020016040519081016040528092919081815260200182805461098790613a63565b80156109d45780601f106109a9576101008083540402835291602001916109d4565b820191906000526020600020905b8154815290600101906020018083116109b757829003601f168201915b5050505050815260200160018201548152505091505b505b90565b6000600b80549050905090565b6000600254905090565b600660009054906101000a900473ffffffffffffffffffffffffffffffffffffffff1681565b600080610a37612138565b9050610a4485828561230b565b610a4f858585612397565b60019150509392505050565b6000600b8054905011610aa3576040517f08c379a0000000000000000000000000000000000000000000000000000000008152600401610a9a90613efd565b60405180910390fd5b600080600660009054906101000a900473ffffffffffffffffffffffffffffffffffffffff1673ffffffffffffffffffffffffffffffffffffffff166339aaa281600b600081548110610af957610af8613a95565b5b9060005260206000209060020201600001600b600081548110610b1f57610b1e613a95565b5b9060005260206000209060020201600101546040518363ffffffff1660e01b8152600401610b4e929190613b59565b600060405180830381865afa158015610b6b573d6000803e3d6000fd5b505050506040513d6000823e3d601f19601f82011682018060405250810190610b949190613da3565b91509150600660009054906101000a900473ffffffffffffffffffffffffffffffffffffffff1673ffffffffffffffffffffffffffffffffffffffff16636f06f7b86040518163ffffffff1660e01b8152600401602060405180830381865afa158015610c05573d6000803e3d6000fd5b505050506040513d601f19601f82011682018060405250810190610c299190613dff565b81610c349190613e5b565b421015610c76576040517f08c379a0000000000000000000000000000000000000000000000000000000008152600401610c6d90613f69565b60405180910390fd5b600b6001600b80549050610c8a9190613f89565b81548110610c9b57610c9a613a95565b5b9060005260206000209060020201600b600081548110610cbe57610cbd613a95565b5b90600052602060002090600202016000820181600001908054610ce090613a63565b610ceb929190612bf2565b5060018201548160010155905050600b805480610d0b57610d0a613fbd565b5b600190038181906000526020600020906002020160008082016000610d309190612c7f565b6001820160009055505090556000808360800151806020019051810190610d579190613fec565b91509150600260ff168260ff161415610e3357600081806020019051810190610d809190613dff565b9050610e2d856040015182600660009054906101000a900473ffffffffffffffffffffffffffffffffffffffff1673ffffffffffffffffffffffffffffffffffffffff16633408e4706040518163ffffffff1660e01b8152600401602060405180830381865afa158015610df8573d6000803e3d6000fd5b505050506040513d601f19601f82011682018060405250810190610e1c9190614048565b60ff16886020015160ff1614612618565b50610fc0565b600160ff168260ff161415610e735760008082806020019051810190610e599190614075565b91509150610e6c8660400151838361276b565b5050610fbf565b600060ff168260ff161415610eb35760008082806020019051810190610e999190614075565b91509150610eac866040015183836128d4565b5050610fbe565b600360ff168260ff161415610f7f576000610ed1856040015161299d565b9050610edb611358565b73ffffffffffffffffffffffffffffffffffffffff168173ffffffffffffffffffffffffffffffffffffffff1614610f52577fbd8697cc45013432c9b28106cbef86826e50ba0069e4f7c82a44c5f9a2e835798560400151604051610f409190613634565b60405180910390a15050505050610fc5565b60008083806020019051810190610f699190614075565b91509150610f7782826129b6565b505050610fbd565b7fb037c465dfd2ba266747dc7bf6ef2589cf239e0c7d2b3f66f666adddf07d4f54846040015183604051610fb49291906140d1565b60405180910390a15b5b5b5b505050505b565b60006012905090565b610fd8612a8a565b60005b82829050811015611102576000805b60088054905081101561107b5784848481811061100a57611009613a95565b5b905060200201602081019061101f9190614101565b60ff166008828154811061103657611035613a95565b5b90600052602060002090602091828204019190069054906101000a900460ff1660ff161415611068576001915061107b565b80806110739061412e565b915050610fea565b50806110ee57600884848481811061109657611095613a95565b5b90506020020160208101906110ab9190614101565b90806001815401808255809150506001900390600052602060002090602091828204019190069091909190916101000a81548160ff021916908360ff1602179055505b5080806110fa9061412e565b915050610fdb565b505050565b600080611112612138565b90506111338185856111248589611920565b61112e9190613e5b565b612140565b600191505092915050565b6111508161114b90613a21565b611e53565b50565b61115b612a8a565b80600660006101000a81548173ffffffffffffffffffffffffffffffffffffffff021916908373ffffffffffffffffffffffffffffffffffffffff16021790555050565b6000600983836040516111b39291906141a7565b908152602001604051809103902054905092915050565b600042905090565b6111da612cbf565b81600d8054905011156112b357600d82815481106111fb576111fa613a95565b5b906000526020600020906002020160405180604001604052908160008201805461122490613a63565b80601f016020809104026020016040519081016040528092919081815260200182805461125090613a63565b801561129d5780601f106112725761010080835404028352916020019161129d565b820191906000526020600020905b81548152906001019060200180831161128057829003601f168201915b5050505050815260200160018201548152505090505b919050565b600080600f60008473ffffffffffffffffffffffffffffffffffffffff1673ffffffffffffffffffffffffffffffffffffffff1681526020019081526020016000209050600081805461130a90613a63565b9050141561131c57600091505061133f565b60098160405161132c9190614254565b9081526020016040518091039020549150505b919050565b61134c612a8a565b6113566000612b08565b565b6000600560009054906101000a900473ffffffffffffffffffffffffffffffffffffffff16905090565b600e5481565b60008060008373ffffffffffffffffffffffffffffffffffffffff1673ffffffffffffffffffffffffffffffffffffffff168152602001908152602001600020549050919050565b6060600480546113df90613a63565b80601f016020809104026020016040519081016040528092919081815260200182805461140b90613a63565b80156114585780601f1061142d57610100808354040283529160200191611458565b820191906000526020600020905b81548152906001019060200180831161143b57829003601f168201915b5050505050905090565b606060088054806020026020016040519081016040528092919081815260200182805480156114d657602002820191906000526020600020906000905b82829054906101000a900460ff1660ff168152602001906001019060208260000104928301926001038202915080841161149f5790505b5050505050905090565b6000806114eb612138565b905060006114f98286611920565b90508381101561153e576040517f08c379a0000000000000000000000000000000000000000000000000000000008152600401611535906142dd565b60405180910390fd5b61154b8286868403612140565b60019250505092915050565b600080611562612138565b905061156f818585612397565b600191505092915050565b61158c8161158790613a21565b611e53565b50565b60006115de84848080601f016020809104026020016040519081016040528093929190818152602001838380828437600081840152601f19601f8201169050808301925050505050505061299d565b90503373ffffffffffffffffffffffffffffffffffffffff168173ffffffffffffffffffffffffffffffffffffffff161461164e576040517f08c379a000000000000000000000000000000000000000000000000000000000815260040161164590614349565b60405180910390fd5b60008060008373ffffffffffffffffffffffffffffffffffffffff1673ffffffffffffffffffffffffffffffffffffffff168152602001908152602001600020549050828110156116d4576040517f08c379a00000000000000000000000000000000000000000000000000000000081526004016116cb906143b5565b60405180910390fd5b8281036000808473ffffffffffffffffffffffffffffffffffffffff1673ffffffffffffffffffffffffffffffffffffffff16815260200190815260200160002081905550826002600082825461172b9190613f89565b92505081905550600d604051806040016040528087878080601f016020809104026020016040519081016040528093929190818152602001838380828437600081840152601f19601f82011690508083019250505050505050815260200185815250908060018154018082558091505060019003906000526020600020906002020160009091909190915060008201518160000190805190602001906117d2929190612cd9565b506020820151816001015550505050505050565b6117ee612a8a565b8181600c91906117ff929190612d5f565b505050565b6007805461181190613a63565b80601f016020809104026020016040519081016040528092919081815260200182805461183d90613a63565b801561188a5780601f1061185f5761010080835404028352916020019161188a565b820191906000526020600020905b81548152906001019060200180831161186d57829003601f168201915b505050505081565b600c805461189f90613a63565b80601f01602080910402602001604051908101604052809291908181526020018280546118cb90613a63565b80156119185780601f106118ed57610100808354040283529160200191611918565b820191906000526020600020905b8154815290600101906020018083116118fb57829003601f168201915b505050505081565b6000600160008473ffffffffffffffffffffffffffffffffffffffff1673ffffffffffffffffffffffffffffffffffffffff16815260200190815260200160002060008373ffffffffffffffffffffffffffffffffffffffff1673ffffffffffffffffffffffffffffffffffffffff16815260200190815260200160002054905092915050565b6119b9816119b490613a21565b611e53565b50565b6119c4612a8a565b600073ffffffffffffffffffffffffffffffffffffffff168173ffffffffffffffffffffffffffffffffffffffff161415611a34576040517f08c379a0000000000000000000000000000000000000000000000000000000008152600401611a2b90614447565b60405180910390fd5b611a3d81612b08565b50565b6000611ad5600c8054611a5290613a63565b80601f0160208091040260200160405190810160405280929190818152602001828054611a7e90613a63565b8015611acb5780601f10611aa057610100808354040283529160200191611acb565b820191906000526020600020905b815481529060010190602001808311611aae57829003601f168201915b505050505061299d565b90508073ffffffffffffffffffffffffffffffffffffffff163373ffffffffffffffffffffffffffffffffffffffff1614611b45576040517f08c379a0000000000000000000000000000000000000000000000000000000008152600401611b3c906144d9565b60405180910390fd5b600e548514611b89576040517f08c379a0000000000000000000000000000000000000000000000000000000008152600401611b8090614545565b60405180910390fd5b6000600d8681548110611b9f57611b9e613a95565b5b90600052602060002090600202019050600e6000815480929190611bc29061412e565b9190505550611bcf612de5565b85816000018181525050600660009054906101000a900473ffffffffffffffffffffffffffffffffffffffff1673ffffffffffffffffffffffffffffffffffffffff16633408e4706040518163ffffffff1660e01b8152600401602060405180830381865afa158015611c46573d6000803e3d6000fd5b505050506040513d601f19601f82011682018060405250810190611c6a9190614048565b816020019060ff16908160ff1681525050600c8054611c8890613a63565b80601f0160208091040260200160405190810160405280929190818152602001828054611cb490613a63565b8015611d015780601f10611cd657610100808354040283529160200191611d01565b820191906000526020600020905b815481529060010190602001808311611ce457829003601f168201915b5050505050816040018190525060078054611d1b90613a63565b80601f0160208091040260200160405190810160405280929190818152602001828054611d4790613a63565b8015611d945780601f10611d6957610100808354040283529160200191611d94565b820191906000526020600020905b815481529060010190602001808311611d7757829003601f168201915b5050505050816060018190525084848080601f016020809104026020016040519081016040528093929190818152602001838380828437600081840152601f19601f820116905080830192505050505050508160a001819052506000826000018360010154604051602001611e0a929190613b59565b604051602081830303815290604052604051602001611e2a929190614565565b6040516020818303038152906040528160800181905250611e4a81611e53565b50505050505050565b6007604051602001611e65919061462a565b604051602081830303815290604052805190602001208160600151604051602001611e909190612f55565b6040516020818303038152906040528051906020012014611ee6576040517f08c379a0000000000000000000000000000000000000000000000000000000008152600401611edd90614698565b60405180910390fd5b600660009054906101000a900473ffffffffffffffffffffffffffffffffffffffff1673ffffffffffffffffffffffffffffffffffffffff16633713bb5382604001516040518263ffffffff1660e01b8152600401611f459190613634565b602060405180830381865afa158015611f62573d6000803e3d6000fd5b505050506040513d601f19601f82011682018060405250810190611f8691906146e4565b15611fc6576040517f08c379a0000000000000000000000000000000000000000000000000000000008152600401611fbd9061475d565b60405180910390fd5b6000600660009054906101000a900473ffffffffffffffffffffffffffffffffffffffff1673ffffffffffffffffffffffffffffffffffffffff1663edb6e615836040518263ffffffff1660e01b81526004016120239190614865565b6020604051808303816000875af1158015612042573d6000803e3d6000fd5b505050506040513d601f19601f8201168201806040525081019061206691906148ac565b90506000600181111561207c5761207b6148d9565b5b81600181111561208f5761208e6148d9565b5b141561210b57600b6040518060400160405280846040015181526020018460000151815250908060018154018082558091505060019003906000526020600020906002020160009091909190915060008201518160000190805190602001906120f9929190612cd9565b50602082015181600101555050612134565b60018081111561211e5761211d6148d9565b5b816001811115612131576121306148d9565b5b50505b5050565b600033905090565b600073ffffffffffffffffffffffffffffffffffffffff168373ffffffffffffffffffffffffffffffffffffffff1614156121b0576040517f08c379a00000000000000000000000000000000000000000000000000000000081526004016121a79061497a565b60405180910390fd5b600073ffffffffffffffffffffffffffffffffffffffff168273ffffffffffffffffffffffffffffffffffffffff161415612220576040517f08c379a000000000000000000000000000000000000000000000000000000000815260040161221790614a0c565b60405180910390fd5b80600160008573ffffffffffffffffffffffffffffffffffffffff1673ffffffffffffffffffffffffffffffffffffffff16815260200190815260200160002060008473ffffffffffffffffffffffffffffffffffffffff1673ffffffffffffffffffffffffffffffffffffffff168152602001908152602001600020819055508173ffffffffffffffffffffffffffffffffffffffff168373ffffffffffffffffffffffffffffffffffffffff167f8c5be1e5ebec7d5bd14f71427d1e84f3dd0314c0f7b2291e5b200ac8c7c3b925836040516122fe9190613153565b60405180910390a3505050565b60006123178484611920565b90507fffffffffffffffffffffffffffffffffffffffffffffffffffffffffffffffff81146123915781811015612383576040517f08c379a000000000000000000000000000000000000000000000000000000000815260040161237a90614a78565b60405180910390fd5b6123908484848403612140565b5b50505050565b600073ffffffffffffffffffffffffffffffffffffffff168373ffffffffffffffffffffffffffffffffffffffff161415612407576040517f08c379a00000000000000000000000000000000000000000000000000000000081526004016123fe90614b0a565b60405180910390fd5b600073ffffffffffffffffffffffffffffffffffffffff168273ffffffffffffffffffffffffffffffffffffffff161415612477576040517f08c379a000000000000000000000000000000000000000000000000000000000815260040161246e90614b9c565b60405180910390fd5b612482838383612bce565b60008060008573ffffffffffffffffffffffffffffffffffffffff1673ffffffffffffffffffffffffffffffffffffffff16815260200190815260200160002054905081811015612508576040517f08c379a00000000000000000000000000000000000000000000000000000000081526004016124ff90614c2e565b60405180910390fd5b8181036000808673ffffffffffffffffffffffffffffffffffffffff1673ffffffffffffffffffffffffffffffffffffffff16815260200190815260200160002081905550816000808573ffffffffffffffffffffffffffffffffffffffff1673ffffffffffffffffffffffffffffffffffffffff168152602001908152602001600020600082825461259b9190613e5b565b925050819055508273ffffffffffffffffffffffffffffffffffffffff168473ffffffffffffffffffffffffffffffffffffffff167fddf252ad1be2c89b69c2b068fc378daa952ba7f163c4a11628f55a4df523b3ef846040516125ff9190613153565b60405180910390a3612612848484612bd3565b50505050565b600060098460405161262a9190614c7f565b908152602001604051809103902054905082811015612683577faa7f93bbb0659f61a11b680e0590ab23205967a5bdaa928dae6372df0bb9326784828560405161267693929190614c96565b60405180910390a1612765565b8281036009856040516126969190614c7f565b908152602001604051809103902081905550811561272b5760006126b98561299d565b905083600260008282546126cd9190613e5b565b92505081905550836000808373ffffffffffffffffffffffffffffffffffffffff1673ffffffffffffffffffffffffffffffffffffffff16815260200190815260200160002060008282546127229190613e5b565b92505081905550505b7fe8206846acaf2b75153b1286f2d74f781d9b94b4787dc2ce7f8c075414e3cf6f848460405161275c929190614cd4565b60405180910390a15b50505050565b600060098460405161277d9190614c7f565b9081526020016040518091039020549050818110156127d6577faa7f93bbb0659f61a11b680e0590ab23205967a5bdaa928dae6372df0bb932678482846040516127c993929190614c96565b60405180910390a16128ce565b8181036009856040516127e99190614c7f565b9081526020016040518091039020819055508160098460405161280c9190614c7f565b908152602001604051809103902060008282546128299190613e5b565b925050819055507f1d8380031597508b7d5d3df4999b8136789b62ed932115f9eb5897e19903792e84848460405161286393929190614d04565b60405180910390a160006128768461299d565b905083600f60008373ffffffffffffffffffffffffffffffffffffffff1673ffffffffffffffffffffffffffffffffffffffff16815260200190815260200160002090805190602001906128cb929190612cd9565b50505b50505050565b600c6040516128e39190614dc8565b6040518091039020838051906020012014612933576040517f08c379a000000000000000000000000000000000000000000000000000000000815260040161292a90614e2b565b60405180910390fd5b806009836040516129449190614c7f565b9081526020016040518091039020600082825401925050819055507f1b349f1b9a3c62fcd689a1e9eec1b30e140f416323e50f3206902ea759efbbbe8282604051612990929190614cd4565b60405180910390a1505050565b600080828051906020012090508060001c915050919050565b806009836040516129c79190614c7f565b908152602001604051809103902060008282546129e49190613e5b565b925050819055507f1d8380031597508b7d5d3df4999b8136789b62ed932115f9eb5897e19903792e8282604051612a1c929190614e71565b60405180910390a16000612a2f8361299d565b905082600f60008373ffffffffffffffffffffffffffffffffffffffff1673ffffffffffffffffffffffffffffffffffffffff1681526020019081526020016000209080519060200190612a84929190612cd9565b50505050565b612a92612138565b73ffffffffffffffffffffffffffffffffffffffff16612ab0611358565b73ffffffffffffffffffffffffffffffffffffffff1614612b06576040517f08c379a0000000000000000000000000000000000000000000000000000000008152600401612afd90614f00565b60405180910390fd5b565b6000600560009054906101000a900473ffffffffffffffffffffffffffffffffffffffff16905081600560006101000a81548173ffffffffffffffffffffffffffffffffffffffff021916908373ffffffffffffffffffffffffffffffffffffffff1602179055508173ffffffffffffffffffffffffffffffffffffffff168173ffffffffffffffffffffffffffffffffffffffff167f8be0079c531659141344cd1fd0a4f28419497f9722a3daafe3b4186f6b6457e060405160405180910390a35050565b505050565b505050565b604051806040016040528060608152602001600081525090565b828054612bfe90613a63565b90600052602060002090601f016020900481019282612c205760008555612c6e565b82601f10612c315780548555612c6e565b82800160010185558215612c6e57600052602060002091601f016020900482015b82811115612c6d578254825591600101919060010190612c52565b5b509050612c7b9190612e1e565b5090565b508054612c8b90613a63565b6000825580601f10612c9d5750612cbc565b601f016020900490600052602060002090810190612cbb9190612e1e565b5b50565b604051806040016040528060608152602001600081525090565b828054612ce590613a63565b90600052602060002090601f016020900481019282612d075760008555612d4e565b82601f10612d2057805160ff1916838001178555612d4e565b82800160010185558215612d4e579182015b82811115612d4d578251825591602001919060010190612d32565b5b509050612d5b9190612e1e565b5090565b828054612d6b90613a63565b90600052602060002090601f016020900481019282612d8d5760008555612dd4565b82601f10612da657803560ff1916838001178555612dd4565b82800160010185558215612dd4579182015b82811115612dd3578235825591602001919060010190612db8565b5b509050612de19190612e1e565b5090565b6040518060c0016040528060008152602001600060ff168152602001606081526020016060815260200160608152602001606081525090565b5b80821115612e37576000816000905550600101612e1f565b5090565b6000604051905090565b600080fd5b600080fd5b600080fd5b600060c08284031215612e6a57612e69612e4f565b5b81905092915050565b600060208284031215612e8957612e88612e45565b5b600082013567ffffffffffffffff811115612ea757612ea6612e4a565b5b612eb384828501612e54565b91505092915050565b600081519050919050565b600082825260208201905092915050565b60005b83811015612ef6578082015181840152602081019050612edb565b83811115612f05576000848401525b50505050565b6000601f19601f8301169050919050565b6000612f2782612ebc565b612f318185612ec7565b9350612f41818560208601612ed8565b612f4a81612f0b565b840191505092915050565b60006020820190508181036000830152612f6f8184612f1c565b905092915050565b600073ffffffffffffffffffffffffffffffffffffffff82169050919050565b6000612fa282612f77565b9050919050565b612fb281612f97565b8114612fbd57600080fd5b50565b600081359050612fcf81612fa9565b92915050565b6000819050919050565b612fe881612fd5565b8114612ff357600080fd5b50565b60008135905061300581612fdf565b92915050565b6000806040838503121561302257613021612e45565b5b600061303085828601612fc0565b925050602061304185828601612ff6565b9150509250929050565b60008115159050919050565b6130608161304b565b82525050565b600060208201905061307b6000830184613057565b92915050565b600081519050919050565b600082825260208201905092915050565b60006130a882613081565b6130b2818561308c565b93506130c2818560208601612ed8565b6130cb81612f0b565b840191505092915050565b6130df81612fd5565b82525050565b60006040830160008301518482036000860152613102828261309d565b915050602083015161311760208601826130d6565b508091505092915050565b6000602082019050818103600083015261313c81846130e5565b905092915050565b61314d81612fd5565b82525050565b60006020820190506131686000830184613144565b92915050565b6000819050919050565b600061319361318e61318984612f77565b61316e565b612f77565b9050919050565b60006131a582613178565b9050919050565b60006131b78261319a565b9050919050565b6131c7816131ac565b82525050565b60006020820190506131e260008301846131be565b92915050565b60008060006060848603121561320157613200612e45565b5b600061320f86828701612fc0565b935050602061322086828701612fc0565b925050604061323186828701612ff6565b9150509250925092565b600060ff82169050919050565b6132518161323b565b82525050565b600060208201905061326c6000830184613248565b92915050565b600080fd5b600080fd5b600080fd5b60008083601f84011261329757613296613272565b5b8235905067ffffffffffffffff8111156132b4576132b3613277565b5b6020830191508360208202830111156132d0576132cf61327c565b5b9250929050565b600080602083850312156132ee576132ed612e45565b5b600083013567ffffffffffffffff81111561330c5761330b612e4a565b5b61331885828601613281565b92509250509250929050565b60006020828403121561333a57613339612e45565b5b600061334884828501612fc0565b91505092915050565b60008083601f84011261336757613366613272565b5b8235905067ffffffffffffffff81111561338457613383613277565b5b6020830191508360018202830111156133a05761339f61327c565b5b9250929050565b600080602083850312156133be576133bd612e45565b5b600083013567ffffffffffffffff8111156133dc576133db612e4a565b5b6133e885828601613351565b92509250509250929050565b60006020828403121561340a57613409612e45565b5b600061341884828501612ff6565b91505092915050565b6000604083016000830151848203600086015261343e828261309d565b915050602083015161345360208601826130d6565b508091505092915050565b600060208201905081810360008301526134788184613421565b905092915050565b61348981612f97565b82525050565b60006020820190506134a46000830184613480565b92915050565b600081519050919050565b600082825260208201905092915050565b6000819050602082019050919050565b6134df8161323b565b82525050565b60006134f183836134d6565b60208301905092915050565b6000602082019050919050565b6000613515826134aa565b61351f81856134b5565b935061352a836134c6565b8060005b8381101561355b57815161354288826134e5565b975061354d836134fd565b92505060018101905061352e565b5085935050505092915050565b60006020820190508181036000830152613582818461350a565b905092915050565b6000806000604084860312156135a3576135a2612e45565b5b600084013567ffffffffffffffff8111156135c1576135c0612e4a565b5b6135cd86828701613351565b935093505060206135e086828701612ff6565b9150509250925092565b600082825260208201905092915050565b600061360682613081565b61361081856135ea565b9350613620818560208601612ed8565b61362981612f0b565b840191505092915050565b6000602082019050818103600083015261364e81846135fb565b905092915050565b6000806040838503121561366d5761366c612e45565b5b600061367b85828601612fc0565b925050602061368c85828601612fc0565b9150509250929050565b600080600080606085870312156136b0576136af612e45565b5b60006136be87828801612ff6565b94505060206136cf87828801612ff6565b935050604085013567ffffffffffffffff8111156136f0576136ef612e4a565b5b6136fc87828801613351565b925092505092959194509250565b600080fd5b7f4e487b7100000000000000000000000000000000000000000000000000000000600052604160045260246000fd5b61374782612f0b565b810181811067ffffffffffffffff821117156137665761376561370f565b5b80604052505050565b6000613779612e3b565b9050613785828261373e565b919050565b600080fd5b6137988161323b565b81146137a357600080fd5b50565b6000813590506137b58161378f565b92915050565b600080fd5b600067ffffffffffffffff8211156137db576137da61370f565b5b6137e482612f0b565b9050602081019050919050565b82818337600083830152505050565b600061381361380e846137c0565b61376f565b90508281526020810184848401111561382f5761382e6137bb565b5b61383a8482856137f1565b509392505050565b600082601f83011261385757613856613272565b5b8135613867848260208601613800565b91505092915050565b600067ffffffffffffffff82111561388b5761388a61370f565b5b61389482612f0b565b9050602081019050919050565b60006138b46138af84613870565b61376f565b9050828152602081018484840111156138d0576138cf6137bb565b5b6138db8482856137f1565b509392505050565b600082601f8301126138f8576138f7613272565b5b81356139088482602086016138a1565b91505092915050565b600060c082840312156139275761392661370a565b5b61393160c061376f565b9050600061394184828501612ff6565b6000830152506020613955848285016137a6565b602083015250604082013567ffffffffffffffff8111156139795761397861378a565b5b61398584828501613842565b604083015250606082013567ffffffffffffffff8111156139a9576139a861378a565b5b6139b5848285016138e3565b606083015250608082013567ffffffffffffffff8111156139d9576139d861378a565b5b6139e584828501613842565b60808301525060a082013567ffffffffffffffff811115613a0957613a0861378a565b5b613a1584828501613842565b60a08301525092915050565b6000613a2d3683613911565b9050919050565b7f4e487b7100000000000000000000000000000000000000000000000000000000600052602260045260246000fd5b60006002820490506001821680613a7b57607f821691505b60208210811415613a8f57613a8e613a34565b5b50919050565b7f4e487b7100000000000000000000000000000000000000000000000000000000600052603260045260246000fd5b60008190508160005260206000209050919050565b60008154613ae681613a63565b613af081866135ea565b94506001821660008114613b0b5760018114613b1d57613b50565b60ff1983168652602086019350613b50565b613b2685613ac4565b60005b83811015613b4857815481890152600182019150602081019050613b29565b808801955050505b50505092915050565b60006040820190508181036000830152613b738185613ad9565b9050613b826020830184613144565b9392505050565b600081519050613b9881612fdf565b92915050565b600081519050613bad8161378f565b92915050565b6000613bc6613bc1846137c0565b61376f565b905082815260208101848484011115613be257613be16137bb565b5b613bed848285612ed8565b509392505050565b600082601f830112613c0a57613c09613272565b5b8151613c1a848260208601613bb3565b91505092915050565b6000613c36613c3184613870565b61376f565b905082815260208101848484011115613c5257613c516137bb565b5b613c5d848285612ed8565b509392505050565b600082601f830112613c7a57613c79613272565b5b8151613c8a848260208601613c23565b91505092915050565b600060c08284031215613ca957613ca861370a565b5b613cb360c061376f565b90506000613cc384828501613b89565b6000830152506020613cd784828501613b9e565b602083015250604082015167ffffffffffffffff811115613cfb57613cfa61378a565b5b613d0784828501613bf5565b604083015250606082015167ffffffffffffffff811115613d2b57613d2a61378a565b5b613d3784828501613c65565b606083015250608082015167ffffffffffffffff811115613d5b57613d5a61378a565b5b613d6784828501613bf5565b60808301525060a082015167ffffffffffffffff811115613d8b57613d8a61378a565b5b613d9784828501613bf5565b60a08301525092915050565b60008060408385031215613dba57613db9612e45565b5b600083015167ffffffffffffffff811115613dd857613dd7612e4a565b5b613de485828601613c93565b9250506020613df585828601613b89565b9150509250929050565b600060208284031215613e1557613e14612e45565b5b6000613e2384828501613b89565b91505092915050565b7f4e487b7100000000000000000000000000000000000000000000000000000000600052601160045260246000fd5b6000613e6682612fd5565b9150613e7183612fd5565b9250827fffffffffffffffffffffffffffffffffffffffffffffffffffffffffffffffff03821115613ea657613ea5613e2c565b5b828201905092915050565b7f4e6f2064656c6179656420747800000000000000000000000000000000000000600082015250565b6000613ee7600d83612ec7565b9150613ef282613eb1565b602082019050919050565b60006020820190508181036000830152613f1681613eda565b9050919050565b7f4e6f742065786563757461626c65000000000000000000000000000000000000600082015250565b6000613f53600e83612ec7565b9150613f5e82613f1d565b602082019050919050565b60006020820190508181036000830152613f8281613f46565b9050919050565b6000613f9482612fd5565b9150613f9f83612fd5565b925082821015613fb257613fb1613e2c565b5b828203905092915050565b7f4e487b7100000000000000000000000000000000000000000000000000000000600052603160045260246000fd5b6000806040838503121561400357614002612e45565b5b600061401185828601613b9e565b925050602083015167ffffffffffffffff81111561403257614031612e4a565b5b61403e85828601613bf5565b9150509250929050565b60006020828403121561405e5761405d612e45565b5b600061406c84828501613b9e565b91505092915050565b6000806040838503121561408c5761408b612e45565b5b600083015167ffffffffffffffff8111156140aa576140a9612e4a565b5b6140b685828601613bf5565b92505060206140c785828601613b89565b9150509250929050565b600060408201905081810360008301526140eb81856135fb565b90506140fa6020830184613248565b9392505050565b60006020828403121561411757614116612e45565b5b6000614125848285016137a6565b91505092915050565b600061413982612fd5565b91507fffffffffffffffffffffffffffffffffffffffffffffffffffffffffffffffff82141561416c5761416b613e2c565b5b600182019050919050565b600081905092915050565b600061418e8385614177565b935061419b8385846137f1565b82840190509392505050565b60006141b4828486614182565b91508190509392505050565b60008190508160005260206000209050919050565b600081546141e281613a63565b6141ec8186614177565b9450600182166000811461420757600181146142185761424b565b60ff1983168652818601935061424b565b614221856141c0565b60005b8381101561424357815481890152600182019150602081019050614224565b838801955050505b50505092915050565b600061426082846141d5565b915081905092915050565b7f45524332303a2064656372656173656420616c6c6f77616e63652062656c6f7760008201527f207a65726f000000000000000000000000000000000000000000000000000000602082015250565b60006142c7602583612ec7565b91506142d28261426b565b604082019050919050565b600060208201905081810360008301526142f6816142ba565b9050919050565b7f5369676e657220616e64207265636569766572206e6f74206d61746368000000600082015250565b6000614333601d83612ec7565b915061433e826142fd565b602082019050919050565b6000602082019050818103600083015261436281614326565b9050919050565b7f4465706f73697420616d6f756e7420657863656564732062616c616e63650000600082015250565b600061439f601e83612ec7565b91506143aa82614369565b602082019050919050565b600060208201905081810360008301526143ce81614392565b9050919050565b7f4f776e61626c653a206e6577206f776e657220697320746865207a65726f206160008201527f6464726573730000000000000000000000000000000000000000000000000000602082015250565b6000614431602683612ec7565b915061443c826143d5565b604082019050919050565b6000602082019050818103600083015261446081614424565b9050919050565b7f4f6e6c7920636f6d6d69747465652063616e20617070726f7665206465706f7360008201527f6974730000000000000000000000000000000000000000000000000000000000602082015250565b60006144c3602383612ec7565b91506144ce82614467565b604082019050919050565b600060208201905081810360008301526144f2816144b6565b9050919050565b7f496e646578206973206e6f742063757272656e74000000000000000000000000600082015250565b600061452f601483612ec7565b915061453a826144f9565b602082019050919050565b6000602082019050818103600083015261455e81614522565b9050919050565b600060408201905061457a6000830185613248565b818103602083015261458c81846135fb565b90509392505050565b60008190508160005260206000209050919050565b600081546145b781613a63565b6145c18186612ec7565b945060018216600081146145dc57600181146145ee57614621565b60ff1983168652602086019350614621565b6145f785614595565b60005b83811015614619578154818901526001820191506020810190506145fa565b808801955050505b50505092915050565b6000602082019050818103600083015261464481846145aa565b905092915050565b7f57726f6e672064657374696e6174696f6e000000000000000000000000000000600082015250565b6000614682601183612ec7565b915061468d8261464c565b602082019050919050565b600060208201905081810360008301526146b181614675565b9050919050565b6146c18161304b565b81146146cc57600080fd5b50565b6000815190506146de816146b8565b92915050565b6000602082840312156146fa576146f9612e45565b5b6000614708848285016146cf565b91505092915050565b7f55736572206973206d616c6963696f7573000000000000000000000000000000600082015250565b6000614747601183612ec7565b915061475282614711565b602082019050919050565b600060208201905081810360008301526147768161473a565b9050919050565b600082825260208201905092915050565b600061479982612ebc565b6147a3818561477d565b93506147b3818560208601612ed8565b6147bc81612f0b565b840191505092915050565b600060c0830160008301516147df60008601826130d6565b5060208301516147f260208601826134d6565b506040830151848203604086015261480a828261309d565b91505060608301518482036060860152614824828261478e565b9150506080830151848203608086015261483e828261309d565b91505060a083015184820360a0860152614858828261309d565b9150508091505092915050565b6000602082019050818103600083015261487f81846147c7565b905092915050565b6002811061489457600080fd5b50565b6000815190506148a681614887565b92915050565b6000602082840312156148c2576148c1612e45565b5b60006148d084828501614897565b91505092915050565b7f4e487b7100000000000000000000000000000000000000000000000000000000600052602160045260246000fd5b7f45524332303a20617070726f76652066726f6d20746865207a65726f2061646460008201527f7265737300000000000000000000000000000000000000000000000000000000602082015250565b6000614964602483612ec7565b915061496f82614908565b604082019050919050565b6000602082019050818103600083015261499381614957565b9050919050565b7f45524332303a20617070726f766520746f20746865207a65726f20616464726560008201527f7373000000000000000000000000000000000000000000000000000000000000602082015250565b60006149f6602283612ec7565b9150614a018261499a565b604082019050919050565b60006020820190508181036000830152614a25816149e9565b9050919050565b7f45524332303a20696e73756666696369656e7420616c6c6f77616e6365000000600082015250565b6000614a62601d83612ec7565b9150614a6d82614a2c565b602082019050919050565b60006020820190508181036000830152614a9181614a55565b9050919050565b7f45524332303a207472616e736665722066726f6d20746865207a65726f20616460008201527f6472657373000000000000000000000000000000000000000000000000000000602082015250565b6000614af4602583612ec7565b9150614aff82614a98565b604082019050919050565b60006020820190508181036000830152614b2381614ae7565b9050919050565b7f45524332303a207472616e7366657220746f20746865207a65726f206164647260008201527f6573730000000000000000000000000000000000000000000000000000000000602082015250565b6000614b86602383612ec7565b9150614b9182614b2a565b604082019050919050565b60006020820190508181036000830152614bb581614b79565b9050919050565b7f45524332303a207472616e7366657220616d6f756e742065786365656473206260008201527f616c616e63650000000000000000000000000000000000000000000000000000602082015250565b6000614c18602683612ec7565b9150614c2382614bbc565b604082019050919050565b60006020820190508181036000830152614c4781614c0b565b9050919050565b6000614c5982613081565b614c638185614177565b9350614c73818560208601612ed8565b80840191505092915050565b6000614c8b8284614c4e565b915081905092915050565b60006060820190508181036000830152614cb081866135fb565b9050614cbf6020830185613144565b614ccc6040830184613144565b949350505050565b60006040820190508181036000830152614cee81856135fb565b9050614cfd6020830184613144565b9392505050565b60006060820190508181036000830152614d1e81866135fb565b90508181036020830152614d3281856135fb565b9050614d416040830184613144565b949350505050565b60008154614d5681613a63565b614d608186614177565b94506001821660008114614d7b5760018114614d8c57614dbf565b60ff19831686528186019350614dbf565b614d9585613ac4565b60005b83811015614db757815481890152600182019150602081019050614d98565b838801955050505b50505092915050565b6000614dd48284614d49565b915081905092915050565b7f4e6f742074686520636f6d6d6974746565000000000000000000000000000000600082015250565b6000614e15601183612ec7565b9150614e2082614ddf565b602082019050919050565b60006020820190508181036000830152614e4481614e08565b9050919050565b50565b6000614e5b6000836135ea565b9150614e6682614e4b565b600082019050919050565b60006060820190508181036000830152614e8a81614e4e565b90508181036020830152614e9e81856135fb565b9050614ead6040830184613144565b9392505050565b7f4f776e61626c653a2063616c6c6572206973206e6f7420746865206f776e6572600082015250565b6000614eea602083612ec7565b9150614ef582614eb4565b602082019050919050565b60006020820190508181036000830152614f1981614edd565b905091905056fea2646970667358221220997d435488c162747b5fd403f6be02c6a01776eaf8aaaf30520657f8a42034e364736f6c634300080c0033",
  "immutableReferences": {},
  "source": "// SPDX-License-Identifier: MIT\npragma solidity >=0.8.0 <0.9.0;\n\nimport \"@openzeppelin/contracts/access/Ownable.sol\";\nimport \"./ERC20.sol\";\nimport \"./interfaces/IOmniverseProtocol.sol\";\nimport \"./interfaces/IOmniverseFungible.sol\";\n\ncontract SkywalkerFungible is ERC20, Ownable, IOmniverseFungible {\n    struct DelayedTx {\n        bytes sender;\n        uint256 nonce;\n    }\n\n    IOmniverseProtocol public omniverseProtocol;\n    string public tokenIdentity;\n    uint8[] members;\n    mapping(bytes => uint256) omniverseBalances;\n    mapping(bytes => uint256) prisons;\n    DelayedTx[] delayedTxs;\n    bytes public committee;\n    DepositRequest[] depositRequests;\n    uint256 public depositDealingIndex;\n    mapping(address => bytes) accountsMap;\n\n    event OmniverseTokenTransfer(bytes from, bytes to, uint256 value);\n    event OmniverseTokenWithdraw(bytes from, uint256 value);\n    event OmniverseTokenDeposit(bytes to, uint256 value);\n    event OmniverseTokenExceedBalance(bytes owner, uint256 balance, uint256 value);\n    event OmniverseTokenWrongOp(bytes sender, uint8 op);\n    event OmniverseNotOwner(bytes sender);\n    event OmniverseError(bytes sender, string reason);\n\n    modifier onlyCommittee() {\n        address committeeAddr = pkToAddress(committee);\n        require(msg.sender == committeeAddr, \"Only committee can approve deposits\");\n        _;\n    }\n\n    constructor(string memory _tokenId, string memory _name, string memory _symbol) ERC20(_name, _symbol) {\n        tokenIdentity = _tokenId;\n    }\n\n    /**\n     * @dev Set the address of committee\n     */\n    function setCommitteeAddress(bytes calldata _address) public onlyOwner {\n        committee = _address;\n    }\n\n    /**\n     * @dev Set the address of the omniverse protocol\n     */\n    function setOmniverseProtocolAddress(address _address) public onlyOwner {\n        omniverseProtocol = IOmniverseProtocol(_address);\n    }\n\n    /**\n     * @dev See {IOmniverseFungible-omniverseTransfer}\n     * Transfer omniverse tokens to a user\n     */\n    function omniverseTransfer(OmniverseTokenProtocol calldata _data) external override {\n        _omniverseTransaction(_data);\n    }\n\n    /**\n     * @dev See {IOmniverseFungible-omniverseWithdraw}\n     * Convert omniverse token to ERC20 token\n     */\n    function omniverseWithdraw(OmniverseTokenProtocol calldata _data) external override {\n        _omniverseTransaction(_data);\n    }\n\n    /**\n     * @dev See {IOmniverseFungible-omniverseDeposit}\n     * Convert ERC20 token to omniverse token\n     */\n    function omniverseDeposit(OmniverseTokenProtocol calldata _data) external override {\n        _omniverseTransaction(_data);\n    }\n\n    function omniverseMint(OmniverseTokenProtocol calldata _data) external {\n        _omniverseTransaction(_data);\n    }\n\n    /**\n     * @dev Trigger the execution of the first delayed transaction\n     */\n    function triggerExecution() external {\n        require(delayedTxs.length > 0, \"No delayed tx\");\n\n        (OmniverseTokenProtocol memory txData, uint256 timestamp) = omniverseProtocol.getTransactionData(delayedTxs[0].sender, delayedTxs[0].nonce);\n        require(block.timestamp >= timestamp + omniverseProtocol.getCoolingDownTime(), \"Not executable\");\n        delayedTxs[0] = delayedTxs[delayedTxs.length - 1];\n        delayedTxs.pop();\n\n        (uint8 op, bytes memory wrappedData) = abi.decode(txData.data, (uint8, bytes));\n        if (op == WITHDRAW) {\n            (uint256 amount) = abi.decode(wrappedData, (uint256));\n            _omniverseWithdraw(txData.from, amount, txData.chainId == omniverseProtocol.getChainId());\n        }\n        else if (op == TRANSFER) {\n            (bytes memory to, uint256 amount) = abi.decode(wrappedData, (bytes, uint256));\n            _omniverseTransfer(txData.from, to, amount);\n        }\n        else if (op == DEPOSIT) {\n            (bytes memory to, uint256 amount) = abi.decode(wrappedData, (bytes, uint256));\n            _omniverseDeposit(txData.from, to, amount);\n        }\n        else if (op == MINT) {\n            address fromAddr = pkToAddress(txData.from);\n            if (fromAddr != owner()) {\n                emit OmniverseNotOwner(txData.from);\n                return;\n            }\n            (bytes memory to, uint256 amount) = abi.decode(wrappedData, (bytes, uint256));\n            _omniverseMint(to, amount);\n        }\n        else {\n            emit OmniverseTokenWrongOp(txData.from, op);\n        }\n    }\n\n    /**\n     * @dev Returns the nearest exexutable delayed transaction info\n     * or returns default if not found\n     */\n    function getExecutableDelayedTx() external view returns (DelayedTx memory ret) {\n        if (delayedTxs.length > 0) {\n            (, uint256 timestamp) = omniverseProtocol.getTransactionData(delayedTxs[0].sender, delayedTxs[0].nonce);\n            if (block.timestamp >= timestamp + omniverseProtocol.getCoolingDownTime()) {\n                ret = delayedTxs[0];\n            }\n        }\n    }\n\n    function getDelayedTxCount() external view returns (uint256) {\n        return delayedTxs.length;\n    }\n\n    /**\n     * @dev See {IOmniverseFungible-omniverseBalanceOf}\n     * Returns the omniverse balance of a user\n     */\n    function omniverseBalanceOf(bytes calldata _pk) external view override returns (uint256) {\n        return omniverseBalances[_pk];\n    }\n\n    /**\n     * @dev See {IERC20-balanceOf}.\n     */\n    function balanceOf(address account) public view virtual override returns (uint256) {\n        bytes storage pk = accountsMap[account];\n        if (pk.length == 0) {\n            return 0;\n        }\n        else {\n            return omniverseBalances[pk];\n        }\n    }\n    \n    /**\n     * @dev See {Replace IERC20-balanceOf}.\n     */\n    function nativeBalanceOf(address account) public view returns (uint256) {\n        return _balances[account];\n    }\n\n    function _omniverseTransaction(OmniverseTokenProtocol memory _data) internal {\n        // Check if the tx destination is correct\n        require(keccak256(abi.encode(_data.to)) == keccak256(abi.encode(tokenIdentity)), \"Wrong destination\");\n\n        // Check if the sender is honest\n        // to be continued, we can use block list instead of `isMalicious`\n        require(!omniverseProtocol.isMalicious(_data.from), \"User is malicious\");\n\n        // Verify the signature\n        VerifyResult verifyRet = omniverseProtocol.verifyTransaction(_data);\n        if (verifyRet == VerifyResult.Success) {\n            // Delays in executing\n            delayedTxs.push(DelayedTx(_data.from, _data.nonce));\n        }\n        else if (verifyRet == VerifyResult.Malicious) {\n            // Slash\n        }\n    }\n\n    function _omniverseTransfer(bytes memory _from, bytes memory _to, uint256 _amount) internal {\n        uint256 fromBalance = omniverseBalances[_from];\n        if (fromBalance < _amount) {\n            emit OmniverseTokenExceedBalance(_from, fromBalance, _amount);\n        }\n        else {\n            unchecked {\n                omniverseBalances[_from] = fromBalance - _amount;\n            }\n            omniverseBalances[_to] += _amount;\n\n            emit OmniverseTokenTransfer(_from, _to, _amount);\n\n            address toAddr = pkToAddress(_to);\n            accountsMap[toAddr] = _to;\n        }\n    }\n\n    function _omniverseWithdraw(bytes memory _from, uint256 _amount, bool _thisChain) internal {\n        uint256 fromBalance = omniverseBalances[_from];\n        if (fromBalance < _amount) {\n            emit OmniverseTokenExceedBalance(_from, fromBalance, _amount);\n        }\n        else {\n            unchecked {\n                omniverseBalances[_from] = fromBalance - _amount;\n            }\n            \n            if (_thisChain) {\n                address ownerAddr = pkToAddress(_from);\n\n                // mint\n                _totalSupply += _amount;\n                _balances[ownerAddr] += _amount;\n            }\n\n            emit OmniverseTokenWithdraw(_from, _amount);\n        }\n    }\n\n    function _omniverseDeposit(bytes memory _from, bytes memory _to, uint256 _amount) internal {\n        require(keccak256(_from) == keccak256(committee), \"Not the committee\");\n\n        unchecked {\n            omniverseBalances[_to] += _amount;\n        }\n\n        emit OmniverseTokenDeposit(_to, _amount);\n    }\n\n    function _omniverseMint(bytes memory _to, uint256 _amount) internal {\n        omniverseBalances[_to] += _amount;\n        emit OmniverseTokenTransfer(\"\", _to, _amount);\n\n        address toAddr = pkToAddress(_to);\n        accountsMap[toAddr] = _to;\n    }\n\n    function pkToAddress(bytes memory _pk) internal pure returns (address) {\n        bytes32 hash = keccak256(_pk);\n        return address(uint160(uint256(hash)));\n    }\n\n    function getTime() external view returns (uint256) {\n        return block.timestamp;\n    }\n\n    function addMembers(uint8[] calldata _members) external onlyOwner {\n        for (uint256 i = 0; i < _members.length; i++) {\n            bool found = false;\n            for (uint256 j = 0; j < members.length; j++) {\n                if (members[j] == _members[i]) {\n                    found = true;\n                    break;\n                }\n            }\n            \n            if (!found) {\n                members.push(_members[i]);\n            }\n        }\n    }\n\n    function getMembers() external view returns (uint8[] memory) {\n        return members;\n    }\n\n    /**\n     * @dev Users request to convert native token to omniverse token\n     */\n    function requestDeposit(bytes calldata from, uint256 amount) external {\n        address fromAddr = pkToAddress(from);\n        require(fromAddr == msg.sender, \"Signer and receiver not match\");\n\n        uint256 fromBalance = _balances[fromAddr];\n        require(fromBalance >= amount, \"Deposit amount exceeds balance\");\n\n        // Update\n        unchecked {\n            _balances[fromAddr] = fromBalance - amount;\n        }\n        _totalSupply -= amount;\n\n        depositRequests.push(DepositRequest(from, amount));\n    }\n\n    /**\n     * @dev The committee approves a user's request\n     */\n    function approveDeposit(uint256 index, uint256 nonce, bytes calldata signature) external onlyCommittee {\n        require(index == depositDealingIndex, \"Index is not current\");\n\n        DepositRequest storage request = depositRequests[index];\n        depositDealingIndex++;\n\n        OmniverseTokenProtocol memory p;\n        p.nonce = nonce;\n        p.chainId = omniverseProtocol.getChainId();\n        p.from = committee;\n        p.to = tokenIdentity;\n        p.signature = signature;\n        p.data = abi.encode(DEPOSIT, abi.encode(request.receiver, request.amount));\n        _omniverseTransaction(p);\n    }\n\n    /**\n     @dev Returns the deposit request at `index`\n     @param index: The index of requests\n     */\n    function getDepositRequest(uint256 index) external view returns (DepositRequest memory ret) {\n        if (depositRequests.length > index) {\n            ret = depositRequests[index];\n        }\n    }\n}",
  "sourcePath": "/home/george/program/dante/omniverse-evm/contracts/contracts/SkywalkerFungible.sol",
  "compiler": {
    "name": "solc",
    "version": "0.8.12+commit.f00d7308.Emscripten.clang"
  },
  "schemaVersion": "3.4.6",
  "updatedAt": "2023-01-03T12:22:53.683Z",
  "devdoc": {
    "kind": "dev",
    "methods": {
      "allowance(address,address)": {
        "details": "See {IERC20-allowance}."
      },
      "approve(address,uint256)": {
        "details": "See {IERC20-approve}. NOTE: If `amount` is the maximum `uint256`, the allowance is not updated on `transferFrom`. This is semantically equivalent to an infinite approval. Requirements: - `spender` cannot be the zero address."
      },
      "approveDeposit(uint256,uint256,bytes)": {
        "details": "The committee approves a user's request"
      },
      "balanceOf(address)": {
        "details": "See {IERC20-balanceOf}."
      },
      "decimals()": {
        "details": "Returns the number of decimals used to get its user representation. For example, if `decimals` equals `2`, a balance of `505` tokens should be displayed to a user as `5.05` (`505 / 10 ** 2`). Tokens usually opt for a value of 18, imitating the relationship between Ether and Wei. This is the value {ERC20} uses, unless this function is overridden; NOTE: This information is only used for _display_ purposes: it in no way affects any of the arithmetic of the contract, including {IERC20-balanceOf} and {IERC20-transfer}."
      },
      "decreaseAllowance(address,uint256)": {
        "details": "Atomically decreases the allowance granted to `spender` by the caller. This is an alternative to {approve} that can be used as a mitigation for problems described in {IERC20-approve}. Emits an {Approval} event indicating the updated allowance. Requirements: - `spender` cannot be the zero address. - `spender` must have allowance for the caller of at least `subtractedValue`."
      },
      "getDepositRequest(uint256)": {
        "details": "Returns the deposit request at `index`",
        "params": {
          "index": ": The index of requests"
        }
      },
      "getExecutableDelayedTx()": {
        "details": "Returns the nearest exexutable delayed transaction info or returns default if not found"
      },
      "increaseAllowance(address,uint256)": {
        "details": "Atomically increases the allowance granted to `spender` by the caller. This is an alternative to {approve} that can be used as a mitigation for problems described in {IERC20-approve}. Emits an {Approval} event indicating the updated allowance. Requirements: - `spender` cannot be the zero address."
      },
      "name()": {
        "details": "Returns the name of the token."
      },
      "nativeBalanceOf(address)": {
        "details": "See {Replace IERC20-balanceOf}."
      },
      "omniverseBalanceOf(bytes)": {
        "details": "See {IOmniverseFungible-omniverseBalanceOf} Returns the omniverse balance of a user"
      },
      "omniverseDeposit((uint256,uint8,bytes,string,bytes,bytes))": {
        "details": "See {IOmniverseFungible-omniverseDeposit} Convert ERC20 token to omniverse token"
      },
      "omniverseTransfer((uint256,uint8,bytes,string,bytes,bytes))": {
        "details": "See {IOmniverseFungible-omniverseTransfer} Transfer omniverse tokens to a user"
      },
      "omniverseWithdraw((uint256,uint8,bytes,string,bytes,bytes))": {
        "details": "See {IOmniverseFungible-omniverseWithdraw} Convert omniverse token to ERC20 token"
      },
      "owner()": {
        "details": "Returns the address of the current owner."
      },
      "renounceOwnership()": {
        "details": "Leaves the contract without owner. It will not be possible to call `onlyOwner` functions anymore. Can only be called by the current owner. NOTE: Renouncing ownership will leave the contract without an owner, thereby removing any functionality that is only available to the owner."
      },
      "requestDeposit(bytes,uint256)": {
        "details": "Users request to convert native token to omniverse token"
      },
      "setCommitteeAddress(bytes)": {
        "details": "Set the address of committee"
      },
      "setOmniverseProtocolAddress(address)": {
        "details": "Set the address of the omniverse protocol"
      },
      "symbol()": {
        "details": "Returns the symbol of the token, usually a shorter version of the name."
      },
      "totalSupply()": {
        "details": "See {IERC20-totalSupply}."
      },
      "transfer(address,uint256)": {
        "details": "See {IERC20-transfer}. Requirements: - `to` cannot be the zero address. - the caller must have a balance of at least `amount`."
      },
      "transferFrom(address,address,uint256)": {
        "details": "See {IERC20-transferFrom}. Emits an {Approval} event indicating the updated allowance. This is not required by the EIP. See the note at the beginning of {ERC20}. NOTE: Does not update the allowance if the current allowance is the maximum `uint256`. Requirements: - `from` and `to` cannot be the zero address. - `from` must have a balance of at least `amount`. - the caller must have allowance for ``from``'s tokens of at least `amount`."
      },
      "transferOwnership(address)": {
        "details": "Transfers ownership of the contract to a new account (`newOwner`). Can only be called by the current owner."
      },
      "triggerExecution()": {
        "details": "Trigger the execution of the first delayed transaction"
      }
    },
    "version": 1
  },
  "userdoc": {
    "kind": "user",
    "methods": {},
    "version": 1
  }
}