{
  "contractName": "OmniverseProtocol",
  "abi": [
    {
      "inputs": [
        {
          "internalType": "string",
          "name": "_chainId",
          "type": "string"
        }
      ],
      "stateMutability": "nonpayable",
      "type": "constructor"
    },
    {
      "anonymous": false,
      "inputs": [
        {
          "indexed": false,
          "internalType": "bytes",
          "name": "pk",
          "type": "bytes"
        },
        {
          "indexed": false,
          "internalType": "uint256",
          "name": "nonce",
          "type": "uint256"
        }
      ],
      "name": "TransactionSent",
      "type": "event"
    },
    {
      "inputs": [],
      "name": "cdTime",
      "outputs": [
        {
          "internalType": "uint256",
          "name": "",
          "type": "uint256"
        }
      ],
      "stateMutability": "view",
      "type": "function",
      "constant": true
    },
    {
      "inputs": [
        {
          "components": [
            {
              "internalType": "uint256",
              "name": "nonce",
              "type": "uint256"
            },
            {
              "internalType": "string",
              "name": "chainId",
              "type": "string"
            },
            {
              "internalType": "bytes",
              "name": "from",
              "type": "bytes"
            },
            {
              "internalType": "string",
              "name": "to",
              "type": "string"
            },
            {
              "internalType": "bytes",
              "name": "data",
              "type": "bytes"
            },
            {
              "internalType": "bytes",
              "name": "signature",
              "type": "bytes"
            }
          ],
          "internalType": "struct OmniverseTokenProtocol",
          "name": "_data",
          "type": "tuple"
        }
      ],
      "name": "verifyTransaction",
      "outputs": [
        {
          "internalType": "enum VerifyResult",
          "name": "",
          "type": "uint8"
        }
      ],
      "stateMutability": "nonpayable",
      "type": "function"
    },
    {
      "inputs": [
        {
          "internalType": "bytes",
          "name": "_pk",
          "type": "bytes"
        }
      ],
      "name": "getTransactionCount",
      "outputs": [
        {
          "internalType": "uint256",
          "name": "",
          "type": "uint256"
        }
      ],
      "stateMutability": "view",
      "type": "function",
      "constant": true
    },
    {
      "inputs": [
        {
          "internalType": "bytes",
          "name": "_user",
          "type": "bytes"
        },
        {
          "internalType": "uint256",
          "name": "_nonce",
          "type": "uint256"
        }
      ],
      "name": "getTransactionData",
      "outputs": [
        {
          "components": [
            {
              "internalType": "uint256",
              "name": "nonce",
              "type": "uint256"
            },
            {
              "internalType": "string",
              "name": "chainId",
              "type": "string"
            },
            {
              "internalType": "bytes",
              "name": "from",
              "type": "bytes"
            },
            {
              "internalType": "string",
              "name": "to",
              "type": "string"
            },
            {
              "internalType": "bytes",
              "name": "data",
              "type": "bytes"
            },
            {
              "internalType": "bytes",
              "name": "signature",
              "type": "bytes"
            }
          ],
          "internalType": "struct OmniverseTokenProtocol",
          "name": "txData",
          "type": "tuple"
        },
        {
          "internalType": "uint256",
          "name": "timestamp",
          "type": "uint256"
        }
      ],
      "stateMutability": "view",
      "type": "function",
      "constant": true
    },
    {
      "inputs": [],
      "name": "getCoolingDownTime",
      "outputs": [
        {
          "internalType": "uint256",
          "name": "",
          "type": "uint256"
        }
      ],
      "stateMutability": "view",
      "type": "function",
      "constant": true
    },
    {
      "inputs": [
        {
          "internalType": "uint256",
          "name": "_time",
          "type": "uint256"
        }
      ],
      "name": "setCooingDownTime",
      "outputs": [],
      "stateMutability": "nonpayable",
      "type": "function"
    },
    {
      "inputs": [],
      "name": "getChainId",
      "outputs": [
        {
          "internalType": "string",
          "name": "",
          "type": "string"
        }
      ],
      "stateMutability": "view",
      "type": "function",
      "constant": true
    },
    {
      "inputs": [
        {
          "internalType": "bytes",
          "name": "_pk",
          "type": "bytes"
        }
      ],
      "name": "isMalicious",
      "outputs": [
        {
          "internalType": "bool",
          "name": "",
          "type": "bool"
        }
      ],
      "stateMutability": "view",
      "type": "function",
      "constant": true
    }
  ],
  "bytecode": "0x60806040523480156200001157600080fd5b5060405162002767380380620027678339818101604052810190620000379190620002a4565b80600090805190602001906200004f92919062000057565b50506200035a565b828054620000659062000324565b90600052602060002090601f016020900481019282620000895760008555620000d5565b82601f10620000a457805160ff1916838001178555620000d5565b82800160010185558215620000d5579182015b82811115620000d4578251825591602001919060010190620000b7565b5b509050620000e49190620000e8565b5090565b5b8082111562000103576000816000905550600101620000e9565b5090565b6000604051905090565b600080fd5b600080fd5b600080fd5b600080fd5b6000601f19601f8301169050919050565b7f4e487b7100000000000000000000000000000000000000000000000000000000600052604160045260246000fd5b620001708262000125565b810181811067ffffffffffffffff8211171562000192576200019162000136565b5b80604052505050565b6000620001a762000107565b9050620001b5828262000165565b919050565b600067ffffffffffffffff821115620001d857620001d762000136565b5b620001e38262000125565b9050602081019050919050565b60005b8381101562000210578082015181840152602081019050620001f3565b8381111562000220576000848401525b50505050565b60006200023d6200023784620001ba565b6200019b565b9050828152602081018484840111156200025c576200025b62000120565b5b62000269848285620001f0565b509392505050565b600082601f8301126200028957620002886200011b565b5b81516200029b84826020860162000226565b91505092915050565b600060208284031215620002bd57620002bc62000111565b5b600082015167ffffffffffffffff811115620002de57620002dd62000116565b5b620002ec8482850162000271565b91505092915050565b7f4e487b7100000000000000000000000000000000000000000000000000000000600052602260045260246000fd5b600060028204905060018216806200033d57607f821691505b60208210811415620003545762000353620002f5565b5b50919050565b6123fd806200036a6000396000f3fe608060405234801561001057600080fd5b50600436106100885760003560e01c806339aaa2811161005b57806339aaa281146101275780636f06f7b814610158578063b551169e14610176578063df097cac146101a657610088565b806319ea3bed1461008d5780632b506660146100a95780633408e470146100d95780633713bb53146100f7575b600080fd5b6100a760048036038101906100a29190610f5b565b6101c4565b005b6100c360048036038101906100be91906110ce565b6101ce565b6040516100d09190611126565b60405180910390f35b6100e16101fc565b6040516100ee91906111c9565b60405180910390f35b610111600480360381019061010c91906110ce565b61028e565b60405161011e9190611206565b60405180910390f35b610141600480360381019061013c9190611281565b6102c4565b60405161014f929190611434565b60405180910390f35b61016061061f565b60405161016d9190611126565b60405180910390f35b610190600480360381019061018b9190611488565b610629565b60405161019d9190611548565b60405180910390f35b6101ae610d11565b6040516101bb9190611126565b60405180910390f35b8060018190555050565b60006002826040516101e0919061159f565b9081526020016040518091039020600001805490509050919050565b60606000805461020b906115e5565b80601f0160208091040260200160405190810160405280929190818152602001828054610237906115e5565b80156102845780601f1061025957610100808354040283529160200191610284565b820191906000526020600020905b81548152906001019060200180831161026757829003601f168201915b5050505050905090565b6000806002836040516102a1919061159f565b908152602001604051809103902090506000816001018054905011915050919050565b6102cc610edb565b600080600286866040516102e192919061163c565b90815260200160405180910390209050600081600001858154811061030957610308611655565b5b90600052602060002090600702019050806000016040518060c001604052908160008201548152602001600182018054610342906115e5565b80601f016020809104026020016040519081016040528092919081815260200182805461036e906115e5565b80156103bb5780601f10610390576101008083540402835291602001916103bb565b820191906000526020600020905b81548152906001019060200180831161039e57829003601f168201915b505050505081526020016002820180546103d4906115e5565b80601f0160208091040260200160405190810160405280929190818152602001828054610400906115e5565b801561044d5780601f106104225761010080835404028352916020019161044d565b820191906000526020600020905b81548152906001019060200180831161043057829003601f168201915b50505050508152602001600382018054610466906115e5565b80601f0160208091040260200160405190810160405280929190818152602001828054610492906115e5565b80156104df5780601f106104b4576101008083540402835291602001916104df565b820191906000526020600020905b8154815290600101906020018083116104c257829003601f168201915b505050505081526020016004820180546104f8906115e5565b80601f0160208091040260200160405190810160405280929190818152602001828054610524906115e5565b80156105715780601f1061054657610100808354040283529160200191610571565b820191906000526020600020905b81548152906001019060200180831161055457829003601f168201915b5050505050815260200160058201805461058a906115e5565b80601f01602080910402602001604051908101604052809291908181526020018280546105b6906115e5565b80156106035780601f106105d857610100808354040283529160200191610603565b820191906000526020600020905b8154815290600101906020018083116105e657829003601f168201915b5050505050815250509350806006015492505050935093915050565b6000600154905090565b600080600283806040019061063e9190611693565b60405161064c92919061163c565b90815260200160405180910390209050600060028480604001906106709190611693565b60405161067e92919061163c565b908152602001604051809103902060000180549050905060006106a9856106a4906118cd565b610d17565b9050600061070982878060a001906106c19190611693565b8080601f016020809104026020016040519081016040528093929190818152602001838380828437600081840152601f19601f82011690508083019250505050505050610d68565b905061076786806040019061071e9190611693565b8080601f016020809104026020016040519081016040528093929190818152602001838380828437600081840152601f19601f8201169050808301925050505050505082610e53565b85600001358314156108ed57600080856000018054905011156107c257846000016001866000018054905061079c919061190f565b815481106107ad576107ac611655565b5b90600052602060002090600702016006015490505b600154816107d09190611943565b421015610812576040517f08c379a0000000000000000000000000000000000000000000000000000000008152600401610809906119e5565b60405180910390fd5b6000856000016001816001815401808255809150500390600052602060002090600702019050428160060181905550878160000181816108529190611f97565b90505060006040516108649190612039565b604051809103902088806020019061087c9190611ac3565b60405161088a92919061163c565b604051809103902014156108e6577f101abacb8de0d05456bbaf85756276fd0c5225e9ede84f539855df28aba51a7e8880604001906108c99190611693565b8a600001356040516108dd9392919061208e565b60405180910390a15b5050610d03565b8560000135831115610cc85760008460000187600001358154811061091557610914611655565b5b906000526020600020906007020190506000610c22826000016040518060c001604052908160008201548152602001600182018054610953906115e5565b80601f016020809104026020016040519081016040528092919081815260200182805461097f906115e5565b80156109cc5780601f106109a1576101008083540402835291602001916109cc565b820191906000526020600020905b8154815290600101906020018083116109af57829003601f168201915b505050505081526020016002820180546109e5906115e5565b80601f0160208091040260200160405190810160405280929190818152602001828054610a11906115e5565b8015610a5e5780601f10610a3357610100808354040283529160200191610a5e565b820191906000526020600020905b815481529060010190602001808311610a4157829003601f168201915b50505050508152602001600382018054610a77906115e5565b80601f0160208091040260200160405190810160405280929190818152602001828054610aa3906115e5565b8015610af05780601f10610ac557610100808354040283529160200191610af0565b820191906000526020600020905b815481529060010190602001808311610ad357829003601f168201915b50505050508152602001600482018054610b09906115e5565b80601f0160208091040260200160405190810160405280929190818152602001828054610b35906115e5565b8015610b825780601f10610b5757610100808354040283529160200191610b82565b820191906000526020600020905b815481529060010190602001808311610b6557829003601f168201915b50505050508152602001600582018054610b9b906115e5565b80601f0160208091040260200160405190810160405280929190818152602001828054610bc7906115e5565b8015610c145780601f10610be957610100808354040283529160200191610c14565b820191906000526020600020905b815481529060010190602001808311610bf757829003601f168201915b505050505081525050610d17565b9050838114610c8d57600086600101600181600181540180825580915050039060005260206000209060080201905085816007018190555088816000016000018181610c6e9190611f97565b9050504281600001600601819055506001975050505050505050610d0c565b6040517f08c379a0000000000000000000000000000000000000000000000000000000008152600401610cbf9061210c565b60405180910390fd5b6040517f08c379a0000000000000000000000000000000000000000000000000000000008152600401610cfa90612178565b60405180910390fd5b60009450505050505b919050565b60015481565b60008082600001518360200151846040015185606001518660800151604051602001610d47959493929190612226565b60405160208183030381529060405290508080519060200120915050919050565b600080600080602085015191506040850151905060418501519250600060018785858560405160008152602001604052604051610da894939291906122aa565b6020604051602081039080840390855afa158015610dca573d6000803e3d6000fd5b505050602060405103519050600073ffffffffffffffffffffffffffffffffffffffff168173ffffffffffffffffffffffffffffffffffffffff161415610e46576040517f08c379a0000000000000000000000000000000000000000000000000000000008152600401610e3d9061233b565b60405180910390fd5b8094505050505092915050565b60008280519060200120905060008160001c90508073ffffffffffffffffffffffffffffffffffffffff168373ffffffffffffffffffffffffffffffffffffffff1614610ed5576040517f08c379a0000000000000000000000000000000000000000000000000000000008152600401610ecc906123a7565b60405180910390fd5b50505050565b6040518060c001604052806000815260200160608152602001606081526020016060815260200160608152602001606081525090565b6000604051905090565b600080fd5b600080fd5b6000819050919050565b610f3881610f25565b8114610f4357600080fd5b50565b600081359050610f5581610f2f565b92915050565b600060208284031215610f7157610f70610f1b565b5b6000610f7f84828501610f46565b91505092915050565b600080fd5b600080fd5b6000601f19601f8301169050919050565b7f4e487b7100000000000000000000000000000000000000000000000000000000600052604160045260246000fd5b610fdb82610f92565b810181811067ffffffffffffffff82111715610ffa57610ff9610fa3565b5b80604052505050565b600061100d610f11565b90506110198282610fd2565b919050565b600067ffffffffffffffff82111561103957611038610fa3565b5b61104282610f92565b9050602081019050919050565b82818337600083830152505050565b600061107161106c8461101e565b611003565b90508281526020810184848401111561108d5761108c610f8d565b5b61109884828561104f565b509392505050565b600082601f8301126110b5576110b4610f88565b5b81356110c584826020860161105e565b91505092915050565b6000602082840312156110e4576110e3610f1b565b5b600082013567ffffffffffffffff81111561110257611101610f20565b5b61110e848285016110a0565b91505092915050565b61112081610f25565b82525050565b600060208201905061113b6000830184611117565b92915050565b600081519050919050565b600082825260208201905092915050565b60005b8381101561117b578082015181840152602081019050611160565b8381111561118a576000848401525b50505050565b600061119b82611141565b6111a5818561114c565b93506111b581856020860161115d565b6111be81610f92565b840191505092915050565b600060208201905081810360008301526111e38184611190565b905092915050565b60008115159050919050565b611200816111eb565b82525050565b600060208201905061121b60008301846111f7565b92915050565b600080fd5b600080fd5b60008083601f84011261124157611240610f88565b5b8235905067ffffffffffffffff81111561125e5761125d611221565b5b60208301915083600182028301111561127a57611279611226565b5b9250929050565b60008060006040848603121561129a57611299610f1b565b5b600084013567ffffffffffffffff8111156112b8576112b7610f20565b5b6112c48682870161122b565b935093505060206112d786828701610f46565b9150509250925092565b6112ea81610f25565b82525050565b600082825260208201905092915050565b600061130c82611141565b61131681856112f0565b935061132681856020860161115d565b61132f81610f92565b840191505092915050565b600081519050919050565b600082825260208201905092915050565b60006113618261133a565b61136b8185611345565b935061137b81856020860161115d565b61138481610f92565b840191505092915050565b600060c0830160008301516113a760008601826112e1565b50602083015184820360208601526113bf8282611301565b915050604083015184820360408601526113d98282611356565b915050606083015184820360608601526113f38282611301565b9150506080830151848203608086015261140d8282611356565b91505060a083015184820360a08601526114278282611356565b9150508091505092915050565b6000604082019050818103600083015261144e818561138f565b905061145d6020830184611117565b9392505050565b600080fd5b600060c0828403121561147f5761147e611464565b5b81905092915050565b60006020828403121561149e5761149d610f1b565b5b600082013567ffffffffffffffff8111156114bc576114bb610f20565b5b6114c884828501611469565b91505092915050565b7f4e487b7100000000000000000000000000000000000000000000000000000000600052602160045260246000fd5b60028110611511576115106114d1565b5b50565b600081905061152282611500565b919050565b600061153282611514565b9050919050565b61154281611527565b82525050565b600060208201905061155d6000830184611539565b92915050565b600081905092915050565b60006115798261133a565b6115838185611563565b935061159381856020860161115d565b80840191505092915050565b60006115ab828461156e565b915081905092915050565b7f4e487b7100000000000000000000000000000000000000000000000000000000600052602260045260246000fd5b600060028204905060018216806115fd57607f821691505b60208210811415611611576116106115b6565b5b50919050565b60006116238385611563565b935061163083858461104f565b82840190509392505050565b6000611649828486611617565b91508190509392505050565b7f4e487b7100000000000000000000000000000000000000000000000000000000600052603260045260246000fd5b600080fd5b600080fd5b600080fd5b600080833560016020038436030381126116b0576116af611684565b5b80840192508235915067ffffffffffffffff8211156116d2576116d1611689565b5b6020830192506001820236038313156116ee576116ed61168e565b5b509250929050565b600080fd5b600080fd5b600067ffffffffffffffff82111561171b5761171a610fa3565b5b61172482610f92565b9050602081019050919050565b600061174461173f84611700565b611003565b9050828152602081018484840111156117605761175f610f8d565b5b61176b84828561104f565b509392505050565b600082601f83011261178857611787610f88565b5b8135611798848260208601611731565b91505092915050565b600060c082840312156117b7576117b66116f6565b5b6117c160c0611003565b905060006117d184828501610f46565b600083015250602082013567ffffffffffffffff8111156117f5576117f46116fb565b5b61180184828501611773565b602083015250604082013567ffffffffffffffff811115611825576118246116fb565b5b611831848285016110a0565b604083015250606082013567ffffffffffffffff811115611855576118546116fb565b5b61186184828501611773565b606083015250608082013567ffffffffffffffff811115611885576118846116fb565b5b611891848285016110a0565b60808301525060a082013567ffffffffffffffff8111156118b5576118b46116fb565b5b6118c1848285016110a0565b60a08301525092915050565b60006118d936836117a1565b9050919050565b7f4e487b7100000000000000000000000000000000000000000000000000000000600052601160045260246000fd5b600061191a82610f25565b915061192583610f25565b925082821015611938576119376118e0565b5b828203905092915050565b600061194e82610f25565b915061195983610f25565b9250827fffffffffffffffffffffffffffffffffffffffffffffffffffffffffffffffff0382111561198e5761198d6118e0565b5b828201905092915050565b7f5472616e73616374696f6e20636f6f6c696e6720646f776e0000000000000000600082015250565b60006119cf60188361114c565b91506119da82611999565b602082019050919050565b600060208201905081810360008301526119fe816119c2565b9050919050565b60008135611a1281610f2f565b80915050919050565b60008160001b9050919050565b60007fffffffffffffffffffffffffffffffffffffffffffffffffffffffffffffffff611a5484611a1b565b9350801983169250808416831791505092915050565b6000819050919050565b6000611a8f611a8a611a8584610f25565b611a6a565b610f25565b9050919050565b6000819050919050565b611aa982611a74565b611abc611ab582611a96565b8354611a28565b8255505050565b60008083356001602003843603038112611ae057611adf611684565b5b80840192508235915067ffffffffffffffff821115611b0257611b01611689565b5b602083019250600182023603831315611b1e57611b1d61168e565b5b509250929050565b600082905092915050565b60008190508160005260206000209050919050565b60006020601f8301049050919050565b600082821b905092915050565b600060088302611b937fffffffffffffffffffffffffffffffffffffffffffffffffffffffffffffffff82611b56565b611b9d8683611b56565b95508019841693508086168417925050509392505050565b611bbe83611a74565b611bd2611bca82611a96565b848454611b63565b825550505050565b600090565b611be7611bda565b611bf2818484611bb5565b505050565b5b81811015611c1657611c0b600082611bdf565b600181019050611bf8565b5050565b601f821115611c5b57611c2c81611b31565b611c3584611b46565b81016020851015611c44578190505b611c58611c5085611b46565b830182611bf7565b50505b505050565b600082821c905092915050565b6000611c7e60001984600802611c60565b1980831691505092915050565b6000611c978383611c6d565b9150826002028217905092915050565b611cb18383611b26565b67ffffffffffffffff811115611cca57611cc9610fa3565b5b611cd482546115e5565b611cdf828285611c1a565b6000601f831160018114611d0e5760008415611cfc578287013590505b611d068582611c8b565b865550611d6e565b601f198416611d1c86611b31565b60005b82811015611d4457848901358255600182019150602085019450602081019050611d1f565b86831015611d615784890135611d5d601f891682611c6d565b8355505b6001600288020188555050505b50505050505050565b611d82838383611ca7565b505050565b600082905092915050565b60008190508160005260206000209050919050565b601f821115611de857611db981611d92565b611dc284611b46565b81016020851015611dd1578190505b611de5611ddd85611b46565b830182611bf7565b50505b505050565b611df78383611d87565b67ffffffffffffffff811115611e1057611e0f610fa3565b5b611e1a82546115e5565b611e25828285611da7565b6000601f831160018114611e545760008415611e42578287013590505b611e4c8582611c8b565b865550611eb4565b601f198416611e6286611d92565b60005b82811015611e8a57848901358255600182019150602085019450602081019050611e65565b86831015611ea75784890135611ea3601f891682611c6d565b8355505b6001600288020188555050505b50505050505050565b611ec8838383611ded565b505050565b600081016000830180611edf81611a05565b9050611eeb8184611aa0565b5050506001810160208301611f008185611ac3565b611f0b818386611d77565b505050506002810160408301611f218185611693565b611f2c818386611ebd565b505050506003810160608301611f428185611ac3565b611f4d818386611d77565b505050506004810160808301611f638185611693565b611f6e818386611ebd565b505050506005810160a08301611f848185611693565b611f8f818386611ebd565b505050505050565b611fa18282611ecd565b5050565b60008190508160005260206000209050919050565b60008154611fc7816115e5565b611fd18186611563565b94506001821660008114611fec5760018114611ffd57612030565b60ff19831686528186019350612030565b61200685611fa5565b60005b8381101561202857815481890152600182019150602081019050612009565b838801955050505b50505092915050565b60006120458284611fba565b915081905092915050565b600082825260208201905092915050565b600061206d8385612050565b935061207a83858461104f565b61208383610f92565b840190509392505050565b600060408201905081810360008301526120a9818587612061565b90506120b86020830184611117565b949350505050565b7f5472616e73616374696f6e206475706c69636174656400000000000000000000600082015250565b60006120f660168361114c565b9150612101826120c0565b602082019050919050565b60006020820190508181036000830152612125816120e9565b9050919050565b7f4e6f6e6365206572726f72000000000000000000000000000000000000000000600082015250565b6000612162600b8361114c565b915061216d8261212c565b602082019050919050565b6000602082019050818103600083015261219181612155565b9050919050565b60006fffffffffffffffffffffffffffffffff82169050919050565b60008160801b9050919050565b60006121cc826121b4565b9050919050565b6121e46121df82612198565b6121c1565b82525050565b600081905092915050565b600061220082611141565b61220a81856121ea565b935061221a81856020860161115d565b80840191505092915050565b600061223282886121d3565b60108201915061224282876121f5565b915061224e828661156e565b915061225a82856121f5565b9150612266828461156e565b91508190509695505050505050565b6000819050919050565b61228881612275565b82525050565b600060ff82169050919050565b6122a48161228e565b82525050565b60006080820190506122bf600083018761227f565b6122cc602083018661229b565b6122d9604083018561227f565b6122e6606083018461227f565b95945050505050565b7f5369676e617475726520766572696679696e67206661696c6564000000000000600082015250565b6000612325601a8361114c565b9150612330826122ef565b602082019050919050565b6000602082019050818103600083015261235481612318565b9050919050565b7f53656e646572206e6f74207369676e6572000000000000000000000000000000600082015250565b600061239160118361114c565b915061239c8261235b565b602082019050919050565b600060208201905081810360008301526123c081612384565b905091905056fea264697066735822122062ec9345c1cf96f01e68b6c194bc410fb169219f2ff3ab87789ffd4336591f7464736f6c634300080c0033",
  "immutableReferences": {},
  "source": "// SPDX-License-Identifier: MIT\npragma solidity >=0.8.0 <0.9.0;\n\nimport \"./interfaces/IOmniverseProtocol.sol\";\n\ncontract OmniverseProtocol is IOmniverseProtocol {\n    struct OmniverseTx {\n        OmniverseTokenProtocol txData;\n        uint256 timestamp;\n    }\n\n    struct EvilTxData {\n        OmniverseTx txData;\n        uint256 hisNonce;\n    }\n\n    struct RecordedCertificate {\n        // uint256 nonce;\n        // address evmAddress;\n        OmniverseTx[] txList;\n        EvilTxData[] evilTxList;\n    }\n\n    string private chainId;\n    uint256 public cdTime;\n    mapping(bytes => RecordedCertificate) transactionRecorder;\n\n    constructor(string memory _chainId) {\n        chainId = _chainId;\n    }\n\n    /**\n     * @dev See IOmniverseProtocl\n     */\n    function verifyTransaction(OmniverseTokenProtocol calldata _data) external override returns (VerifyResult) {\n        RecordedCertificate storage rc = transactionRecorder[_data.from];\n        uint256 nonce = transactionRecorder[_data.from].txList.length;\n        \n        bytes32 txHash = _getTransactionHash(_data);\n        address recoveredAddress = _recoverAddress(txHash, _data.signature);\n        // Signature verified failed\n        _checkPkMatched(_data.from, recoveredAddress);\n\n        // Check nonce\n        if (nonce == _data.nonce) {\n            uint256 lastestTxTime = 0;\n            if (rc.txList.length > 0) {\n                lastestTxTime = rc.txList[rc.txList.length - 1].timestamp;\n            }\n            require(block.timestamp >= lastestTxTime + cdTime, \"Transaction cooling down\");\n            // Add to transaction recorder\n            OmniverseTx storage omniTx = rc.txList.push();\n            omniTx.timestamp = block.timestamp;\n            omniTx.txData = _data;\n            if (keccak256(bytes(_data.chainId)) == keccak256(bytes(chainId))) {\n                emit TransactionSent(_data.from, _data.nonce);\n            }\n        }\n        else if (nonce > _data.nonce) {\n            // The message has been received, check conflicts\n            OmniverseTx storage hisTx = rc.txList[_data.nonce];\n            bytes32 hisTxHash = _getTransactionHash(hisTx.txData);\n            if (hisTxHash != txHash) {\n                // to be continued, add to evil list, but can not be duplicated\n                EvilTxData storage evilTx = rc.evilTxList.push();\n                evilTx.hisNonce = nonce;\n                evilTx.txData.txData = _data;\n                evilTx.txData.timestamp = block.timestamp;\n                return VerifyResult.Malicious;\n            }\n            else {\n                revert(\"Transaction duplicated\");\n            }\n        }\n        else {\n            revert(\"Nonce error\");\n        }\n        return VerifyResult.Success;\n    }\n\n    /**\n     * @dev See IOmniverseProtocl\n     */\n    function getTransactionCount(bytes memory _pk) external view returns (uint256) {\n        return transactionRecorder[_pk].txList.length;\n    }\n\n    /**\n     * @dev Returns the transaction data of the user with a specified nonce\n     */\n    function getTransactionData(bytes calldata _user, uint256 _nonce) external view override returns (OmniverseTokenProtocol memory txData, uint256 timestamp) {\n        RecordedCertificate storage rc = transactionRecorder[_user];\n        OmniverseTx storage omniTx = rc.txList[_nonce];\n        txData = omniTx.txData;\n        timestamp = omniTx.timestamp;\n    }\n\n    /**\n     *\n     */\n    function getCoolingDownTime() external view returns (uint256) {\n        return cdTime;\n    }\n\n    function setCooingDownTime(uint256 _time) external {\n        cdTime = _time;\n    }\n\n    /**\n     * @dev Returns the chain ID\n     */\n    function getChainId() external view override returns (string memory) {\n        return chainId;\n    }\n\n    /**\n     * @dev Get the hash of a tx\n     */\n    function _getTransactionHash(OmniverseTokenProtocol memory _data) internal pure returns (bytes32) {\n        bytes memory rawData = abi.encodePacked(uint128(_data.nonce), _data.chainId, _data.from, _data.to, _data.data);\n        return keccak256(rawData);\n    }\n\n    /**\n     * @dev Recover the address\n     */\n    function _recoverAddress(bytes32 _hash, bytes memory _signature) internal pure returns (address) {\n        uint8 v;\n        bytes32 r;\n        bytes32 s;\n        assembly {\n            r := mload(add(_signature, 32))\n            s := mload(add(_signature, 64))\n            v := mload(add(_signature, 65))\n        }\n        address recovered = ecrecover(_hash, v, r, s);\n        require(recovered != address(0), \"Signature verifying failed\");\n        return recovered;\n    }\n\n    /**\n     * @dev Check if the public key matches the recovered address\n     */\n    function _checkPkMatched(bytes memory _pk, address _address) internal pure {\n        bytes32 hash = keccak256(_pk);\n        address pkAddress = address(uint160(uint256(hash)));\n        require(_address == pkAddress, \"Sender not signer\");\n    }\n\n    /**\n     * @dev See IOmniverseProtocl\n     */\n    function isMalicious(bytes memory _pk) external view returns (bool) {\n        RecordedCertificate storage rc = transactionRecorder[_pk];\n        return (rc.evilTxList.length > 0);\n    }\n}",
  "sourcePath": "/home/george/program/dante/omniverse-evm/contracts/contracts/OmniverseProtocol.sol",
  "compiler": {
    "name": "solc",
    "version": "0.8.12+commit.f00d7308.Emscripten.clang"
  },
  "schemaVersion": "3.4.6",
  "updatedAt": "2022-10-25T05:40:24.204Z",
  "networkType": "ethereum",
  "devdoc": {
    "kind": "dev",
    "methods": {
      "getChainId()": {
        "details": "Returns the chain ID"
      },
      "getCoolingDownTime()": {
        "details": "Returns the cooling down time"
      },
      "getTransactionCount(bytes)": {
        "details": "See IOmniverseProtocl"
      },
      "getTransactionData(bytes,uint256)": {
        "details": "Returns the transaction data of the user with a specified nonce"
      },
      "isMalicious(bytes)": {
        "details": "See IOmniverseProtocl"
      },
      "verifyTransaction((uint256,string,bytes,string,bytes,bytes))": {
        "details": "See IOmniverseProtocl"
      }
    },
    "version": 1
  },
  "userdoc": {
    "kind": "user",
    "methods": {},
    "version": 1
  }
}