{
  "contractName": "SkywalkerFungible",
  "abi": [
    {
      "inputs": [
        {
          "internalType": "string",
          "name": "_tokenId",
          "type": "string"
        },
        {
          "internalType": "string",
          "name": "_name",
          "type": "string"
        },
        {
          "internalType": "string",
          "name": "_symbol",
          "type": "string"
        }
      ],
      "stateMutability": "nonpayable",
      "type": "constructor"
    },
    {
      "anonymous": false,
      "inputs": [
        {
          "indexed": true,
          "internalType": "address",
          "name": "owner",
          "type": "address"
        },
        {
          "indexed": true,
          "internalType": "address",
          "name": "spender",
          "type": "address"
        },
        {
          "indexed": false,
          "internalType": "uint256",
          "name": "value",
          "type": "uint256"
        }
      ],
      "name": "Approval",
      "type": "event"
    },
    {
      "anonymous": false,
      "inputs": [
        {
          "indexed": false,
          "internalType": "bytes",
          "name": "sender",
          "type": "bytes"
        },
        {
          "indexed": false,
          "internalType": "string",
          "name": "reason",
          "type": "string"
        }
      ],
      "name": "OmniverseError",
      "type": "event"
    },
    {
      "anonymous": false,
      "inputs": [
        {
          "indexed": false,
          "internalType": "bytes",
          "name": "sender",
          "type": "bytes"
        }
      ],
      "name": "OmniverseNotOwner",
      "type": "event"
    },
    {
      "anonymous": false,
      "inputs": [
        {
          "indexed": false,
          "internalType": "bytes",
          "name": "owner",
          "type": "bytes"
        },
        {
          "indexed": false,
          "internalType": "bytes",
          "name": "spender",
          "type": "bytes"
        },
        {
          "indexed": false,
          "internalType": "uint256",
          "name": "value",
          "type": "uint256"
        }
      ],
      "name": "OmniverseTokenApproval",
      "type": "event"
    },
    {
      "anonymous": false,
      "inputs": [
        {
          "indexed": false,
          "internalType": "bytes",
          "name": "owner",
          "type": "bytes"
        },
        {
          "indexed": false,
          "internalType": "uint256",
          "name": "balance",
          "type": "uint256"
        },
        {
          "indexed": false,
          "internalType": "uint256",
          "name": "value",
          "type": "uint256"
        }
      ],
      "name": "OmniverseTokenExceedBalance",
      "type": "event"
    },
    {
      "anonymous": false,
      "inputs": [
        {
          "indexed": false,
          "internalType": "bytes",
          "name": "from",
          "type": "bytes"
        },
        {
          "indexed": false,
          "internalType": "bytes",
          "name": "to",
          "type": "bytes"
        },
        {
          "indexed": false,
          "internalType": "uint256",
          "name": "value",
          "type": "uint256"
        }
      ],
      "name": "OmniverseTokenTransfer",
      "type": "event"
    },
    {
      "anonymous": false,
      "inputs": [
        {
          "indexed": false,
          "internalType": "bytes",
          "name": "from",
          "type": "bytes"
        },
        {
          "indexed": false,
          "internalType": "bytes",
          "name": "to",
          "type": "bytes"
        },
        {
          "indexed": false,
          "internalType": "uint256",
          "name": "value",
          "type": "uint256"
        }
      ],
      "name": "OmniverseTokenTransferFrom",
      "type": "event"
    },
    {
      "anonymous": false,
      "inputs": [
        {
          "indexed": false,
          "internalType": "bytes",
          "name": "sender",
          "type": "bytes"
        },
        {
          "indexed": false,
          "internalType": "uint8",
          "name": "op",
          "type": "uint8"
        }
      ],
      "name": "OmniverseTokenWrongOp",
      "type": "event"
    },
    {
      "anonymous": false,
      "inputs": [
        {
          "indexed": true,
          "internalType": "address",
          "name": "previousOwner",
          "type": "address"
        },
        {
          "indexed": true,
          "internalType": "address",
          "name": "newOwner",
          "type": "address"
        }
      ],
      "name": "OwnershipTransferred",
      "type": "event"
    },
    {
      "anonymous": false,
      "inputs": [
        {
          "indexed": true,
          "internalType": "address",
          "name": "from",
          "type": "address"
        },
        {
          "indexed": true,
          "internalType": "address",
          "name": "to",
          "type": "address"
        },
        {
          "indexed": false,
          "internalType": "uint256",
          "name": "value",
          "type": "uint256"
        }
      ],
      "name": "Transfer",
      "type": "event"
    },
    {
      "inputs": [
        {
          "internalType": "address",
          "name": "owner",
          "type": "address"
        },
        {
          "internalType": "address",
          "name": "spender",
          "type": "address"
        }
      ],
      "name": "allowance",
      "outputs": [
        {
          "internalType": "uint256",
          "name": "",
          "type": "uint256"
        }
      ],
      "stateMutability": "view",
      "type": "function",
      "constant": true
    },
    {
      "inputs": [
        {
          "internalType": "address",
          "name": "spender",
          "type": "address"
        },
        {
          "internalType": "uint256",
          "name": "amount",
          "type": "uint256"
        }
      ],
      "name": "approve",
      "outputs": [
        {
          "internalType": "bool",
          "name": "",
          "type": "bool"
        }
      ],
      "stateMutability": "nonpayable",
      "type": "function"
    },
    {
      "inputs": [
        {
          "internalType": "address",
          "name": "account",
          "type": "address"
        }
      ],
      "name": "balanceOf",
      "outputs": [
        {
          "internalType": "uint256",
          "name": "",
          "type": "uint256"
        }
      ],
      "stateMutability": "view",
      "type": "function",
      "constant": true
    },
    {
      "inputs": [],
      "name": "decimals",
      "outputs": [
        {
          "internalType": "uint8",
          "name": "",
          "type": "uint8"
        }
      ],
      "stateMutability": "view",
      "type": "function",
      "constant": true
    },
    {
      "inputs": [
        {
          "internalType": "address",
          "name": "spender",
          "type": "address"
        },
        {
          "internalType": "uint256",
          "name": "subtractedValue",
          "type": "uint256"
        }
      ],
      "name": "decreaseAllowance",
      "outputs": [
        {
          "internalType": "bool",
          "name": "",
          "type": "bool"
        }
      ],
      "stateMutability": "nonpayable",
      "type": "function"
    },
    {
      "inputs": [
        {
          "internalType": "address",
          "name": "spender",
          "type": "address"
        },
        {
          "internalType": "uint256",
          "name": "addedValue",
          "type": "uint256"
        }
      ],
      "name": "increaseAllowance",
      "outputs": [
        {
          "internalType": "bool",
          "name": "",
          "type": "bool"
        }
      ],
      "stateMutability": "nonpayable",
      "type": "function"
    },
    {
      "inputs": [],
      "name": "name",
      "outputs": [
        {
          "internalType": "string",
          "name": "",
          "type": "string"
        }
      ],
      "stateMutability": "view",
      "type": "function",
      "constant": true
    },
    {
      "inputs": [],
      "name": "omniverseProtocol",
      "outputs": [
        {
          "internalType": "contract IOmniverseProtocol",
          "name": "",
          "type": "address"
        }
      ],
      "stateMutability": "view",
      "type": "function",
      "constant": true
    },
    {
      "inputs": [],
      "name": "owner",
      "outputs": [
        {
          "internalType": "address",
          "name": "",
          "type": "address"
        }
      ],
      "stateMutability": "view",
      "type": "function",
      "constant": true
    },
    {
      "inputs": [],
      "name": "renounceOwnership",
      "outputs": [],
      "stateMutability": "nonpayable",
      "type": "function"
    },
    {
      "inputs": [],
      "name": "symbol",
      "outputs": [
        {
          "internalType": "string",
          "name": "",
          "type": "string"
        }
      ],
      "stateMutability": "view",
      "type": "function",
      "constant": true
    },
    {
      "inputs": [],
      "name": "tokenIdentity",
      "outputs": [
        {
          "internalType": "string",
          "name": "",
          "type": "string"
        }
      ],
      "stateMutability": "view",
      "type": "function",
      "constant": true
    },
    {
      "inputs": [],
      "name": "totalSupply",
      "outputs": [
        {
          "internalType": "uint256",
          "name": "",
          "type": "uint256"
        }
      ],
      "stateMutability": "view",
      "type": "function",
      "constant": true
    },
    {
      "inputs": [
        {
          "internalType": "address",
          "name": "to",
          "type": "address"
        },
        {
          "internalType": "uint256",
          "name": "amount",
          "type": "uint256"
        }
      ],
      "name": "transfer",
      "outputs": [
        {
          "internalType": "bool",
          "name": "",
          "type": "bool"
        }
      ],
      "stateMutability": "nonpayable",
      "type": "function"
    },
    {
      "inputs": [
        {
          "internalType": "address",
          "name": "from",
          "type": "address"
        },
        {
          "internalType": "address",
          "name": "to",
          "type": "address"
        },
        {
          "internalType": "uint256",
          "name": "amount",
          "type": "uint256"
        }
      ],
      "name": "transferFrom",
      "outputs": [
        {
          "internalType": "bool",
          "name": "",
          "type": "bool"
        }
      ],
      "stateMutability": "nonpayable",
      "type": "function"
    },
    {
      "inputs": [
        {
          "internalType": "address",
          "name": "newOwner",
          "type": "address"
        }
      ],
      "name": "transferOwnership",
      "outputs": [],
      "stateMutability": "nonpayable",
      "type": "function"
    },
    {
      "inputs": [
        {
          "internalType": "address",
          "name": "_address",
          "type": "address"
        }
      ],
      "name": "setOmniverseProtocolAddress",
      "outputs": [],
      "stateMutability": "nonpayable",
      "type": "function"
    },
    {
      "inputs": [
        {
          "components": [
            {
              "internalType": "uint256",
              "name": "nonce",
              "type": "uint256"
            },
            {
              "internalType": "string",
              "name": "chainId",
              "type": "string"
            },
            {
              "internalType": "bytes",
              "name": "from",
              "type": "bytes"
            },
            {
              "internalType": "string",
              "name": "to",
              "type": "string"
            },
            {
              "internalType": "bytes",
              "name": "data",
              "type": "bytes"
            },
            {
              "internalType": "bytes",
              "name": "signature",
              "type": "bytes"
            }
          ],
          "internalType": "struct OmniverseTokenProtocol",
          "name": "_data",
          "type": "tuple"
        }
      ],
      "name": "omniverseTransfer",
      "outputs": [],
      "stateMutability": "nonpayable",
      "type": "function"
    },
    {
      "inputs": [
        {
          "components": [
            {
              "internalType": "uint256",
              "name": "nonce",
              "type": "uint256"
            },
            {
              "internalType": "string",
              "name": "chainId",
              "type": "string"
            },
            {
              "internalType": "bytes",
              "name": "from",
              "type": "bytes"
            },
            {
              "internalType": "string",
              "name": "to",
              "type": "string"
            },
            {
              "internalType": "bytes",
              "name": "data",
              "type": "bytes"
            },
            {
              "internalType": "bytes",
              "name": "signature",
              "type": "bytes"
            }
          ],
          "internalType": "struct OmniverseTokenProtocol",
          "name": "_data",
          "type": "tuple"
        }
      ],
      "name": "omniverseApprove",
      "outputs": [],
      "stateMutability": "nonpayable",
      "type": "function"
    },
    {
      "inputs": [
        {
          "components": [
            {
              "internalType": "uint256",
              "name": "nonce",
              "type": "uint256"
            },
            {
              "internalType": "string",
              "name": "chainId",
              "type": "string"
            },
            {
              "internalType": "bytes",
              "name": "from",
              "type": "bytes"
            },
            {
              "internalType": "string",
              "name": "to",
              "type": "string"
            },
            {
              "internalType": "bytes",
              "name": "data",
              "type": "bytes"
            },
            {
              "internalType": "bytes",
              "name": "signature",
              "type": "bytes"
            }
          ],
          "internalType": "struct OmniverseTokenProtocol",
          "name": "_data",
          "type": "tuple"
        }
      ],
      "name": "omniverseTransferFrom",
      "outputs": [],
      "stateMutability": "nonpayable",
      "type": "function"
    },
    {
      "inputs": [
        {
          "components": [
            {
              "internalType": "uint256",
              "name": "nonce",
              "type": "uint256"
            },
            {
              "internalType": "string",
              "name": "chainId",
              "type": "string"
            },
            {
              "internalType": "bytes",
              "name": "from",
              "type": "bytes"
            },
            {
              "internalType": "string",
              "name": "to",
              "type": "string"
            },
            {
              "internalType": "bytes",
              "name": "data",
              "type": "bytes"
            },
            {
              "internalType": "bytes",
              "name": "signature",
              "type": "bytes"
            }
          ],
          "internalType": "struct OmniverseTokenProtocol",
          "name": "_data",
          "type": "tuple"
        }
      ],
      "name": "omniverseMint",
      "outputs": [],
      "stateMutability": "nonpayable",
      "type": "function"
    },
    {
      "inputs": [],
      "name": "triggerExecution",
      "outputs": [],
      "stateMutability": "nonpayable",
      "type": "function"
    },
    {
      "inputs": [],
      "name": "getExecutableDelayedTx",
      "outputs": [
        {
          "components": [
            {
              "internalType": "bytes",
              "name": "sender",
              "type": "bytes"
            },
            {
              "internalType": "uint256",
              "name": "nonce",
              "type": "uint256"
            }
          ],
          "internalType": "struct SkywalkerFungible.DelayedTx",
          "name": "ret",
          "type": "tuple"
        }
      ],
      "stateMutability": "view",
      "type": "function",
      "constant": true
    },
    {
      "inputs": [],
      "name": "getDelayedTxCount",
      "outputs": [
        {
          "internalType": "uint256",
          "name": "",
          "type": "uint256"
        }
      ],
      "stateMutability": "view",
      "type": "function",
      "constant": true
    },
    {
      "inputs": [
        {
          "internalType": "bytes",
          "name": "_pk",
          "type": "bytes"
        }
      ],
      "name": "omniverseBalanceOf",
      "outputs": [
        {
          "internalType": "uint256",
          "name": "",
          "type": "uint256"
        }
      ],
      "stateMutability": "view",
      "type": "function",
      "constant": true
    },
    {
      "inputs": [],
      "name": "getTime",
      "outputs": [
        {
          "internalType": "uint256",
          "name": "",
          "type": "uint256"
        }
      ],
      "stateMutability": "view",
      "type": "function",
      "constant": true
    },
    {
      "inputs": [
        {
          "internalType": "string[]",
          "name": "_members",
          "type": "string[]"
        }
      ],
      "name": "addMembers",
      "outputs": [],
      "stateMutability": "nonpayable",
      "type": "function"
    },
    {
      "inputs": [],
      "name": "getMembers",
      "outputs": [
        {
          "internalType": "string[]",
          "name": "",
          "type": "string[]"
        }
      ],
      "stateMutability": "view",
      "type": "function",
      "constant": true
    }
  ],
  "bytecode": "0x60806040523480156200001157600080fd5b5060405162004a9338038062004a938339818101604052810190620000379190620003ca565b81818160039080519060200190620000519291906200017d565b5080600490805190602001906200006a9291906200017d565b5050506200008d62000081620000af60201b60201c565b620000b760201b60201c565b8260079080519060200190620000a59291906200017d565b50505050620004e8565b600033905090565b6000600560009054906101000a900473ffffffffffffffffffffffffffffffffffffffff16905081600560006101000a81548173ffffffffffffffffffffffffffffffffffffffff021916908373ffffffffffffffffffffffffffffffffffffffff1602179055508173ffffffffffffffffffffffffffffffffffffffff168173ffffffffffffffffffffffffffffffffffffffff167f8be0079c531659141344cd1fd0a4f28419497f9722a3daafe3b4186f6b6457e060405160405180910390a35050565b8280546200018b90620004b2565b90600052602060002090601f016020900481019282620001af5760008555620001fb565b82601f10620001ca57805160ff1916838001178555620001fb565b82800160010185558215620001fb579182015b82811115620001fa578251825591602001919060010190620001dd565b5b5090506200020a91906200020e565b5090565b5b80821115620002295760008160009055506001016200020f565b5090565b6000604051905090565b600080fd5b600080fd5b600080fd5b600080fd5b6000601f19601f8301169050919050565b7f4e487b7100000000000000000000000000000000000000000000000000000000600052604160045260246000fd5b62000296826200024b565b810181811067ffffffffffffffff82111715620002b857620002b76200025c565b5b80604052505050565b6000620002cd6200022d565b9050620002db82826200028b565b919050565b600067ffffffffffffffff821115620002fe57620002fd6200025c565b5b62000309826200024b565b9050602081019050919050565b60005b838110156200033657808201518184015260208101905062000319565b8381111562000346576000848401525b50505050565b6000620003636200035d84620002e0565b620002c1565b90508281526020810184848401111562000382576200038162000246565b5b6200038f84828562000316565b509392505050565b600082601f830112620003af57620003ae62000241565b5b8151620003c18482602086016200034c565b91505092915050565b600080600060608486031215620003e657620003e562000237565b5b600084015167ffffffffffffffff8111156200040757620004066200023c565b5b620004158682870162000397565b935050602084015167ffffffffffffffff8111156200043957620004386200023c565b5b620004478682870162000397565b925050604084015167ffffffffffffffff8111156200046b576200046a6200023c565b5b620004798682870162000397565b9150509250925092565b7f4e487b7100000000000000000000000000000000000000000000000000000000600052602260045260246000fd5b60006002820490506001821680620004cb57607f821691505b60208210811415620004e257620004e162000483565b5b50919050565b61459b80620004f86000396000f3fe608060405234801561001057600080fd5b50600436106101c45760003560e01c80636c194a92116100f95780639eab525311610097578063b3d46f7a11610071578063b3d46f7a146104e5578063cb96355314610501578063dd62ed3e1461051f578063f2fde38b1461054f576101c4565b80639eab525314610467578063a457c2d714610485578063a9059cbb146104b5576101c4565b8063804d7470116100d3578063804d7470146103f357806388655de71461040f5780638da5cb5b1461042b57806395d89b4114610449576101c4565b80636c194a921461039d57806370a08231146103b9578063715018a6146103e9576101c4565b806323b872dd11610166578063395093511161014057806339509351146103035780634d9ec5f61461033357806352ce58311461034f578063557ed1ba1461037f576101c4565b806323b872dd146102ab5780632ac1c568146102db578063313ce567146102e5576101c4565b80630d94bb52116101a25780630d94bb521461023557806318160ddd146102535780631ba24cfd146102715780631cafc4011461028d576101c4565b806306fdde03146101c9578063095ea7b3146101e75780630d5f6f9314610217575b600080fd5b6101d161056b565b6040516101de9190612795565b60405180910390f35b61020160048036038101906101fc919061285f565b6105fd565b60405161020e91906128ba565b60405180910390f35b61021f610620565b60405161022c9190612976565b60405180910390f35b61023d61089d565b60405161024a91906129a7565b60405180910390f35b61025b6108aa565b60405161026891906129a7565b60405180910390f35b61028b600480360381019061028691906129e6565b6108b4565b005b6102956108c9565b6040516102a29190612a8e565b60405180910390f35b6102c560048036038101906102c09190612aa9565b6108ef565b6040516102d291906128ba565b60405180910390f35b6102e361091e565b005b6102ed610f4c565b6040516102fa9190612b18565b60405180910390f35b61031d6004803603810190610318919061285f565b610f55565b60405161032a91906128ba565b60405180910390f35b61034d60048036038101906103489190612b33565b610f8c565b005b61036960048036038101906103649190612bc5565b610fd8565b60405161037691906129a7565b60405180910390f35b610387611003565b60405161039491906129a7565b60405180910390f35b6103b760048036038101906103b291906129e6565b61100b565b005b6103d360048036038101906103ce9190612b33565b611020565b6040516103e091906129a7565b60405180910390f35b6103f1611068565b005b61040d60048036038101906104089190612c68565b61107c565b005b610429600480360381019061042491906129e6565b6111a8565b005b6104336111bd565b6040516104409190612cc4565b60405180910390f35b6104516111e7565b60405161045e9190612795565b60405180910390f35b61046f611279565b60405161047c9190612deb565b60405180910390f35b61049f600480360381019061049a919061285f565b611352565b6040516104ac91906128ba565b60405180910390f35b6104cf60048036038101906104ca919061285f565b6113c9565b6040516104dc91906128ba565b60405180910390f35b6104ff60048036038101906104fa91906129e6565b6113ec565b005b610509611401565b6040516105169190612795565b60405180910390f35b61053960048036038101906105349190612e0d565b61148f565b60405161054691906129a7565b60405180910390f35b61056960048036038101906105649190612b33565b611516565b005b60606003805461057a90612e7c565b80601f01602080910402602001604051908101604052809291908181526020018280546105a690612e7c565b80156105f35780601f106105c8576101008083540402835291602001916105f3565b820191906000526020600020905b8154815290600101906020018083116105d657829003601f168201915b5050505050905090565b60008061060861159a565b90506106158185856115a2565b600191505092915050565b6106286124ec565b6000600b80549050111561089a576000600660009054906101000a900473ffffffffffffffffffffffffffffffffffffffff1673ffffffffffffffffffffffffffffffffffffffff166339aaa281600b60008154811061068b5761068a612eae565b5b9060005260206000209060020201600001600b6000815481106106b1576106b0612eae565b5b9060005260206000209060020201600101546040518363ffffffff1660e01b81526004016106e0929190612f83565b600060405180830381865afa1580156106fd573d6000803e3d6000fd5b505050506040513d6000823e3d601f19601f8201168201806040525081019061072691906132c0565b915050600660009054906101000a900473ffffffffffffffffffffffffffffffffffffffff1673ffffffffffffffffffffffffffffffffffffffff16636f06f7b86040518163ffffffff1660e01b8152600401602060405180830381865afa158015610796573d6000803e3d6000fd5b505050506040513d601f19601f820116820180604052508101906107ba919061331c565b816107c59190613378565b421061089857600b6000815481106107e0576107df612eae565b5b906000526020600020906002020160405180604001604052908160008201805461080990612e7c565b80601f016020809104026020016040519081016040528092919081815260200182805461083590612e7c565b80156108825780601f1061085757610100808354040283529160200191610882565b820191906000526020600020905b81548152906001019060200180831161086557829003601f168201915b5050505050815260200160018201548152505091505b505b90565b6000600b80549050905090565b6000600254905090565b6108c6816108c1906135e9565b61176d565b50565b600660009054906101000a900473ffffffffffffffffffffffffffffffffffffffff1681565b6000806108fa61159a565b9050610907858285611a52565b610912858585611ade565b60019150509392505050565b6000600b8054905011610966576040517f08c379a000000000000000000000000000000000000000000000000000000000815260040161095d90613648565b60405180910390fd5b600080600660009054906101000a900473ffffffffffffffffffffffffffffffffffffffff1673ffffffffffffffffffffffffffffffffffffffff166339aaa281600b6000815481106109bc576109bb612eae565b5b9060005260206000209060020201600001600b6000815481106109e2576109e1612eae565b5b9060005260206000209060020201600101546040518363ffffffff1660e01b8152600401610a11929190612f83565b600060405180830381865afa158015610a2e573d6000803e3d6000fd5b505050506040513d6000823e3d601f19601f82011682018060405250810190610a5791906132c0565b91509150600660009054906101000a900473ffffffffffffffffffffffffffffffffffffffff1673ffffffffffffffffffffffffffffffffffffffff16636f06f7b86040518163ffffffff1660e01b8152600401602060405180830381865afa158015610ac8573d6000803e3d6000fd5b505050506040513d601f19601f82011682018060405250810190610aec919061331c565b81610af79190613378565b421015610b39576040517f08c379a0000000000000000000000000000000000000000000000000000000008152600401610b30906136b4565b60405180910390fd5b600b6001600b80549050610b4d91906136d4565b81548110610b5e57610b5d612eae565b5b9060005260206000209060020201600b600081548110610b8157610b80612eae565b5b90600052602060002090600202016000820181600001908054610ba390612e7c565b610bae929190612506565b5060018201548160010155905050600b805480610bce57610bcd613708565b5b600190038181906000526020600020906002020160008082016000610bf39190612593565b6001820160009055505090556000808360800151806020019051810190610c1a9190613763565b91509150600260ff168260ff161415610d085760008082806020019051810190610c4491906137bf565b91509150610d0186604001518383600660009054906101000a900473ffffffffffffffffffffffffffffffffffffffff1673ffffffffffffffffffffffffffffffffffffffff16633408e4706040518163ffffffff1660e01b8152600401600060405180830381865afa158015610cbf573d6000803e3d6000fd5b505050506040513d6000823e3d601f19601f82011682018060405250810190610ce8919061381b565b805190602001208a602001518051906020012014611d5f565b5050610f45565b600160ff168260ff161415610d485760008082806020019051810190610d2e91906137bf565b91509150610d4186604001518383611f44565b5050610f44565b600060ff168260ff161415610e3857600080600083806020019051810190610d709190613864565b925092509250610e308760400151848484600660009054906101000a900473ffffffffffffffffffffffffffffffffffffffff1673ffffffffffffffffffffffffffffffffffffffff16633408e4706040518163ffffffff1660e01b8152600401600060405180830381865afa158015610dee573d6000803e3d6000fd5b505050506040513d6000823e3d601f19601f82011682018060405250810190610e17919061381b565b805190602001208c60200151805190602001201461204b565b505050610f43565b600360ff168260ff161415610f04576000610e568560400151612313565b9050610e606111bd565b73ffffffffffffffffffffffffffffffffffffffff168173ffffffffffffffffffffffffffffffffffffffff1614610ed7577fbd8697cc45013432c9b28106cbef86826e50ba0069e4f7c82a44c5f9a2e835798560400151604051610ec59190613928565b60405180910390a15050505050610f4a565b60008083806020019051810190610eee91906137bf565b91509150610efc828261232c565b505050610f42565b7fb037c465dfd2ba266747dc7bf6ef2589cf239e0c7d2b3f66f666adddf07d4f54846040015183604051610f3992919061394a565b60405180910390a15b5b5b5b505050505b565b60006012905090565b600080610f6061159a565b9050610f81818585610f72858961148f565b610f7c9190613378565b6115a2565b600191505092915050565b610f9461239e565b80600660006101000a81548173ffffffffffffffffffffffffffffffffffffffff021916908373ffffffffffffffffffffffffffffffffffffffff16021790555050565b600060098383604051610fec9291906139aa565b908152602001604051809103902054905092915050565b600042905090565b61101d81611018906135e9565b61176d565b50565b60008060008373ffffffffffffffffffffffffffffffffffffffff1673ffffffffffffffffffffffffffffffffffffffff168152602001908152602001600020549050919050565b61107061239e565b61107a600061241c565b565b61108461239e565b60005b828290508110156111a35760005b60088054905081101561112e578383838181106110b5576110b4612eae565b5b90506020028101906110c791906139d2565b6040516110d59291906139aa565b6040518091039020600882815481106110f1576110f0612eae565b5b906000526020600020016040516111089190613ac9565b6040518091039020141561111b5761112e565b808061112690613ae0565b915050611095565b50600883838381811061114457611143612eae565b5b905060200281019061115691906139d2565b9091806001815401808255809150506001900390600052602060002001600090919290919290919290919250919061118f9291906125d3565b50808061119b90613ae0565b915050611087565b505050565b6111ba816111b5906135e9565b61176d565b50565b6000600560009054906101000a900473ffffffffffffffffffffffffffffffffffffffff16905090565b6060600480546111f690612e7c565b80601f016020809104026020016040519081016040528092919081815260200182805461122290612e7c565b801561126f5780601f106112445761010080835404028352916020019161126f565b820191906000526020600020905b81548152906001019060200180831161125257829003601f168201915b5050505050905090565b60606008805480602002602001604051908101604052809291908181526020016000905b828210156113495783829060005260206000200180546112bc90612e7c565b80601f01602080910402602001604051908101604052809291908181526020018280546112e890612e7c565b80156113355780601f1061130a57610100808354040283529160200191611335565b820191906000526020600020905b81548152906001019060200180831161131857829003601f168201915b50505050508152602001906001019061129d565b50505050905090565b60008061135d61159a565b9050600061136b828661148f565b9050838110156113b0576040517f08c379a00000000000000000000000000000000000000000000000000000000081526004016113a790613b9b565b60405180910390fd5b6113bd82868684036115a2565b60019250505092915050565b6000806113d461159a565b90506113e1818585611ade565b600191505092915050565b6113fe816113f9906135e9565b61176d565b50565b6007805461140e90612e7c565b80601f016020809104026020016040519081016040528092919081815260200182805461143a90612e7c565b80156114875780601f1061145c57610100808354040283529160200191611487565b820191906000526020600020905b81548152906001019060200180831161146a57829003601f168201915b505050505081565b6000600160008473ffffffffffffffffffffffffffffffffffffffff1673ffffffffffffffffffffffffffffffffffffffff16815260200190815260200160002060008373ffffffffffffffffffffffffffffffffffffffff1673ffffffffffffffffffffffffffffffffffffffff16815260200190815260200160002054905092915050565b61151e61239e565b600073ffffffffffffffffffffffffffffffffffffffff168173ffffffffffffffffffffffffffffffffffffffff16141561158e576040517f08c379a000000000000000000000000000000000000000000000000000000000815260040161158590613c2d565b60405180910390fd5b6115978161241c565b50565b600033905090565b600073ffffffffffffffffffffffffffffffffffffffff168373ffffffffffffffffffffffffffffffffffffffff161415611612576040517f08c379a000000000000000000000000000000000000000000000000000000000815260040161160990613cbf565b60405180910390fd5b600073ffffffffffffffffffffffffffffffffffffffff168273ffffffffffffffffffffffffffffffffffffffff161415611682576040517f08c379a000000000000000000000000000000000000000000000000000000000815260040161167990613d51565b60405180910390fd5b80600160008573ffffffffffffffffffffffffffffffffffffffff1673ffffffffffffffffffffffffffffffffffffffff16815260200190815260200160002060008473ffffffffffffffffffffffffffffffffffffffff1673ffffffffffffffffffffffffffffffffffffffff168152602001908152602001600020819055508173ffffffffffffffffffffffffffffffffffffffff168373ffffffffffffffffffffffffffffffffffffffff167f8c5be1e5ebec7d5bd14f71427d1e84f3dd0314c0f7b2291e5b200ac8c7c3b9258360405161176091906129a7565b60405180910390a3505050565b600760405160200161177f9190613e06565b6040516020818303038152906040528051906020012081606001516040516020016117aa9190612795565b6040516020818303038152906040528051906020012014611800576040517f08c379a00000000000000000000000000000000000000000000000000000000081526004016117f790613e74565b60405180910390fd5b600660009054906101000a900473ffffffffffffffffffffffffffffffffffffffff1673ffffffffffffffffffffffffffffffffffffffff16633713bb5382604001516040518263ffffffff1660e01b815260040161185f9190613928565b602060405180830381865afa15801561187c573d6000803e3d6000fd5b505050506040513d601f19601f820116820180604052508101906118a09190613ec0565b156118e0576040517f08c379a00000000000000000000000000000000000000000000000000000000081526004016118d790613f39565b60405180910390fd5b6000600660009054906101000a900473ffffffffffffffffffffffffffffffffffffffff1673ffffffffffffffffffffffffffffffffffffffff1663b551169e836040518263ffffffff1660e01b815260040161193d9190613ffe565b6020604051808303816000875af115801561195c573d6000803e3d6000fd5b505050506040513d601f19601f820116820180604052508101906119809190614045565b90506000600181111561199657611995614072565b5b8160018111156119a9576119a8614072565b5b1415611a2557600b604051806040016040528084604001518152602001846000015181525090806001815401808255809150506001900390600052602060002090600202016000909190919091506000820151816000019080519060200190611a13929190612659565b50602082015181600101555050611a4e565b600180811115611a3857611a37614072565b5b816001811115611a4b57611a4a614072565b5b50505b5050565b6000611a5e848461148f565b90507fffffffffffffffffffffffffffffffffffffffffffffffffffffffffffffffff8114611ad85781811015611aca576040517f08c379a0000000000000000000000000000000000000000000000000000000008152600401611ac1906140ed565b60405180910390fd5b611ad784848484036115a2565b5b50505050565b600073ffffffffffffffffffffffffffffffffffffffff168373ffffffffffffffffffffffffffffffffffffffff161415611b4e576040517f08c379a0000000000000000000000000000000000000000000000000000000008152600401611b459061417f565b60405180910390fd5b600073ffffffffffffffffffffffffffffffffffffffff168273ffffffffffffffffffffffffffffffffffffffff161415611bbe576040517f08c379a0000000000000000000000000000000000000000000000000000000008152600401611bb590614211565b60405180910390fd5b611bc98383836124e2565b60008060008573ffffffffffffffffffffffffffffffffffffffff1673ffffffffffffffffffffffffffffffffffffffff16815260200190815260200160002054905081811015611c4f576040517f08c379a0000000000000000000000000000000000000000000000000000000008152600401611c46906142a3565b60405180910390fd5b8181036000808673ffffffffffffffffffffffffffffffffffffffff1673ffffffffffffffffffffffffffffffffffffffff16815260200190815260200160002081905550816000808573ffffffffffffffffffffffffffffffffffffffff1673ffffffffffffffffffffffffffffffffffffffff1681526020019081526020016000206000828254611ce29190613378565b925050819055508273ffffffffffffffffffffffffffffffffffffffff168473ffffffffffffffffffffffffffffffffffffffff167fddf252ad1be2c89b69c2b068fc378daa952ba7f163c4a11628f55a4df523b3ef84604051611d4691906129a7565b60405180910390a3611d598484846124e7565b50505050565b6000600985604051611d7191906142f4565b908152602001604051809103902054905082811015611dca577faa7f93bbb0659f61a11b680e0590ab23205967a5bdaa928dae6372df0bb93267858285604051611dbd9392919061430b565b60405180910390a1611f3d565b828103600986604051611ddd91906142f4565b9081526020016040518091039020819055508115611f01576000611e0086612313565b90506000611e0d86612313565b90508460026000828254611e219190613378565b92505081905550846000808473ffffffffffffffffffffffffffffffffffffffff1673ffffffffffffffffffffffffffffffffffffffff1681526020019081526020016000206000828254611e769190613378565b9250508190555084600160008473ffffffffffffffffffffffffffffffffffffffff1673ffffffffffffffffffffffffffffffffffffffff16815260200190815260200160002060008373ffffffffffffffffffffffffffffffffffffffff1673ffffffffffffffffffffffffffffffffffffffff1681526020019081526020016000208190555050505b7fdef0f31451edb45073f38f2b372985fe138ee585432d98d59ffd45b6097ab97e858585604051611f3493929190614349565b60405180910390a15b5050505050565b6000600984604051611f5691906142f4565b908152602001604051809103902054905081811015611faf577faa7f93bbb0659f61a11b680e0590ab23205967a5bdaa928dae6372df0bb93267848284604051611fa29392919061430b565b60405180910390a1612045565b818103600985604051611fc291906142f4565b90815260200160405180910390208190555081600984604051611fe591906142f4565b908152602001604051809103902060008282546120029190613378565b925050819055507f1d8380031597508b7d5d3df4999b8136789b62ed932115f9eb5897e19903792e84848460405161203c93929190614349565b60405180910390a15b50505050565b80156122a457600061205c86612313565b9050600061206986612313565b90506000600160008373ffffffffffffffffffffffffffffffffffffffff1673ffffffffffffffffffffffffffffffffffffffff16815260200190815260200160002060008473ffffffffffffffffffffffffffffffffffffffff1673ffffffffffffffffffffffffffffffffffffffff16815260200190815260200160002054905084811015612133577f4704aea2c6ecd240514f4f7dffe7f8403381ec5f3d7b1eade3be30e4f68785968860405161212391906143da565b60405180910390a150505061230c565b60008060008473ffffffffffffffffffffffffffffffffffffffff1673ffffffffffffffffffffffffffffffffffffffff168152602001908152602001600020549050858110156121be577f4704aea2c6ecd240514f4f7dffe7f8403381ec5f3d7b1eade3be30e4f6878596896040516121ad919061445b565b60405180910390a15050505061230c565b858203600160008573ffffffffffffffffffffffffffffffffffffffff1673ffffffffffffffffffffffffffffffffffffffff16815260200190815260200160002060008673ffffffffffffffffffffffffffffffffffffffff1673ffffffffffffffffffffffffffffffffffffffff168152602001908152602001600020819055508581036000808573ffffffffffffffffffffffffffffffffffffffff1673ffffffffffffffffffffffffffffffffffffffff16815260200190815260200160002081905550856002600082825461229891906136d4565b92505081905550505050505b816009846040516122b591906142f4565b9081526020016040518091039020600082825401925050819055507f67e3ad403202450551624c0c8b76e0de82a103bbc467062b0b3944ddb48b154e84848460405161230393929190614349565b60405180910390a15b5050505050565b600080828051906020012090508060001c915050919050565b8060098360405161233d91906142f4565b9081526020016040518091039020600082825461235a9190613378565b925050819055507f1d8380031597508b7d5d3df4999b8136789b62ed932115f9eb5897e19903792e82826040516123929291906144b6565b60405180910390a15050565b6123a661159a565b73ffffffffffffffffffffffffffffffffffffffff166123c46111bd565b73ffffffffffffffffffffffffffffffffffffffff161461241a576040517f08c379a000000000000000000000000000000000000000000000000000000000815260040161241190614545565b60405180910390fd5b565b6000600560009054906101000a900473ffffffffffffffffffffffffffffffffffffffff16905081600560006101000a81548173ffffffffffffffffffffffffffffffffffffffff021916908373ffffffffffffffffffffffffffffffffffffffff1602179055508173ffffffffffffffffffffffffffffffffffffffff168173ffffffffffffffffffffffffffffffffffffffff167f8be0079c531659141344cd1fd0a4f28419497f9722a3daafe3b4186f6b6457e060405160405180910390a35050565b505050565b505050565b604051806040016040528060608152602001600081525090565b82805461251290612e7c565b90600052602060002090601f0160209004810192826125345760008555612582565b82601f106125455780548555612582565b8280016001018555821561258257600052602060002091601f016020900482015b82811115612581578254825591600101919060010190612566565b5b50905061258f91906126df565b5090565b50805461259f90612e7c565b6000825580601f106125b157506125d0565b601f0160209004906000526020600020908101906125cf91906126df565b5b50565b8280546125df90612e7c565b90600052602060002090601f0160209004810192826126015760008555612648565b82601f1061261a57803560ff1916838001178555612648565b82800160010185558215612648579182015b8281111561264757823582559160200191906001019061262c565b5b50905061265591906126df565b5090565b82805461266590612e7c565b90600052602060002090601f01602090048101928261268757600085556126ce565b82601f106126a057805160ff19168380011785556126ce565b828001600101855582156126ce579182015b828111156126cd5782518255916020019190600101906126b2565b5b5090506126db91906126df565b5090565b5b808211156126f85760008160009055506001016126e0565b5090565b600081519050919050565b600082825260208201905092915050565b60005b8381101561273657808201518184015260208101905061271b565b83811115612745576000848401525b50505050565b6000601f19601f8301169050919050565b6000612767826126fc565b6127718185612707565b9350612781818560208601612718565b61278a8161274b565b840191505092915050565b600060208201905081810360008301526127af818461275c565b905092915050565b6000604051905090565b600080fd5b600080fd5b600073ffffffffffffffffffffffffffffffffffffffff82169050919050565b60006127f6826127cb565b9050919050565b612806816127eb565b811461281157600080fd5b50565b600081359050612823816127fd565b92915050565b6000819050919050565b61283c81612829565b811461284757600080fd5b50565b60008135905061285981612833565b92915050565b60008060408385031215612876576128756127c1565b5b600061288485828601612814565b92505060206128958582860161284a565b9150509250929050565b60008115159050919050565b6128b48161289f565b82525050565b60006020820190506128cf60008301846128ab565b92915050565b600081519050919050565b600082825260208201905092915050565b60006128fc826128d5565b61290681856128e0565b9350612916818560208601612718565b61291f8161274b565b840191505092915050565b61293381612829565b82525050565b6000604083016000830151848203600086015261295682826128f1565b915050602083015161296b602086018261292a565b508091505092915050565b600060208201905081810360008301526129908184612939565b905092915050565b6129a181612829565b82525050565b60006020820190506129bc6000830184612998565b92915050565b600080fd5b600060c082840312156129dd576129dc6129c2565b5b81905092915050565b6000602082840312156129fc576129fb6127c1565b5b600082013567ffffffffffffffff811115612a1a57612a196127c6565b5b612a26848285016129c7565b91505092915050565b6000819050919050565b6000612a54612a4f612a4a846127cb565b612a2f565b6127cb565b9050919050565b6000612a6682612a39565b9050919050565b6000612a7882612a5b565b9050919050565b612a8881612a6d565b82525050565b6000602082019050612aa36000830184612a7f565b92915050565b600080600060608486031215612ac257612ac16127c1565b5b6000612ad086828701612814565b9350506020612ae186828701612814565b9250506040612af28682870161284a565b9150509250925092565b600060ff82169050919050565b612b1281612afc565b82525050565b6000602082019050612b2d6000830184612b09565b92915050565b600060208284031215612b4957612b486127c1565b5b6000612b5784828501612814565b91505092915050565b600080fd5b600080fd5b600080fd5b60008083601f840112612b8557612b84612b60565b5b8235905067ffffffffffffffff811115612ba257612ba1612b65565b5b602083019150836001820283011115612bbe57612bbd612b6a565b5b9250929050565b60008060208385031215612bdc57612bdb6127c1565b5b600083013567ffffffffffffffff811115612bfa57612bf96127c6565b5b612c0685828601612b6f565b92509250509250929050565b60008083601f840112612c2857612c27612b60565b5b8235905067ffffffffffffffff811115612c4557612c44612b65565b5b602083019150836020820283011115612c6157612c60612b6a565b5b9250929050565b60008060208385031215612c7f57612c7e6127c1565b5b600083013567ffffffffffffffff811115612c9d57612c9c6127c6565b5b612ca985828601612c12565b92509250509250929050565b612cbe816127eb565b82525050565b6000602082019050612cd96000830184612cb5565b92915050565b600081519050919050565b600082825260208201905092915050565b6000819050602082019050919050565b600082825260208201905092915050565b6000612d27826126fc565b612d318185612d0b565b9350612d41818560208601612718565b612d4a8161274b565b840191505092915050565b6000612d618383612d1c565b905092915050565b6000602082019050919050565b6000612d8182612cdf565b612d8b8185612cea565b935083602082028501612d9d85612cfb565b8060005b85811015612dd95784840389528151612dba8582612d55565b9450612dc583612d69565b925060208a01995050600181019050612da1565b50829750879550505050505092915050565b60006020820190508181036000830152612e058184612d76565b905092915050565b60008060408385031215612e2457612e236127c1565b5b6000612e3285828601612814565b9250506020612e4385828601612814565b9150509250929050565b7f4e487b7100000000000000000000000000000000000000000000000000000000600052602260045260246000fd5b60006002820490506001821680612e9457607f821691505b60208210811415612ea857612ea7612e4d565b5b50919050565b7f4e487b7100000000000000000000000000000000000000000000000000000000600052603260045260246000fd5b600082825260208201905092915050565b60008190508160005260206000209050919050565b60008154612f1081612e7c565b612f1a8186612edd565b94506001821660008114612f355760018114612f4757612f7a565b60ff1983168652602086019350612f7a565b612f5085612eee565b60005b83811015612f7257815481890152600182019150602081019050612f53565b808801955050505b50505092915050565b60006040820190508181036000830152612f9d8185612f03565b9050612fac6020830184612998565b9392505050565b600080fd5b7f4e487b7100000000000000000000000000000000000000000000000000000000600052604160045260246000fd5b612ff08261274b565b810181811067ffffffffffffffff8211171561300f5761300e612fb8565b5b80604052505050565b60006130226127b7565b905061302e8282612fe7565b919050565b600080fd5b60008151905061304781612833565b92915050565b600080fd5b600067ffffffffffffffff82111561306d5761306c612fb8565b5b6130768261274b565b9050602081019050919050565b600061309661309184613052565b613018565b9050828152602081018484840111156130b2576130b161304d565b5b6130bd848285612718565b509392505050565b600082601f8301126130da576130d9612b60565b5b81516130ea848260208601613083565b91505092915050565b600067ffffffffffffffff82111561310e5761310d612fb8565b5b6131178261274b565b9050602081019050919050565b6000613137613132846130f3565b613018565b9050828152602081018484840111156131535761315261304d565b5b61315e848285612718565b509392505050565b600082601f83011261317b5761317a612b60565b5b815161318b848260208601613124565b91505092915050565b600060c082840312156131aa576131a9612fb3565b5b6131b460c0613018565b905060006131c484828501613038565b600083015250602082015167ffffffffffffffff8111156131e8576131e7613033565b5b6131f4848285016130c5565b602083015250604082015167ffffffffffffffff81111561321857613217613033565b5b61322484828501613166565b604083015250606082015167ffffffffffffffff81111561324857613247613033565b5b613254848285016130c5565b606083015250608082015167ffffffffffffffff81111561327857613277613033565b5b61328484828501613166565b60808301525060a082015167ffffffffffffffff8111156132a8576132a7613033565b5b6132b484828501613166565b60a08301525092915050565b600080604083850312156132d7576132d66127c1565b5b600083015167ffffffffffffffff8111156132f5576132f46127c6565b5b61330185828601613194565b925050602061331285828601613038565b9150509250929050565b600060208284031215613332576133316127c1565b5b600061334084828501613038565b91505092915050565b7f4e487b7100000000000000000000000000000000000000000000000000000000600052601160045260246000fd5b600061338382612829565b915061338e83612829565b9250827fffffffffffffffffffffffffffffffffffffffffffffffffffffffffffffffff038211156133c3576133c2613349565b5b828201905092915050565b82818337600083830152505050565b60006133f06133eb84613052565b613018565b90508281526020810184848401111561340c5761340b61304d565b5b6134178482856133ce565b509392505050565b600082601f83011261343457613433612b60565b5b81356134448482602086016133dd565b91505092915050565b600061346061345b846130f3565b613018565b90508281526020810184848401111561347c5761347b61304d565b5b6134878482856133ce565b509392505050565b600082601f8301126134a4576134a3612b60565b5b81356134b484826020860161344d565b91505092915050565b600060c082840312156134d3576134d2612fb3565b5b6134dd60c0613018565b905060006134ed8482850161284a565b600083015250602082013567ffffffffffffffff81111561351157613510613033565b5b61351d8482850161341f565b602083015250604082013567ffffffffffffffff81111561354157613540613033565b5b61354d8482850161348f565b604083015250606082013567ffffffffffffffff81111561357157613570613033565b5b61357d8482850161341f565b606083015250608082013567ffffffffffffffff8111156135a1576135a0613033565b5b6135ad8482850161348f565b60808301525060a082013567ffffffffffffffff8111156135d1576135d0613033565b5b6135dd8482850161348f565b60a08301525092915050565b60006135f536836134bd565b9050919050565b7f4e6f2064656c6179656420747800000000000000000000000000000000000000600082015250565b6000613632600d83612707565b915061363d826135fc565b602082019050919050565b6000602082019050818103600083015261366181613625565b9050919050565b7f4e6f742065786563757461626c65000000000000000000000000000000000000600082015250565b600061369e600e83612707565b91506136a982613668565b602082019050919050565b600060208201905081810360008301526136cd81613691565b9050919050565b60006136df82612829565b91506136ea83612829565b9250828210156136fd576136fc613349565b5b828203905092915050565b7f4e487b7100000000000000000000000000000000000000000000000000000000600052603160045260246000fd5b61374081612afc565b811461374b57600080fd5b50565b60008151905061375d81613737565b92915050565b6000806040838503121561377a576137796127c1565b5b60006137888582860161374e565b925050602083015167ffffffffffffffff8111156137a9576137a86127c6565b5b6137b585828601613166565b9150509250929050565b600080604083850312156137d6576137d56127c1565b5b600083015167ffffffffffffffff8111156137f4576137f36127c6565b5b61380085828601613166565b925050602061381185828601613038565b9150509250929050565b600060208284031215613831576138306127c1565b5b600082015167ffffffffffffffff81111561384f5761384e6127c6565b5b61385b848285016130c5565b91505092915050565b60008060006060848603121561387d5761387c6127c1565b5b600084015167ffffffffffffffff81111561389b5761389a6127c6565b5b6138a786828701613166565b935050602084015167ffffffffffffffff8111156138c8576138c76127c6565b5b6138d486828701613166565b92505060406138e586828701613038565b9150509250925092565b60006138fa826128d5565b6139048185612edd565b9350613914818560208601612718565b61391d8161274b565b840191505092915050565b6000602082019050818103600083015261394281846138ef565b905092915050565b6000604082019050818103600083015261396481856138ef565b90506139736020830184612b09565b9392505050565b600081905092915050565b6000613991838561397a565b935061399e8385846133ce565b82840190509392505050565b60006139b7828486613985565b91508190509392505050565b600080fd5b600080fd5b600080fd5b600080833560016020038436030381126139ef576139ee6139c3565b5b80840192508235915067ffffffffffffffff821115613a1157613a106139c8565b5b602083019250600182023603831315613a2d57613a2c6139cd565b5b509250929050565b60008190508160005260206000209050919050565b60008154613a5781612e7c565b613a61818661397a565b94506001821660008114613a7c5760018114613a8d57613ac0565b60ff19831686528186019350613ac0565b613a9685613a35565b60005b83811015613ab857815481890152600182019150602081019050613a99565b838801955050505b50505092915050565b6000613ad58284613a4a565b915081905092915050565b6000613aeb82612829565b91507fffffffffffffffffffffffffffffffffffffffffffffffffffffffffffffffff821415613b1e57613b1d613349565b5b600182019050919050565b7f45524332303a2064656372656173656420616c6c6f77616e63652062656c6f7760008201527f207a65726f000000000000000000000000000000000000000000000000000000602082015250565b6000613b85602583612707565b9150613b9082613b29565b604082019050919050565b60006020820190508181036000830152613bb481613b78565b9050919050565b7f4f776e61626c653a206e6577206f776e657220697320746865207a65726f206160008201527f6464726573730000000000000000000000000000000000000000000000000000602082015250565b6000613c17602683612707565b9150613c2282613bbb565b604082019050919050565b60006020820190508181036000830152613c4681613c0a565b9050919050565b7f45524332303a20617070726f76652066726f6d20746865207a65726f2061646460008201527f7265737300000000000000000000000000000000000000000000000000000000602082015250565b6000613ca9602483612707565b9150613cb482613c4d565b604082019050919050565b60006020820190508181036000830152613cd881613c9c565b9050919050565b7f45524332303a20617070726f766520746f20746865207a65726f20616464726560008201527f7373000000000000000000000000000000000000000000000000000000000000602082015250565b6000613d3b602283612707565b9150613d4682613cdf565b604082019050919050565b60006020820190508181036000830152613d6a81613d2e565b9050919050565b60008190508160005260206000209050919050565b60008154613d9381612e7c565b613d9d8186612707565b94506001821660008114613db85760018114613dca57613dfd565b60ff1983168652602086019350613dfd565b613dd385613d71565b60005b83811015613df557815481890152600182019150602081019050613dd6565b808801955050505b50505092915050565b60006020820190508181036000830152613e208184613d86565b905092915050565b7f57726f6e672064657374696e6174696f6e000000000000000000000000000000600082015250565b6000613e5e601183612707565b9150613e6982613e28565b602082019050919050565b60006020820190508181036000830152613e8d81613e51565b9050919050565b613e9d8161289f565b8114613ea857600080fd5b50565b600081519050613eba81613e94565b92915050565b600060208284031215613ed657613ed56127c1565b5b6000613ee484828501613eab565b91505092915050565b7f55736572206973206d616c6963696f7573000000000000000000000000000000600082015250565b6000613f23601183612707565b9150613f2e82613eed565b602082019050919050565b60006020820190508181036000830152613f5281613f16565b9050919050565b600060c083016000830151613f71600086018261292a565b5060208301518482036020860152613f898282612d1c565b91505060408301518482036040860152613fa382826128f1565b91505060608301518482036060860152613fbd8282612d1c565b91505060808301518482036080860152613fd782826128f1565b91505060a083015184820360a0860152613ff182826128f1565b9150508091505092915050565b600060208201905081810360008301526140188184613f59565b905092915050565b6002811061402d57600080fd5b50565b60008151905061403f81614020565b92915050565b60006020828403121561405b5761405a6127c1565b5b600061406984828501614030565b91505092915050565b7f4e487b7100000000000000000000000000000000000000000000000000000000600052602160045260246000fd5b7f45524332303a20696e73756666696369656e7420616c6c6f77616e6365000000600082015250565b60006140d7601d83612707565b91506140e2826140a1565b602082019050919050565b60006020820190508181036000830152614106816140ca565b9050919050565b7f45524332303a207472616e736665722066726f6d20746865207a65726f20616460008201527f6472657373000000000000000000000000000000000000000000000000000000602082015250565b6000614169602583612707565b91506141748261410d565b604082019050919050565b600060208201905081810360008301526141988161415c565b9050919050565b7f45524332303a207472616e7366657220746f20746865207a65726f206164647260008201527f6573730000000000000000000000000000000000000000000000000000000000602082015250565b60006141fb602383612707565b91506142068261419f565b604082019050919050565b6000602082019050818103600083015261422a816141ee565b9050919050565b7f45524332303a207472616e7366657220616d6f756e742065786365656473206260008201527f616c616e63650000000000000000000000000000000000000000000000000000602082015250565b600061428d602683612707565b915061429882614231565b604082019050919050565b600060208201905081810360008301526142bc81614280565b9050919050565b60006142ce826128d5565b6142d8818561397a565b93506142e8818560208601612718565b80840191505092915050565b600061430082846142c3565b915081905092915050565b6000606082019050818103600083015261432581866138ef565b90506143346020830185612998565b6143416040830184612998565b949350505050565b6000606082019050818103600083015261436381866138ef565b9050818103602083015261437781856138ef565b90506143866040830184612998565b949350505050565b7f496e73756666696369656e7420616c6c6f77616e636500000000000000000000600082015250565b60006143c4601683612707565b91506143cf8261438e565b602082019050919050565b600060408201905081810360008301526143f481846138ef565b90508181036020830152614407816143b7565b905092915050565b7f5472616e7366657220616d6f756e7420657863656564732062616c616e636500600082015250565b6000614445601f83612707565b91506144508261440f565b602082019050919050565b6000604082019050818103600083015261447581846138ef565b9050818103602083015261448881614438565b905092915050565b50565b60006144a0600083612edd565b91506144ab82614490565b600082019050919050565b600060608201905081810360008301526144cf81614493565b905081810360208301526144e381856138ef565b90506144f26040830184612998565b9392505050565b7f4f776e61626c653a2063616c6c6572206973206e6f7420746865206f776e6572600082015250565b600061452f602083612707565b915061453a826144f9565b602082019050919050565b6000602082019050818103600083015261455e81614522565b905091905056fea264697066735822122074e9f2ce53d55c311e504b4ea443feadaf8591230feb38e6163b18f3ed722cbd64736f6c634300080c0033",
  "immutableReferences": {},
  "source": "// SPDX-License-Identifier: MIT\npragma solidity >=0.8.0 <0.9.0;\n\nimport \"@openzeppelin/contracts/access/Ownable.sol\";\nimport \"./ERC20.sol\";\nimport \"./interfaces/IOmniverseProtocol.sol\";\nimport \"./interfaces/IOmniverseFungible.sol\";\n\ncontract SkywalkerFungible is ERC20, Ownable, IOmniverseFungible {\n    struct DelayedTx {\n        bytes sender;\n        uint256 nonce;\n    }\n\n    IOmniverseProtocol public omniverseProtocol;\n    string public tokenIdentity;\n    string[] members;\n    mapping(bytes => uint256) omniverseBalances;\n    mapping(bytes => uint256) prisons;\n    DelayedTx[] delayedTxs;\n\n    event OmniverseTokenTransfer(bytes from, bytes to, uint256 value);\n    event OmniverseTokenApproval(bytes owner, bytes spender, uint256 value);\n    event OmniverseTokenTransferFrom(bytes from, bytes to, uint256 value);\n    event OmniverseTokenExceedBalance(bytes owner, uint256 balance, uint256 value);\n    event OmniverseTokenWrongOp(bytes sender, uint8 op);\n    event OmniverseNotOwner(bytes sender);\n    event OmniverseError(bytes sender, string reason);\n\n    constructor(string memory _tokenId, string memory _name, string memory _symbol) ERC20(_name, _symbol) {\n        tokenIdentity = _tokenId;\n    }\n\n    /**\n     * @dev Set the address of the omniverse protocol\n     */\n    function setOmniverseProtocolAddress(address _address) public onlyOwner {\n        omniverseProtocol = IOmniverseProtocol(_address);\n    }\n\n    /**\n     * @dev See {IOmniverseFungible-omniverseTransfer}\n     * Transfer omniverse tokens to a user\n     */\n    function omniverseTransfer(OmniverseTokenProtocol calldata _data) external override {\n        _omniverseTransaction(_data);\n    }\n\n    /**\n     * @dev See {IOmniverseFungible-omniverseApprove}\n     * Approve omniverse tokens for a user\n     */\n    function omniverseApprove(OmniverseTokenProtocol calldata _data) external override {\n        _omniverseTransaction(_data);\n    }\n\n    /**\n     * @dev See {IOmniverseFungible-omniverseTransferFrom}\n     * Transfer omniverse tokens from a user to another user\n     */\n    function omniverseTransferFrom(OmniverseTokenProtocol calldata _data) external override {\n        _omniverseTransaction(_data);\n    }\n\n    function omniverseMint(OmniverseTokenProtocol calldata _data) external {\n        _omniverseTransaction(_data);\n    }\n\n    /**\n     * @dev Trigger the execution of the first delayed transaction\n     */\n    function triggerExecution() external {\n        require(delayedTxs.length > 0, \"No delayed tx\");\n\n        (OmniverseTokenProtocol memory txData, uint256 timestamp) = omniverseProtocol.getTransactionData(delayedTxs[0].sender, delayedTxs[0].nonce);\n        require(block.timestamp >= timestamp + omniverseProtocol.getCoolingDownTime(), \"Not executable\");\n        delayedTxs[0] = delayedTxs[delayedTxs.length - 1];\n        delayedTxs.pop();\n\n        (uint8 op, bytes memory wrappedData) = abi.decode(txData.data, (uint8, bytes));\n        if (op == APPROVE) {\n            (bytes memory spender, uint256 amount) = abi.decode(wrappedData, (bytes, uint256));\n            _omniverseApprove(txData.from, spender, amount, keccak256(bytes(txData.chainId)) == keccak256(bytes(omniverseProtocol.getChainId())));\n        }\n        else if (op == TRANSFER) {\n            (bytes memory to, uint256 amount) = abi.decode(wrappedData, (bytes, uint256));\n            _omniverseTransfer(txData.from, to, amount);\n        }\n        else if (op == TRANSFER_FROM) {\n            (bytes memory from, bytes memory to, uint256 amount) = abi.decode(wrappedData, (bytes, bytes, uint256));\n            _omniverseTransferFrom(txData.from, from, to, amount, keccak256(bytes(txData.chainId)) == keccak256(bytes(omniverseProtocol.getChainId())));\n        }\n        else if (op == MINT) {\n            address fromAddr = pkToAddress(txData.from);\n            if (fromAddr != owner()) {\n                emit OmniverseNotOwner(txData.from);\n                return;\n            }\n            (bytes memory to, uint256 amount) = abi.decode(wrappedData, (bytes, uint256));\n            _omniverseMint(to, amount);\n        }\n        else {\n            emit OmniverseTokenWrongOp(txData.from, op);\n        }\n    }\n\n    /**\n     * @dev Returns the nearest exexutable delayed transaction info\n     * or returns default if not found\n     */\n    function getExecutableDelayedTx() external view returns (DelayedTx memory ret) {\n        if (delayedTxs.length > 0) {\n            (, uint256 timestamp) = omniverseProtocol.getTransactionData(delayedTxs[0].sender, delayedTxs[0].nonce);\n            if (block.timestamp >= timestamp + omniverseProtocol.getCoolingDownTime()) {\n                ret = delayedTxs[0];\n            }\n        }\n    }\n\n    function getDelayedTxCount() external view returns (uint256) {\n        return delayedTxs.length;\n    }\n\n    /**\n     * @dev See {IOmniverseFungible-omniverseBalanceOf}\n     * Returns the omniverse balance of a user\n     */\n    function omniverseBalanceOf(bytes calldata _pk) external view override returns (uint256) {\n        return omniverseBalances[_pk];\n    }\n\n    function _omniverseTransaction(OmniverseTokenProtocol memory _data) internal {\n        // Check if the tx destination is correct\n        require(keccak256(abi.encode(_data.to)) == keccak256(abi.encode(tokenIdentity)), \"Wrong destination\");\n\n        // Check if the sender is honest\n        // to be continued, we can use block list instead of `isMalicious`\n        require(!omniverseProtocol.isMalicious(_data.from), \"User is malicious\");\n\n        // Verify the signature\n        VerifyResult verifyRet = omniverseProtocol.verifyTransaction(_data);\n        if (verifyRet == VerifyResult.Success) {\n            // Delays in executing\n            delayedTxs.push(DelayedTx(_data.from, _data.nonce));\n        }\n        else if (verifyRet == VerifyResult.Malicious) {\n            // Slash\n        }\n    }\n\n    function _omniverseTransfer(bytes memory _from, bytes memory _to, uint256 _amount) internal {\n        uint256 fromBalance = omniverseBalances[_from];\n        if (fromBalance < _amount) {\n            emit OmniverseTokenExceedBalance(_from, fromBalance, _amount);\n        }\n        else {\n            unchecked {\n                omniverseBalances[_from] = fromBalance - _amount;\n            }\n            omniverseBalances[_to] += _amount;\n\n            emit OmniverseTokenTransfer(_from, _to, _amount);\n        }\n    }\n\n    function _omniverseApprove(bytes memory _owner, bytes memory _spender, uint256 _amount, bool _thisChain) internal {\n        uint256 ownerBalance = omniverseBalances[_owner];\n        if (ownerBalance < _amount) {\n            emit OmniverseTokenExceedBalance(_owner, ownerBalance, _amount);\n        }\n        else {\n            unchecked {\n                omniverseBalances[_owner] = ownerBalance - _amount;\n            }\n            \n            if (_thisChain) {\n                address ownerAddr = pkToAddress(_owner);\n                address spenderAddr = pkToAddress(_spender);\n\n                // mint\n                _totalSupply += _amount;\n                _balances[ownerAddr] += _amount;\n                // approve\n                _allowances[ownerAddr][spenderAddr] = _amount;\n            }\n\n            emit OmniverseTokenApproval(_owner, _spender, _amount);\n        }\n    }\n\n    function _omniverseTransferFrom(bytes memory _spender, bytes memory _from, bytes memory _to, uint256 _amount, bool _thisChain) internal {\n        if (_thisChain) {\n            address spenderAddr = pkToAddress(_spender);\n            address fromAddr = pkToAddress(_from);\n            uint256 currentAllowance = _allowances[fromAddr][spenderAddr];\n            // Check\n            if(currentAllowance < _amount) {\n                emit OmniverseError(_spender, \"Insufficient allowance\");\n                return;\n            }\n\n            uint256 fromBalance = _balances[fromAddr];\n            if(fromBalance < _amount) {\n                emit OmniverseError(_spender, \"Transfer amount exceeds balance\");\n                return;\n            }\n\n            // Update\n            unchecked {\n                _allowances[fromAddr][spenderAddr] = currentAllowance - _amount;\n                _balances[fromAddr] = fromBalance - _amount;\n            }\n            _totalSupply -= _amount;\n        }\n\n        unchecked {\n            omniverseBalances[_to] += _amount;\n        }\n\n        emit OmniverseTokenTransferFrom(_from, _to, _amount);\n    }\n\n    function _omniverseMint(bytes memory _to, uint256 _amount) internal {\n        omniverseBalances[_to] += _amount;\n        emit OmniverseTokenTransfer(\"\", _to, _amount);\n    }\n\n    function pkToAddress(bytes memory _pk) internal pure returns (address) {\n        bytes32 hash = keccak256(_pk);\n        return address(uint160(uint256(hash)));\n    }\n\n    function getTime() external view returns (uint256) {\n        return block.timestamp;\n    }\n\n    function addMembers(string[] calldata _members) external onlyOwner {\n        for (uint256 i = 0; i < _members.length; i++) {\n            for (uint256 j = 0; j < members.length; j++) {\n                if (keccak256(bytes(members[j])) == keccak256(bytes(_members[i]))) {\n                    break;\n                }\n            }\n            members.push(_members[i]);\n        }\n    }\n\n    function getMembers() external view returns (string[] memory) {\n        return members;\n    }\n}",
  "sourcePath": "/home/george/program/dante/omniverse-evm/contracts/contracts/SkywalkerFungible.sol",
  "compiler": {
    "name": "solc",
    "version": "0.8.12+commit.f00d7308.Emscripten.clang"
  },
  "schemaVersion": "3.4.6",
  "updatedAt": "2022-10-25T05:40:24.234Z",
  "networkType": "ethereum",
  "devdoc": {
    "kind": "dev",
    "methods": {
      "allowance(address,address)": {
        "details": "See {IERC20-allowance}."
      },
      "approve(address,uint256)": {
        "details": "See {IERC20-approve}. NOTE: If `amount` is the maximum `uint256`, the allowance is not updated on `transferFrom`. This is semantically equivalent to an infinite approval. Requirements: - `spender` cannot be the zero address."
      },
      "balanceOf(address)": {
        "details": "See {IERC20-balanceOf}."
      },
      "decimals()": {
        "details": "Returns the number of decimals used to get its user representation. For example, if `decimals` equals `2`, a balance of `505` tokens should be displayed to a user as `5.05` (`505 / 10 ** 2`). Tokens usually opt for a value of 18, imitating the relationship between Ether and Wei. This is the value {ERC20} uses, unless this function is overridden; NOTE: This information is only used for _display_ purposes: it in no way affects any of the arithmetic of the contract, including {IERC20-balanceOf} and {IERC20-transfer}."
      },
      "decreaseAllowance(address,uint256)": {
        "details": "Atomically decreases the allowance granted to `spender` by the caller. This is an alternative to {approve} that can be used as a mitigation for problems described in {IERC20-approve}. Emits an {Approval} event indicating the updated allowance. Requirements: - `spender` cannot be the zero address. - `spender` must have allowance for the caller of at least `subtractedValue`."
      },
      "getExecutableDelayedTx()": {
        "details": "Returns the nearest exexutable delayed transaction info or returns default if not found"
      },
      "increaseAllowance(address,uint256)": {
        "details": "Atomically increases the allowance granted to `spender` by the caller. This is an alternative to {approve} that can be used as a mitigation for problems described in {IERC20-approve}. Emits an {Approval} event indicating the updated allowance. Requirements: - `spender` cannot be the zero address."
      },
      "name()": {
        "details": "Returns the name of the token."
      },
      "omniverseApprove((uint256,string,bytes,string,bytes,bytes))": {
        "details": "See {IOmniverseFungible-omniverseApprove} Approve omniverse tokens for a user"
      },
      "omniverseBalanceOf(bytes)": {
        "details": "See {IOmniverseFungible-omniverseBalanceOf} Returns the omniverse balance of a user"
      },
      "omniverseTransfer((uint256,string,bytes,string,bytes,bytes))": {
        "details": "See {IOmniverseFungible-omniverseTransfer} Transfer omniverse tokens to a user"
      },
      "omniverseTransferFrom((uint256,string,bytes,string,bytes,bytes))": {
        "details": "See {IOmniverseFungible-omniverseTransferFrom} Transfer omniverse tokens from a user to another user"
      },
      "owner()": {
        "details": "Returns the address of the current owner."
      },
      "renounceOwnership()": {
        "details": "Leaves the contract without owner. It will not be possible to call `onlyOwner` functions anymore. Can only be called by the current owner. NOTE: Renouncing ownership will leave the contract without an owner, thereby removing any functionality that is only available to the owner."
      },
      "setOmniverseProtocolAddress(address)": {
        "details": "Set the address of the omniverse protocol"
      },
      "symbol()": {
        "details": "Returns the symbol of the token, usually a shorter version of the name."
      },
      "totalSupply()": {
        "details": "See {IERC20-totalSupply}."
      },
      "transfer(address,uint256)": {
        "details": "See {IERC20-transfer}. Requirements: - `to` cannot be the zero address. - the caller must have a balance of at least `amount`."
      },
      "transferFrom(address,address,uint256)": {
        "details": "See {IERC20-transferFrom}. Emits an {Approval} event indicating the updated allowance. This is not required by the EIP. See the note at the beginning of {ERC20}. NOTE: Does not update the allowance if the current allowance is the maximum `uint256`. Requirements: - `from` and `to` cannot be the zero address. - `from` must have a balance of at least `amount`. - the caller must have allowance for ``from``'s tokens of at least `amount`."
      },
      "transferOwnership(address)": {
        "details": "Transfers ownership of the contract to a new account (`newOwner`). Can only be called by the current owner."
      },
      "triggerExecution()": {
        "details": "Trigger the execution of the first delayed transaction"
      }
    },
    "version": 1
  },
  "userdoc": {
    "kind": "user",
    "methods": {},
    "version": 1
  }
}